:040000001BEF31F0D1
:08000800046ED8CF05F0E0CF33
:1000100006F00001E9CF0CF0EACF07F0E1CF08F0DD
:10002000E2CF09F0D9CF0AF0DACF0BF0F3CF12F01C
:10003000F4CF13F0FACF14F0F5CF15F0F6CF16F099
:10004000F7CF17F000C00EF001C00FF002C010F0A3
:1000500003C011F09DA030EF00F09EB0E3EF02F07E
:100060009DA236EF00F09EB2E6EF02F09DAA3CEFB3
:1000700000F09EBADBEF02F00EC000F00FC001F0FE
:1000800010C002F011C003F00CC0E9FF07C0EAFF86
:10009000078E08C0E1FF09C0E2FF0AC0D9FF0BC00C
:1000A000DAFF12C0F3FF13C0F4FF14C0FAFF15C04B
:1000B000F5FF16C0F6FF17C0F7FF045006C0E0FFBB
:1000C00005C0D8FF1000F76AD60FF66E000EF722B3
:1000D0000900F550120000C1814001C0804101C0FB
:1000E000804100C1814001C0804100C1814000C108
:1000F000814001C0804101C0804100C1814000C1F8
:10010000814001C0804100C1814001C0804101C0E7
:10011000804100C1814001C0804100C1814000C1D7
:10012000814001C0804100C1814001C0804101C0C7
:10013000804100C1814000C1814001C0804101C0B7
:10014000804100C1814001C0804100C1814000C1A7
:10015000814001C0804101C0804100C1814000C197
:10016000814001C0804100C1814001C0804101C087
:10017000804100C1814000C1814001C0804101C077
:10018000804100C1814001C0804100C1814000C167
:10019000814001C0804100C1814001C0804101C057
:1001A000804100C1814001C0804100C1814000C147
:1001B000814001C0804101C0804100C1814000C137
:1001C000814001C0804100C1814001C0804101C027
:1001D000804100C18140F76AE60FF66E010EF722FA
:1001E0000900F550120000C0C101C30302C2C606D7
:1001F00007C705C5C404CC0C0DCD0FCFCE0E0ACA5F
:10020000CB0BC90908C8D81819D91BDBDA1A1EDEAE
:10021000DF1FDD1D1CDC14D4D515D71716D6D2125E
:1002200013D311D1D010F03031F133F3F23236F66E
:10023000F737F53534F43CFCFD3DFF3F3EFEFA3A1E
:100240003BFB39F9F83828E8E929EB2B2AEAEE2EAE
:100250002FEF2DEDEC2CE42425E527E7E62622E21E
:10026000E323E12120E0A06061A163A3A26266A66E
:10027000A767A56564A46CACAD6DAF6F6EAEAA6ADE
:100280006BAB69A9A86878B8B979BB7B7ABABE7E2E
:100290007FBF7DBDBC7CB47475B577B7B67672B2DE
:1002A000B373B17170B0509091519353529296566E
:1002B0005797559594549C5C5D9D5F9F9E5E5A9A9E
:1002C0009B5B99595898884849894B8B8A4A4E8E2E
:1002D0008F4F8D4D4C8C448485458747468682429E
:1002E00043834181804041542B434D47463D31007B
:1002F00041542B434D47533D2200040066516F5D2E
:1003000017E1726B716B730E7125E96E010E72212C
:10031000EA6E30C0EFFF0400712BD8B4722B100EC0
:100320006F6F0701CA6B140E05017E6F41D100018A
:100330006F51100852E1730E7125E96E010E7221A2
:10034000EA6E30C0EFFF0400712BD8B4722B0101AC
:100350007451160807E367C06FF0140E05017E6F35
:100360003AD001017451200807E16AC06FF0140E01
:1003700005017E6F30D001017451210806E16DC086
:100380006FF0140E05017E6F26D0010E0001715D25
:100390000701DF6F000E000172590701E06F730E55
:1003A000DF25E96E010EE021EA6EEF50220807E139
:1003B0006CC06FF0140E05017E6F0DD007010001B7
:1003C000726B716B66C06FF005017E6B8A969396B7
:1003D0000701CA6B0501ECD000016C516F5D13E1A0
:1003E000730E7125E96E010E7221EA6E30C0EFFFC7
:1003F0000400712BD8B4722B6DC06FF0140E050180
:100400007E6FD6D000016D516F5D33E1730E7125A3
:10041000E96E010E7221EA6E30C0EFFF0400712B0D
:10042000D8B4722B01017451220809E17551640D91
:10043000F350762505017F6F806B15D00101010E09
:100440000001715D0701DF6F000E000172590701A5
:10045000E06F730EDF25E96E010EE021EA6E050103
:10046000806BEFCF7FF5140E7E6F6EC06FF0A0D063
:1004700000016E516F5D1BE1730E7125E96E010E77
:100480007221EA6E30C0EFFF0400712BD8B4722BDA
:1004900005017F51D8B480077F077F5304E1805363
:1004A00002E16AC06FF0140E7E6F82D000016751C6
:1004B0006F5D13E1730E7125E96E010E7221EA6E14
:1004C00030C0EFFF0400712BD8B4722B68C06FF0FE
:1004D000140E05017E6F6CD0000168516F5D13E151
:1004E000730E7125E96E010E7221EA6E30C0EFFFC6
:1004F0000400712BD8B4722B69C06FF0140E050183
:100500007E6F56D0000169516F5D13E1730E712546
:10051000E96E010E7221EA6E30C0EFFF0400712B0C
:10052000D8B4722B150E6F6F140E05017E6F40D07C
:1005300000016F51150813E1730E7125E96E010E6C
:100540007221EA6E30C0EFFF0400712BD8B4722B19
:100550006AC06FF0140E05017E6F2AD000016A5147
:100560006F5D13E1730E7125E96E010E7221EA6E63
:1005700030C0EFFF0400712BD8B4722B6BC06FF04A
:10058000140E05017E6F14D000016B516F5D10E1F8
:10059000730E7125E96E010E7221EA6E30C0EFFF15
:1005A000040066C06FF005017E6B328C8A969396CC
:1005B0000001E0EF02F09EAAFED7AECF30F09DD64C
:1005C0009E9A3CEF00F09E903CEF00F01B2A050144
:1005D0007E5307E07E077E5304E166C06FF08A9683
:1005E00093961E521DE01E061E521AE11F5204E091
:1005F0001F061F5201E11C840001652B6551010893
:1006000003E23288020E656F0701742B74510408EF
:1006100003E2746B010E736F328A640E1E6E050165
:100620001B50320814E11B6A1CB004D01C808A8A5B
:10063000939A03D01C908A9A939A1CAC07D031529B
:1006400001E03106315201E11C8A01D0316A1D52AC
:1006500013E01D061D520AE1816932B405D01CA2C7
:1006600002D01C9201D01C8262C01DF0335204E003
:100670003306335201E132949E9200013CEF00F0C8
:1006800041542B434D47463D3100070EEA6ED80ECC
:10069000E96EEF5011E0050E016EBF0E006E040012
:1006A000002EFDD7012EF9D72E0E006E002EFED79C
:1006B00000000400EF2EEFD71200929A899A0701EA
:1006C000D9514009DC6FC950DCC7C9FFC730FEE310
:1006D000C950DAC7C9FFC730FEE3C950DBC7C9FF3D
:1006E000C730FEE3929A898A00011200929A898AA1
:1006F000929A0701D96B0A0EDA6FAA0EDB6F00011E
:10070000DCDF020E0701D96F0A0EDA6FAA0EDB6F6B
:100710000001D3DF040E0701D96F0A0EDA6FAA0EAB
:10072000DB6F0001CADF060E0701D96F0A0EDA6F10
:10073000AA0EDB6F0001C1DF080E0701D96F0A0E98
:10074000DA6FAA0EDB6F0001B8DF0A0E0701D96F5E
:10075000DA6FAA0EDB6F0001B0DF0C0E0701D96F54
:100760000A0EDA6FAA0EDB6F0001A7DF0E0E07017B
:10077000D96F0A0EDA6FAA0EDB6F00019EDF9FEFC2
:1007800031F0CFC7D9F70701DA6BD0C7DBF700012B
:1007900094DF1200CFC7D9F7100E0701DA6FD0C768
:1007A000DBF700018ADF1200F2CFD9F7F29EAA6AC6
:1007B000010EA96EA69CA69EA680A8500701D9BFCF
:1007C000F28E3C6E3CC03DF079913CB07981D8907E
:1007D0003C307993E8B079833C30006E00323F0EB4
:1007E0000016799500B079853C30006E00320032F9
:1007F0001F0E0016799700B079873C38006E0F0EF7
:100800000016799900B079893C38006E0032070EE5
:100810000016799B00B0798B3C38006E00320032B4
:10082000030E0016799D00B0798D006A3CBE0080F1
:10083000799F00B0798FF2CFD9F7F29EAA6A020EA3
:10084000A96EA69CA69EA680A850D9BFF28E3C6E2B
:100850003CC03EF07A913CB07A81D8903C307A939B
:10086000E8B07A83C39379B1C383C39579B3C38561
:10087000C39779B5C387C39979B7C389C39B79B93E
:10088000C38BC39D79BBC38DC39F79BDC38FC491F7
:1008900079BFC481C4937AB1C483C4957AB3C48543
:1008A000F2CFD9F7F29EAA6A040EA96EA69CA69E64
:1008B000A680A850D9BFF28E3C6E3CC040F07B9120
:1008C0003CB07B81D8903C307B93E8B07B833C305C
:1008D000006E00323F0E00167B9500B07B853C30E9
:1008E000006E003200321F0E00167B9700B07B872F
:1008F0003C38006E0F0E00167B9900B07B893C38A7
:10090000006E0032070E00167B9B00B07B8B3C38DC
:10091000006E00320032030E00167B9D00B07B8D0E
:10092000006A3CBE00807B9F00B07B8FF2CFD9F77E
:10093000F29EAA6A050EA96EA69CA69EA680A85045
:10094000D9BFF28E3C6E3CC041F07C913CB07C81C2
:10095000D8903C307C93E8B07C83F2CFD9F7F29EFC
:10096000AA6A070EA96EA69CA69EA680A850D9BF0B
:10097000F28E3C6E3CC043F07D913CB07D81D890BE
:100980003C307D93E8B07D833C30006E00323F0EFA
:1009900000167D9500B07D853C30006E003200323F
:1009A0001F0E00167D9700B07D873C38006E0F0E3D
:1009B00000167D9900B07D893C38006E0032070E2C
:1009C00000167D9B00B07D8B3C38006E00320032FB
:1009D000030E00167D9D00B07D8D006A3CBE008038
:1009E0007D9F00B07D8FF2CFD9F7F29EAA6A080EE4
:1009F000A96EA69CA69EA680A850D9BFF28E3C6E7A
:100A00003CC044F07E913CB07E81D8903C307E93D7
:100A1000E8B07E83F2CFD9F7F29EAA6A0A0EA96ED9
:100A2000A69CA69EA680A850D9BFF28E3C6E3CC064
:100A300046F07F913CB07F81D8903C307F93E8B006
:100A40007F833C30006E00323F0E00167F9500B071
:100A50007F853C30006E003200321F0E00167F97FB
:100A600000B07F873C38006E0F0E00167F9900B0F3
:100A70007F893C38006E0032070E00167F9B00B065
:100A80007F8B3C38006E00320032030E00167F9DD3
:100A900000B07F8D006A3CBE00807F9F00B07F8FDA
:100AA000F2CFD9F7F29EAA6A0B0EA96EA69CA69E5B
:100AB000A680A850D9BFF28E3C6E3CC047F0809112
:100AC0003CB08081D8903C308093E8B08083F2CFF6
:100AD000D9F7F29EAA6A0D0EA96EA69CA69EA680C4
:100AE000A850D9BFF28E3C6E3CC049F081913CB019
:100AF0008181D8903C308193E8B081833C30006E96
:100B000000323F0E0016819500B081853C30006EAA
:100B1000003200321F0E0016819700B081873C38EA
:100B2000006E0F0E0016819900B081893C38006E6E
:100B30000032070E0016819B00B0818B3C38006E9E
:100B400000320032030E0016819D00B0818D006AD4
:100B50003CBE0080819F00B0818FF2CFD9F7F29E1A
:100B6000AA6A0E0EA96EA69CA69EA680A850D9BF02
:100B7000F28E3C6E3CC04AF082913CB08281D890AB
:100B80003C308293E8B08283F2CFD9F7F29EAA6A12
:100B9000100EA96EA69CA69EA680A850D9BFF28E64
:100BA0003C6E8D913CB08D81D8903C308D93E8B0F7
:100BB0008D833C30006E00323F0E00168D9500B0E4
:100BC0008D853C30006E003200321F0E00168D976E
:100BD00000B08D873C38006E0F0E00168D9900B066
:100BE0008D893C38006E0032070E00168D9B00B0D8
:100BF0008D8B3C38006E00320032030E00168D9D46
:100C000000B08D8D006A3CBE00808D9F00B08D8F3E
:100C1000F2CFD9F7F29EAA6A110EA96EA69CA69EE3
:100C2000A680A850D9BFF28E3C6E8E913CB08E81CA
:100C3000D8903C308E93E8B08E83F2CFD9F7F29EF5
:100C4000AA6A140EA96EA69CA69EA680A850D9BF1B
:100C5000F28E3C6E8F913CB08F81D8903C308F9358
:100C6000E8B08F833C30006E00323F0E00168F9547
:100C700000B08F853C30006E003200321F0E00162F
:100C80008F9700B08F873C38006E0F0E00168F993B
:100C900000B08F893C38006E0032070E00168F9B23
:100CA00000B08F8B3C38006E00320032030E00160D
:100CB0008F9D00B08F8D006A3CBE00808F9F00B07A
:100CC0008F8FF2CFD9F7F29EAA6A150EA96EA69C55
:100CD000A69EA680A850D9BFF28E3C6E90913CB0E3
:100CE0009081D8903C309093E8B09083F2CFD9F7C0
:100CF000F29EAA6A180EA96EA69CA69EA680A8506F
:100D0000D9BFF28E0001606FF2CFD9F7F29EAA6AC6
:100D1000190EA96EA69CA69EA680A8500701D9BF51
:100D2000F28E0001616FF2CFD9F7F29EAA6A1A0E15
:100D3000A96EA69CA69EA680A8500701D9BFF28ED8
:100D40000001626FF2CFD9F7F29EAA6A1B0EA96E5C
:100D5000A69CA69EA680A8500701D9BFF28E0001CE
:100D6000636FF2CFD9F7F29EAA6A1C0EA96EA69CF9
:100D7000A69EA680A8500701D9BFF28EAE6BAD6FBC
:100D8000F2CFD9F7F29EAA6A1D0EA96EA69CA69E66
:100D9000A680A850D9BFF28E0001706FF2CFD9F7AC
:100DA000F29EAA6A1E0EA96EA69CA69EA680A850B8
:100DB0000701D9BFF28EB06BAF6FF2CFD9F7F29EB9
:100DC000AA6A1F0EA96EA69CA69EA680A850D9BF8F
:100DD000F28EB26BB16FF2CFD9F7F29EAA6A200EF3
:100DE000A96EA69CA69EA680A850D9BFF28EB46B11
:100DF000B36FF2CFD9F7F29EAA6A210EA96EA69C14
:100E0000A69EA680A850D9BFF28EB66BB56FF2CF62
:100E1000D9F7F29EAA6A220EA96EA69CA69EA6806B
:100E2000A850D9BFF28EB86BB76FF2CFD9F7F29E48
:100E3000AA6A230EA96EA69CA69EA680A850D9BF1A
:100E4000F28EBA6BB96FF2CFD9F7F29EAA6A240E6E
:100E5000A96EA69CA69EA680A850D9BFF28EBC6B98
:100E6000BB6FF2CFD9F7F29EAA6A250EA96EA69C97
:100E7000A69EA680A850D9BFF28EBE6BBD6FF2CFE2
:100E8000D9F7F29EAA6A260EA96EA69CA69EA680F7
:100E9000A850D9BFF28EC06BBF6FF2CFD9F7F29EC8
:100EA000AA6A270EA96EA69CA69EA680A850D9BFA6
:100EB000F28EC26BC16FF2CFD9F7F29EAA6A280EEA
:100EC000A96EA69CA69EA680A850D9BFF28EC46B20
:100ED000C36FF2CFD9F7F29EAA6A290EA96EA69C1B
:100EE000A69EA680A850D9BFF28EC66BC56FF2CF62
:100EF000D9F7F29EAA6A2A0EA96EA69CA69EA68083
:100F0000A850D9BFF28EC86BC76FF2CFD9F7F29E47
:100F1000AA6A2B0EA96EA69CA69EA680A850D9BF31
:100F2000F28ECA6BC96FF2CFD9F7F29EAA6A2C0E65
:100F3000A96EA69CA69EA680A850D9BFF28ECC6BA7
:100F4000CB6FF2CFD9F7F29EAA6A2D0EA96EA69C9E
:100F5000A69EA680A850D9BFF28ECE6BCD6FF2CFE1
:100F6000D9F7F29EAA6A2E0EA96EA69CA69EA6800E
:100F7000A850D9BFF28ED06BCF6FF2CFD9F7F29EC7
:100F8000AA6A2F0EA96EA69CA69EA680A850D9BFBD
:100F9000F28ED26BD16FF2CFD9F7F29EAA6A300EE1
:100FA000A96EA69CA69EA680A850D9BFF28ED46B2F
:100FB000D36FF2CFD9F7F29EAA6A310EA96EA69C22
:100FC000A69EA680A850D9BFF28ED66BD56FCF6BE8
:100FD0000400320ECF25D96FF2CFDAF7F29EAA6A5B
:100FE000D9C7A9FFA69CA69EA680A850DABFF28EFC
:100FF000D06FD0510D0803E0CF510F0824E2036AEF
:10100000CF51820FE96E050E0320EA6EEF6A320EB1
:10101000CF25D96FF250006EF29EAA6AD9C7A9FFF8
:10102000D0C7A8FFA69CA69EA6840F01550EA76E4A
:10103000AA0EA76EA682A6B2FED7A6940050F21200
:1010400010D00BD00701036ACF51820FE96E050E55
:101050000320EA6ED0C7EFFF0F010701CF2BB8D7EF
:101060000F010701D26B030ED16FD46BD36BD66B1C
:10107000D56B04005D0ED125D96F000ED221DA6F39
:10108000F2CFDBF7F29EDAC7AAFFD9C7A9FFA69C69
:10109000A69EA680A850DBBFF28ED86BD76FD75123
:1010A0000D0802E1D85305E0D45303E1D3511E08E3
:1010B00009E2910ED325E96E050ED421EA6EEF6A9E
:1010C00013D008D0910ED325E96E050ED421EA6E17
:1010D000D7C7EFFFD2C703F0D151D12BD8B4D22B51
:1010E000D32BD8B4D42BC5D7D12BD8B4D22BD46B17
:1010F000D36B04005D0ED125D96F000ED221DA6FBB
:10110000F2CFDBF7F29EDAC7AAFFD9C7A9FFA69CE8
:10111000A69EA680A850DBBFF28ED86BD76FD751A2
:101120000D0802E1D85305E0D45303E1D3511E0862
:1011300009E2B10ED325E96E050ED421EA6EEF6AFD
:1011400013D008D0B10ED325E96E050ED421EA6E76
:10115000D7C7EFFFD2C703F0D151D12BD8B4D22BD0
:10116000D32BD8B4D42BC5D7D12BD8B4D22BD46B96
:10117000D36B04005D0ED125D96F000ED221DA6F3A
:10118000F2CFDBF7F29EDAC7AAFFD9C7A9FFA69C68
:10119000A69EA680A850DBBFF28ED86BD76FD75122
:1011A0000D0802E1D85305E0D45303E1D3511E08E2
:1011B00009E2D10ED325E96E050ED421EA6EEF6A5D
:1011C00013D008D0D10ED325E96E050ED421EA6ED6
:1011D000D7C7EFFFD2C703F0D151D12BD8B4D22B50
:1011E000D32BD8B4D42BC5D7D12BD8B4D22BD46B16
:1011F000D36B04005D0ED125D96F000ED221DA6FBA
:10120000F2CFDBF7F29EDAC7AAFFD9C7A9FFA69CE7
:10121000A69EA680A850DBBFF28ED86BD76FD751A1
:101220000D0802E1D85305E0D45303E1D3511E0861
:1012300009E2F10ED325E96E050ED421EA6EEF6ABC
:1012400013D008D0F10ED325E96E050ED421EA6E35
:10125000D7C7EFFFD2C703F0D151D12BD8B4D22BCF
:10126000D32BD8B4D42BC5D7D12BD8B4D22BD46B95
:10127000D36B04005D0ED125D96F000ED221DA6F39
:10128000F2CFDBF7F29EDAC7AAFFD9C7A9FFA69C67
:10129000A69EA680A850DBBFF28ED86BD76FD75121
:1012A0000D0802E1D85305E0D45303E1D3511E08E1
:1012B00009E2110ED325E96E060ED421EA6EEF6A1B
:1012C00013D008D0110ED325E96E060ED421EA6E94
:1012D000D7C7EFFFD2C703F0D151D12BD8B4D22B4F
:1012E000D32BD8B4D42BC5D7D12BD8B4D22BD46B15
:1012F000D36B04005D0ED125D96F000ED221DA6FB9
:10130000F2CFDBF7F29EDAC7AAFFD9C7A9FFA69CE6
:10131000A69EA680A850DBBFF28ED86BD76FD751A0
:101320000D0802E1D85305E0D45303E1D3511E0860
:1013300009E2310ED325E96E060ED421EA6EEF6A7A
:1013400013D008D0310ED325E96E060ED421EA6EF3
:10135000D7C7EFFFD2C703F0D151D12BD8B4D22BCE
:10136000D32BD8B4D42BC5D7D12BD8B4D22BD46B94
:10137000D36B04005D0ED125D96F000ED221DA6F38
:10138000F2CFDBF7F29EDAC7AAFFD9C7A9FFA69C66
:10139000A69EA680A850DBBFF28ED86BD76FD75120
:1013A0000D0802E1D85305E0D45303E1D3511E08E0
:1013B00009E2510ED325E96E060ED421EA6EEF6ADA
:1013C00013D008D0510ED325E96E060ED421EA6E53
:1013D000D7C7EFFFD2C703F0D151D12BD8B4D22B4E
:1013E000D32BD8B4D42BC5D7D12BD8B4D22BD46B14
:1013F000D36B04005D0ED125D96F000ED221DA6FB8
:10140000F2CFDBF7F29EDAC7AAFFD9C7A9FFA69CE5
:10141000A69EA680A850DBBFF28ED86BD76FD7519F
:101420000D0802E1D85305E0D45303E1D3511E085F
:1014300009E2710ED325E96E060ED421EA6EEF6A39
:1014400013D008D0710ED325E96E060ED421EA6EB2
:10145000D7C7EFFFD2C703F0D151D12BD8B4D22BCD
:10146000D32BD8B4D42BC5D7D12BD8B4D22BD46B93
:10147000D36B04005D0ED125D96F000ED221DA6F37
:10148000F2CFDBF7F29EDAC7AAFFD9C7A9FFA69C65
:10149000A69EA680A850DBBFF28ED86BD76FD7511F
:1014A0000D0802E1D85305E0D45303E1D3511E08DF
:1014B00009E2910ED325E96E060ED421EA6EEF6A99
:1014C00013D008D0910ED325E96E060ED421EA6E12
:1014D000D7C7EFFFD2C703F0D151D12BD8B4D22B4D
:1014E000D32BD8B4D42BC5D7D12BD8B4D22BD46B13
:1014F000D36B04005D0ED125D96F000ED221DA6FB7
:10150000F2CFDBF7F29EDAC7AAFFD9C7A9FFA69CE4
:10151000A69EA680A850DBBFF28ED86BD76FD7519E
:101520000D0802E1D85305E0D45303E1D3511E085E
:1015300009E2B10ED325E96E060ED421EA6EEF6AF8
:1015400013D008D0B10ED325E96E060ED421EA6E71
:10155000D7C7EFFFD2C703F0D151D12BD8B4D22BCC
:10156000D32BD8B4D42BC5D700011200929A899AF4
:101570000701D2514109D56FC950D5C7C9FFC7303E
:10158000FEE3C950D3C7C9FFC730FEE3C950C96ADB
:10159000C730FEE3C9CFD4F7929A898AD4C701F045
:1015A00000011200D0C7D2F7090E0701D36F000166
:1015B000DDDF01C0D1F70701D1C701F00001120042
:1015C000D0C7D2F7190E0701D36F0001CFDF01C0DA
:1015D000D1F70701D1C701F0000112000701D35173
:1015E000070B006ED331016E013201321F0E01165E
:1015F0000150D425E96E000ED521EA6EEFCF01F03F
:10160000002A01D00132002EFDD7010E0116000183
:1016100012000701D451D603F3CF01F0F4CF00F04C
:10162000D703F3500026D551D603F3500020026EA5
:10163000000112000701D351070B006ED331016E78
:10164000013201321F0E01160150D525E96E000E40
:10165000D621EA6E016A012A002A01D00136002E45
:10166000FDD7D45303E00150EF1203D0011E015007
:10167000EF16000112000701D06BD06BD0BF03D072
:10168000D0510A0823E3036AD051006EE8BE030676
:10169000D16F03C0D2F7036AD051006EE8BE0306D3
:1016A000D36F070ED56F950ED46F000197DFD1C7AA
:1016B000D3F70701D46B01B0D42B070ED66F930E6E
:1016C000D56F0001B7DF0701D02BD8D70001B6EFE7
:1016D0000EF00701D06B000165DF01C07CF51CA88E
:1016E00003D005017C1F00010701969705017CA12D
:1016F00003D0070196870501D8907C3107019699A0
:10170000E8B0968905017C31006E00323F0E00166C
:101710000701969B00B0968B05017C31006E00326C
:1017200000321F0E00160701969D00B0968D050130
:101730007C39006E0F0E00160701969F00B0968F41
:1017400005017C39006E0032070E001607019791E3
:1017500000B0978105017C39006E00320032030E23
:1017600000160701979300B09783006A05017CBFBC
:1017700000800701979500B09785D06B000120DFAE
:1017800001C07CF51CA803D005017C1F00010701E6
:10179000979705017CA103D0070197870501D89091
:1017A0007C3107019799E8B09789020ED06F00014C
:1017B000F9DE01C07CF51CA803D005017C1F0001E7
:1017C0000701959305017CA103D0070195830501CD
:1017D000D8907C3107019595E8B0958505017C315D
:1017E000006E00323F0E00160701959700B09587F6
:1017F00005017C31006E003200321F0E0016070119
:10180000959900B0958905017C39006E0F0E001680
:101810000701959B00B0958B05017C39006E003265
:10182000070E00160701959D00B0958D05017C39C6
:10183000006E00320032030E00160701959F00B0C3
:10184000958F006A05017CBF00800701969100B06A
:101850009681020ED06F0001B3DE01C07CF51CA89A
:1018600003D005017C1F00010701969305017CA1AF
:1018700003D0070196830501D8907C310701969526
:10188000E8B09685010ECF6FCF510A08D8A06CD270
:10189000CFC7D3F7070ED56FC30ED46F00019EDEFE
:1018A0000150010B0108D8A427D1CFC7D3F7070EE9
:1018B0000701D56F950ED46F000190DE0150010B2A
:1018C000D8A48DD0CFC7D3F7070E0701D56F930EDD
:1018D000D46F000183DE0150010BD8A472D0D890E0
:1018E0000701CF35036A970FE96E070E0320EA6EF2
:1018F000010EEE2601E3EF2AD890CF35036A970F49
:10190000E96E070E0320EA6EECCFD1F7ED52EFCF70
:10191000D0F7D890CF35036AAD0FE96E070E0320DC
:10192000EA6EECCFD5F7ED52EFCFD4F7D76B4B0E75
:10193000D66F00016EDE02C0D3F701C0D2F70F0EE2
:1019400007010124016E000E0220036E0350D15DD9
:1019500036E303E10150D05D32E3D890CF35036A1E
:10196000970FE96E070E0320EA6EEC6AED52EF6AFC
:10197000010ECF5DF60F23E20A0F000103EF0FF017
:10198000070175911CD00701759319D00701759552
:1019900016D00701759713D00701759910D007016C
:1019A000759B0DD00701759D0AD00701759F07D063
:1019B0000701769104D00701769301D007010DD07D
:1019C0000001D8900701CF35036A970FE96E070E23
:1019D0000320EA6EEC6AED52EF6A8DD00001CFC7AA
:1019E000D3F7070E0701D56F930ED46F0001F6DD14
:1019F0000150010B0108D8A472D0D8900701CF354F
:101A0000036A970FE96E070E0320EA6E010EEE26B9
:101A100001E3EF2AD890CF35036A970FE96E070EDE
:101A20000320EA6EECCFD1F7ED52EFCFD0F7D8908C
:101A3000CF35036AAD0FE96E070E0320EA6EECCFD7
:101A4000D5F7ED52EFCFD4F7D76B4B0ED66F000121
:101A5000E0DD02C0D3F701C0D2F70F0E0701012469
:101A6000016E000E0220036E0350D15D36E303E1E8
:101A70000150D05D32E3D890CF35036A970FE96EFD
:101A8000070E0320EA6EEC6AED52010EEF6ECF5D99
:101A9000F60F23E20A0F00011AEF0FF0070175811C
:101AA0001CD00701758319D00701758516D0070171
:101AB000758713D00701758910D00701758B0DD07C
:101AC0000701758D0AD00701758F07D00701768150
:101AD00004D00701768301D007010DD00001D89012
:101AE0000701CF35036A970FE96E070E0320EA6EF0
:101AF000EC6AED52EF6A34D1CFC7D3F7070E070176
:101B0000D56FC30ED46F000169DD0150010BD8A45D
:101B100028D1CFC7D3F7070E0701D56F950ED46F25
:101B200000015CDD0150010B0108D8A48ED0CFC7A5
:101B3000D3F7070E0701D56F930ED46F00014EDD6A
:101B40000150010B0108D8A472D0D8900701CF35FD
:101B5000036A970FE96E070E0320EA6E010EEE2668
:101B600001E3EF2AD890CF35036A970FE96E070E8D
:101B70000320EA6EECCFD1F7ED52EFCFD0F7D8903B
:101B8000CF35036AAD0FE96E070E0320EA6EECCF86
:101B9000D5F7ED52EFCFD4F7D76B4B0ED66F0001D0
:101BA00038DD02C0D3F701C0D2F70F0E07010124C0
:101BB000016E000E0220036E0350D15D36E303E197
:101BC0000150D05D32E3D890CF35036A970FE96EAC
:101BD000070E0320EA6EEC6AED52EF6A010ECF5D4C
:101BE000F60F23E20A0F000131EF0FF007017581B4
:101BF0001CD00701758319D00701758516D0070120
:101C0000758713D00701758910D00701758B0DD02A
:101C10000701758D0AD00701758F07D007017681FE
:101C200004D00701768301D007010DD00001D890C0
:101C30000701CF35036A970FE96E070E0320EA6E9E
:101C4000EC6AED52EF6A8CD00001CFC7D3F7070ED4
:101C50000701D56F930ED46F0001C0DC0150010B5A
:101C6000D8A472D0D8900701CF35036A970FE96ED8
:101C7000070E0320EA6E010EEE2601E3EF2AD8904C
:101C8000CF35036A970FE96E070E0320EA6EECCF9B
:101C9000D1F7ED52EFCFD0F7D890CF35036AAD0F23
:101CA000E96E070E0320EA6EECCFD5F7ED52EFCFC9
:101CB000D4F7D76B4B0ED66F0001ABDC02C0D3F765
:101CC00001C0D2F70F0E07010124016E000E0220A1
:101CD000036E0350D15D36E303E10150D05D32E382
:101CE000D890CF35036A970FE96E070E0320EA6E8E
:101CF000EC6AED52EF6A010ECF5DF60F23E20A0F98
:101D0000000148EF0FF0070175911CD00701759392
:101D100019D00701759516D00701759713D00701E3
:101D2000759910D00701759B0DD00701759D0AD0DC
:101D30000701759F07D00701769104D007017693BC
:101D400001D007010DD00001D8900701CF35036AFB
:101D5000970FE96E070E0320EA6EEC6AED52EF6A08
:101D600000010701CF2B90D5000185D44C6A000EED
:101D7000070175AF010E4C12D8904C34D06F000E95
:101D800075AD010ED0114C6ED8904C34D06F000E52
:101D900075AB010ED0114C6ED8904C34D06F000E44
:101DA00075A9010ED0114C6ED8904C34D06F000E36
:101DB00075A7010ED0114C6ED8904C34D06F000E28
:101DC00075A5010ED0114C6ED8904C34D06F000E1A
:101DD00075A3010ED0114C6ED8904C34D06F000E0C
:101DE00075A1010ED0114C6E4D6A000E76A3010E46
:101DF0004D12D8904D34D06F000E76A1010ED01147
:101E00004D6E00011200E824F76AF736210FF66ED6
:101E10001E0EF7220A00F550FA6E0800F550F96E12
:101E2000801986198C19921998199E19A419AA1942
:101E3000B019B619E824F76AF7364F0FF66E1E0E82
:101E4000F7220A00F550FA6E0800F550F96E9C1A58
:101E5000A21AA81AAE1AB41ABA1AC01AC61ACC1AFA
:101E6000D21AE824F76AF7367D0FF66E1E0EF722B7
:101E70000A00F550FA6E0800F550F96EEC1BF21BE3
:101E8000F81BFE1B041C0A1C101C161C1C1C221C0C
:101E9000E824F76AF736AB0FF66E1E0EF7220A003B
:101EA000F550FA6E0800F550F96E061D0C1D121D56
:101EB000181D1E1D241D2A1D301D361D3C1DD7C793
:101EC000D9F70A0E0701DA6FD8C7DBF700015DEC1E
:101ED00003F01200D7C7D9F71A0E0701DA6FD8C777
:101EE000DBF700015DEC03F0120093908A90080E7E
:101EF000016E00D00000018E10D0019E0701D13389
:101F00000001D8B08A80D8A08A90018C06D0019CAC
:101F1000012EF4D700D000008A80840EE96EE92EED
:101F2000FED700D0000001BEE8D701BCF0D71200F8
:101F30000900F5520CE0F6CFCFF7F7CFD0F7F5CF89
:101F4000D1F7D3DFCFC7F6FFD0C7F7FFF1D7120025
:101F50000301746973690701DE6BDC51DE5D21E208
:101F60000400DE51DA25E96E000EDB21EA6EEF5047
:101F7000030174190701DD6F036ADD51000163EC91
:101F800000F0016E030173510118746F036A0701B9
:101F9000DD510001EBEC00F0E8CF73F30701DE2B1D
:101FA000DCD7000112009EA8FED7AD6E1200206A99
:101FB000216A286A296A070185B104D077B102D065
:101FC0008B8101D08B9185B304D077B302D08B8302
:101FD00001D08B9385B504D077B502D08B8501D025
:101FE0008B9585B704D077B702D08B8701D08B97BC
:101FF00085B904D077B902D08B8901D08B9985BB84
:1020000004D077BB02D08B8B01D08B9B85BD04D0D5
:1020100077BD02D08B8D01D08B9D85BF04D077BF5B
:1020200002D08B8F01D08B9F86B104D078B102D0C3
:102030008C8101D08C9186B304D078B302D08C838C
:1020400001D08C93000E8BBF010E2812D89028343B
:10205000D96F000E8BBD010ED911286ED89028348F
:10206000D96F000E8BBB010ED911286ED890283481
:10207000D96F000E8BB9010ED911286ED890283473
:10208000D96F000E8BB7010ED911286ED890283465
:10209000D96F000E8BB5010ED911286ED890283457
:1020A000D96F000E8BB3010ED911286ED890283449
:1020B000D96F000E8BB1010ED911286E000E8CB3B2
:1020C000010E2912D8902934D96F000E8CB1010E5F
:1020D000D911296E000E85BF010E2012D890203430
:1020E000D96F000E85BD010ED911206ED890203415
:1020F000D96F000E85BB010ED911206ED890203407
:10210000D96F000E85B9010ED911206ED8902034F8
:10211000D96F000E85B7010ED911206ED8902034EA
:10212000D96F000E85B5010ED911206ED8902034DC
:10213000D96F000E85B3010ED911206ED8902034CE
:10214000D96F000E85B1010ED911206E000E86B335
:10215000010E2112D8902134D96F000E86B1010EE4
:10216000D911216E000167EF14F00400010E715DBA
:102170000701D86F000E000172590701D96F010ED7
:10218000DB6F730EDA6FD8C7DCF70001E1DE010EFA
:10219000715D0701D86F000E000172590701D96FF8
:1021A000730ED825E96E010ED921EA6EEF500301B6
:1021B000745DD8A4ADEF1FF0730E00017125E96EB8
:1021C000010E7221EA6EEF500301735DD8A4ADEFEA
:1021D0001FF001017351AA08D8A45ED174512008E0
:1021E000D8A45AD170C073F0200E0001746F1C0E79
:1021F000756F3DC076F03EC077F03FC078F040C0CC
:1022000079F041C07AF042C07BF043C07CF044C01A
:102210007DF045C07EF046C07FF047C080F048C0EA
:1022200081F049C082F04AC083F04BC084F0F2CF05
:10223000D8F7F29EAA6A100EA96EA69CA69EA6804A
:10224000A8500701D8BFF28E0001856FF2CFD8F7F2
:10225000F29EAA6A110EA96EA69CA69EA680A85000
:102260000701D8BFF28E0001866FF2CFD8F7F29E39
:10227000AA6A120EA96EA69CA69EA680A850070167
:10228000D8BFF28E0001876FF2CFD8F7F29EAA6A0C
:10229000130EA96EA69CA69EA680A8500701D8BFC3
:1022A000F28E0001886FF2CFD8F7F29EAA6A140E60
:1022B000A96EA69CA69EA680A8500701D8BFF28E44
:1022C0000001896FF2CFD8F7F29EAA6A150EA96EA7
:1022D000A69CA69EA680A8500701D8BFF28E00013A
:1022E0008A6FF2CFD8F7F29EAA6A160EA96EA69C44
:1022F000A69EA680A8500701D8BFF28E00018B6F62
:10230000F2CFD8F7F29EAA6A170EA96EA69CA69ED7
:10231000A680A8500701D8BFF28E00018C6F60C064
:102320008DF061C08EF062C08FF063C090F0AD0E92
:10233000916F70C092F0AFC793F0B1C794F0B3C77C
:1023400095F0B5C796F0B7C797F0B9C798F0BBC777
:1023500099F0BDC79AF0BFC79BF0C1C79CF0C3C737
:102360009DF0C5C79EF0C7C79FF0C9C7A0F0CBC7F7
:10237000A1F0CDC7A2F0CFC7A3F0D1C7A4F0D3C7B7
:10238000A5F0D5C7A6F00701DB6B730EDA6F340E2C
:10239000DC6F0001DDDD74C3A7F073C3A8F08A868B
:1023A00093960A0E0701D86F000145EC03F07351B4
:1023B000FADD7451F8DD7551F6DD7651F4DD7751B3
:1023C000F2DD7851F0DD7951EEDD7A51ECDD7B51B3
:1023D000EADD7C51E8DD7D51E6DD7E51E4DD7F51B3
:1023E000E2DD8051E0DD8151DEDD8251DCDD8351B3
:1023F000DADD8451D8DD8551D6DD8651D4DD8751B3
:10240000D2DD8851D0DD8951CEDD8A51CCDD8B51B2
:10241000CADD8C51C8DD8D51C6DD8E51C4DD8F51B2
:10242000C2DD9051C0DD9151BEDD9251BCDD9351B2
:10243000BADD9451B8DD9551B6DD9651B4DD9751B2
:10244000B2DD9851B0DD9951AEDD9A51ACDD9B51B2
:10245000AADD9C51A8DD9D51A6DD9E51A4DD9F51B2
:10246000A2DDA051A0DDA1519EDDA2519CDDA351B2
:102470009ADDA45198DDA55196DDA65194DDA751B2
:1024800092DDA85190DD030E0701D86F000145ECE5
:1024900003F08A9693960101000170510101735D6A
:1024A000D8A4A8EF1FF0742D0BD20301786B75C16F
:1024B00077F377C378F30701D86BD8510101761110
:1024C0000301776F03017A6B77C179F379C37AF3EC
:1024D0000701D86BD851010178110301796F03010D
:1024E0007853D8A4B4D177510F08D8A0B0D179517E
:1024F00077250701D86F03017A5178210701D96F39
:10250000D953D8B402D00301A2D1D8511008D8B001
:1025100002D003019CD103017A5306E179510808E6
:1025200003E3010E7B6F12D07A5306E17951100854
:1025300003E3020E7B6F0AD07A5306E17951180843
:1025400003E3030E7B6F02D0010E7B6F7B2D9BD0CC
:1025500078530DE1775108080AE34CC07CF37751BA
:10256000016E04E0D8907C33012EFCD71AD078534A
:1025700003E17751080815E2785313E177510F080A
:1025800010E3080E775D006E000E7859036E00C0F0
:1025900001F034C07CF3015204E0D8907C33012E6A
:1025A000FCD77951080803E17A5301E135D079511C
:1025B000070804E17A5302E17C9F2ED07951060886
:1025C00005E17A5303E13F0E7C1726D079510508C7
:1025D00005E17A5303E11F0E7C171ED079510408E0
:1025E00005E17A5303E10F0E7C1716D079510308E9
:1025F00005E17A5303E1070E7C170ED079510208EA
:1026000005E17A5303E1030E7C1706D0792D04D03F
:102610007A5302E1010E7C1770C073F0010E0001C5
:10262000746F7BC375F07CC376F00701DB6B730EB0
:10263000DA6F040EDC6F00018BDC74C377F073C3B8
:1026400078F08A8693960400040E0701D86F000183
:1026500045EC03F004007351A6DC7451A4DC755101
:10266000A2DC7651A0DC77519EDC78519CDC040022
:10267000030E0701D86F000145EC03F004008A96B1
:102680009396E3D003017B510208D8A4DFD04CC05D
:102690007CF37751016E04E0D8907C33012EFCD797
:1026A0004DC07DF3070E795D0701D86F000E030161
:1026B0007A590701D96FD851080803E1D95301E1CC
:1026C00083D0070E0301795D0701D86F000E030167
:1026D0007A590701D96FD851070805E1D95303E1A9
:1026E00003017D9F70D0070E0301795D0701D86F4C
:1026F000000E03017A590701D96FD851060806E187
:10270000D95304E13F0E03017D175DD0070E03018D
:10271000795D0701D86F000E03017A590701D96F5F
:10272000D851050806E1D95304E11F0E03017D17B6
:102730004AD0070E0301795D0701D86F000E03012F
:102740007A590701D96FD851040806E1D95304E139
:102750000F0E03017D1737D0070E0301795D0701C6
:10276000D86F000E03017A590701D96FD8510308B9
:1027700006E1D95304E1070E03017D1724D0070EAB
:102780000301795D0701D86F000E03017A59070133
:10279000D96FD851020806E1D95304E1030E0301B1
:1027A0007D1711D0070E0301795D0701D86F000E68
:1027B00003017A590701D96FD82D06D0D95304E106
:1027C000010E03017D17070170C073F0010E0001B7
:1027D000746F7BC375F07CC376F07DC377F007011F
:1027E000DB6B730EDA6F050EDC6F0001A8EC0FF0E7
:1027F00074C378F073C379F08A8693960400040E4C
:102800000701D86F000145EC03F004007351D3ECCD
:102810000FF07451D3EC0FF07551D3EC0FF07651EB
:10282000D3EC0FF07751D3EC0FF07851D3EC0FF0DD
:102830007951D3EC0FF00400030E0701D86F0001AB
:1028400045EC03F004008A969396030138D070C0DB
:1028500073F0810E0001746F020E756F0701DB6B60
:10286000730EDA6F030EDC6F0001A8EC0FF074C377
:1028700076F073C377F08A8693960400040E0701FE
:10288000D86F000145EC03F004007351D3EC0FF056
:102890007451D3EC0FF07551D3EC0FF07651D3ECAB
:1028A0000FF07751D3EC0FF00400030E0701D86F3F
:1028B000000145EC03F004008A96939603010101A0
:1028C00074510708D8A4B1D00001D7EF0FF09D9242
:1028D00020C07CF321C07DF322C07EF323C07FF3B0
:1028E00024C080F325C081F326C082F327C083F380
:1028F00028C084F329C085F32AC086F32BC087F350
:102900002CC088F32DC089F32EC08AF32FC08BF31F
:1029100070C073F0070E746F100E03017B6F7BC3E2
:1029200075F07CC376F07DC377F07EC378F07FC30B
:1029300079F080C37AF081C37BF082C37CF083C3DB
:102940007DF084C37EF085C37FF086C380F087C3AB
:1029500081F088C382F089C383F08AC384F08BC37B
:1029600085F00701DB6B730EDA6F130EDC6F00016D
:10297000A8EC0FF074C386F073C387F08A86939631
:102980000400040E0701D86F000145EC03F00400B9
:102990007351D3EC0FF07451D3EC0FF07551D3ECAD
:1029A0000FF07651D3EC0FF07751D3EC0FF0785154
:1029B000D3EC0FF07951D3EC0FF07A51D3EC0FF048
:1029C0007B51D3EC0FF07C51D3EC0FF07D51D3EC65
:1029D0000FF07E51D3EC0FF07F51D3EC0FF080510C
:1029E000D3EC0FF08151D3EC0FF08251D3EC0FF008
:1029F0008351D3EC0FF08451D3EC0FF08551D3EC1D
:102A00000FF08651D3EC0FF08751D3EC0FF0040098
:102A1000030E0701D86F000145EC03F004008A960D
:102A200093969D825EEF1FF0010174512108D8A496
:102A3000CCEF19F0F250006EF29EAA6AA96A0F0E4E
:102A4000A86EA69CA69EA6840F01550EA76EAA0E80
:102A5000A76EA682A6B2FED7A6940050F212F2CFBD
:102A600000F0F29EAA6A010EA96E76C1A8FFA69C8C
:102A7000A69EA684550EA76EAA0EA76EA682A6B223
:102A8000FED7A6940050F212F2CF00F0F29EAA6A8E
:102A9000020EA96E77C1A8FFA69CA69EA684550E1D
:102AA000A76EAA0EA76EA682A6B2FED7A694005065
:102AB000F212F2CF00F0F29EAA6A030EA96E78C15C
:102AC000A8FFA69CA69EA684550EA76EAA0EA76E6A
:102AD000A682A6B2FED7A6940050F212F2CF00F062
:102AE000F29EAA6A040EA96E79C1A8FFA69CA69EB2
:102AF000A684550EA76EAA0EA76EA682A6B2FED712
:102B0000A6940050F212F2CF00F0F29EAA6A050ECF
:102B1000A96E7AC1A8FFA69CA69EA684550EA76E94
:102B2000AA0EA76EA682A6B2FED7A6940050F212F5
:102B3000F2CF00F0F29EAA6A060EA96E7BC1A8FF32
:102B4000A69CA69EA684550EA76EAA0EA76EA68268
:102B5000A6B2FED7A6940050F212F2CF00F0F29E79
:102B6000AA6A070EA96E7CC1A8FFA69CA69EA68491
:102B7000550EA76EAA0EA76EA682A6B2FED7A69481
:102B80000050F212F2CF00F0F29EAA6A080EA96E6F
:102B90007DC1A8FFA69CA69EA684550EA76EAA0E70
:102BA000A76EA682A6B2FED7A6940050F212F2CF6C
:102BB00000F0F29EAA6A090EA96E7EC1A8FFA69C2B
:102BC000A69EA684550EA76EAA0EA76EA682A6B2D2
:102BD000FED7A6940050F212F2CF00F0F29EAA6A3D
:102BE0000A0EA96E7FC1A8FFA69CA69EA684550EBC
:102BF000A76EAA0EA76EA682A6B2FED7A694005014
:102C0000F212F2CF00F0F29EAA6A0B0EA96E80C1FA
:102C1000A8FFA69CA69EA684550EA76EAA0EA76E18
:102C2000A682A6B2FED7A6940050F212F2CF00F010
:102C3000F29EAA6A0C0EA96E81C1A8FFA69CA69E50
:102C4000A684550EA76EAA0EA76EA682A6B2FED7C0
:102C5000A6940050F212F2CF00F0F29EAA6A0D0E76
:102C6000A96E82C1A8FFA69CA69EA684550EA76E3B
:102C7000AA0EA76EA682A6B2FED7A6940050F212A4
:102C8000F2CF00F0F29EAA6A0E0EA96E83C1A8FFD1
:102C9000A69CA69EA684550EA76EAA0EA76EA68217
:102CA000A6B2FED7A6940050F212F2CF00F0F29E28
:102CB000AA6A0F0EA96E84C1A8FFA69CA69EA68430
:102CC000550EA76EAA0EA76EA682A6B2FED7A69430
:102CD0000050F212F2CF00F0F29EAA6A100EA96E16
:102CE00085C1A8FFA69CA69EA684550EA76EAA0E17
:102CF000A76EA682A6B2FED7A6940050F212F2CF1B
:102D000000F0F29EAA6A110EA96E86C1A8FFA69CC9
:102D1000A69EA684550EA76EAA0EA76EA682A6B280
:102D2000FED7A6940050F212F2CF00F0F29EAA6AEB
:102D3000120EA96E87C1A8FFA69CA69EA684550E5A
:102D4000A76EAA0EA76EA682A6B2FED7A6940050C2
:102D5000F212F2CF00F0F29EAA6A130EA96E88C199
:102D6000A8FFA69CA69EA684550EA76EAA0EA76EC7
:102D7000A682A6B2FED7A6940050F212F2CF00F0BF
:102D8000F29EAA6A140EA96E89C1A8FFA69CA69EEF
:102D9000A684550EA76EAA0EA76EA682A6B2FED76F
:102DA000A6940050F212F2CF00F0F29EAA6A150E1D
:102DB000A96E8AC1A8FFA69CA69EA684550EA76EE2
:102DC000AA0EA76EA682A6B2FED7A6940050F21253
:102DD000F2CF00F0F29EAA6A160EA96E8BC1A8FF70
:102DE000A69CA69EA684550EA76EAA0EA76EA682C6
:102DF000A6B2FED7A6940050F212F2CF00F0F29ED7
:102E0000AA6A170EA96E8CC1A8FFA69CA69EA684CE
:102E1000550EA76EAA0EA76EA682A6B2FED7A694DE
:102E20000050F212F2CF00F0F29EAA6A180EA96EBC
:102E30008DC1A8FFA69CA69EA684550EA76EAA0EBD
:102E4000A76EA682A6B2FED7A6940050F212F2CFC9
:102E500000F0F29EAA6A190EA96E8EC1A8FFA69C68
:102E6000A69EA684550EA76EAA0EA76EA682A6B22F
:102E7000FED7A6940050F212F2CF00F0F29EAA6A9A
:102E80001A0EA96E8FC1A8FFA69CA69EA684550EF9
:102E9000A76EAA0EA76EA682A6B2FED7A694005071
:102EA000F212F2CF00F0F29EAA6A1B0EA96E90C138
:102EB000A8FFA69CA69EA684550EA76EAA0EA76E76
:102EC000A682A6B2FED7A6940050F212F2CF00F06E
:102ED000F29EAA6A1C0EA96E91C1A8FFA69CA69E8E
:102EE000A684550EA76EAA0EA76EA682A6B2FED71E
:102EF000A6940050F212F2CF00F0F29EAA6A1D0EC4
:102F0000A96E92C1A8FFA69CA69EA684550EA76E88
:102F1000AA0EA76EA682A6B2FED7A6940050F21201
:102F2000F2CF00F0F29EAA6A1E0EA96E93C1A8FF0E
:102F3000A69CA69EA684550EA76EAA0EA76EA68274
:102F4000A6B2FED7A6940050F212F2CF00F0F29E85
:102F5000AA6A1F0EA96E94C1A8FFA69CA69EA6846D
:102F6000550EA76EAA0EA76EA682A6B2FED7A6948D
:102F70000050F212F2CF00F0F29EAA6A200EA96E63
:102F800095C1A8FFA69CA69EA684550EA76EAA0E64
:102F9000A76EA682A6B2FED7A6940050F212F2CF78
:102FA00000F0F29EAA6A210EA96E96C1A8FFA69C07
:102FB000A69EA684550EA76EAA0EA76EA682A6B2DE
:102FC000FED7A6940050F212F2CF00F0F29EAA6A49
:102FD000220EA96E97C1A8FFA69CA69EA684550E98
:102FE000A76EAA0EA76EA682A6B2FED7A694005020
:102FF000F212F2CF00F0F29EAA6A230EA96E98C1D7
:10300000A8FFA69CA69EA684550EA76EAA0EA76E24
:10301000A682A6B2FED7A6940050F212F2CF00F01C
:10302000F29EAA6A240EA96E99C1A8FFA69CA69E2C
:10303000A684550EA76EAA0EA76EA682A6B2FED7CC
:10304000A6940050F212F2CF00F0F29EAA6A250E6A
:10305000A96E9AC1A8FFA69CA69EA684550EA76E2F
:10306000AA0EA76EA682A6B2FED7A6940050F212B0
:10307000F2CF00F0F29EAA6A260EA96E9BC1A8FFAD
:10308000A69CA69EA684550EA76EAA0EA76EA68223
:10309000A6B2FED7A6940050F212F2CF00F0F29E34
:1030A000AA6A270EA96E9CC1A8FFA69CA69EA6840C
:1030B000550EA76EAA0EA76EA682A6B2FED7A6943C
:1030C0000050F212F2CF00F0F29EAA6A280EA96E0A
:1030D0009DC1A8FFA69CA69EA684550EA76EAA0E0B
:1030E000A76EA682A6B2FED7A6940050F212F2CF27
:1030F00000F0F29EAA6A290EA96E9EC1A8FFA69CA6
:10310000A69EA684550EA76EAA0EA76EA682A6B28C
:10311000FED7A6940050F212F2CF00F0F29EAA6AF7
:103120002A0EA96E9FC1A8FFA69CA69EA684550E36
:10313000A76EAA0EA76EA682A6B2FED7A6940050CE
:10314000F212F2CF00F0F29EAA6A2B0EA96EA0C175
:10315000A8FFA69CA69EA684550EA76EAA0EA76ED3
:10316000A682A6B2FED7A6940050F212F2CF00F0CB
:10317000F29EAA6A2C0EA96EA1C1A8FFA69CA69ECB
:10318000A684550EA76EAA0EA76EA682A6B2FED77B
:10319000A6940050F212F2CF00F0F29EAA6A2D0E11
:1031A000A96EA2C1A8FFA69CA69EA684550EA76ED6
:1031B000AA0EA76EA682A6B2FED7A6940050F2125F
:1031C000F2CF00F0F29EAA6A2E0EA96EA3C1A8FF4C
:1031D000A69CA69EA684550EA76EAA0EA76EA682D2
:1031E000A6B2FED7A6940050F212F2CF00F0F29EE3
:1031F000AA6A2F0EA96EA4C1A8FFA69CA69EA684AB
:10320000550EA76EAA0EA76EA682A6B2FED7A694EA
:103210000050F212F2CF00F0F29EAA6A300EA96EB0
:10322000A5C1A8FFA69CA69EA684550EA76EAA0EB1
:10323000A76EA682A6B2FED7A6940050F212F2CFD5
:1032400000F0F29EAA6A310EA96EA6C1A8FFA69C44
:10325000A69EA684550EA76EAA0EA76EA682A6B23B
:10326000FED7A6940050F2120701D06BCF6B04007A
:10327000A70ECF25E96E010ED021EA6EEFCFD1F770
:10328000D1510D0805E0D05303E1CF510F0827E2DB
:10329000820ECF25E96E050ED021EA6EEF6A320E5E
:1032A000CF25D86F000ED021D96FF250006EF29E5C
:1032B000D9C7AAFFD8C7A9FFD1C7A8FFA69CA69EB9
:1032C000A6840F01550EA76EAA0EA76EA682A6B2FF
:1032D000FED7A6940050F2122DD026D00701820E00
:1032E000CF25E96E050ED021EA6ED1C7EFFF320E71
:1032F000CF25D86F000ED021D96FF250006EF29E0C
:10330000D9C7AAFFD8C7A9FFD1C7A8FFA69CA69E68
:10331000A6840F01550EA76EAA0EA76EA682A6B2AE
:10332000FED7A6940050F2120701CF2BD8B4D02BB1
:103330009ED70F0170C073F0210E0001746F07015A
:10334000DB6B730EDA6F020EDC6F0001A8EC0FF07E
:1033500074C375F073C376F08A8693960A0E0701DC
:10336000D86F000145EC03F07351D3EC0FF07451AA
:10337000D3EC0FF07551D3EC0FF07651D3EC0FF086
:10338000030E0701D86F000145EC03F08A9693966F
:10339000FF005EEF1FF0010174512208D8A45FEF17
:1033A0001FF00701D36B040ED26FD56BD46BD76BB4
:1033B000D66B0400730ED225E96E010ED321EA6E9E
:1033C000EF500D0805E0D55303E1D4511E0828E263
:1033D0005D0ED225D86F000ED321D96F730ED22582
:1033E000E96E010ED321EA6EEFCFDAF7F250006EEC
:1033F000F29ED9C7AAFFD8C7A9FFDAC7A8FFA69C23
:10340000A69EA6840F01550EA76EAA0EA76EA682D1
:10341000A6B2FED7A6940050F21247D03AD00701C8
:10342000910ED425016E050ED521036E730ED225A3
:10343000E96E010ED321EA6EEFCFDAF703C0EAFF9F
:1034400001C0E9FFDAC7EFFF5D0ED225D86F000E8D
:10345000D321D96F730ED225E96E010ED321EA6E06
:10346000EFCFDAF7F250006EF29ED9C7AAFFD8C7A5
:10347000A9FFDAC7A8FFA69CA69EA6840F01550E39
:10348000A76EAA0EA76EA682A6B2FED7A69400507B
:10349000F2120701D3C703F0D251D22BD8B4D32BE9
:1034A000D42BD8B4D52B85D70F01910E0701D42585
:1034B000E96E050ED521EA6EEF6AD56BD46BD22B7F
:1034C000D8B4D32B0400730ED225E96E010ED3219C
:1034D000EA6EEF500D0805E0D55303E1D4511E0804
:1034E00028E25D0ED225D86F000ED321D96F730E5E
:1034F000D225E96E010ED321EA6EEFCFDAF7F25052
:10350000006EF29ED9C7AAFFD8C7A9FFDAC7A8FFE5
:10351000A69CA69EA6840F01550EA76EAA0EA76EA6
:10352000A682A6B2FED7A6940050F21247D03AD097
:103530000701B10ED425016E050ED521036E730E61
:10354000D225E96E010ED321EA6EEFCFDAF703C080
:10355000EAFF01C0E9FFDAC7EFFF5D0ED225D86FA1
:10356000000ED321D96F730ED225E96E010ED3213F
:10357000EA6EEFCFDAF7F250006EF29ED9C7AAFFDB
:10358000D8C7A9FFDAC7A8FFA69CA69EA6840F01EC
:10359000550EA76EAA0EA76EA682A6B2FED7A69457
:1035A0000050F2120701D3C703F0D251D22BD8B486
:1035B000D32BD42BD8B4D52B85D70F01B10E07014F
:1035C000D425E96E050ED521EA6EEF6AD56BD46B72
:1035D000D22BD8B4D32B0400730ED225E96E010E82
:1035E000D321EA6EEF500D0805E0D55303E1D45125
:1035F0001E0828E25D0ED225D86F000ED321D96FA8
:10360000730ED225E96E010ED321EA6EEFCFDAF701
:10361000F250006EF29ED9C7AAFFD8C7A9FFDAC739
:10362000A8FFA69CA69EA6840F01550EA76EAA0E03
:10363000A76EA682A6B2FED7A6940050F21247D07B
:103640003AD00701D10ED425016E050ED521036EA7
:10365000730ED225E96E010ED321EA6EEFCFDAF7B1
:1036600003C0EAFF01C0E9FFDAC7EFFF5D0ED22514
:10367000D86F000ED321D96F730ED225E96E010EDB
:10368000D321EA6EEFCFDAF7F250006EF29ED9C77F
:10369000AAFFD8C7A9FFDAC7A8FFA69CA69EA68442
:1036A0000F01550EA76EAA0EA76EA682A6B2FED770
:1036B000A6940050F2120701D3C703F0D251D22BC7
:1036C000D8B4D32BD42BD8B4D52B85D70F01D10E9A
:1036D0000701D425E96E050ED521EA6EEF6AD56B98
:1036E000D46BD22BD8B4D32B0400730ED225E96E41
:1036F000010ED321EA6EEF500D0805E0D55303E12A
:10370000D4511E0828E25D0ED225D86F000ED321B9
:10371000D96F730ED225E96E010ED321EA6EEFCF79
:10372000DAF7F250006EF29ED9C7AAFFD8C7A9FFF8
:10373000DAC7A8FFA69CA69EA6840F01550EA76E09
:10374000AA0EA76EA682A6B2FED7A6940050F212C9
:1037500047D03AD00701F10ED425016E050ED521D0
:10376000036E730ED225E96E010ED321EA6EEFCF00
:10377000DAF703C0EAFF01C0E9FFDAC7EFFF5D0E29
:10378000D225D86F000ED321D96F730ED225E96EE2
:10379000010ED321EA6EEFCFDAF7F250006EF29EFF
:1037A000D9C7AAFFD8C7A9FFDAC7A8FFA69CA69EBB
:1037B000A6840F01550EA76EAA0EA76EA682A6B20A
:1037C000FED7A6940050F2120701D3C703F0D251DE
:1037D000D22BD8B4D32BD42BD8B4D52B85D70F016B
:1037E000F10E0701D425E96E050ED521EA6EEF6AC8
:1037F000D56BD46BD22BD8B4D32B0400730ED22547
:10380000E96E010ED321EA6EEF500D0805E0D553A5
:1038100003E1D4511E0828E25D0ED225D86F000EB8
:10382000D321D96F730ED225E96E010ED321EA6E32
:10383000EFCFDAF7F250006EF29ED9C7AAFFD8C7D1
:10384000A9FFDAC7A8FFA69CA69EA6840F01550E65
:10385000A76EAA0EA76EA682A6B2FED7A6940050A7
:10386000F21247D03AD00701110ED425016E060E90
:10387000D521036E730ED225E96E010ED321EA6EB7
:10388000EFCFDAF703C0EAFF01C0E9FFDAC7EFFFC5
:103890005D0ED225D86F000ED321D96F730ED225BD
:1038A000E96E010ED321EA6EEFCFDAF7F250006E27
:1038B000F29ED9C7AAFFD8C7A9FFDAC7A8FFA69C5E
:1038C000A69EA6840F01550EA76EAA0EA76EA6820D
:1038D000A6B2FED7A6940050F2120701D3C703F098
:1038E000D251D22BD8B4D32BD42BD8B4D52B85D747
:1038F0000F01110E0701D425E96E060ED521EA6EDF
:10390000EF6AD56BD46BD22BD8B4D32B0400730ED3
:10391000D225E96E010ED321EA6EEF500D0805E0C5
:10392000D55303E1D4511E0828E25D0ED225D86F8D
:10393000000ED321D96F730ED225E96E010ED3216B
:10394000EA6EEFCFDAF7F250006EF29ED9C7AAFF07
:10395000D8C7A9FFDAC7A8FFA69CA69EA6840F0118
:10396000550EA76EAA0EA76EA682A6B2FED7A69483
:103970000050F21249D03CD007015D0ED225D86F1D
:10398000000ED321D96F730ED225E96E010ED3211B
:10399000EA6EEFCFDAF7F250006EF29ED9C7AAFFB7
:1039A000D8C7A9FFDAC7A8FFA69CA69EA6840F01C8
:1039B000550EA76EAA0EA76EA682A6B2FED7A69433
:1039C0000050F212310E0701D425016E060ED521EA
:1039D000036E730ED225E96E010ED321EA6EEFCF8E
:1039E000DAF703C0EAFF01C0E9FFDAC7EFFF0F0112
:1039F0000701D3C703F0D251D22BD8B4D32BD42B89
:103A0000D8B4D52B83D70F01310E0701D425E96E29
:103A1000060ED521EA6EEF6AD56BD46BD22BD8B4E3
:103A2000D32B0400730ED225E96E010ED321EA6E6A
:103A3000EF500D0805E0D55303E1D4511E0828E2EC
:103A40005D0ED225D86F000ED321D96F730ED2250B
:103A5000E96E010ED321EA6EEFCFDAF7F250006E75
:103A6000F29ED9C7AAFFD8C7A9FFDAC7A8FFA69CAC
:103A7000A69EA6840F01550EA76EAA0EA76EA6825B
:103A8000A6B2FED7A6940050F21247D03AD0070152
:103A9000510ED425016E060ED521036E730ED2256C
:103AA000E96E010ED321EA6EEFCFDAF703C0EAFF29
:103AB00001C0E9FFDAC7EFFF5D0ED225D86F000E17
:103AC000D321D96F730ED225E96E010ED321EA6E90
:103AD000EFCFDAF7F250006EF29ED9C7AAFFD8C72F
:103AE000A9FFDAC7A8FFA69CA69EA6840F01550EC3
:103AF000A76EAA0EA76EA682A6B2FED7A694005005
:103B0000F2120701D3C703F0D251D22BD8B4D32B72
:103B1000D42BD8B4D52B85D70F01510E0701D4254E
:103B2000E96E060ED521EA6EEF6AD56BD46BD22B07
:103B3000D8B4D32B0400730ED225E96E010ED32125
:103B4000EA6EEF500D0805E0D55303E1D4511E088D
:103B500028E25D0ED225D86F000ED321D96F730EE7
:103B6000D225E96E010ED321EA6EEFCFDAF7F250DB
:103B7000006EF29ED9C7AAFFD8C7A9FFDAC7A8FF6F
:103B8000A69CA69EA6840F01550EA76EAA0EA76E30
:103B9000A682A6B2FED7A6940050F21247D03AD021
:103BA0000701710ED425016E060ED521036E730E2A
:103BB000D225E96E010ED321EA6EEFCFDAF703C00A
:103BC000EAFF01C0E9FFDAC7EFFF5D0ED225D86F2B
:103BD000000ED321D96F730ED225E96E010ED321C9
:103BE000EA6EEFCFDAF7F250006EF29ED9C7AAFF65
:103BF000D8C7A9FFDAC7A8FFA69CA69EA6840F0176
:103C0000550EA76EAA0EA76EA682A6B2FED7A694E0
:103C10000050F2120701D3C703F0D251D22BD8B40F
:103C2000D32BD42BD8B4D52B85D70F01710E070118
:103C3000D425E96E060ED521EA6EEF6AD56BD46BFA
:103C4000D22BD8B4D32B0400730ED225E96E010E0B
:103C5000D321EA6EEF500D0805E0D55303E1D451AE
:103C60001E0828E25D0ED225D86F000ED321D96F31
:103C7000730ED225E96E010ED321EA6EEFCFDAF78B
:103C8000F250006EF29ED9C7AAFFD8C7A9FFDAC7C3
:103C9000A8FFA69CA69EA6840F01550EA76EAA0E8D
:103CA000A76EA682A6B2FED7A6940050F21247D005
:103CB0003AD00701910ED425016E060ED521036E70
:103CC000730ED225E96E010ED321EA6EEFCFDAF73B
:103CD00003C0EAFF01C0E9FFDAC7EFFF5D0ED2259E
:103CE000D86F000ED321D96F730ED225E96E010E65
:103CF000D321EA6EEFCFDAF7F250006EF29ED9C709
:103D0000AAFFD8C7A9FFDAC7A8FFA69CA69EA684CB
:103D10000F01550EA76EAA0EA76EA682A6B2FED7F9
:103D2000A6940050F2120701D3C703F0D251D22B50
:103D3000D8B4D32BD42BD8B4D52B85D70F01910E63
:103D40000701D425E96E060ED521EA6EEF6AD56B20
:103D5000D46BD22BD8B4D32B0400730ED225E96ECA
:103D6000010ED321EA6EEF500D0805E0D55303E1B3
:103D7000D4511E0828E25D0ED225D86F000ED32143
:103D8000D96F730ED225E96E010ED321EA6EEFCF03
:103D9000DAF7F250006EF29ED9C7AAFFD8C7A9FF82
:103DA000DAC7A8FFA69CA69EA6840F01550EA76E93
:103DB000AA0EA76EA682A6B2FED7A6940050F21253
:103DC00047D03AD00701B10ED425016E060ED52199
:103DD000036E730ED225E96E010ED321EA6EEFCF8A
:103DE000DAF703C0EAFF01C0E9FFDAC7EFFF5D0EB3
:103DF000D225D86F000ED321D96F730ED225E96E6C
:103E0000010ED321EA6EEFCFDAF7F250006EF29E88
:103E1000D9C7AAFFD8C7A9FFDAC7A8FFA69CA69E44
:103E2000A6840F01550EA76EAA0EA76EA682A6B293
:103E3000FED7A6940050F2120701D3C703F0D25167
:103E4000D22BD8B4D32BD42BD8B4D52B85D70F01F4
:103E5000B10E0701D425E96E060ED521EA6EEF6A90
:103E600070C073F0220E0001746F0701DB6B730EDC
:103E7000DA6F020EDC6F0001A8EC0FF074C375F06E
:103E800073C376F08A8693960A0E0701D86F0001F5
:103E900045EC03F07351D3EC0FF07451D3EC0FF0F9
:103EA0007551D3EC0FF07651D3EC0FF0030E0701F0
:103EB000D86F000145EC03F08A9693960101745186
:103EC000030846E14DC07CF34CC07DF370C073F035
:103ED000030E0001746F020E756F7CC376F07DC314
:103EE00077F00701DB6B730EDA6F050EDC6F0001F4
:103EF000A8EC0FF074C378F073C379F08A869396B8
:103F00000400040E0701D86F000145EC03F0040023
:103F10007351D3EC0FF07451D3EC0FF07551D3EC17
:103F20000FF07651D3EC0FF07751D3EC0FF07851BE
:103F3000D3EC0FF07951D3EC0FF00400030E07011E
:103F4000D86F000145EC03F004008A9693960101B6
:103F5000010E0301766FF40E756F329C66C06FF030
:103F600005017E6B0001726B716B8A96939673EFFD
:103F700034F0948082B002D01CAE02D01CA406D0D3
:103F8000320E0701D86F000145EC03F0948082B037
:103F900002D01CAE02D01CA467D01C941F6A07017B
:103FA00085B102D087A105D08381859187917791D2
:103FB000919185B302D087A305D08383859387939E
:103FC0007793919385B502D087A505D08385859594
:103FD00087957795919585B702D087A705D0838778
:103FE000859787977797919785B902D087A905D04C
:103FF0008389859987997799919985BB02D087ABF9
:1040000005D0838B859B879B779B919B85BD02D039
:1040100087AD05D0838D859D879D779D919D85BFBB
:1040200002D087AF05D0838F859F879F779F919F11
:1040300086B102D088A105D084818691889178913B
:10404000929186B302D088A305D084838693889307
:104050007893929332A201D032921C8E89989298D2
:104060008996929608D00001948082A003D01CAE5D
:1040700001D01C9E0701000176EF34F0948282B2D9
:1040800002D032A002D01CA606D0320E0701D86F93
:10409000000145EC03F0948282B202D032A002D03B
:1040A0001CA67DD01C96000E070175B1010ED06FC5
:1040B000000E79B1010ED01903E185B101D07781ED
:1040C000000E75B3010ED06F000E79B3010ED0193A
:1040D00003E185B301D07783000E75B5010ED06F73
:1040E000000E79B5010ED01903E185B501D07785B1
:1040F000000E75B7010ED06F000E79B7010ED01902
:1041000003E185B701D07787000E75B9010ED06F36
:10411000000E79B9010ED01903E185B901D0778974
:10412000000E75BB010ED06F000E79BB010ED019C9
:1041300003E185BB01D0778B000E75BD010ED06FFA
:10414000000E79BD010ED01903E185BD01D0778D38
:10415000000E75BF010ED06F000E79BF010ED01991
:1041600003E185BF01D0778F000E76B1010ED06FCD
:10417000000E7AB1010ED01903E186B101D0788129
:10418000000E76B3010ED06F000E7AB3010ED01977
:1041900003E186B301D07883328008D00001948295
:1041A00082A203D032A001D032900701000178EF43
:1041B00034F063510A0820E10701759179A17581F6
:1041C000759379A37583759579A57585759779A785
:1041D0007587759979A97589759B79AB758B759D6F
:1041E00079AD758D759F79AF758F76917AA176814E
:1041F00076937AA376830001070183918393839555
:1042000083978399839B839D839F849184930001EB
:1042100074EF21F035C0CFF736C0D0F7948482B464
:1042200002D01CAC02D01CA806D0320E0701D86FF9
:10423000000145EC03F0948482B402D01CAC02D09F
:104240001CA846D0948482B402D01CAC02D01CA816
:104250003ED00400315202E1060E316E1C8C040E79
:104260000701D76FD86900015FEC0FF0040E07015A
:10427000D76FD86900016AEC0FF0060E0701D76FFF
:10428000D86900015FEC0FF0060E0701D76FD869FF
:1042900000016AEC0FF0080E0701D76FD869000122
:1042A0005FEC0FF0080E0701D76FD86900016AECC8
:1042B0000FF00A0E0701D76FD86900015FEC0FF00D
:1042C0000A0E0701D76FD86900016AEC0FF008D019
:1042D000948482A405D01CAC03D0316A1C9C1C9A27
:1042E0001CAA07D0328265D7948482A401D01C9A7C
:1042F0000BD0948482A408D01CAC06D063510F0864
:1043000000E2316A1C9C1C9A7AEF34F0D0C7D4F7D3
:10431000CFC7D3F7D4C7EAFF0701D3C7E9FFEF52EE
:1043200006E0D32BD8B4D42B0001F4D70701D2C7B1
:10433000EAFFD1C7E9FFEF5213E0D2C7EAFFD1C7C6
:10434000E9FFEFCFD7F7D4C7EAFFD3C7E9FFD7C755
:10435000EFFFD32BD8B4D42BD12BD8B4D22BE7D7A3
:10436000D4C7EAFFD3C7E9FFEF6ACFC701F0D0C7D0
:1043700002F0000112000701CF2D28D1000E85B1F7
:10438000010ED26F000E87B1010ED211D16F000E57
:1043900083A1010ED117000E7DB1010ED46F000E66
:1043A0007FB1010ED411D115D091E8B0D081000EAB
:1043B000D0B1010ED16F000E85B3010ED36F000E88
:1043C00087B3010ED311D26F000E83A3010ED21753
:1043D000000E7DB3010ED56F000E7FB3010ED51117
:1043E000D215D111D091E8B0D081000ED0B1010E1C
:1043F000D16F000E85B5010ED36F000E87B5010E8B
:10440000D311D26F000E83A5010ED217000E7DB519
:10441000010ED56F000E7FB5010ED511D215D11149
:10442000D091E8B0D081000ED0B1010ED16F000E56
:1044300085B7010ED36F000E87B7010ED311D26F6F
:10444000000E83A7010ED217000E7DB7010ED56FA7
:10445000000E7FB7010ED511D215D111D091E8B061
:10446000D081000ED0B1010ED16F000E85B9010EC2
:10447000D36F000E87B9010ED311D26F000E83A93E
:10448000010ED217000E7DB9010ED56F000E7FB957
:10449000010ED511D215D111D091E8B0D081000E06
:1044A000D0B1010ED16F000E85BB010ED36F000E8F
:1044B00087BB010ED311D26F000E83AB010ED21752
:1044C000000E7DBB010ED56F000E7FBB010ED51116
:1044D000D215D111D091E8B0D081000ED0B1010E2B
:1044E000D16F000E85BD010ED36F000E87BD010E8A
:1044F000D311D26F000E83AD010ED217000E7DBD19
:10450000010ED56F000E7FBD010ED511D215D11150
:10451000D091E8B0D081000ED0B1010ED16F000E65
:1045200085BF010ED36F000E87BF010ED311D26F6E
:10453000000E83AF010ED217000E7DBF010ED56FA6
:10454000000E7FBF010ED511D215D111D091E8B068
:10455000D081000ED0B1010ED16F000E86B1010ED8
:10456000D36F000E88B1010ED311D26F000E84A15B
:10457000010ED217000E7EB1010ED56F000E80B174
:10458000010ED511D215D111D091E8B0D081000E15
:10459000D0B1010ED16F000E86B3010ED36F000EA5
:1045A00088B3010ED311D26F000E84A3010ED2176F
:1045B000000E7EB3010ED56F000E80B3010ED51133
:1045C000D215D111D091E8B0D0812BD1CF510208B2
:1045D000D8A427D1000E85B1010ED26F000E87B18D
:1045E000010ED211D16F000E83A1010ED117000E62
:1045F0007DA1010ED46F000E7FB1010ED411D11533
:10460000D091E8B0D081000ED0B1010ED16F000E74
:1046100085B3010ED36F000E87B3010ED311D26F95
:10462000000E83A3010ED217000E7DA3010ED56FDD
:10463000000E7FB3010ED511D215D111D091E8B083
:10464000D081000ED0B1010ED16F000E85B5010EE4
:10465000D36F000E87B5010ED311D26F000E83A564
:10466000010ED217000E7DA5010ED56F000E7FB58D
:10467000010ED511D215D111D091E8B0D081000E24
:10468000D0B1010ED16F000E85B7010ED36F000EB1
:1046900087B7010ED311D26F000E83A7010ED21778
:1046A000000E7DA7010ED56F000E7FB7010ED5114C
:1046B000D215D111D091E8B0D081000ED0B1010E49
:1046C000D16F000E85B9010ED36F000E87B9010EB0
:1046D000D311D26F000E83A9010ED217000E7DA94F
:1046E000010ED56F000E7FB9010ED511D215D11173
:1046F000D091E8B0D081000ED0B1010ED16F000E84
:1047000085BB010ED36F000E87BB010ED311D26F94
:10471000000E83AB010ED217000E7DAB010ED56FDC
:10472000000E7FBB010ED511D215D111D091E8B08A
:10473000D081000ED0B1010ED16F000E85BD010EEB
:10474000D36F000E87BD010ED311D26F000E83AD63
:10475000010ED217000E7DAD010ED56F000E7FBD8C
:10476000010ED511D215D111D091E8B0D081000E33
:10477000D0B1010ED16F000E85BF010ED36F000EB8
:1047800087BF010ED311D26F000E83AF010ED21777
:10479000000E7DAF010ED56F000E7FBF010ED5114B
:1047A000D215D111D091E8B0D081000ED0B1010E58
:1047B000D16F000E86B1010ED36F000E88B1010ECD
:1047C000D311D26F000E84A1010ED217000E7EA16C
:1047D000010ED56F000E80B1010ED511D215D11189
:1047E000D091E8B0D081000ED0B1010ED16F000E93
:1047F00086B3010ED36F000E88B3010ED311D26FB2
:10480000000E84A3010ED217000E7EA3010ED56FF9
:10481000000E80B3010ED511D215D111D091E8B0A0
:10482000D081000ED0B1010E016E0001120007010F
:1048300081A156D0000E75B1010ED06F000E79B176
:10484000010ED019010802E17BB102D085A144D04C
:1048500083B141D085B10CD0000160510F08D8B4AC
:1048600002D0070105D0640E1E6E61C01FF0070163
:1048700085811CB202D0779101D077811CB80ED00F
:104880007FB105D0898892988986929607D07DA1BC
:1048900003D08988929802D08986929691B11BD0D4
:1048A00032B219D083B117D09181060ED06FD10EDC
:1048B000CF6F050ED26F910ED16F000127DD060E6E
:1048C0000701D06FD10ECF6F070ED26F710ED16F6F
:1048D00000011CDD070103D07BA101D083912CD006
:1048E000000E75B1010ED06F000E79B1010ED01916
:1048F00001081FE1779191B11BD032B219D083B179
:1049000017D09181060ED06FD10ECF6F050ED26FEA
:10491000910ED16F0001FADC060E0701D06FD10EA7
:10492000CF6F070ED26F710ED16F0001EFDC070160
:1049300003D077819191329281A356D0000E75B346
:10494000010ED06F000E79B3010ED019010802E1FB
:104950007BB302D085A344D083B341D085B30CD0C0
:10496000000160510F08D8B402D0070105D0640ED1
:104970001E6E61C01FF0070185831CB202D07793C1
:1049800001D077831CB80ED07FB305D08988929868
:104990008986929607D07DA303D08988929802D009
:1049A0008986929691B31BD032B219D083B317D0B7
:1049B0009183060ED06FD10ECF6F050ED26FB10E60
:1049C000D16F0001A3DC060E0701D06FD10ECF6FAF
:1049D000070ED26F710ED16F000198DC070103D072
:1049E0007BA301D083932CD0000E75B3010ED06F42
:1049F000000E79B3010ED01901081FE1779391B32E
:104A00001BD032B219D083B317D09183060ED06F6A
:104A1000D10ECF6F050ED26FB10ED16F000176DCD3
:104A2000060E0701D06FD10ECF6F070ED26F710E39
:104A3000D16F00016BDC070103D077839193329231
:104A400081A556D0000E75B5010ED06F000E79B558
:104A5000010ED019010802E17BB502D085A544D032
:104A600083B541D085B50CD0000160510F08D8B492
:104A700002D0070105D0640E1E6E61C01FF0070151
:104A800085851CB202D0779501D077851CB80ED0F1
:104A90007FB505D0898892988986929607D07DA5A2
:104AA00003D08988929802D08986929691B51BD0BE
:104AB00032B219D083B517D09185060ED06FD10EC2
:104AC000CF6F050ED26FD10ED16F00011FDC060E25
:104AD0000701D06FD10ECF6F070ED26F710ED16F5D
:104AE000000114DC070103D07BA501D083952ED0F3
:104AF000000E75B5010ED06F000E79B5010ED019FC
:104B0000010821E1779591B51DD032B21BD083B554
:104B100019D09185060ED06FD10ECF6F050ED26FD2
:104B2000D10ED16F000186EC21F0060E0701D06F87
:104B3000D10ECF6F070ED26F710ED16F000186ECD0
:104B400021F0070103D077859195329281A758D043
:104B5000000E75B7010ED06F000E79B7010ED01997
:104B6000010802E17BB702D085A746D083B743D0C6
:104B700085B70CD0000160510F08D8B402D00701EE
:104B800005D0640E1E6E61C01FF0070185871CB240
:104B900002D0779701D077871CB80ED07FB705D0A9
:104BA000898892988986929607D07DA703D08988B4
:104BB000929802D08986929691B71DD032B21BD0BE
:104BC00083B719D09187060ED06FD10ECF6F050E27
:104BD000D26FF10ED16F000186EC21F0060E0701B5
:104BE000D06FD10ECF6F070ED26F710ED16F000153
:104BF00086EC21F0070103D07BA701D083972ED04C
:104C0000000E75B7010ED06F000E79B7010ED019E6
:104C1000010821E1779791B71DD032B21BD083B73D
:104C200019D09187060ED06FD10ECF6F050ED26FBF
:104C3000F10ED16F000186EC21F0060E0701D06F56
:104C4000D10ECF6F070ED26F710ED16F000186ECBF
:104C500021F0070103D077879197329281A958D02C
:104C6000000E75B9010ED06F000E79B9010ED01982
:104C7000010802E17BB902D085A946D083B943D0AF
:104C800085B90CD0000160510F08D8B402D00701DB
:104C900005D0640E1E6E61C01FF0070185891CB22D
:104CA00002D0779901D077891CB80ED07FB905D092
:104CB000898892988986929607D07DA903D08988A1
:104CC000929802D08986929691B91DD032B21BD0AB
:104CD00083B919D09189060ED06FD10ECF6F060E11
:104CE000D26F110ED16F000186EC21F0060E070184
:104CF000D06FD10ECF6F070ED26F710ED16F000142
:104D000086EC21F0070103D07BA901D083992ED036
:104D1000000E75B9010ED06F000E79B9010ED019D1
:104D2000010821E1779991B91DD032B21BD083B926
:104D300019D09189060ED06FD10ECF6F060ED26FAB
:104D4000110ED16F000186EC21F0060E0701D06F25
:104D5000D10ECF6F070ED26F710ED16F000186ECAE
:104D600021F0070103D077899199329281AB58D015
:104D7000000E75BB010ED06F000E79BB010ED0196D
:104D8000010802E17BBB02D085AB46D083BB43D098
:104D900085BB0CD0000160510F08D8B402D00701C8
:104DA00005D0640E1E6E61C01FF00701858B1CB21A
:104DB00002D0779B01D0778B1CB80ED07FBB05D07B
:104DC000898892988986929607D07DAB03D089888E
:104DD000929802D08986929691BB1DD032B21BD098
:104DE00083BB19D0918B060ED06FD10ECF6F060EFC
:104DF000D26F310ED16F000186EC21F0060E070153
:104E0000D06FD10ECF6F070ED26F710ED16F000130
:104E100086EC21F0070103D07BAB01D0839B2ED021
:104E2000000E75BB010ED06F000E79BB010ED019BC
:104E3000010821E1779B91BB1DD032B21BD083BB0F
:104E400019D0918B060ED06FD10ECF6F060ED26F98
:104E5000310ED16F000186EC21F0060E0701D06FF4
:104E6000D10ECF6F070ED26F710ED16F000186EC9D
:104E700021F0070103D0778B919B329281AD58D0FE
:104E8000000E75BD010ED06F000E79BD010ED01958
:104E9000010802E17BBD02D085AD46D083BD43D081
:104EA00085BD0CD0000160510F08D8B402D00701B5
:104EB00005D0640E1E6E61C01FF00701858D1CB207
:104EC00002D0779D01D0778D1CB80ED07FBD05D064
:104ED000898892988986929607D07DAD03D089887B
:104EE000929802D08986929691BD1DD032B21BD085
:104EF00083BD19D0918D060ED06FD10ECF6F060EE7
:104F0000D26F510ED16F000186EC21F0060E070121
:104F1000D06FD10ECF6F070ED26F710ED16F00011F
:104F200086EC21F0070103D07BAD01D0839D2ED00C
:104F3000000E75BD010ED06F000E79BD010ED019A7
:104F4000010821E1779D91BD1DD032B21BD083BDF8
:104F500019D0918D060ED06FD10ECF6F060ED26F85
:104F6000510ED16F000186EC21F0060E0701D06FC3
:104F7000D10ECF6F070ED26F710ED16F000186EC8C
:104F800021F0070103D0778D919D329281AF58D0E7
:104F9000000E75BF010ED06F000E79BF010ED01943
:104FA000010802E17BBF02D085AF46D083BF43D06A
:104FB00085BF0CD0000160510F08D8B402D00701A2
:104FC00005D0640E1E6E61C01FF00701858F1CB2F4
:104FD00002D0779F01D0778F1CB80ED07FBF05D04D
:104FE000898892988986929607D07DAF03D0898868
:104FF000929802D08986929691BF1DD032B21BD072
:1050000083BF19D0918F060ED06FD10ECF6F060ED1
:10501000D26F710ED16F000186EC21F0060E0701F0
:10502000D06FD10ECF6F070ED26F710ED16F00010E
:1050300086EC21F0070103D07BAF01D0839F2ED0F7
:10504000000E75BF010ED06F000E79BF010ED01992
:10505000010821E1779F91BF1DD032B21BD083BFE1
:1050600019D0918F060ED06FD10ECF6F060ED26F72
:10507000710ED16F000186EC21F0060E0701D06F92
:10508000D10ECF6F070ED26F710ED16F000186EC7B
:1050900021F0070103D0778F919F329282A158D0DF
:1050A000000E76B1010ED06F000E7AB1010ED0194C
:1050B000010802E17CB102D086A146D084B143D080
:1050C00086B10CD0000160510F08D8B402D007019E
:1050D00005D0640E1E6E61C01FF0070186811CB2F0
:1050E00002D0789101D078811CB80ED080B105D063
:1050F000898892988986929607D07EA103D0898864
:10510000929802D08986929692B11DD032B21BD06D
:1051100084B119D09281060ED06FD10ECF6F060EDA
:10512000D26F910ED16F000186EC21F0060E0701BF
:10513000D06FD10ECF6F070ED26F710ED16F0001FD
:1051400086EC21F0070103D07CA101D084912ED000
:10515000000E76B1010ED06F000E7AB1010ED0199B
:10516000010821E1789192B11DD032B21BD084B1F7
:1051700019D09281060ED06FD10ECF6F060ED26F6E
:10518000910ED16F000186EC21F0060E0701D06F61
:10519000D10ECF6F070ED26F710ED16F000186EC6A
:1051A00021F0070103D078819291329282A358D0E6
:1051B000000E76B3010ED06F000E7AB3010ED01937
:1051C000010802E17CB302D086A346D084B343D069
:1051D00086B30CD0000160510F08D8B402D007018B
:1051E00005D0640E1E6E61C01FF0070186831CB2DD
:1051F00002D0789301D078831CB80ED080B305D04C
:10520000898892988986929607D07EA303D0898850
:10521000929802D08986929692B31DD032B21BD05A
:1052200084B319D09283060ED06FD10ECF6F060EC5
:10523000D26FB10ED16F000186EC21F0060E07018E
:10524000D06FD10ECF6F070ED26F710ED16F0001EC
:1052500086EC21F0070103D07CA301D084932ED0EB
:10526000000E76B3010ED06F000E7AB3010ED01986
:10527000010821E1789392B31DD032B21BD084B3E0
:1052800019D09283060ED06FD10ECF6F060ED26F5B
:10529000B10ED16F000186EC21F0060E0701D06F30
:1052A000D10ECF6F070ED26F710ED16F000186EC59
:1052B00021F0070103D0788392933292000E75B1EA
:1052C000010ED06F000E79B1010ED019010802E174
:1052D0007BA102D01CAA4AD087B10ED00001605138
:1052E0000F08D8B402D0070107D0070183B104D05A
:1052F000640E1E6E61C01FF0878183B115D01CB291
:1053000002D0779101D077811CB80ED07FB105D043
:10531000898892988986929607D07DA103D0898842
:10532000929802D089869296010ECB6F91B11DD0D2
:1053300032B21BD083B119D09181060ED06FD10E3D
:10534000CF6F050ED26F910ED16F000186EC21F068
:10535000060E0701D06FD10ECF6F070ED26F710E00
:10536000D16F000186EC21F0070140D07BB13ED027
:1053700087918391778191917DB102D07FB10DD0DA
:10538000CB530BE1010ECF6F0001BBEC21F0012CE0
:1053900001D002D08998929807017DA102D07FB1F7
:1053A0000DD0CB530BE1020ECF6F0001BBEC21F00F
:1053B000012C01D002D089969296070187B116D0B0
:1053C00087B314D087B512D087B710D087B90ED065
:1053D00087BB0CD087BD0AD087BF08D088B106D064
:1053E00088B304D08996929689989298000E75B3E6
:1053F000010ED06F000E79B3010ED019010802E141
:105400007BA302D01CAA4AD087B30ED00001605102
:105410000F08D8B402D0070107D0070183B304D026
:10542000640E1E6E61C01FF0878383B315D01CB25B
:1054300002D0779301D077831CB80ED07FB305D00C
:10544000898892988986929607D07DA303D089880F
:10545000929802D089869296010ECB6F91B31DD09F
:1054600032B21BD083B319D09183060ED06FD10E08
:10547000CF6F050ED26FB10ED16F000186EC21F017
:10548000060E0701D06FD10ECF6F070ED26F710ECF
:10549000D16F000186EC21F0070140D07BB33ED0F4
:1054A00087938393778391937DB302D07FB30DD09D
:1054B000CB530BE1010ECF6F0001BBEC21F0012CAF
:1054C00001D002D08998929807017DA302D07FB3C2
:1054D0000DD0CB530BE1020ECF6F0001BBEC21F0DE
:1054E000012C01D002D089969296070187B116D07F
:1054F00087B314D087B512D087B710D087B90ED034
:1055000087BB0CD087BD0AD087BF08D088B106D032
:1055100088B304D08996929689989298000E75B5B2
:10552000010ED06F000E79B5010ED019010802E10D
:105530007BA502D01CAA4AD087B50ED000016051CD
:105540000F08D8B402D0070107D0070183B504D0F3
:10555000640E1E6E61C01FF0878583B515D01CB226
:1055600002D0779501D077851CB80ED07FB505D0D5
:10557000898892988986929607D07DA503D08988DC
:10558000929802D089869296010ECB6F91B51DD06C
:1055900032B21BD083B519D09185060ED06FD10ED3
:1055A000CF6F050ED26FD10ED16F000186EC21F0C6
:1055B000060E0701D06FD10ECF6F070ED26F710E9E
:1055C000D16F000186EC21F0070140D07BB53ED0C1
:1055D00087958395778591957DB502D07FB50DD060
:1055E000CB530BE1010ECF6F0001BBEC21F0012C7E
:1055F00001D002D08998929807017DA502D07FB58D
:105600000DD0CB530BE1020ECF6F0001BBEC21F0AC
:10561000012C01D002D089969296070187B116D04D
:1056200087B314D087B512D087B710D087B90ED002
:1056300087BB0CD087BD0AD087BF08D088B106D001
:1056400088B304D08996929689989298000E75B77F
:10565000010ED06F000E79B7010ED019010802E1DA
:105660007BA702D01CAA4AD087B70ED00001605198
:105670000F08D8B402D0070107D0070183B704D0C0
:10568000640E1E6E61C01FF0878783B715D01CB2F1
:1056900002D0779701D077871CB80ED07FB705D09E
:1056A000898892988986929607D07DA703D08988A9
:1056B000929802D089869296010ECB6F91B71DD039
:1056C00032B21BD083B719D09187060ED06FD10E9E
:1056D000CF6F050ED26FF10ED16F000186EC21F075
:1056E000060E0701D06FD10ECF6F070ED26F710E6D
:1056F000D16F000186EC21F0070140D07BB73ED08E
:1057000087978397778791977DB702D07FB70DD022
:10571000CB530BE1010ECF6F0001BBEC21F0012C4C
:1057200001D002D08998929807017DA702D07FB757
:105730000DD0CB530BE1020ECF6F0001BBEC21F07B
:10574000012C01D002D089969296070187B116D01C
:1057500087B314D087B512D087B710D087B90ED0D1
:1057600087BB0CD087BD0AD087BF08D088B106D0D0
:1057700088B304D08996929689989298000E75B94C
:10578000010ED06F000E79B9010ED019010802E1A7
:105790007BA902D01CAA4AD087B90ED00001605163
:1057A0000F08D8B402D0070107D0070183B904D08D
:1057B000640E1E6E61C01FF0878983B915D01CB2BC
:1057C00002D0779901D077891CB80ED07FB905D067
:1057D000898892988986929607D07DA903D0898876
:1057E000929802D089869296010ECB6F91B91DD006
:1057F00032B21BD083B919D09189060ED06FD10E69
:10580000CF6F060ED26F110ED16F000186EC21F022
:10581000060E0701D06FD10ECF6F070ED26F710E3B
:10582000D16F000186EC21F0070140D07BB93ED05A
:1058300087998399778991997DB902D07FB90DD0E5
:10584000CB530BE1010ECF6F0001BBEC21F0012C1B
:1058500001D002D08998929807017DA902D07FB922
:105860000DD0CB530BE1020ECF6F0001BBEC21F04A
:10587000012C01D002D089969296070187B116D0EB
:1058800087B314D087B512D087B710D087B90ED0A0
:1058900087BB0CD087BD0AD087BF08D088B106D09F
:1058A00088B304D08996929689989298000E75BB19
:1058B000010ED06F000E79BB010ED019010802E174
:1058C0007BAB02D01CAA4AD087BB0ED0000160512E
:1058D0000F08D8B402D0070107D0070183BB04D05A
:1058E000640E1E6E61C01FF0878B83BB15D01CB287
:1058F00002D0779B01D0778B1CB80ED07FBB05D030
:10590000898892988986929607D07DAB03D0898842
:10591000929802D089869296010ECB6F91BB1DD0D2
:1059200032B21BD083BB19D0918B060ED06FD10E33
:10593000CF6F060ED26F310ED16F000186EC21F0D1
:10594000060E0701D06FD10ECF6F070ED26F710E0A
:10595000D16F000186EC21F0070140D07BBB3ED027
:10596000879B839B778B919B7DBB02D07FBB0DD0A8
:10597000CB530BE1010ECF6F0001BBEC21F0012CEA
:1059800001D002D08998929807017DAB02D07FBBED
:105990000DD0CB530BE1020ECF6F0001BBEC21F019
:1059A000012C01D002D089969296070187B116D0BA
:1059B00087B314D087B512D087B710D087B90ED06F
:1059C00087BB0CD087BD0AD087BF08D088B106D06E
:1059D00088B304D08996929689989298000E75BDE6
:1059E000010ED06F000E79BD010ED019010802E141
:1059F0007BAD02D01CAA4AD087BD0ED000016051F9
:105A00000F08D8B402D0070107D0070183BD04D026
:105A1000640E1E6E61C01FF0878D83BD15D01CB251
:105A200002D0779D01D0778D1CB80ED07FBD05D0F8
:105A3000898892988986929607D07DAD03D089880F
:105A4000929802D089869296010ECB6F91BD1DD09F
:105A500032B21BD083BD19D0918D060ED06FD10EFE
:105A6000CF6F060ED26F510ED16F000186EC21F080
:105A7000060E0701D06FD10ECF6F070ED26F710ED9
:105A8000D16F000186EC21F0070140D07BBD3ED0F4
:105A9000879D839D778D919D7DBD02D07FBD0DD06B
:105AA000CB530BE1010ECF6F0001BBEC21F0012CB9
:105AB00001D002D08998929807017DAD02D07FBDB8
:105AC0000DD0CB530BE1020ECF6F0001BBEC21F0E8
:105AD000012C01D002D089969296070187B116D089
