:0400000065EF38F080
:08000800046ED8CF05F0E0CF33
:1000100006F00001E9CF0CF0EACF07F0E1CF08F0DD
:10002000E2CF09F0D9CF0AF0DACF0BF0F3CF12F01C
:10003000F4CF13F0FACF14F0F5CF15F0F6CF16F099
:10004000F7CF17F000C00EF001C00FF002C010F0A3
:1000500003C011F09DA030EF00F09EB0B2EF02F0AF
:100060009DA236EF00F09EB2B5EF02F09DAA3CEFE4
:1000700000F09EBAAAEF02F00EC000F00FC001F02F
:1000800010C002F011C003F00CC0E9FF07C0EAFF86
:10009000078E08C0E1FF09C0E2FF0AC0D9FF0BC00C
:1000A000DAFF12C0F3FF13C0F4FF14C0FAFF15C04B
:1000B000F5FF16C0F6FF17C0F7FF045006C0E0FFBB
:1000C00005C0D8FF1000F76AD60FF66E000EF722B3
:1000D0000900F550120000C1814001C0804101C0FB
:1000E000804100C1814001C0804100C1814000C108
:1000F000814001C0804101C0804100C1814000C1F8
:10010000814001C0804100C1814001C0804101C0E7
:10011000804100C1814001C0804100C1814000C1D7
:10012000814001C0804100C1814001C0804101C0C7
:10013000804100C1814000C1814001C0804101C0B7
:10014000804100C1814001C0804100C1814000C1A7
:10015000814001C0804101C0804100C1814000C197
:10016000814001C0804100C1814001C0804101C087
:10017000804100C1814000C1814001C0804101C077
:10018000804100C1814001C0804100C1814000C167
:10019000814001C0804100C1814001C0804101C057
:1001A000804100C1814001C0804100C1814000C147
:1001B000814001C0804101C0804100C1814000C137
:1001C000814001C0804100C1814001C0804101C027
:1001D000804100C18140F76AE60FF66E010EF722FA
:1001E0000900F550120000C0C101C30302C2C606D7
:1001F00007C705C5C404CC0C0DCD0FCFCE0E0ACA5F
:10020000CB0BC90908C8D81819D91BDBDA1A1EDEAE
:10021000DF1FDD1D1CDC14D4D515D71716D6D2125E
:1002200013D311D1D010F03031F133F3F23236F66E
:10023000F737F53534F43CFCFD3DFF3F3EFEFA3A1E
:100240003BFB39F9F83828E8E929EB2B2AEAEE2EAE
:100250002FEF2DEDEC2CE42425E527E7E62622E21E
:10026000E323E12120E0A06061A163A3A26266A66E
:10027000A767A56564A46CACAD6DAF6F6EAEAA6ADE
:100280006BAB69A9A86878B8B979BB7B7ABABE7E2E
:100290007FBF7DBDBC7CB47475B577B7B67672B2DE
:1002A000B373B17170B0509091519353529296566E
:1002B0005797559594549C5C5D9D5F9F9E5E5A9A9E
:1002C0009B5B99595898884849894B8B8A4A4E8E2E
:1002D0008F4F8D4D4C8C448485458747468682429E
:1002E000438341818040040063516B5D17E16E6B75
:1002F0006D6B6F0E6D25E96E010E6E21EA6E2EC0DC
:10030000EFFF04006D2BD8B46E2B100E6B6F0B013A
:10031000476B140E09017A6F1AD100016B51100856
:1003200048E16F0E6D25E96E010E6E21EA6E2EC05A
:10033000EFFF04006D2BD8B46E2B0101705116082D
:1003400007E364C06BF0140E09017A6F30D001012D
:100350007051200807E167C06BF0140E09017A6F35
:1003600026D001017051210807E169C06BF0140E1D
:1003700009017A6F1CD00101705122080CE10B01B8
:10038000475302E1472B02D069C06BF0140E0901FC
:100390007A6F0DD0010100016E6B6D6B63C06BF065
:1003A00009017A6B8A9693960B01476B0901CFD0AE
:1003B000000169516B5D31E16F0E6D25E96E010E33
:1003C0006E21EA6E2EC0EFFF04006D2BD8B46E2BA9
:1003D00001017051220808E17151640DF35072253A
:1003E00009017B6F14D00101010E00016D5D0B014D
:1003F000606F000E00016E590B01616F6F0E60257A
:10040000E96E010E6121EA6EEFCF7BF90901140E4E
:100410007A6F6AC06BF09BD000016A516B5D16E188
:100420006F0E6D25E96E010E6E21EA6E2EC0EFFF94
:1004300004006D2BD8B46E2B09017B077B5302E1BE
:1004400067C06BF0140E7A6F82D0000164516B5D4F
:1004500013E16F0E6D25E96E010E6E21EA6E2EC05E
:10046000EFFF04006D2BD8B46E2B65C06BF0140E3B
:1004700009017A6F6CD0000165516B5D13E16F0E5D
:100480006D25E96E010E6E21EA6E2EC0EFFF0400AD
:100490006D2BD8B46E2B66C06BF0140E09017A6F09
:1004A00056D0000166516B5D13E16F0E6D25E96E4C
:1004B000010E6E21EA6E2EC0EFFF04006D2BD8B442
:1004C0006E2B150E6B6F140E09017A6F40D0000170
:1004D0006B51150813E16F0E6D25E96E010E6E214B
:1004E000EA6E2EC0EFFF04006D2BD8B46E2B67C0F0
:1004F0006BF0140E09017A6F2AD0000167516B5D11
:1005000013E16F0E6D25E96E010E6E21EA6E2EC0AD
:10051000EFFF04006D2BD8B46E2B68C06BF0140E87
:1005200009017A6F14D0000168516B5D10E16F0E04
:100530006D25E96E010E6E21EA6E2EC0EFFF0400FC
:1005400063C06BF009017A6B308A8A96939600013A
:10055000AFEF02F09EAAFED7AECF2EF0C4D69E9A81
:100560003CEF00F09E903CEF00F0192A09017A530D
:1005700007E07A077A5304E163C06BF08A9693969A
:100580001C520CE01C061C5209E11D5204E01D0621
:100590001D5201E11A843088640E1C6E1950320815
:1005A00014E1196A1AB004D01A808A8A939A03D087
:1005B0001A908A9A939A1AAC07D02F5201E02F060C
:1005C0002F5201E11A8A01D02F6A1B5213E01B0639
:1005D0001B520AE17C6930B405D01AA202D01A92EB
:1005E00001D01A8260C01BF0315204E03106315252
:1005F00001E130949E9200013CEF00F041542B4306
:100600004D47463D310041542B434D47533D220059
:1006100041542B434D47463D310041542B434D47F8
:10062000533D220041542B434D47463D3100415438
:100630002B434D47533D220041542B434D47463DEC
:10064000310041542B434D47533D220041542B432D
:100650004D47463D310041542B434D47533D220009
:1006600041542B434D47463D310041542B434D47A8
:10067000533D220041542B434D47463D31004154E8
:100680002B434D47533D220041542B434D47463D9C
:10069000310041542B434D47533D220041542B43DD
:1006A0004D47463D310041542B434D47533D2200B9
:1006B00041542B434D47463D310041542B434D4758
:1006C000533D220041542B434D47463D3100415498
:1006D0002B434D47533D220041542B434D47463D4C
:1006E000310041542B434D47533D220041542B438D
:1006F0004D47463D310041542B434D47533D220069
:1007000041542B434D47463D310041542B434D4707
:10071000533D220041542B434D47463D3100415447
:100720002B434D47533D220041542B434D47463DFB
:10073000310041542B434D47533D220041542B433C
:100740004D47463D310041542B434D47533D220018
:1007500041542B434D47463D310041542B434D47B7
:10076000533D220041542B434D47463D31004154F7
:100770002B434D47533D220041542B434D47463DAB
:10078000310041542B434D47533D220041542B43EC
:100790004D47533D220041542B434D47533D2200CA
:1007A00041542B434D47533D220041542B434D4769
:1007B000533D220041542B434D47533D22004154A9
:1007C0002B434D47533D220041542B434D47533D4E
:1007D000220041542B434D47533D220041542B43AB
:1007E0004D47533D220041542B434D47533D22007A
:1007F00041542B434D47463D31000B0EEA6E570ED8
:10080000E96EEF5011E0050E016EBF0E006E0400A0
:10081000002EFDD7012EF9D72E0E006E002EFED72A
:1008200000000400EF2EEFD71200929A899A0B0174
:1008300050514009536FC95053CBC9FFC730FEE335
:10084000C95051CBC9FFC730FEE3C95052CBC9FFD5
:10085000C730FEE3929A898A00011200929A898A2F
:10086000929A0B01506B0A0E516FAA0E526F000143
:10087000DCDF020E0B01506F0A0E516FAA0E526F91
:100880000001D3DF040E0B01506F0A0E516FAA0E48
:10089000526F0001CADF060E0B01506F0A0E516F36
:1008A000AA0E526F0001C1DF080E0B01506F0A0E35
:1008B000516FAA0E526F0001B8DF0A0E0B01506F84
:1008C000516FAA0E526F0001B0DF0C0E0B01506F7A
:1008D0000A0E516FAA0E526F0001A7DF0E0E0B0118
:1008E000506F0A0E516FAA0E526F00019EDFD7EFB4
:1008F00038F04ECB50FB0B01516B4FCB52FB00013C
:1009000094DF12004ECB50FB100E0B01516F4FCBFA
:1009100052FB00018ADF1200F2CF58FBF29EAA6A56
:10092000010EA96EA69CA69EA680A8500B0158BFDA
:10093000F28E3A6E3AC03BF00A01D0913AB0D081C3
:10094000D8903A30D093E8B0D0833A30006E00327D
:100950003F0E0016D09500B0D0853A30006E0032C0
:1009600000321F0E0016D09700B0D0873A38006EC4
:100970000F0E0016D09900B0D0893A38006E0032C0
:10098000070E0016D09B00B0D08B3A38006E0032B4
:100990000032030E0016D09D00B0D08D006A3ABE22
:1009A0000080D09F00B0D08FF2CF58FBF29EAA6A91
:1009B000020EA96EA69CA69EA680A8500B0158BF49
:1009C000F28E3A6E3AC03CF00A01D1913AB0D18130
:1009D000D8903A30D193E8B0D1830B0144930A0107
:1009E000D0A103D00B0144830A010B0144950A01F5
:1009F000D0A303D00B0144850A010B0144970A01DF
:100A0000D0A503D00B0144870A010B0144990A01C8
:100A1000D0A703D00B0144890A010B01449B0A01B2
:100A2000D0A903D00B01448B0A010B01449D0A019C
:100A3000D0AB03D00B01448D0A010B01449F0A0186
:100A4000D0AD03D00B01448F0A010B0145910A017F
:100A5000D0AF03D00B0145810A010B0145930A0178
:100A6000D1A103D00B0145830A010B0145950A0171
:100A7000D1A303D00B0145850A01F2CF58FBF29EAA
:100A8000AA6A040EA96EA69CA69EA680A8500B0179
:100A900058BFF28E3A6E3AC03EF00A01D2913AB097
:100AA000D281D8903A30D293E8B0D2833A30006EF7
:100AB00000323F0E0016D29500B0D2853A30006E5B
:100AC000003200321F0E0016D29700B0D2873A389B
:100AD000006E0F0E0016D29900B0D2893A38006E1F
:100AE0000032070E0016D29B00B0D28B3A38006E4F
:100AF00000320032030E0016D29D00B0D28D006A83
:100B00003ABE0080D29F00B0D28FF2CF58FBF29E47
:100B1000AA6A050EA96EA69CA69EA680A8500B01E7
:100B200058BFF28E3A6E3AC03FF00A01D3913AB004
:100B3000D381D8903A30D393E8B0D383F2CF58FB27
:100B4000F29EAA6A070EA96EA69CA69EA680A85031
:100B50000B0158BFF28E3A6E3AC041F00A01D491AF
:100B60003AB0D481D8903A30D493E8B0D4833A30B4
:100B7000006E00323F0E0016D49500B0D4853A3096
:100B8000006E003200321F0E0016D49700B0D487DA
:100B90003A38006E0F0E0016D49900B0D4893A3856
:100BA000006E0032070E0016D49B00B0D48B3A388A
:100BB000006E00320032030E0016D49D00B0D48DBA
:100BC000006A3ABE0080D49F00B0D48FF2CF58FBA9
:100BD000F29EAA6A080EA96EA69CA69EA680A850A0
:100BE0000B0158BFF28E3A6E3AC042F00A01D5911D
:100BF0003AB0D581D8903A30D593E8B0D583F2CFCA
:100C000058FBF29EAA6A0A0EA96EA69CA69EA68012
:100C1000A8500B0158BFF28E3A6E3AC044F00A0158
:100C2000D6913AB0D681D8903A30D693E8B0D683F0
:100C30003A30006E00323F0E0016D69500B0D685D1
:100C40003A30006E003200321F0E0016D69700B008
:100C5000D6873A38006E0F0E0016D69900B0D689A6
:100C60003A38006E0032070E0016D69B00B0D68BC5
:100C70003A38006E00320032030E0016D69D00B0E6
:100C8000D68D006A3ABE0080D69F00B0D68FF2CFD4
:100C900058FBF29EAA6A0B0EA96EA69CA69EA68081
:100CA000A8500B0158BFF28E3A6E3AC045F00A01C7
:100CB000D7913AB0D781D8903A30D793E8B0D7835C
:100CC000F2CF58FBF29EAA6A0D0EA96EA69CA69EB4
:100CD000A680A8500B0158BFF28E3A6E3AC047F07A
:100CE0000A01D8913AB0D881D8903A30D893E8B078
:100CF000D8833A30006E00323F0E0016D89500B00F
:100D0000D8853A30006E003200321F0E0016D89798
:100D100000B0D8873A38006E0F0E0016D89900B090
:100D2000D8893A38006E0032070E0016D89B00B002
:100D3000D88B3A38006E00320032030E0016D89D70
:100D400000B0D88D006A3ABE0080D89F00B0D88F1E
:100D5000F2CF58FBF29EAA6A0E0EA96EA69CA69E22
:100D6000A680A8500B0158BFF28E3A6E3AC048F0E8
:100D70000A01D9913AB0D981D8903A30D993E8B0E4
:100D8000D983F2CF58FBF29EAA6A100EA96EA69CD8
:100D9000A69EA680A8500B0158BFF28E3A6E0A019B
:100DA000E4913AB0E481D8903A30E493E8B0E48337
:100DB0003A30006E00323F0E0016E49500B0E48534
:100DC0003A30006E003200321F0E0016E49700B079
:100DD000E4873A38006E0F0E0016E49900B0E489FB
:100DE0003A38006E0032070E0016E49B00B0E48B28
:100DF0003A38006E00320032030E0016E49D00B057
:100E0000E48D006A3ABE0080E49F00B0E48FF2CF28
:100E100058FBF29EAA6A110EA96EA69CA69EA680F9
:100E2000A8500B0158BFF28E3A6E0A01E5913AB014
:100E3000E581D8903A30E593E8B0E583F2CF58FBEE
:100E4000F29EAA6A140EA96EA69CA69EA680A85021
:100E50000B0158BFF28E3A6E0A01E6913AB0E68174
:100E6000D8903A30E693E8B0E6833A30006E00322C
:100E70003F0E0016E69500B0E6853A30006E00326F
:100E800000321F0E0016E69700B0E6873A38006E73
:100E90000F0E0016E69900B0E6893A38006E00326F
:100EA000070E0016E69B00B0E68B3A38006E003263
:100EB0000032030E0016E69D00B0E68D006A3ABED1
:100EC0000080E69F00B0E68FF2CF58FBF29EAA6A40
:100ED000150EA96EA69CA69EA680A8500B0158BF11
:100EE000F28E3A6E0A01E7913AB0E781D8903A3033
:100EF000E793E8B0E783F2CF58FBF29EAA6A180E98
:100F0000A96EA69CA69EA680A8500B0158BFF28E83
:100F10005E6EF2CF58FBF29EAA6A190EA96EA69CCD
:100F2000A69EA680A85058BFF28E5F6EF2CF58FBE7
:100F3000F29EAA6A1A0EA96EA69CA69EA680A8502A
:100F400058BFF28E0001606FF2CF58FBF29EAA6A82
:100F50001B0EA96EA69CA69EA680A8500B0158BF8A
:100F6000F28E0001616FF2CF58FBF29EAA6A1C0E4E
:100F7000A96EA69CA69EA680A8500B0158BFF28E13
:100F80001B6B1A6FF2CF58FBF29EAA6A1D0EA96E58
:100F9000A69CA69EA680A85058BFF28E00016C6F3A
:100FA000F2CF58FBF29EAA6A1E0EA96EA69CA69EC0
:100FB000A680A8500B0158BFF28E1D6B1C6FF2CF9C
:100FC00058FBF29EAA6A1F0EA96EA69CA69EA6803A
:100FD000A85058BFF28E1F6B1E6FF2CF58FBF29EC7
:100FE000AA6A200EA96EA69CA69EA680A85058BFED
:100FF000F28E216B206FF2CF58FBF29EAA6A210E6F
:10100000A96EA69CA69EA680A85058BFF28E236B00
:10101000226FF2CF58FBF29EAA6A220EA96EA69CFE
:10102000A69EA680A85058BFF28E256B246FF2CFE3
:1010300058FBF29EAA6A230EA96EA69CA69EA680C5
:10104000A85058BFF28E276B266FF2CF58FBF29E46
:10105000AA6A240EA96EA69CA69EA680A85058BF78
:10106000F28E296B286FF2CF58FBF29EAA6A250EEA
:10107000A96EA69CA69EA680A85058BFF28E2B6B88
:101080002A6FF2CF58FBF29EAA6A260EA96EA69C82
:10109000A69EA680A85058BFF28E2D6B2C6FF2CF63
:1010A00058FBF29EAA6A270EA96EA69CA69EA68051
:1010B000A85058BFF28E2F6B2E6FF2CF58FBF29EC6
:1010C000AA6A280EA96EA69CA69EA680A85058BF04
:1010D000F28E316B306FF2CF58FBF29EAA6A290E66
:1010E000A96EA69CA69EA680A85058BFF28E336B10
:1010F000326FF2CF58FBF29EAA6A2A0EA96EA69C06
:10110000A69EA680A85058BFF28E356B346FF2CFE2
:1011100058FBF29EAA6A2B0EA96EA69CA69EA680DC
:10112000A85058BFF28E376B366FF2CF58FBF29E45
:10113000AA6A2C0EA96EA69CA69EA680A85058BF8F
:10114000F28E396B386FF2CF58FBF29EAA6A2D0EE1
:10115000A96EA69CA69EA680A85058BFF28E3B6B97
:101160003A6FF2CF58FBF29EAA6A2E0EA96EA69C89
:10117000A69EA680A85058BFF28E3D6B3C6FF2CF62
:1011800058FBF29EAA6A2F0EA96EA69CA69EA68068
:10119000A85058BFF28E3F6B3E6FF2CF58FBF29EC5
:1011A000AA6A300EA96EA69CA69EA680A85058BF1B
:1011B000F28E416B406FF2CF58FBF29EAA6A310E5D
:1011C000A96EA69CA69EA680A85058BFF28E436B1F
:1011D000426F4E6B0400320E4E25586FF2CF59FB12
:1011E000F29EAA6A58CBA9FFA69CA69EA680A850EC
:1011F00059BFF28E4F6F4F510D0803E04E510F084B
:1012000024E2036A4E517D0FE96E090E0320EA6E57
:10121000EF6A320E4E25586FF250006EF29EAA6AA7
:1012200058CBA9FF4FCBA8FFA69CA69EA6840F0172
:10123000550EA76EAA0EA76EA682A6B2FED7A694DA
:101240000050F21210D00BD00B01036A4E517D0FEB
:10125000E96E090E0320EA6E4FCBEFFF0F010B0181
:101260004E2BB8D70F010B01516B030E506F536B10
:10127000526B556B546B04005D0E5025586F000E79
:101280005121596FF2CF5AFBF29E59CBAAFF58CB8E
:10129000A9FFA69CA69EA680A8505ABFF28E576BA7
:1012A000566F56510D0802E1575305E0535303E1C1
:1012B0005251290809E28C0E5225E96E090E53217C
:1012C000EA6EEF6A13D008D08C0E5225E96E090E33
:1012D0005321EA6E56CBEFFF51CB03F05051502B08
:1012E000D8B4512B522BD8B4532BC5D7502BD8B4CC
:1012F000512B536B526B04005D0E5025586F000E3E
:101300005121596FF2CF5AFBF29E59CBAAFF58CB0D
:10131000A9FFA69CA69EA680A8505ABFF28E576B26
:10132000566F56510D0802E1575305E0535303E140
:101330005251290809E2AC0E5225E96E090E5321DB
:10134000EA6EEF6A13D008D0AC0E5225E96E090E92
:101350005321EA6E56CBEFFF51CB03F05051502B87
:10136000D8B4512B522BD8B4532BC5D7502BD8B44B
:10137000512B536B526B04005D0E5025586F000EBD
:101380005121596FF2CF5AFBF29E59CBAAFF58CB8D
:10139000A9FFA69CA69EA680A8505ABFF28E576BA6
:1013A000566F56510D0802E1575305E0535303E1C0
:1013B0005251290809E2CC0E5225E96E090E53213B
:1013C000EA6EEF6A13D008D0CC0E5225E96E090EF2
:1013D0005321EA6E56CBEFFF51CB03F05051502B07
:1013E000D8B4512B522BD8B4532BC5D7502BD8B4CB
:1013F000512B536B526B04005D0E5025586F000E3D
:101400005121596FF2CF5AFBF29E59CBAAFF58CB0C
:10141000A9FFA69CA69EA680A8505ABFF28E576B25
:10142000566F56510D0802E1575305E0535303E13F
:101430005251290809E2EC0E5225E96E090E53219A
:10144000EA6EEF6A13D008D0EC0E5225E96E090E51
:101450005321EA6E56CBEFFF51CB03F05051502B86
:10146000D8B4512B522BD8B4532BC5D7502BD8B44A
:10147000512B536B526B04005D0E5025586F000EBC
:101480005121596FF2CF5AFBF29E59CBAAFF58CB8C
:10149000A9FFA69CA69EA680A8505ABFF28E576BA5
:1014A000566F56510D0802E1575305E0535303E1BF
:1014B0005251290809E20C0E5225E96E0A0E5321F9
:1014C000EA6EEF6A13D008D00C0E5225E96E0A0EB0
:1014D0005321EA6E56CBEFFF51CB03F05051502B06
:1014E000D8B4512B522BD8B4532BC5D7502BD8B4CA
:1014F000512B536B526B04005D0E5025586F000E3C
:101500005121596FF2CF5AFBF29E59CBAAFF58CB0B
:10151000A9FFA69CA69EA680A8505ABFF28E576B24
:10152000566F56510D0802E1575305E0535303E13E
:101530005251290809E22C0E5225E96E0A0E532158
:10154000EA6EEF6A13D008D02C0E5225E96E0A0E0F
:101550005321EA6E56CBEFFF51CB03F05051502B85
:10156000D8B4512B522BD8B4532BC5D7502BD8B449
:10157000512B536B526B04005D0E5025586F000EBB
:101580005121596FF2CF5AFBF29E59CBAAFF58CB8B
:10159000A9FFA69CA69EA680A8505ABFF28E576BA4
:1015A000566F56510D0802E1575305E0535303E1BE
:1015B0005251290809E24C0E5225E96E0A0E5321B8
:1015C000EA6EEF6A13D008D04C0E5225E96E0A0E6F
:1015D0005321EA6E56CBEFFF51CB03F05051502B05
:1015E000D8B4512B522BD8B4532BC5D7502BD8B4C9
:1015F000512B536B526B04005D0E5025586F000E3B
:101600005121596FF2CF5AFBF29E59CBAAFF58CB0A
:10161000A9FFA69CA69EA680A8505ABFF28E576B23
:10162000566F56510D0802E1575305E0535303E13D
:101630005251290809E26C0E5225E96E0A0E532117
:10164000EA6EEF6A13D008D06C0E5225E96E0A0ECE
:101650005321EA6E56CBEFFF51CB03F05051502B84
:10166000D8B4512B522BD8B4532BC5D7502BD8B448
:10167000512B536B526B04005D0E5025586F000EBA
:101680005121596FF2CF5AFBF29E59CBAAFF58CB8A
:10169000A9FFA69CA69EA680A8505ABFF28E576BA3
:1016A000566F56510D0802E1575305E0535303E1BD
:1016B0005251290809E28C0E5225E96E0A0E532177
:1016C000EA6EEF6A13D008D08C0E5225E96E0A0E2E
:1016D0005321EA6E56CBEFFF51CB03F05051502B04
:1016E000D8B4512B522BD8B4532BC5D7502BD8B4C8
:1016F000512B536B526B04005D0E5025586F000E3A
:101700005121596FF2CF5AFBF29E59CBAAFF58CB09
:10171000A9FFA69CA69EA680A8505ABFF28E576B22
:10172000566F56510D0802E1575305E0535303E13C
:101730005251290809E2AC0E5225E96E0A0E5321D6
:10174000EA6EEF6A13D008D0AC0E5225E96E0A0E8D
:101750005321EA6E56CBEFFF51CB03F05051502B83
:10176000D8B4512B522BD8B4532BC5D7000112003B
:10177000929A899A0B0151514109546FC95054CB27
:10178000C9FFC730FEE3C95052CBC9FFC730FEE3E3
:10179000C950C96AC730FEE3C9CF53FB929A898A00
:1017A00053CB01F0000112004FCB51FB090E0B018E
:1017B000526F0001DDDF01C050FB0B0150CB01F087
:1017C000000112004FCB51FB190E0B01526F0001AB
:1017D000CFDF01C050FB0B0150CB01F00001120024
:1017E0000B015251070B006E5231016E0132013272
:1017F0001F0E011601505325E96E000E5421EA6EAA
:10180000EFCF01F0002A01D00132002EFDD7010EEA
:101810000116000112000B0153515503F3CF01F0E3
:10182000F4CF00F05603F350002654515503F35003
:101830000020026E000112000B015251070B006ED6
:101840005231016E013201321F0E01160150542532
:10185000E96E000E5521EA6E016A012A002A01D0C4
:101860000136002EFDD7535303E00150EF1203D091
:10187000011E0150EF16000112000B014F6B4F6B60
:101880004FBF03D04F510A0823E3036A4F51006E44
:10189000E8BE0306506F03C051FB036A4F51006E50
:1018A000E8BE0306526F0A0E546FED0E536F00012F
:1018B00097DF50CB52FB0B01536B01B0532B0A0E39
:1018C000556FEA0E546F0001B7DF0B014F2BD8D7CD
:1018D0000001E4EF0FF00B014F6B000165DF01C069
:1018E00078F91AA803D00901781F00010A01EE97C0
:1018F000090178A103D00A01EE870901D890783157
:101900000A01EE99E8B0EE8909017831006E0032E3
:101910003F0E00160A01EE9B00B0EE8B09017831F4
:10192000006E003200321F0E00160A01EE9D00B05C
:10193000EE8D09017839006E0F0E00160A01EE9F38
:1019400000B0EE8F09017839006E0032070E0016E4
:101950000A01EF9100B0EF8109017839006E003281
:101960000032030E00160A01EF9300B0EF83006A05
:10197000090178BF00800A01EF9500B0EF850B01E7
:101980004F6B00011FDF01C078F91AA803D00901CD
:10199000781F00010A01EF97090178A103D00A011D
:1019A000EF870901D89078310A01EF99E8B0EF8903
:1019B000020E0B014F6F0001F7DE01C078F91AA883
:1019C00003D00901781F00010A01ED93090178A1F4
:1019D00003D00A01ED830901D89078310A01ED9511
:1019E000E8B0ED8509017831006E00323F0E001637
:1019F0000A01ED9700B0ED8709017831006E0032E1
:101A000000321F0E00160A01ED9900B0ED890901A0
:101A10007839006E0F0E00160A01ED9B00B0ED8BB9
:101A200009017839006E0032070E00160A01ED9D9B
:101A300000B0ED8D09017839006E00320032030EDE
:101A400000160A01ED9F00B0ED8F006A090178BF12
:101A500000800A01EE9100B0EE81020E0B014F6F83
:101A60000001B0DE01C078F91AA803D00901781F7F
:101A700000010A01EE93090178A103D00A01EE8367
:101A80000901D89078310A01EE95E8B0EE85010E93
:101A90000B014E6F4E510A08D8A094D24ECB52FB88
:101AA0000B0E546F440E536F00019ADE0150010B70
:101AB0000108D8A43BD14ECB52FB0A0E0B01546F48
:101AC000ED0E536F00018CDE0150010BD8A497D0AE
:101AD0004ECB52FB0A0E0B01546FEA0E536F0001FE
:101AE0007FDE0150010BD8A47CD0D8900B014E357D
:101AF000036AF00FE96E0A0E0320EA6E010EEE266D
:101B000001E3EF2AD8904E35036AF00FE96E0A0E12
:101B10000320EA6EECCF50FBED52EFCF4FFBD89095
:101B20004E35036A1A0FE96E0B0E0320EA6EECCFF6
:101B300054FBED52EFCF53FB566B4B0E556F00012C
:101B40006ADE02C052FB01C051FB0F0E0B010124E3
:101B5000016E000E0220036E0350505D40E303E16E
:101B600001504F5D3CE3D8904E35036AF00FE96EAB
:101B70000A0E0320EA6EEC6AED52EF6A010E4E5D2A
:101B8000F60F2DE20A0F000144EF10F00A01CC918C
:101B90000B0125D00A01CC930B0121D00A01CC9571
:101BA0000B011DD00A01CC970B0119D00A01CC9969
:101BB0000B0115D00A01CC9B0B0111D00A01CC9D61
:101BC0000B010DD00A01CC9F0B0109D00A01CD9168
:101BD0000B0105D00A01CD930B0101D00B010DD0F3
:101BE0000001D8900B014E35036AF00FE96E0A0E22
:101BF0000320EA6EEC6AED52EF6A97D000014ECBFB
:101C000052FB0A0E0B01546FEA0E536F0001E8DD20
:101C10000150010B0108D8A47CD0D8900B014E359F
:101C2000036AF00FE96E0A0E0320EA6E010EEE263B
:101C300001E3EF2AD8904E35036AF00FE96E0A0EE1
:101C40000320EA6EECCF50FBED52EFCF4FFBD89064
:101C50004E35036A1A0FE96E0B0E0320EA6EECCFC5
:101C600054FBED52EFCF53FB566B4B0E556F0001FB
:101C7000D2DD02C052FB01C051FB0F0E0B0101244B
:101C8000016E000E0220036E0350505D40E303E13D
:101C900001504F5D3CE3D8904E35036AF00FE96E7A
:101CA0000A0E0320EA6EEC6AED52010EEF6E4E5DF5
:101CB000F60F2DE20A0F00015BEF10F00A01CC8154
:101CC0000B0125D00A01CC830B0121D00A01CC8560
:101CD0000B011DD00A01CC870B0119D00A01CC8958
:101CE0000B0115D00A01CC8B0B0111D00A01CC8D50
:101CF0000B010DD00A01CC8F0B0109D00A01CD8157
:101D00000B0105D00A01CD830B0101D00B010DD0D1
:101D10000001D8900B014E35036AF00FE96E0A0EF0
:101D20000320EA6EEC6AED52EF6A48D14ECB52FBCB
:101D30000B0E0B01546F440E536F000151DD015027
:101D4000010BD8A43CD14ECB52FB0A0E0B01546FB1
:101D5000ED0E536F000144DD0150010B0108D8A4C2
:101D600098D04ECB52FB0A0E0B01546FEA0E536F04
:101D7000000136DD0150010B0108D8A47CD0D890B9
:101D80000B014E35036AF00FE96E0A0E0320EA6E6E
:101D9000010EEE2601E3EF2AD8904E35036AF00FCC
:101DA000E96E0A0E0320EA6EECCF50FBED52EFCF46
:101DB0004FFBD8904E35036A1A0FE96E0B0E0320C5
:101DC000EA6EECCF54FBED52EFCF53FB566B4B0E4C
:101DD000556F000120DD02C052FB01C051FB0F0E08
:101DE0000B010124016E000E0220036E0350505DB2
:101DF00040E303E101504F5D3CE3D8904E35036A68
:101E0000F00FE96E0A0E0320EA6EEC6AED52EF6AFB
:101E1000010E4E5DF60F2DE20A0F000172EF10F079
:101E20000A01CC810B0125D00A01CC830B0121D002
:101E30000A01CC850B011DD00A01CC870B0119D0FA
:101E40000A01CC890B0115D00A01CC8B0B0111D0F2
:101E50000A01CC8D0B010DD00A01CC8F0B0109D0EA
:101E60000A01CD810B0105D00A01CD830B0101D000
:101E70000B010DD00001D8900B014E35036AF00F15
:101E8000E96E0A0E0320EA6EEC6AED52EF6A96D014
:101E900000014ECB52FB0A0E0B01546FEA0E536F3A
:101EA00000019EDC0150010BD8A47CD0D8900B011E
:101EB0004E35036AF00FE96E0A0E0320EA6E010E3A
:101EC000EE2601E3EF2AD8904E35036AF00FE96E53
:101ED0000A0E0320EA6EECCF50FBED52EFCF4FFB22
:101EE000D8904E35036A1A0FE96E0B0E0320EA6E86
:101EF000ECCF54FBED52EFCF53FB566B4B0E556FAF
:101F0000000189DC02C052FB01C051FB0F0E0B0126
:101F10000124016E000E0220036E0350505D40E369
:101F200003E101504F5D3CE3D8904E35036AF00F5A
:101F3000E96E0A0E0320EA6EEC6AED52EF6A010EBA
:101F40004E5DF60F2DE20A0F000189EF10F00A0135
:101F5000CC910B0125D00A01CC930B0121D00A01B1
:101F6000CC950B011DD00A01CC970B0119D00A01A9
:101F7000CC990B0115D00A01CC9B0B0111D00A01A1
:101F8000CC9D0B010DD00A01CC9F0B0109D00A0199
:101F9000CD910B0105D00A01CD930B0101D00B01AE
:101FA0000DD00001D8900B014E35036AF00FE96E99
:101FB0000A0E0320EA6EEC6AED52EF6A00010B0193
:101FC0004E2B68D5000159D44A6A000E0A01CCAFE5
:101FD000010E4A12D8904A340B014F6F000E0A01CD
:101FE000CCAD010E0B014F114A6ED8904A344F6FA1
:101FF000000E0A01CCAB010E0B014F114A6ED890B6
:102000004A344F6F000E0A01CCA9010E0B014F118B
:102010004A6ED8904A344F6F000E0A01CCA7010EC9
:102020000B014F114A6ED8904A344F6F000E0A01CF
:10203000CCA5010E0B014F114A6ED8904A344F6F58
:10204000000E0A01CCA3010E0B014F114A6ED8906D
:102050004A344F6F000E0A01CCA1010E0B014F1143
:102060004A6E4B6A000E0A01CDA3010E4B12D890A6
:102070004B340B014F6F000E0A01CDA1010E0B0175
:102080004F114B6E00011200E824F76AF736A30FD8
:10209000F66E200EF7220A00F550FA6E0800F55091
:1020A000F96E8C1B941B9C1BA41BAC1BB41BBC1B90
:1020B000C41BCC1BD41BE824F76AF736D10FF66E8D
:1020C000200EF7220A00F550FA6E0800F550F96E5E
:1020D000BC1CC41CCC1CD41CDC1CE41CEC1CF41C60
:1020E000FC1C041DE824F76AF736FF0FF66E200E7D
:1020F000F7220A00F550FA6E0800F550F96E201E1E
:10210000281E301E381E401E481E501E581E601EBF
:10211000681EE824F76AF7362D0FF66E210EF722B7
:102120000A00F550FA6E0800F550F96E4E1F561F62
:102130005E1F661F6E1F761F7E1F861F8E1F961FD7
:102140004ECB50FB0A0E0B01516F4FCB52FB0001DF
:1021500015EC04F012004ECB50FB1A0E0B01516F20
:102160004FCB52FB000115EC04F012002F52D8A403
:1021700017D10A01CEA103D052904E9014D0E4A101
:1021800005D0E6B103D04E8052900DD0E4B105D019
:10219000E6A103D04E90528006D0E4A104D0E6A17F
:1021A00002D04E805280CEA303D052924E9214D0D1
:1021B000E4A305D0E6B303D04E8252920DD0E4B32F
:1021C00005D0E6A303D04E92528206D0E4A304D0F9
:1021D000E6A302D04E825282CEA503D052944E94F2
:1021E00014D0E4A505D0E6B503D04E8452940DD0AA
:1021F000E4B505D0E6A503D04E94528406D0E4A5FC
:1022000004D0E6A502D04E845284CEA703D05296C5
:102210004E9614D0E4A705D0E6B703D04E8652966A
:102220000DD0E4B705D0E6A703D04E96528606D06F
:10223000E4A704D0E6A702D04E865286CEA903D0EA
:1022400052984E9814D0E4A905D0E6B903D04E8830
:1022500052980DD0E4B905D0E6A903D04E98528823
:1022600006D0E4A904D0E6A902D04E885288CEABAD
:1022700003D0529A4E9A14D0E4AB05D0E6BB03D0FB
:102280004E8A529A0DD0E4BB05D0E6AB03D04E9AED
:10229000528A06D0E4AB04D0E6AB02D04E8A528A12
:1022A000CEAD03D0529C4E9C14D0E4AD05D0E6BD1B
:1022B00003D04E8C529C0DD0E4BD05D0E6AD03D0CA
:1022C0004E9C528C06D0E4AD04D0E6AD02D04E8CCC
:1022D000528CCEAF03D0529E4E9E14D0E4AF05D0A8
:1022E000E6BF03D04E8E529E0DD0E4BF05D0E6AFC0
:1022F00003D04E9E528E06D0E4AF04D0E6AF02D09B
:102300004E8E528ECFA103D053904F9014D0E5A1A2
:1023100005D0E7B103D04F8053900DD0E5B105D083
:10232000E7A103D04F90538006D0E5A104D0E7A1E8
:1023300002D04F805380CFA303D053924F9214D03A
:10234000E5A305D0E7B303D04F8253920DD0E5B398
:1023500005D0E7A303D04F92538206D0E5A304D063
:10236000E7A302D04F825382040E0B014E6F4EC082
:102370004FFB0001E5DE040E0B014E6F4FC04FFB1B
:102380000001E9DE060E0B014E6F52C04FFB00014B
:10239000D7DE060E0B014E6F53C04FFB0001DBDE94
:1023A000120093908A90080E016E00D00000018EFA
:1023B00010D0019E0B0158330001D8B08A80D8A0FC
:1023C0008A90018C06D0019C012EF4D700D0000029
:1023D0008A80840EE96EE92EFED700D0000001BE8F
:1023E000E8D701BCF0D712000900F5520CE0F6CF97
:1023F00056FBF7CF57FBF5CF58FBD3DF56CBF6FF95
:1024000057CBF7FFF1D71200050170696F690B0117
:102410005D6B5B515D5D21E204005D515925E96E04
:10242000000E5A21EA6EEF50050170190B015C6F26
:10243000036A5C51000163EC00F0016E05016F510D
:102440000118706F036A0B015C510001EBEC00F0A6
:10245000E8CF6FF50B015D2BDCD7000112009EA8C1
:10246000FED7AD6E12001E6A1F6A266A276A0A012D
:10247000DCB104D0CEB102D0E28101D0E291DCB374
:1024800004D0CEB302D0E28301D0E293DCB504D015
:10249000CEB502D0E28501D0E295DCB704D0CEB74C
:1024A00002D0E28701D0E297DCB904D0CEB902D0E5
:1024B000E28901D0E299DCBB04D0CEBB02D0E28B32
:1024C00001D0E29BDCBD04D0CEBD02D0E28D01D0B4
:1024D000E29DDCBF04D0CEBF02D0E28F01D0E29FEC
:1024E000DDB104D0CFB102D0E38101D0E391DDB3FF
:1024F00004D0CFB302D0E38301D0E393000EE2BF58
:10250000010E2612D89026340B01586F000E0A01D6
:10251000E2BD010E0B015811266ED8902634586F7B
:10252000000E0A01E2BB010E0B015811266ED89075
:102530002634586F000E0A01E2B9010E0B01581142
:10254000266ED8902634586F000E0A01E2B7010EAD
:102550000B015811266ED8902634586F000E0A01D0
:10256000E2B5010E0B015811266ED8902634586F33
:10257000000E0A01E2B3010E0B015811266ED8902D
:102580002634586F000E0A01E2B1010E0B015811FA
:10259000266E000E0A01E3B3010E2712D8902734ED
:1025A0000B01586F000E0A01E3B1010E0B01581127
:1025B000276E000E0A01DCBF010E1E12D8901E34D9
:1025C0000B01586F000E0A01DCBD010E0B01581102
:1025D0001E6ED8901E34586F000E0A01DCBB010E2F
:1025E0000B0158111E6ED8901E34586F000E0A0150
:1025F000DCB9010E0B0158111E6ED8901E34586FB5
:10260000000E0A01DCB7010E0B0158111E6ED890A6
:102610001E34586F000E0A01DCB5010E0B01581173
:102620001E6ED8901E34586F000E0A01DCB3010EE6
:102630000B0158111E6ED8901E34586F000E0A01FF
:10264000DCB1010E0B0158111E6E000E0A01DDB344
:10265000010E1F12D8901F340B01586F000E0A0193
:10266000DDB1010E0B0158111F6E0001EAEF16F0EB
:102670000400010E6D5D0B01576F000E00016E59D5
:102680000B01586F010E5A6F6F0E596F57CB5BFBE2
:102690000001BADE010E6D5D0B01576F000E0001E7
:1026A0006E590B01586F6F0E5725E96E010E5821B8
:1026B000EA6EEF500501705DD8A430EF22F06F0E86
:1026C00000016D25E96E010E6E21EA6EEF500501E5
:1026D0006F5DD8A430EF22F001016F51AA08D8A491
:1026E0005ED170512008D8A45AD16CC06FF0200E72
:1026F0000001706F1C0E716F3BC072F03CC073F034
:102700003DC074F03EC075F03FC076F040C077F039
:1027100041C078F042C079F043C07AF044C07BF009
:1027200045C07CF046C07DF047C07EF048C07FF0D9
:1027300049C080F0F2CF57FBF29EAA6A100EA96E34
:10274000A69CA69EA680A8500B0157BFF28E000142
:10275000816FF2CF57FBF29EAA6A110EA96EA69C5A
:10276000A69EA680A8500B0157BFF28E0001826F73
:10277000F2CF57FBF29EAA6A120EA96EA69CA69EE5
:10278000A680A8500B0157BFF28E0001836FF2CFD5
:1027900057FBF29EAA6A130EA96EA69CA69EA6805F
:1027A000A8500B0157BFF28E0001846FF2CF57FB88
:1027B000F29EAA6A140EA96EA69CA69EA680A85098
:1027C0000B0157BFF28E0001856FF2CF57FBF29ECF
:1027D000AA6A150EA96EA69CA69EA680A8500B01FB
:1027E00057BFF28E0001866FF2CF57FBF29EAA6AA6
:1027F000160EA96EA69CA69EA680A8500B0157BFD8
:10280000F28E0001876FF2CF57FBF29EAA6A170E75
:10281000A96EA69CA69EA680A8500B0157BFF28E5B
:102820000001886F5EC089F05FC08AF060C08BF0E5
:1028300061C08CF01A0E8D6F6CC08EF01CCB8FF0C7
:102840001ECB90F020CB91F022CB92F024CB93F0D2
:1028500026CB94F028CB95F02ACB96F02CCB97F092
:102860002ECB98F030CB99F032CB9AF034CB9BF052
:1028700036CB9CF038CB9DF03ACB9EF03CCB9FF012
:102880003ECBA0F040CBA1F042CBA2F00B015A6BA3
:102890006F0E596F340E5B6F0001B6DD70C5A3F08B
:1028A0006FC5A4F08A8693960A0E0B01576F00013C
:1028B000FDEC03F06F51D3DD7051D1DD7151CFDDEF
:1028C0007251CDDD7351CBDD7451C9DD7551C7DD5A
:1028D0007651C5DD7751C3DD7851C1DD7951BFDD5A
:1028E0007A51BDDD7B51BBDD7C51B9DD7D51B7DD5A
:1028F0007E51B5DD7F51B3DD8051B1DD8151AFDD5A
:102900008251ADDD8351ABDD8451A9DD8551A7DD59
:102910008651A5DD8751A3DD8851A1DD89519FDD59
:102920008A519DDD8B519BDD8C5199DD8D5197DD59
:102930008E5195DD8F5193DD905191DD91518FDD59
:1029400092518DDD93518BDD945189DD955187DD59
:10295000965185DD975183DD985181DD99517FDD59
:102960009A517DDD9B517BDD9C5179DD9D5177DD59
:102970009E5175DD9F5173DDA05171DDA1516FDD59
:10298000A2516DDDA3516BDDA45169DD030E0B0176
:10299000576F0001FDEC03F08A9693960101000148
:1029A0006C5101016F5DD8A42BEF22F0702D0BD27A
:1029B0000501746B71C173F573C574F50B01576B29
:1029C0005751010172110501736F0501766B73C1D7
:1029D00075F575C576F50B01576B575101017411EB
:1029E0000501756F05017453D8A4B4D173510F0854
:1029F000D8A0B0D1755173250B01576F05017651E1
:102A000074210B01586F5853D8B402D00501A2D1DC
:102A100057511008D8B002D005019CD1050176535A
:102A200006E17551080803E3010E776F12D0765363
:102A300006E17551100803E3020E776F0AD0765352
:102A400006E17551180803E3030E776F02D0010EFB
:102A5000776F772D9BD074530DE1735108080AE30B
:102A60004AC078F57351016E04E0D8907833012E96
:102A7000FCD71AD0745303E17351080815E274535C
:102A800013E173510F0810E3080E735D006E000E22
:102A90007459036E00C001F032C078F5015204E0B1
:102AA000D8907833012EFCD77551080803E176538E
:102AB00001E135D07551070804E1765302E1789FB2
:102AC0002ED07551060805E1765303E13F0E7817C5
:102AD00026D07551050805E1765303E11F0E7817DE
:102AE0001ED07551040805E1765303E10F0E7817E7
:102AF00016D07551030805E1765303E1070E7817E8
:102B00000ED07551020805E1765303E1030E7817E4
:102B100006D0752D04D0765302E1010E78176CC0F3
:102B20006FF0010E0001706F77C571F078C572F01B
:102B30000B015A6B6F0E596F040E5B6F000164DC62
:102B400070C573F06FC574F08A8693960400040E06
:102B50000B01576F0001FDEC03F004006F517FDCA7
:102B600070517DDC71517BDC725179DC735177DC03
:102B7000745175DC0400030E0B01576F0001FDEC6E
:102B800003F004008A969396E3D00501775102087A
:102B9000D8A4DFD04AC078F57351016E04E0D89014
:102BA0007833012EFCD74BC079F5070E755D0B010C
:102BB000576F000E050176590B01586F57510808E1
:102BC00003E1585301E183D0070E0501755D0B0148
:102BD000576F000E050176590B01586F57510708C2
:102BE00005E1585303E10501799F70D0070E0501F7
:102BF000755D0B01576F000E050176590B01586F7B
:102C00005751060806E1585304E13F0E05017917B4
:102C10005DD0070E0501755D0B01576F000E0501B4
:102C200076590B01586F5751050806E1585304E1D6
:102C30001F0E050179174AD0070E0501755D0B01BE
:102C4000576F000E050176590B01586F5751040854
:102C500006E1585304E10F0E0501791737D0070E2E
:102C60000501755D0B01576F000E050176590B01CB
:102C7000586F5751030806E1585304E1070E050148
:102C8000791724D0070E0501755D0B01576F000EF3
:102C9000050176590B01586F5751020806E1585348
:102CA00004E1030E0501791711D0070E0501755DCA
:102CB0000B01576F000E050176590B01586F572D08
:102CC00006D0585304E1010E050179170B016CC0C1
:102CD0006FF0010E0001706F77C571F078C572F06A
:102CE00079C573F00B015A6B6F0E596F050E5B6F50
:102CF000000104EC12F070C574F06FC575F08A869F
:102D000093960400040E0B01576F0001FDEC03F0D5
:102D100004006F512FEC12F070512FEC12F0715132
:102D20002FEC12F072512FEC12F073512FEC12F0C5
:102D300074512FEC12F075512FEC12F00400030EB9
:102D40000B01576F0001FDEC03F004008A96939687
:102D5000050138D06CC06FF0810E0001706F020E5B
:102D6000716F0B015A6B6F0E596F030E5B6F000191
:102D700004EC12F070C572F06FC573F08A869396FA
:102D80000400040E0B01576F0001FDEC03F004007A
:102D90006F512FEC12F070512FEC12F071512FEC9B
:102DA00012F072512FEC12F073512FEC12F004005C
:102DB000030E0B01576F0001FDEC03F004008A962F
:102DC00093960501010170510708D8A4B1D0000104
:102DD00033EF12F09D921EC078F51FC079F520C028
:102DE0007AF521C07BF522C07CF523C07DF524C097
:102DF0007EF525C07FF526C080F527C081F528C067
:102E000082F529C083F52AC084F52BC085F52CC036
:102E100086F52DC087F56CC06FF0070E706F100E31
:102E20000501776F77C571F078C572F079C573F0D9
:102E30007AC574F07BC575F07CC576F07DC577F0FA
:102E40007EC578F07FC579F080C57AF081C57BF0CA
:102E500082C57CF083C57DF084C57EF085C57FF09A
:102E600086C580F087C581F00B015A6B6F0E596FD4
:102E7000130E5B6F000104EC12F070C582F06FC599
:102E800083F08A8693960400040E0B01576F0001AD
:102E9000FDEC03F004006F512FEC12F070512FEC99
:102EA00012F071512FEC12F072512FEC12F073519D
:102EB0002FEC12F074512FEC12F075512FEC12F030
:102EC00076512FEC12F077512FEC12F078512FEC55
:102ED00012F079512FEC12F07A512FEC12F07B5155
:102EE0002FEC12F07C512FEC12F07D512FEC12F0F0
:102EF0007E512FEC12F07F512FEC12F080512FEC0D
:102F000012F081512FEC12F082512FEC12F083510C
:102F10002FEC12F00400030E0B01576F0001FDECC3
:102F200003F004008A9693969D82E1EF21F001015F
:102F300070512108D8A44FEF1CF0F250006EF29EA1
:102F4000AA6AA96A0F0EA86EA69CA69EA6840F0167
:102F5000550EA76EAA0EA76EA682A6B2FED7A6949D
:102F60000050F212F2CF00F0F29EAA6A010EA96E92
:102F700072C1A8FFA69CA69EA684550EA76EAA0E97
:102F8000A76EA682A6B2FED7A6940050F212F2CF88
:102F900000F0F29EAA6A020EA96E73C1A8FFA69C59
:102FA000A69EA684550EA76EAA0EA76EA682A6B2EE
:102FB000FED7A6940050F212F2CF00F0F29EAA6A59
:102FC000030EA96E74C1A8FFA69CA69EA684550EEA
:102FD000A76EAA0EA76EA682A6B2FED7A694005030
:102FE000F212F2CF00F0F29EAA6A040EA96E75C129
:102FF000A8FFA69CA69EA684550EA76EAA0EA76E35
:10300000A682A6B2FED7A6940050F212F2CF00F02C
:10301000F29EAA6A050EA96E76C1A8FFA69CA69E7E
:10302000A684550EA76EAA0EA76EA682A6B2FED7DC
:10303000A6940050F212F2CF00F0F29EAA6A060E99
:10304000A96E77C1A8FFA69CA69EA684550EA76E62
:10305000AA0EA76EA682A6B2FED7A6940050F212C0
:10306000F2CF00F0F29EAA6A070EA96E78C1A8FFFF
:10307000A69CA69EA684550EA76EAA0EA76EA68233
:10308000A6B2FED7A6940050F212F2CF00F0F29E44
:10309000AA6A080EA96E79C1A8FFA69CA69EA6845E
:1030A000550EA76EAA0EA76EA682A6B2FED7A6944C
:1030B0000050F212F2CF00F0F29EAA6A090EA96E39
:1030C0007AC1A8FFA69CA69EA684550EA76EAA0E3E
:1030D000A76EA682A6B2FED7A6940050F212F2CF37
:1030E00000F0F29EAA6A0A0EA96E7BC1A8FFA69CF8
:1030F000A69EA684550EA76EAA0EA76EA682A6B29D
:10310000FED7A6940050F212F2CF00F0F29EAA6A07
:103110000B0EA96E7CC1A8FFA69CA69EA684550E88
:10312000A76EAA0EA76EA682A6B2FED7A6940050DE
:10313000F212F2CF00F0F29EAA6A0C0EA96E7DC1C7
:10314000A8FFA69CA69EA684550EA76EAA0EA76EE3
:10315000A682A6B2FED7A6940050F212F2CF00F0DB
:10316000F29EAA6A0D0EA96E7EC1A8FFA69CA69E1D
:10317000A684550EA76EAA0EA76EA682A6B2FED78B
:10318000A6940050F212F2CF00F0F29EAA6A0E0E40
:10319000A96E7FC1A8FFA69CA69EA684550EA76E09
:1031A000AA0EA76EA682A6B2FED7A6940050F2126F
:1031B000F2CF00F0F29EAA6A0F0EA96E80C1A8FF9E
:1031C000A69CA69EA684550EA76EAA0EA76EA682E2
:1031D000A6B2FED7A6940050F212F2CF00F0F29EF3
:1031E000AA6A100EA96E81C1A8FFA69CA69EA684FD
:1031F000550EA76EAA0EA76EA682A6B2FED7A694FB
:103200000050F212F2CF00F0F29EAA6A110EA96EDF
:1032100082C1A8FFA69CA69EA684550EA76EAA0EE4
:10322000A76EA682A6B2FED7A6940050F212F2CFE5
:1032300000F0F29EAA6A120EA96E83C1A8FFA69C96
:10324000A69EA684550EA76EAA0EA76EA682A6B24B
:10325000FED7A6940050F212F2CF00F0F29EAA6AB6
:10326000130EA96E84C1A8FFA69CA69EA684550E27
:10327000A76EAA0EA76EA682A6B2FED7A69400508D
:10328000F212F2CF00F0F29EAA6A140EA96E85C166
:10329000A8FFA69CA69EA684550EA76EAA0EA76E92
:1032A000A682A6B2FED7A6940050F212F2CF00F08A
:1032B000F29EAA6A150EA96E86C1A8FFA69CA69EBC
:1032C000A684550EA76EAA0EA76EA682A6B2FED73A
:1032D000A6940050F212F2CF00F0F29EAA6A160EE7
:1032E000A96E87C1A8FFA69CA69EA684550EA76EB0
:1032F000AA0EA76EA682A6B2FED7A6940050F2121E
:10330000F2CF00F0F29EAA6A170EA96E88C1A8FF3C
:10331000A69CA69EA684550EA76EAA0EA76EA68290
:10332000A6B2FED7A6940050F212F2CF00F0F29EA1
:10333000AA6A180EA96E89C1A8FFA69CA69EA6849B
:10334000550EA76EAA0EA76EA682A6B2FED7A694A9
:103350000050F212F2CF00F0F29EAA6A190EA96E86
:103360008AC1A8FFA69CA69EA684550EA76EAA0E8B
:10337000A76EA682A6B2FED7A6940050F212F2CF94
:1033800000F0F29EAA6A1A0EA96E8BC1A8FFA69C35
:10339000A69EA684550EA76EAA0EA76EA682A6B2FA
:1033A000FED7A6940050F212F2CF00F0F29EAA6A65
:1033B0001B0EA96E8CC1A8FFA69CA69EA684550EC6
:1033C000A76EAA0EA76EA682A6B2FED7A69400503C
:1033D000F212F2CF00F0F29EAA6A1C0EA96E8DC105
:1033E000A8FFA69CA69EA684550EA76EAA0EA76E41
:1033F000A682A6B2FED7A6940050F212F2CF00F039
:10340000F29EAA6A1D0EA96E8EC1A8FFA69CA69E5A
:10341000A684550EA76EAA0EA76EA682A6B2FED7E8
:10342000A6940050F212F2CF00F0F29EAA6A1E0E8D
:10343000A96E8FC1A8FFA69CA69EA684550EA76E56
:10344000AA0EA76EA682A6B2FED7A6940050F212CC
:10345000F2CF00F0F29EAA6A1F0EA96E90C1A8FFDB
:10346000A69CA69EA684550EA76EAA0EA76EA6823F
:10347000A6B2FED7A6940050F212F2CF00F0F29E50
:10348000AA6A200EA96E91C1A8FFA69CA69EA6843A
:10349000550EA76EAA0EA76EA682A6B2FED7A69458
:1034A0000050F212F2CF00F0F29EAA6A210EA96E2D
:1034B00092C1A8FFA69CA69EA684550EA76EAA0E32
:1034C000A76EA682A6B2FED7A6940050F212F2CF43
:1034D00000F0F29EAA6A220EA96E93C1A8FFA69CD4
:1034E000A69EA684550EA76EAA0EA76EA682A6B2A9
:1034F000FED7A6940050F212F2CF00F0F29EAA6A14
:10350000230EA96E94C1A8FFA69CA69EA684550E64
:10351000A76EAA0EA76EA682A6B2FED7A6940050EA
:10352000F212F2CF00F0F29EAA6A240EA96E95C1A3
:10353000A8FFA69CA69EA684550EA76EAA0EA76EEF
:10354000A682A6B2FED7A6940050F212F2CF00F0E7
:10355000F29EAA6A250EA96E96C1A8FFA69CA69EF9
:10356000A684550EA76EAA0EA76EA682A6B2FED797
:10357000A6940050F212F2CF00F0F29EAA6A260E34
:10358000A96E97C1A8FFA69CA69EA684550EA76EFD
:10359000AA0EA76EA682A6B2FED7A6940050F2127B
:1035A000F2CF00F0F29EAA6A270EA96E98C1A8FF7A
:1035B000A69CA69EA684550EA76EAA0EA76EA682EE
:1035C000A6B2FED7A6940050F212F2CF00F0F29EFF
:1035D000AA6A280EA96E99C1A8FFA69CA69EA684D9
:1035E000550EA76EAA0EA76EA682A6B2FED7A69407
:1035F0000050F212F2CF00F0F29EAA6A290EA96ED4
:103600009AC1A8FFA69CA69EA684550EA76EAA0ED8
:10361000A76EA682A6B2FED7A6940050F212F2CFF1
:1036200000F0F29EAA6A2A0EA96E9BC1A8FFA69C72
:10363000A69EA684550EA76EAA0EA76EA682A6B257
:10364000FED7A6940050F212F2CF00F0F29EAA6AC2
:103650002B0EA96E9CC1A8FFA69CA69EA684550E03
:10366000A76EAA0EA76EA682A6B2FED7A694005099
:10367000F212F2CF00F0F29EAA6A2C0EA96E9DC142
:10368000A8FFA69CA69EA684550EA76EAA0EA76E9E
:10369000A682A6B2FED7A6940050F212F2CF00F096
:1036A000F29EAA6A2D0EA96E9EC1A8FFA69CA69E98
:1036B000A684550EA76EAA0EA76EA682A6B2FED746
:1036C000A6940050F212F2CF00F0F29EAA6A2E0EDB
:1036D000A96E9FC1A8FFA69CA69EA684550EA76EA4
:1036E000AA0EA76EA682A6B2FED7A6940050F2122A
:1036F000F2CF00F0F29EAA6A2F0EA96EA0C1A8FF19
:10370000A69CA69EA684550EA76EAA0EA76EA6829C
:10371000A6B2FED7A6940050F212F2CF00F0F29EAD
:10372000AA6A300EA96EA1C1A8FFA69CA69EA68477
:10373000550EA76EAA0EA76EA682A6B2FED7A694B5
:103740000050F212F2CF00F0F29EAA6A310EA96E7A
:10375000A2C1A8FFA69CA69EA684550EA76EAA0E7F
:10376000A76EA682A6B2FED7A6940050F2120B0155
:103770004F6B4E6B0400A30E4E25E96E010E4F21D8
:10378000EA6EEFCF50FB50510D0805E04F5303E1B7
:103790004E510F0827E27D0E4E25E96E090E4F218E
:1037A000EA6EEF6A320E4E25576F000E4F21586FAA
:1037B000F250006EF29E58CBAAFF57CBA9FF50CB18
:1037C000A8FFA69CA69EA6840F01550EA76EAA0E62
:1037D000A76EA682A6B2FED7A6940050F2122DD0F4
:1037E00026D00B017D0E4E25E96E090E4F21EA6EA3
:1037F00050CBEFFF320E4E25576F000E4F21586F02
:10380000F250006EF29E58CBAAFF57CBA9FF50CBC7
:10381000A8FFA69CA69EA6840F01550EA76EAA0E11
:10382000A76EA682A6B2FED7A6940050F2120B0194
:103830004E2BD8B44F2B9ED70F016CC06FF0210ECA
:103840000001706F0B015A6B6F0E596F020E5B6FA8
:10385000000104EC12F070C571F06FC572F08A8639
:1038600093960A0E0B01576F0001FDEC03F06F51A8
:103870002FEC12F070512FEC12F071512FEC12F06E
:1038800072512FEC12F0030E0B01576F0001FDEC8B
:1038900003F08A969396FF00E1EF21F00101705149
:1038A0002208D8A4E2EF21F00B01526B030E516FF6
:1038B000546B536B566B556B04006F0E5125E96EBC
:1038C000010E5221EA6EEF500D0805E0545303E15A
:1038D0005351290828E25D0E5125576F000E5221E1
:1038E000586F6F0E5125E96E010E5221EA6EEFCF2F
:1038F00059FBF250006EF29E58CBAAFF57CBA9FF9E
:1039000059CBA8FFA69CA69EA6840F01550EA76EB4
:10391000AA0EA76EA682A6B2FED7A6940050F212F7
:1039200047D03AD00B018C0E5325016E090E54215D
:10393000036E6F0E5125E96E010E5221EA6EEFCF34
:1039400059FB03C0EAFF01C0E9FF59CBEFFF5D0E51
:103950005125576F000E5221586F6F0E5125E96E99
:10396000010E5221EA6EEFCF59FBF250006EF29E2B
:1039700058CBAAFF57CBA9FF59CBA8FFA69CA69E60
:10398000A6840F01550EA76EAA0EA76EA682A6B238
:10399000FED7A6940050F2120B0152CB03F0515106
:1039A000512BD8B4522B532BD8B4542B85D70F019D
:1039B0008C0E0B015325E96E090E5421EA6EEF6A55
:1039C000546B536B512BD8B4522B04006F0E5125FE
:1039D000E96E010E5221EA6EEF500D0805E05453D6
:1039E00003E15351290828E25D0E5125576F000E5F
:1039F0005221586F6F0E5125E96E010E5221EA6E69
:103A0000EFCF59FBF250006EF29E58CBAAFF57CB76
:103A1000A9FF59CBA8FFA69CA69EA6840F01550E10
:103A2000A76EAA0EA76EA682A6B2FED7A6940050D5
:103A3000F21247D03AD00B01AC0E5325016E090E9D
:103A40005421036E6F0E5125E96E010E5221EA6E6C
:103A5000EFCF59FB03C0EAFF01C0E9FF59CBEFFFED
:103A60005D0E5125576F000E5221586F6F0E512574
:103A7000E96E010E5221EA6EEFCF59FBF250006E53
:103A8000F29E58CBAAFF57CBA9FF59CBA8FFA69C03
:103A9000A69EA6840F01550EA76EAA0EA76EA6823B
:103AA000A6B2FED7A6940050F2120B0152CB03F03F
:103AB0005151512BD8B4522B532BD8B4542B85D7FA
:103AC0000F01AC0E0B015325E96E090E5421EA6E6D
:103AD000EF6A546B536B512BD8B4522B04006F0E0A
:103AE0005125E96E010E5221EA6EEF500D0805E0F6
:103AF000545303E15351290828E25D0E5125576FB5
:103B0000000E5221586F6F0E5125E96E010E5221A1
:103B1000EA6EEFCF59FBF250006EF29E58CBAAFF2F
:103B200057CBA9FF59CBA8FFA69CA69EA6840F0140
:103B3000550EA76EAA0EA76EA682A6B2FED7A694B1
:103B40000050F21247D03AD00B01CC0E5325016E33
:103B5000090E5421036E6F0E5125E96E010E52219C
:103B6000EA6EEFCF59FB03C0EAFF01C0E9FF59CB72
:103B7000EFFF5D0E5125576F000E5221586F6F0EEB
:103B80005125E96E010E5221EA6EEFCF59FBF2503A
:103B9000006EF29E58CBAAFF57CBA9FF59CBA8FFC6
:103BA000A69CA69EA6840F01550EA76EAA0EA76E10
:103BB000A682A6B2FED7A6940050F2120B0152CBF9
:103BC00003F05151512BD8B4522B532BD8B4542B52
:103BD00085D70F01CC0E0B015325E96E090E542138
:103BE000EA6EEF6A546B536B512BD8B4522B04001E
:103BF0006F0E5125E96E010E5221EA6EEF500D084D
:103C000005E0545303E15351290828E25D0E512584
:103C1000576F000E5221586F6F0E5125E96E010E3D
:103C20005221EA6EEFCF59FBF250006EF29E58CB54
:103C3000AAFF57CBA9FF59CBA8FFA69CA69EA68496
:103C40000F01550EA76EAA0EA76EA682A6B2FED7CA
:103C5000A6940050F21247D03AD00B01EC0E532537
:103C6000016E090E5421036E6F0E5125E96E010E8F
:103C70005221EA6EEFCF59FB03C0EAFF01C0E9FF12
:103C800059CBEFFF5D0E5125576F000E5221586F33
:103C90006F0E5125E96E010E5221EA6EEFCF59FBEE
:103CA000F250006EF29E58CBAAFF57CBA9FF59CB1A
:103CB000A8FFA69CA69EA6840F01550EA76EAA0E6D
:103CC000A76EA682A6B2FED7A6940050F2120B01F0
:103CD00052CB03F05151512BD8B4522B532BD8B4A3
:103CE000542B85D70F01EC0E0B015325E96E090EFD
:103CF0005421EA6EEF6A546B536B512BD8B4522B9C
:103D000004006F0E5125E96E010E5221EA6EEF504C
:103D10000D0805E0545303E15351290828E25D0ED4
:103D20005125576F000E5221586F6F0E5125E96EC5
:103D3000010E5221EA6EEFCF59FBF250006EF29E57
:103D400058CBAAFF57CBA9FF59CBA8FFA69CA69E8C
:103D5000A6840F01550EA76EAA0EA76EA682A6B264
:103D6000FED7A6940050F21247D03AD00B010C0EA9
:103D70005325016E0A0E5421036E6F0E5125E96E14
:103D8000010E5221EA6EEFCF59FB03C0EAFF01C0DA
:103D9000E9FF59CBEFFF5D0E5125576F000E522101
:103DA000586F6F0E5125E96E010E5221EA6EEFCF6A
:103DB00059FBF250006EF29E58CBAAFF57CBA9FFD9
:103DC00059CBA8FFA69CA69EA6840F01550EA76EF0
:103DD000AA0EA76EA682A6B2FED7A6940050F21233
:103DE0000B0152CB03F05151512BD8B4522B532B12
:103DF000D8B4542B85D70F010C0E0B015325E96E57
:103E00000A0E5421EA6EEF6A546B536B512BD8B4EF
:103E1000522B04006F0E5125E96E010E5221EA6EFD
:103E2000EF500D0805E0545303E15351290828E2EF
:103E30005D0E5125576F000E5221586F6F0E5125A0
:103E4000E96E010E5221EA6EEFCF59FBF250006E7F
:103E5000F29E58CBAAFF57CBA9FF59CBA8FFA69C2F
:103E6000A69EA6840F01550EA76EAA0EA76EA68267
:103E7000A6B2FED7A6940050F21249D03CD00B0156
:103E80005D0E5125576F000E5221586F6F0E512550
:103E9000E96E010E5221EA6EEFCF59FBF250006E2F
:103EA000F29E58CBAAFF57CBA9FF59CBA8FFA69CDF
:103EB000A69EA6840F01550EA76EAA0EA76EA68217
:103EC000A6B2FED7A6940050F2122C0E0B01532579
:103ED000016E0A0E5421036E6F0E5125E96E010E1C
:103EE0005221EA6EEFCF59FB03C0EAFF01C0E9FFA0
:103EF00059CBEFFF0F010B0152CB03F05151512B66
:103F0000D8B4522B532BD8B4542B83D70F012C0E7B
:103F10000B015325E96E0A0E5421EA6EEF6A546BC9
:103F2000536B512BD8B4522B04006F0E5125E96E00
:103F3000010E5221EA6EEF500D0805E0545303E1E3
:103F40005351290828E25D0E5125576F000E52216A
:103F5000586F6F0E5125E96E010E5221EA6EEFCFB8
:103F600059FBF250006EF29E58CBAAFF57CBA9FF27
:103F700059CBA8FFA69CA69EA6840F01550EA76E3E
:103F8000AA0EA76EA682A6B2FED7A6940050F21281
:103F900047D03AD00B014C0E5325016E0A0E542126
:103FA000036E6F0E5125E96E010E5221EA6EEFCFBE
:103FB00059FB03C0EAFF01C0E9FF59CBEFFF5D0EDB
:103FC0005125576F000E5221586F6F0E5125E96E23
:103FD000010E5221EA6EEFCF59FBF250006EF29EB5
:103FE00058CBAAFF57CBA9FF59CBA8FFA69CA69EEA
:103FF000A6840F01550EA76EAA0EA76EA682A6B2C2
:10400000FED7A6940050F2120B0152CB03F051518F
:10401000512BD8B4522B532BD8B4542B85D70F0126
:104020004C0E0B015325E96E0A0E5421EA6EEF6A1D
:10403000546B536B512BD8B4522B04006F0E512587
:10404000E96E010E5221EA6EEF500D0805E054535F
:1040500003E15351290828E25D0E5125576F000EE8
:104060005221586F6F0E5125E96E010E5221EA6EF2
:10407000EFCF59FBF250006EF29E58CBAAFF57CB00
:10408000A9FF59CBA8FFA69CA69EA6840F01550E9A
:10409000A76EAA0EA76EA682A6B2FED7A69400505F
:1040A000F21247D03AD00B016C0E5325016E0A0E66
:1040B0005421036E6F0E5125E96E010E5221EA6EF6
:1040C000EFCF59FB03C0EAFF01C0E9FF59CBEFFF77
:1040D0005D0E5125576F000E5221586F6F0E5125FE
:1040E000E96E010E5221EA6EEFCF59FBF250006EDD
:1040F000F29E58CBAAFF57CBA9FF59CBA8FFA69C8D
:10410000A69EA6840F01550EA76EAA0EA76EA682C4
:10411000A6B2FED7A6940050F2120B0152CB03F0C8
:104120005151512BD8B4522B532BD8B4542B85D783
:104130000F016C0E0B015325E96E0A0E5421EA6E35
:10414000EF6A546B536B512BD8B4522B04006F0E93
:104150005125E96E010E5221EA6EEF500D0805E07F
:10416000545303E15351290828E25D0E5125576F3E
:10417000000E5221586F6F0E5125E96E010E52212B
:10418000EA6EEFCF59FBF250006EF29E58CBAAFFB9
:1041900057CBA9FF59CBA8FFA69CA69EA6840F01CA
:1041A000550EA76EAA0EA76EA682A6B2FED7A6943B
:1041B0000050F21247D03AD00B018C0E5325016EFD
:1041C0000A0E5421036E6F0E5125E96E010E522125
:1041D000EA6EEFCF59FB03C0EAFF01C0E9FF59CBFC
:1041E000EFFF5D0E5125576F000E5221586F6F0E75
:1041F0005125E96E010E5221EA6EEFCF59FBF250C4
:10420000006EF29E58CBAAFF57CBA9FF59CBA8FF4F
:10421000A69CA69EA6840F01550EA76EAA0EA76E99
:10422000A682A6B2FED7A6940050F2120B0152CB82
:1042300003F05151512BD8B4522B532BD8B4542BDB
:1042400085D70F018C0E0B015325E96E0A0E542100
:10425000EA6EEF6A546B536B512BD8B4522B0400A7
:104260006F0E5125E96E010E5221EA6EEF500D08D6
:1042700005E0545303E15351290828E25D0E51250E
:10428000576F000E5221586F6F0E5125E96E010EC7
:104290005221EA6EEFCF59FBF250006EF29E58CBDE
:1042A000AAFF57CBA9FF59CBA8FFA69CA69EA68420
:1042B0000F01550EA76EAA0EA76EA682A6B2FED754
:1042C000A6940050F21247D03AD00B01AC0E532501
:1042D000016E0A0E5421036E6F0E5125E96E010E18
:1042E0005221EA6EEFCF59FB03C0EAFF01C0E9FF9C
:1042F00059CBEFFF5D0E5125576F000E5221586FBD
:104300006F0E5125E96E010E5221EA6EEFCF59FB77
:10431000F250006EF29E58CBAAFF57CBA9FF59CBA3
:10432000A8FFA69CA69EA6840F01550EA76EAA0EF6
:10433000A76EA682A6B2FED7A6940050F2120B0179
:1043400052CB03F05151512BD8B4522B532BD8B42C
:10435000542B85D70F01AC0E0B015325E96E0A0EC5
:104360005421EA6EEF6A6CC06FF0210E0001706F8D
:104370000B015A6B6F0E596F020E5B6F000104EC5C
:1043800012F070C571F06FC572F08A8693960A0EAE
:104390000B01576F0001FDEC03F06F512FEC12F091
:1043A00070512FEC12F071512FEC12F072512FEC72
:1043B00012F0030E0B01576F0001FDEC03F08A961B
:1043C000939601017051030846E14BC078F54AC04D
:1043D00079F56CC06FF0030E0001706F020E716F03
:1043E00078C572F079C573F00B015A6B6F0E596F77
:1043F000050E5B6F000104EC12F070C574F06FC520
:1044000075F08A8693960400040E0B01576F000125
:10441000FDEC03F004006F512FEC12F070512FEC03
:1044200012F071512FEC12F072512FEC12F0735107
:104430002FEC12F074512FEC12F075512FEC12F09A
:104440000400030E0B01576F0001FDEC03F00400A4
:104450008A9693960101010E0501726FF40E716F39
:10446000309A63C06BF009017A6B00016E6B6D6B63
:104470008A969396B0EF3BF0948082B002D01AAE49
:1044800002D01AA406D0320E0B01576F0001FDECCA
:1044900003F0948082B002D01AAE02D01AA45AD08F
:1044A0001A941D6A0A01DCB102D0DEA104D0DA81BF
:1044B000DC91DE91CE91DCB302D0DEA304D0DA83AE
:1044C000DC93DE93CE93DCB502D0DEA504D0DA8592
:1044D000DC95DE95CE95DCB702D0DEA704D0DA8776
:1044E000DC97DE97CE97DCB902D0DEA904D0DA895A
:1044F000DC99DE99CE99DCBB02D0DEAB04D0DA8B3E
:10450000DC9BDE9BCE9BDCBD02D0DEAD04D0DA8D21
:10451000DC9DDE9DCE9DDCBF02D0DEAF04D0DA8F05
:10452000DC9FDE9FCE9FDDB102D0DFA104D0DB8116
:10453000DD91DF91CF91DDB302D0DFA304D0DB8327
:10454000DD93DF93CF931A8E8998929889969296ED
:1045500008D00001948082A003D01AAE01D01A9E28
:104560000A010001B3EF3BF0948282B202D030A086
:1045700002D01AA606D0320E0B01576F0001FDECD7
:1045800003F0948282B202D030A002D01AA6CCD01E
:104590001A96000E0A01CCB1010E0B014F6F000EEE
:1045A0000A01D0B1010E0B014F1907E10A01DCA18C
:1045B00002D00B0102D0CE810B01000E0A01CCB358
:1045C000010E0B014F6F000E0A01D0B3010E0B015B
:1045D0004F1907E10A01DCA302D00B0102D0CE8300
:1045E0000B01000E0A01CCB5010E0B014F6F000E3E
:1045F0000A01D0B5010E0B014F1907E10A01DCA534
:1046000002D00B0102D0CE850B01000E0A01CCB7FF
:10461000010E0B014F6F000E0A01D0B7010E0B0106
:104620004F1907E10A01DCA702D00B0102D0CE87A7
:104630000B01000E0A01CCB9010E0B014F6F000EE9
:104640000A01D0B9010E0B014F1907E10A01DCA9DB
:1046500002D00B0102D0CE890B01000E0A01CCBBA7
:10466000010E0B014F6F000E0A01D0BB010E0B01B2
:104670004F1907E10A01DCAB02D00B0102D0CE8B4F
:104680000B01000E0A01CCBD010E0B014F6F000E95
:104690000A01D0BD010E0B014F1907E10A01DCAD83
:1046A00002D00B0102D0CE8D0B01000E0A01CCBF4F
:1046B000010E0B014F6F000E0A01D0BF010E0B015E
:1046C0004F1907E10A01DCAF02D00B0102D0CE8FF7
:1046D0000B01000E0A01CDB1010E0B014F6F000E50
:1046E0000A01D1B1010E0B014F1907E10A01DDA149
:1046F00002D00B0102D0CF810B01000E0A01CDB315
:10470000010E0B014F6F000E0A01D1B3010E0B0118
:104710004F1907E10A01DDA302D00B0102D0CF83BC
:104720000B01308008D00001948282A203D030A017
:1047300001D030900B010001B5EF3BF061510A0848
:1047400020E10A01CC91D0A1CC81CC93D0A3CC8321
:10475000CC95D0A5CC85CC97D0A7CC87CC99D0A927
:10476000CC89CC9BD0ABCC8BCC9DD0ADCC8DCC9F11
:10477000D0AFCC8FCD91D1A1CD81CD93D1A3CD831D
:1047800000010A01DA91DA93DA95DA97DA99DA9B7D
:10479000DA9DDA9FDB91DB930001C8EF37F0EF522F
:1047A00010E0EACF57FBE9CF56FBEFCF58FBD1EC37
:1047B00011F057CBEAFF56CBE9FFE92AD8B4EA2A31
:1047C000EED712000B01562D8CD1000E0A01DCB180
:1047D000010E0B01596F000E0A01DEB1010E0B0133
:1047E0005911586F000E0A01DAA1010E0B0158177A
:1047F000000E0A01D4B1010E0B015B6F000E0A011D
:10480000D6B1010E0B015B1158155791E8B05781D5
:10481000000E57B1010E586F000E0A01DCB3010EF5
:104820000B015A6F000E0A01DEB3010E0B015A1183
:10483000596F000E0A01DAA3010E0B015917000E81
:104840000A01D4B3010E0B015C6F000E0A01D6B34E
:10485000010E0B015C11591558115791E8B05781A1
:10486000000E57B1010E586F000E0A01DCB5010EA3
:104870000B015A6F000E0A01DEB5010E0B015A1131
:10488000596F000E0A01DAA5010E0B015917000E2F
:104890000A01D4B5010E0B015C6F000E0A01D6B5FA
:1048A000010E0B015C11591558115791E8B0578151
:1048B000000E57B1010E586F000E0A01DCB7010E51
:1048C0000B015A6F000E0A01DEB7010E0B015A11DF
:1048D000596F000E0A01DAA7010E0B015917000EDD
:1048E0000A01D4B7010E0B015C6F000E0A01D6B7A6
:1048F000010E0B015C11591558115791E8B0578101
:10490000000E57B1010E586F000E0A01DCB9010EFE
:104910000B015A6F000E0A01DEB9010E0B015A118C
:10492000596F000E0A01DAA9010E0B015917000E8A
:104930000A01D4B9010E0B015C6F000E0A01D6B951
:10494000010E0B015C11591558115791E8B05781B0
:10495000000E57B1010E586F000E0A01DCBB010EAC
:104960000B015A6F000E0A01DEBB010E0B015A113A
:10497000596F000E0A01DAAB010E0B015917000E38
:104980000A01D4BB010E0B015C6F000E0A01D6BBFD
:10499000010E0B015C11591558115791E8B0578160
:1049A000000E57B1010E586F000E0A01DCBD010E5A
:1049B0000B015A6F000E0A01DEBD010E0B015A11E8
:1049C000596F000E0A01DAAD010E0B015917000EE6
:1049D0000A01D4BD010E0B015C6F000E0A01D6BDA9
:1049E000010E0B015C11591558115791E8B0578110
:1049F000000E57B1010E586F000E0A01DCBF010E08
:104A00000B015A6F000E0A01DEBF010E0B015A1195
:104A1000596F000E0A01DAAF010E0B015917000E93
:104A20000A01D4BF010E0B015C6F000E0A01D6BF54
:104A3000010E0B015C11591558115791E8B05781BF
:104A4000000E57B1010E586F000E0A01DDB1010EC4
:104A50000B015A6F000E0A01DFB1010E0B015A1152
:104A6000596F000E0A01DBA1010E0B015917000E50
:104A70000A01D5B1010E0B015C6F000E0A01D7B11E
:104A8000010E0B015C11591558115791E8B057816F
:104A9000000E57B1010E586F000E0A01DDB3010E72
:104AA0000B015A6F000E0A01DFB3010E0B015A1100
:104AB000596F000E0A01DBA3010E0B015917000EFE
:104AC0000A01D5B3010E0B015C6F000E0A01D7B3CA
:104AD000010E0B015C11591558115791E8B057811F
:104AE0008FD156510208D8A48BD1000E0A01DCB137
:104AF000010E0B01596F000E0A01DEB1010E0B0110
:104B00005911586F000E0A01DAA1010E0B01581756
:104B1000000E0A01D4A1010E0B015B6F000E0A0109
:104B2000D6B1010E0B015B1158155791E8B05781B2
:104B3000000E57B1010E586F000E0A01DCB3010ED2
:104B40000B015A6F000E0A01DEB3010E0B015A1160
:104B5000596F000E0A01DAA3010E0B015917000E5E
:104B60000A01D4A3010E0B015C6F000E0A01D6B33B
:104B7000010E0B015C11591558115791E8B057817E
:104B8000000E57B1010E586F000E0A01DCB5010E80
:104B90000B015A6F000E0A01DEB5010E0B015A110E
:104BA000596F000E0A01DAA5010E0B015917000E0C
:104BB0000A01D4A5010E0B015C6F000E0A01D6B5E7
:104BC000010E0B015C11591558115791E8B057812E
:104BD000000E57B1010E586F000E0A01DCB7010E2E
:104BE0000B015A6F000E0A01DEB7010E0B015A11BC
:104BF000596F000E0A01DAA7010E0B015917000EBA
:104C00000A01D4A7010E0B015C6F000E0A01D6B792
:104C1000010E0B015C11591558115791E8B05781DD
:104C2000000E57B1010E586F000E0A01DCB9010EDB
:104C30000B015A6F000E0A01DEB9010E0B015A1169
:104C4000596F000E0A01DAA9010E0B015917000E67
:104C50000A01D4A9010E0B015C6F000E0A01D6B93E
:104C6000010E0B015C11591558115791E8B057818D
:104C7000000E57B1010E586F000E0A01DCBB010E89
:104C80000B015A6F000E0A01DEBB010E0B015A1117
:104C9000596F000E0A01DAAB010E0B015917000E15
:104CA0000A01D4AB010E0B015C6F000E0A01D6BBEA
:104CB000010E0B015C11591558115791E8B057813D
:104CC000000E57B1010E586F000E0A01DCBD010E37
:104CD0000B015A6F000E0A01DEBD010E0B015A11C5
:104CE000596F000E0A01DAAD010E0B015917000EC3
:104CF0000A01D4AD010E0B015C6F000E0A01D6BD96
:104D0000010E0B015C11591558115791E8B05781EC
:104D1000000E57B1010E586F000E0A01DCBF010EE4
:104D20000B015A6F000E0A01DEBF010E0B015A1172
:104D3000596F000E0A01DAAF010E0B015917000E70
:104D40000A01D4AF010E0B015C6F000E0A01D6BF41
:104D5000010E0B015C11591558115791E8B057819C
:104D6000000E57B1010E586F000E0A01DDB1010EA1
:104D70000B015A6F000E0A01DFB1010E0B015A112F
:104D8000596F000E0A01DBA1010E0B015917000E2D
:104D90000A01D5A1010E0B015C6F000E0A01D7B10B
:104DA000010E0B015C11591558115791E8B057814C
:104DB000000E57B1010E586F000E0A01DDB3010E4F
:104DC0000B015A6F000E0A01DFB3010E0B015A11DD
:104DD000596F000E0A01DBA3010E0B015917000EDB
:104DE0000A01D5A3010E0B015C6F000E0A01D7B3B7
:104DF000010E0B015C11591558115791E8B05781FC
:104E0000000E57B1010E016E000112000A01D8A177
:104E100084D0000ECCB1010E0B01576F000E0A01B9
:104E2000D0B1010E0B015719010803E10A01D2B1FB
:104E300003D00A01DCA16DD0DAB16AD0DCB107D0B1
:104E40005E500F0804E1640E1C6E5FC01DF0DC8133
:104E50001AB202D0CE9101D0CE811AB80ED0D6B1FE
:104E600005D0898892988986929607D0D4A103D0DC
:104E70008988929802D089869296E8B149D030B25A
:104E800047D0DAB145D0FC0EF66E050EF76E000184
:104E9000F4EC11F00A0E0B01586F0001D1EC11F087
:104EA0000A0E0B01576F0001FDEC03F00A01E881C7
:104EB000060EF66E060EF76E0001F4EC11F0090E08
:104EC000EA6E7D0EE96E6BDC220E0B01586F00015D
:104ED000D1EC11F00A0E0B01586F0001D1EC11F06A
:104EE000320E0B01576F0001FDEC03F0090EEA6E64
:104EF0008C0EE96E54DC0A0E0B01586F0001D1ECE8
:104F000011F01A0E0B01586F0001D1EC11F00A01DB
:104F100003D0D2A101D0DA9161D0000ECCB1010E44
:104F20000B01576F000E0A01D0B1010E0B0157198A
:104F3000010850E10A01CE91E8B14AD030B248D020
:104F4000DAB146D0100EF66E060EF76E0001F4ECE4
:104F500011F00A0E0B01586F0001D1EC11F00A0E8E
:104F60000B01576F0001FDEC03F00A01E8811A0EF6
:104F7000F66E060EF76E0001F4EC11F0090EEA6E03
:104F80007D0EE96E0CDC220E0B01586F0001D1EC96
:104F900011F00A0E0B01586F0001D1EC11F0320E26
:104FA0000B01576F0001FDEC03F0090EEA6E8C0E49
:104FB000E96ECFEC23F00A0E0B01586F0001D1EC23
:104FC00011F01A0E0B01586F0001D1EC11F00A011B
:104FD00005D00B010A01CE81E8913092D8A386D08A
:104FE000000ECCB3010E0B01576F000E0A01D0B3B7
:104FF000010E0B015719010803E10A01D2B303D0D6
:105000000A01DCA36FD0DAB36CD0DCB307D05E50FA
:105010000F0804E1640E1C6E5FC01DF0DC831AB241
:1050200002D0CE9301D0CE831AB80ED0D6B305D01D
:10503000898892988986929607D0D4A303D08988CC
:10504000929802D089869296E8B34BD030B249D07C
:10505000DAB347D0240EF66E060EF76E0001F4ECBC
:1050600011F00A0E0B01586F0001D1EC11F00A0E7D
:105070000B01576F0001FDEC03F00A01E8832E0ECF
:10508000F66E060EF76E0001F4EC11F0090EEA6EF2
:105090007D0EE96ECFEC23F0220E0B01586F00015C
:1050A000D1EC11F00A0E0B01586F0001D1EC11F098
:1050B000320E0B01576F0001FDEC03F0090EEA6E92
:1050C000AC0EE96ECFEC23F00A0E0B01586F000115
:1050D000D1EC11F01A0E0B01586F0001D1EC11F058
:1050E0000A0103D0D2A301D0DA9362D0000ECCB370
:1050F000010E0B01576F000E0A01D0B3010E0B0118
:105100005719010851E10A01CE93E8B34BD030B2F0
:1051100049D0DAB347D0380EF66E060EF76E0001AE
:10512000F4EC11F00A0E0B01586F0001D1EC11F0F4
:105130000A0E0B01576F0001FDEC03F00A01E88332
:10514000420EF66E060EF76E0001F4EC11F0090E39
:10515000EA6E7D0EE96ECFEC23F0220E0B01586F44
:105160000001D1EC11F00A0E0B01586F0001D1ECD7
:1051700011F0320E0B01576F0001FDEC03F0090E28
:10518000EA6EAC0EE96ECFEC23F00A0E0B01586FFD
:105190000001D1EC11F01A0E0B01586F0001D1EC97
:1051A00011F00A0105D00B010A01CE83E893309279
:1051B000D8A586D0000ECCB5010E0B01576F000E9E
:1051C0000A01D0B5010E0B015719010803E10A01CC
:1051D000D2B503D00A01DCA56FD0DAB56CD0DCB54E
:1051E00007D05E500F0804E1640E1C6E5FC01DF016
:1051F000DC851AB202D0CE9501D0CE851AB80ED079
:10520000D6B505D0898892988986929607D0D4A57C
:1052100003D08988929802D089869296E8B54BD0BF
:1052200030B249D0DAB547D04C0EF66E060EF76EA6
:105230000001F4EC11F00A0E0B01586F0001D1ECE3
:1052400011F00A0E0B01576F0001FDEC03F00A018B
:10525000E885560EF66E060EF76E0001F4EC11F0BE
:10526000090EEA6E7D0EE96ECFEC23F0220E0B01E3
:10527000586F0001D1EC11F00A0E0B01586F0001BC
:10528000D1EC11F0320E0B01576F0001FDEC03F071
:10529000090EEA6ECC0EE96ECFEC23F00A0E0B017C
:1052A000586F0001D1EC11F01A0E0B01586F00017C
:1052B000D1EC11F00A0103D0D2A501D0DA9562D069
:1052C000000ECCB5010E0B01576F000E0A01D0B5D0
:1052D000010E0B015719010851E10A01CE95E8B5FD
:1052E0004BD030B249D0DAB547D0600EF66E060E1C
:1052F000F76E0001F4EC11F00A0E0B01586F00017B
:10530000D1EC11F00A0E0B01576F0001FDEC03F018
:105310000A01E8856A0EF66E060EF76E0001F4ECDF
:1053200011F0090EEA6E7D0EE96ECFEC23F0220E2D
:105330000B01586F0001D1EC11F00A0E0B01586FF0
:105340000001D1EC11F0320E0B01576F0001FDECA2
:1053500003F0090EEA6ECC0EE96ECFEC23F00A0ED4
:105360000B01586F0001D1EC11F01A0E0B01586FB0
:105370000001D1EC11F00A0105D00B010A01CE8524
:10538000E8993092D8A786D0000ECCB7010E0B0159
:10539000576F000E0A01D0B7010E0B015719010813
:1053A00003E10A01D2B703D00A01DCA76FD0DAB754
:1053B0006CD0DCB707D05E500F0804E1640E1C6EA1
:1053C0005FC01DF0DC871AB202D0CE9701D0CE8725
:1053D0001AB80ED0D6B705D0898892988986929649
:1053E00007D0D4A703D08988929802D08986929654
:1053F000E8B74BD030B249D0DAB747D0740EF66E6A
:10540000060EF76E0001F4EC11F00A0E0B01586F56
:105410000001D1EC11F00A0E0B01576F0001FDECF9
:1054200003F00A01E8877E0EF66E060EF76E0001A5
:10543000F4EC11F0090EEA6E7D0EE96ECFEC23F06C
:10544000220E0B01586F0001D1EC11F00A0E0B0176
:10545000586F0001D1EC11F0320E0B01576F0001B3
:10546000FDEC03F0090EEA6EEC0EE96ECFEC23F0D2
:105470000A0E0B01586F0001D1EC11F01A0E0B014E
:10548000586F0001D1EC11F00A0103D0D2A701D06E
:10549000DA9762D0000ECCB7010E0B01576F000EE9
:1054A0000A01D0B7010E0B015719010851E10A0199
:1054B000CE97E8B74BD030B249D0DAB747D0880E94
:1054C000F66E060EF76E0001F4EC11F00A0E0B01F9
:1054D000586F0001D1EC11F00A0E0B01576F00015B
:1054E000FDEC03F00A01E887920EF66E060EF76EE9
:1054F0000001F4EC11F0090EEA6E7D0EE96ECFECBE
:1055000023F0220E0B01586F0001D1EC11F00A0EAE
:105510000B01586F0001D1EC11F0320E0B01576FE7
:105520000001FDEC03F0090EEA6EEC0EE96ECFEC23
:1055300023F00A0E0B01586F0001D1EC11F01A0E86
:105540000B01586F0001D1EC11F00A0105D00B01DD
:105550000A01CE87E8973092D8A986D0000ECCB940
:10556000010E0B01576F000E0A01D0B9010E0B019D
:105570005719010803E10A01D2B903D00A01DCA9D5
:105580006FD0DAB96CD0DCB907D05E500F0804E1F7
:10559000640E1C6E5FC01DF0DC891AB202D0CE9979
:1055A00001D0CE891AB80ED0D6B905D08988929884
:1055B0008986929607D0D4A903D08988929802D080
:1055C00089869296E8B94BD030B249D0DAB947D043
:1055D0009C0EF66E060EF76E0001F4EC11F00A0E4A
:1055E0000B01586F0001D1EC11F00A0E0B01576F3F
:1055F0000001FDEC03F00A01E889A60EF66E060E26
:10560000F76E0001F4EC11F0090EEA6E7D0EE96E02
:10561000CFEC23F0220E0B01586F0001D1EC11F0FA
:105620000A0E0B01586F0001D1EC11F0320E0B0184
:10563000576F0001FDEC03F00A0EEA6E0C0EE96EE6
:10564000CFEC23F00A0E0B01586F0001D1EC11F0E2
:105650001A0E0B01586F0001D1EC11F00A0103D0B2
:10566000D2A901D0DA9962D0000ECCB9010E0B019B
:10567000576F000E0A01D0B9010E0B01571901082E
:1056800051E10A01CE99E8B94BD030B249D0DAB92C
:1056900047D0B00EF66E060EF76E0001F4EC11F076
:1056A0000A0E0B01586F0001D1EC11F00A0E0B012C
:1056B000576F0001FDEC03F00A01E889BA0EF66E9F
:1056C000060EF76E0001F4EC11F0090EEA6E7D0E85
:1056D000E96ECFEC23F0220E0B01586F0001D1ECE4
:1056E00011F00A0E0B01586F0001D1EC11F0320ECF
:1056F0000B01576F0001FDEC03F00A0EEA6E0C0E71
:10570000E96ECFEC23F00A0E0B01586F0001D1ECCB
:1057100011F01A0E0B01586F0001D1EC11F00A01C3
:1057200005D00B010A01CE89E8993092D8AB86D01A
:10573000000ECCBB010E0B01576F000E0A01D0BB4F
:10574000010E0B015719010803E10A01D2BB03D076
:105750000A01DCAB6FD0DABB6CD0DCBB07D05E508B
:105760000F0804E1640E1C6E5FC01DF0DC8B1AB2E2
:1057700002D0CE9B01D0CE8B1AB80ED0D6BB05D0AE
:10578000898892988986929607D0D4AB03D089886D
:10579000929802D089869296E8BB4BD030B249D01D
:1057A000DABB47D0C40EF66E060EF76E0001F4ECBD
:1057B00011F00A0E0B01586F0001D1EC11F00A0E26
:1057C0000B01576F0001FDEC03F00A01E88BCE0ED0
:1057D000F66E060EF76E0001F4EC11F0090EEA6E9B
:1057E0007D0EE96ECFEC23F0220E0B01586F000105
:1057F000D1EC11F00A0E0B01586F0001D1EC11F041
:10580000320E0B01576F0001FDEC03F00A0EEA6E39
:105810002C0EE96ECFEC23F00A0E0B01586F00013D
:10582000D1EC11F01A0E0B01586F0001D1EC11F000
:105830000A0103D0D2AB01D0DA9B62D0000ECCBB00
:10584000010E0B01576F000E0A01D0BB010E0B01B8
:105850005719010851E10A01CE9BE8BB4BD030B289
:1058600049D0DABB47D0D80EF66E060EF76E0001AF
:10587000F4EC11F00A0E0B01586F0001D1EC11F09D
:105880000A0E0B01576F0001FDEC03F00A01E88BD3
:10589000E20EF66E060EF76E0001F4EC11F0090E42
:1058A000EA6E7D0EE96ECFEC23F0220E0B01586FED
:1058B0000001D1EC11F00A0E0B01586F0001D1EC80
:1058C00011F0320E0B01576F0001FDEC03F00A0ED0
:1058D000EA6E2C0EE96ECFEC23F00A0E0B01586F26
:1058E0000001D1EC11F01A0E0B01586F0001D1EC40
:1058F00011F00A0105D00B010A01CE8BE89B309212
:10590000D8AD86D0000ECCBD010E0B01576F000E36
:105910000A01D0BD010E0B015719010803E10A016C
:10592000D2BD03D00A01DCAD6FD0DABD6CD0DCBDD6
:1059300007D05E500F0804E1640E1C6E5FC01DF0BE
:10594000DC8D1AB202D0CE9D01D0CE8D1AB80ED009
:10595000D6BD05D0898892988986929607D0D4AD15
:1059600003D08988929802D089869296E8BD4BD060
:1059700030B249D0DABD47D0EC0EF66E060EF76EA7
:105980000001F4EC11F00A0E0B01586F0001D1EC8C
:1059900011F00A0E0B01576F0001FDEC03F00A0134
:1059A000E88DF60EF66E060EF76E0001F4EC11F0BF
:1059B000090EEA6E7D0EE96ECFEC23F0220E0B018C
:1059C000586F0001D1EC11F00A0E0B01586F000165
:1059D000D1EC11F0320E0B01576F0001FDEC03F01A
:1059E0000A0EEA6E4C0EE96ECFEC23F00A0E0B01A4
:1059F000586F0001D1EC11F01A0E0B01586F000125
:105A0000D1EC11F00A0103D0D2AD01D0DA9D62D001
:105A1000000ECCBD010E0B01576F000E0A01D0BD68
:105A2000010E0B015719010851E10A01CE9DE8BD95
:105A30004BD030B249D0DABD47D0000EF66E070E1B
:105A4000F76E0001F4EC11F00A0E0B01586F000123
:105A5000D1EC11F00A0E0B01576F0001FDEC03F0C1
:105A60000A01E88D0A0EF66E070EF76E0001F4ECDF
:105A700011F0090EEA6E7D0EE96ECFEC23F0220ED6
:105A80000B01586F0001D1EC11F00A0E0B01586F99
:105A90000001D1EC11F0320E0B01576F0001FDEC4B
:105AA00003F00A0EEA6E4C0EE96ECFEC23F00A0EFC
:105AB0000B01586F0001D1EC11F01A0E0B01586F59
:105AC0000001D1EC11F00A0105D00B010A01CE8DC5
:105AD000E89D3092D8AF86D0000ECCBF010E0B01EE
