:0400000003EF38F0E2
:08000800046ED8CF05F0E0CF33
:1000100006F00001E9CF0CF0EACF07F0E1CF08F0DD
:10002000E2CF09F0D9CF0AF0DACF0BF0F3CF12F01C
:10003000F4CF13F0FACF14F0F5CF15F0F6CF16F099
:10004000F7CF17F000C00EF001C00FF002C010F0A3
:1000500003C011F09DA030EF00F09EB0D9EF02F088
:100060009DA236EF00F09EB2DCEF02F09DAA3CEFBD
:1000700000F09EBAD1EF02F00EC000F00FC001F008
:1000800010C002F011C003F00CC0E9FF07C0EAFF86
:10009000078E08C0E1FF09C0E2FF0AC0D9FF0BC00C
:1000A000DAFF12C0F3FF13C0F4FF14C0FAFF15C04B
:1000B000F5FF16C0F6FF17C0F7FF045006C0E0FFBB
:1000C00005C0D8FF1000F76AD60FF66E000EF722B3
:1000D0000900F550120000C1814001C0804101C0FB
:1000E000804100C1814001C0804100C1814000C108
:1000F000814001C0804101C0804100C1814000C1F8
:10010000814001C0804100C1814001C0804101C0E7
:10011000804100C1814001C0804100C1814000C1D7
:10012000814001C0804100C1814001C0804101C0C7
:10013000804100C1814000C1814001C0804101C0B7
:10014000804100C1814001C0804100C1814000C1A7
:10015000814001C0804101C0804100C1814000C197
:10016000814001C0804100C1814001C0804101C087
:10017000804100C1814000C1814001C0804101C077
:10018000804100C1814001C0804100C1814000C167
:10019000814001C0804100C1814001C0804101C057
:1001A000804100C1814001C0804100C1814000C147
:1001B000814001C0804101C0804100C1814000C137
:1001C000814001C0804100C1814001C0804101C027
:1001D000804100C18140F76AE60FF66E010EF722FA
:1001E0000900F550120000C0C101C30302C2C606D7
:1001F00007C705C5C404CC0C0DCD0FCFCE0E0ACA5F
:10020000CB0BC90908C8D81819D91BDBDA1A1EDEAE
:10021000DF1FDD1D1CDC14D4D515D71716D6D2125E
:1002200013D311D1D010F03031F133F3F23236F66E
:10023000F737F53534F43CFCFD3DFF3F3EFEFA3A1E
:100240003BFB39F9F83828E8E929EB2B2AEAEE2EAE
:100250002FEF2DEDEC2CE42425E527E7E62622E21E
:10026000E323E12120E0A06061A163A3A26266A66E
:10027000A767A56564A46CACAD6DAF6F6EAEAA6ADE
:100280006BAB69A9A86878B8B979BB7B7ABABE7E2E
:100290007FBF7DBDBC7CB47475B577B7B67672B2DE
:1002A000B373B17170B0509091519353529296566E
:1002B0005797559594549C5C5D9D5F9F9E5E5A9A9E
:1002C0009B5B99595898884849894B8B8A4A4E8E2E
:1002D0008F4F8D4D4C8C448485458747468682429E
:1002E000438341818040040063516C5D17E16F6B73
:1002F0006E6B700E6E25E96E010E6F21EA6E2EC0D8
:10030000EFFF04006E2BD8B46F2B100E6C6F07013B
:10031000496B140E05017B6F41D100016C5110082F
:1003200052E1700E6E25E96E010E6F21EA6E2EC04D
:10033000EFFF04006E2BD8B46F2B0101715116082A
:1003400007E364C06CF0140E05017B6F3AD0010125
:100350007151200807E167C06CF0140E05017B6F36
:1003600030D001017151210806E16AC06CF0140E11
:1003700005017B6F26D0010E00016E5D0701626FE3
:10038000000E00016F590701636F700E6225E96E60
:10039000010E6321EA6EEF50220807E169C06CF09C
:1003A000140E05017B6F0DD0070100016F6B6E6BA2
:1003B00063C06CF005017B6B8A9693960701496BCD
:1003C0000501ECD0000169516C5D13E1700E6E25E2
:1003D000E96E010E6F21EA6E2EC0EFFF04006E2B56
:1003E000D8B46F2B6AC06CF0140E05017B6FD6D0A9
:1003F00000016A516C5D33E1700E6E25E96E010EED
:100400006F21EA6E2EC0EFFF04006E2BD8B46F2B65
:1004100001017151220809E17251640DF3507325F5
:1004200005017C6F7D6B15D00101010E00016E5D31
:100430000701626F000E00016F590701636F700EB4
:100440006225E96E010E6321EA6E05017D6BEFCF37
:100450007CF5140E7B6F6BC06CF0A0D000016B516B
:100460006C5D1BE1700E6E25E96E010E6F21EA6E68
:100470002EC0EFFF04006E2BD8B46F2B05017C510A
:10048000D8B47D077C077C5304E17D5302E167C04B
:100490006CF0140E7B6F82D0000164516C5D13E12F
:1004A000700E6E25E96E010E6F21EA6E2EC0EFFF11
:1004B00004006E2BD8B46F2B65C06CF0140E0501D0
:1004C0007B6F6CD0000165516C5D13E1700E6E2581
:1004D000E96E010E6F21EA6E2EC0EFFF04006E2B55
:1004E000D8B46F2B66C06CF0140E05017B6F56D02C
:1004F000000166516C5D13E1700E6E25E96E010E10
:100500006F21EA6E2EC0EFFF04006E2BD8B46F2B64
:10051000150E6C6F140E05017B6F40D000016C51FD
:10052000150813E1700E6E25E96E010E6F21EA6E5B
:100530002EC0EFFF04006E2BD8B46F2B67C06CF099
:10054000140E05017B6F2AD0000167516C5D13E129
:10055000700E6E25E96E010E6F21EA6E2EC0EFFF60
:1005600004006E2BD8B46F2B68C06CF0140E05011C
:100570007B6F14D0000168516C5D10E1700E6E2528
:10058000E96E010E6F21EA6E2EC0EFFF040063C01A
:100590006CF005017B6B308A8A9693960001D6EF4A
:1005A00002F09EAAFED7AECF2EF09DD69E9A3CEFCB
:1005B00000F09E903CEF00F0192A05017B5307E004
:1005C0007B077B5304E163C06CF08A9693961C52C0
:1005D0000CE01C061C5209E11D5204E01D061D52D0
:1005E00001E11A843088640E1C6E1950320814E13F
:1005F000196A1AB004D01A808A8A939A03D01A9082
:100600008A9A939A1AAC07D02F5201E02F062F52E4
:1006100001E11A8A01D02F6A1B5213E01B061B52FC
:100620000AE17E6930B405D01AA202D01A9201D034
:100630001A8260C01BF0315204E03106315201E1F0
:1006400030949E9200013CEF00F041542B434D4703
:10065000463D310041542B434D47533D2200415408
:100660002B434D47463D310041542B434D47533DAD
:10067000220041542B434D47463D310041542B430A
:100680004D47533D220041542B434D47463D3100D9
:1006900041542B434D47533D220041542B434D477A
:1006A000463D310041542B434D47533D22004154B8
:1006B0002B434D47463D310041542B434D47533D5D
:1006C000220041542B434D47463D310041542B43BA
:1006D0004D47533D220041542B434D47463D310089
:1006E00041542B434D47533D220041542B434D472A
:1006F000463D310041542B434D47533D2200415468
:100700002B434D47463D310041542B434D47533D0C
:10071000220041542B434D47463D310041542B4369
:100720004D47533D220041542B434D47463D310038
:1007300041542B434D47533D220041542B434D47D9
:10074000463D310041542B434D47533D2200415417
:100750002B434D47463D310041542B434D47533DBC
:10076000220041542B434D47463D310041542B4319
:100770004D47533D220041542B434D47463D3100E8
:1007800041542B434D47533D220041542B434D4789
:10079000463D310041542B434D47533D22004154C7
:1007A0002B434D47463D310041542B434D47533D6C
:1007B000220041542B434D47463D310041542B43C9
:1007C0004D47533D220041542B434D47463D310098
:1007D00041542B434D47533D220041542B434D4739
:1007E000533D220041542B434D47533D2200415479
:1007F0002B434D47533D220041542B434D47533D1E
:10080000220041542B434D47533D220041542B437A
:100810004D47533D220041542B434D47533D220049
:1008200041542B434D47533D220041542B434D47E8
:10083000533D220041542B434D47533D2200415428
:100840002B434D47463D3100070EEA6E590EE96EC7
:10085000EF5011E0050E016EBF0E006E0400002E79
:10086000FDD7012EF9D72E0E006E002EFED7000008
:100870000400EF2EEFD71200929A899A0701525185
:100880004009556FC95055C7C9FFC730FEE3C9506D
:1008900053C7C9FFC730FEE3C95054C7C9FFC730AB
:1008A000FEE3929A898A00011200929A898A929AAA
:1008B0000701526B0A0E536FAA0E546F0001DCDF62
:1008C000020E0701526F0A0E536FAA0E546F0001F9
:1008D000D3DF040E0701526F0A0E536FAA0E546F36
:1008E0000001CADF060E0701526F0A0E536FAA0EEF
:1008F000546F0001C1DF080E0701526F0A0E536FDB
:10090000AA0E546F0001B8DF0A0E0701526F536F31
:10091000AA0E546F0001B0DF0C0E0701526F0A0ED1
:10092000536FAA0E546F0001A7DF0E0E0701526F1E
:100930000A0E536FAA0E546F00019EDF78EF38F055
:1009400050C752F70701536B51C754F7000194DFAA
:10095000120050C752F7100E0701536F51C754F7DA
:1009600000018ADF1200F2CF5AF7F29EAA6A010E46
:10097000A96EA69CA69EA680A85007015ABFF28E1B
:100980003A6E3AC03BF00601D2913AB0D281D8908B
:100990003A30D293E8B0D2833A30006E00323F0E44
:1009A0000016D29500B0D2853A30006E0032003287
:1009B0001F0E0016D29700B0D2873A38006E0F0E85
:1009C0000016D29900B0D2893A38006E0032070E74
:1009D0000016D29B00B0D28B3A38006E0032003243
:1009E000030E0016D29D00B0D28D006A3ABE008080
:1009F000D29F00B0D28FF2CF5AF7F29EAA6A020EAF
:100A0000A96EA69CA69EA680A85007015ABFF28E8A
:100A10003A6E3AC03CF00601D3913AB0D381D890F7
:100A20003A30D393E8B0D383070146930601D2A1AD
:100A300003D0070146830601070146950601D2A3AC
:100A400003D0070146850601070146970601D2A596
:100A500003D0070146870601070146990601D2A780
:100A600003D00701468906010701469B0601D2A96A
:100A700003D00701468B06010701469D0601D2AB54
:100A800003D00701468D06010701469F0601D2AD3E
:100A900003D00701468F0601070147910601D2AF37
:100AA00003D0070147810601070147930601D3A13F
:100AB00003D0070147830601070147950601D3A329
:100AC00003D0070147850601F2CF5AF7F29EAA6AC2
:100AD000040EA96EA69CA69EA680A85007015ABF28
:100AE000F28E3A6E3AC03EF00601D4913AB0D4810B
:100AF000D8903A30D493E8B0D4833A30006E0032C4
:100B00003F0E0016D49500B0D4853A30006E003206
:100B100000321F0E0016D49700B0D4873A38006E0A
:100B20000F0E0016D49900B0D4893A38006E003206
:100B3000070E0016D49B00B0D48B3A38006E0032FA
:100B40000032030E0016D49D00B0D48D006A3ABE68
:100B50000080D49F00B0D48FF2CF5AF7F29EAA6AD9
:100B6000050EA96EA69CA69EA680A85007015ABF96
:100B7000F28E3A6E3AC03FF00601D5913AB0D58177
:100B8000D8903A30D593E8B0D583F2CF5AF7F29E99
:100B9000AA6A070EA96EA69CA69EA680A850070169
:100BA0005ABFF28E3A6E3AC041F00601D6913AB081
:100BB000D681D8903A30D693E8B0D6833A30006EDA
:100BC00000323F0E0016D69500B0D6853A30006E42
:100BD000003200321F0E0016D69700B0D6873A3882
:100BE000006E0F0E0016D69900B0D6893A38006E06
:100BF0000032070E0016D69B00B0D68B3A38006E36
:100C000000320032030E0016D69D00B0D68D006A69
:100C10003ABE0080D69F00B0D68FF2CF5AF7F29E30
:100C2000AA6A080EA96EA69CA69EA680A8500701D7
:100C30005ABFF28E3A6E3AC042F00601D7913AB0EE
:100C4000D781D8903A30D793E8B0D783F2CF5AF70C
:100C5000F29EAA6A0A0EA96EA69CA69EA680A8501D
:100C600007015ABFF28E3A6E3AC044F00601D8919D
:100C70003AB0D881D8903A30D893E8B0D8833A3097
:100C8000006E00323F0E0016D89500B0D8853A307D
:100C9000006E003200321F0E0016D89700B0D887C1
:100CA0003A38006E0F0E0016D89900B0D8893A383D
:100CB000006E0032070E0016D89B00B0D88B3A3871
:100CC000006E00320032030E0016D89D00B0D88DA1
:100CD000006A3ABE0080D89F00B0D88FF2CF5AF792
:100CE000F29EAA6A0B0EA96EA69CA69EA680A8508C
:100CF00007015ABFF28E3A6E3AC045F00601D9910B
:100D00003AB0D981D8903A30D993E8B0D983F2CFAC
:100D10005AF7F29EAA6A0D0EA96EA69CA69EA68000
:100D2000A85007015ABFF28E3A6E3AC047F006014A
:100D3000DA913AB0DA81D8903A30DA93E8B0DA83CF
:100D40003A30006E00323F0E0016DA9500B0DA85B8
:100D50003A30006E003200321F0E0016DA9700B0F3
:100D6000DA873A38006E0F0E0016DA9900B0DA8989
:100D70003A38006E0032070E0016DA9B00B0DA8BAC
:100D80003A38006E00320032030E0016DA9D00B0D1
:100D9000DA8D006A3ABE0080DA9F00B0DA8FF2CFB7
:100DA0005AF7F29EAA6A0E0EA96EA69CA69EA6806F
:100DB000A85007015ABFF28E3A6E3AC048F00601B9
:100DC000DB913AB0DB81D8903A30DB93E8B0DB833B
:100DD000F2CF5AF7F29EAA6A100EA96EA69CA69EA2
:100DE000A680A85007015ABFF28E3A6E0601E6911E
:100DF0003AB0E681D8903A30E693E8B0E6833A30EC
:100E0000006E00323F0E0016E69500B0E6853A30DF
:100E1000006E003200321F0E0016E69700B0E68723
:100E20003A38006E0F0E0016E69900B0E6893A389F
:100E3000006E0032070E0016E69B00B0E68B3A38D3
:100E4000006E00320032030E0016E69D00B0E68D03
:100E5000006A3ABE0080E69F00B0E68FF2CF5AF7F4
:100E6000F29EAA6A110EA96EA69CA69EA680A85004
:100E700007015ABFF28E3A6E0601E7913AB0E78158
:100E8000D8903A30E793E8B0E783F2CF5AF7F29E72
:100E9000AA6A140EA96EA69CA69EA680A850070159
:100EA0005ABFF28E3A6E0601E8913AB0E881D890C6
:100EB0003A30E893E8B0E8833A30006E00323F0EF3
:100EC0000016E89500B0E8853A30006E0032003236
:100ED0001F0E0016E89700B0E8873A38006E0F0E34
:100EE0000016E89900B0E8893A38006E0032070E23
:100EF0000016E89B00B0E88B3A38006E00320032F2
:100F0000030E0016E89D00B0E88D006A3ABE00802E
:100F1000E89F00B0E88FF2CF5AF7F29EAA6A150E4A
:100F2000A96EA69CA69EA680A85007015ABFF28E65
:100F30003A6E0601E9913AB0E981D8903A30E993E6
:100F4000E8B0E983F2CF5AF7F29EAA6A180EA96EAA
:100F5000A69CA69EA680A85007015ABFF28E5E6E80
:100F6000F2CF5AF7F29EAA6A190EA96EA69CA69E07
:100F7000A680A8505ABFF28E5F6EF2CF5AF7F29E4B
:100F8000AA6A1A0EA96EA69CA69EA680A8505ABF51
:100F9000F28E0001606FF2CF5AF7F29EAA6A1B0E22
:100FA000A96EA69CA69EA680A85007015ABFF28EE5
:100FB0000001616FF2CF5AF7F29EAA6A1C0EA96E69
:100FC000A69CA69EA680A85007015ABFF28E1D6B54
:100FD0001C6FF2CF5AF7F29EAA6A1D0EA96EA69C4C
:100FE000A69EA680A8505ABFF28E00016D6FF2CF68
:100FF0005AF7F29EAA6A1E0EA96EA69CA69EA6800D
:10100000A85007015ABFF28E1F6B1E6FF2CF5AF71E
:10101000F29EAA6A1F0EA96EA69CA69EA680A85044
:101020005ABFF28E216B206FF2CF5AF7F29EAA6A56
:10103000200EA96EA69CA69EA680A8505ABFF28E2E
:10104000236B226FF2CF5AF7F29EAA6A210EA96E85
:10105000A69CA69EA680A8505ABFF28E256B246F30
:10106000F2CF5AF7F29EAA6A220EA96EA69CA69EFD
:10107000A680A8505ABFF28E276B266FF2CF5AF780
:10108000F29EAA6A230EA96EA69CA69EA680A850D0
:101090005ABFF28E296B286FF2CF5AF7F29EAA6AD6
:1010A000240EA96EA69CA69EA680A8505ABFF28EBA
:1010B0002B6B2A6FF2CF5AF7F29EAA6A250EA96E01
:1010C000A69CA69EA680A8505ABFF28E2D6B2C6FB0
:1010D000F2CF5AF7F29EAA6A260EA96EA69CA69E89
:1010E000A680A8505ABFF28E2F6B2E6FF2CF5AF700
:1010F000F29EAA6A270EA96EA69CA69EA680A8505C
:101100005ABFF28E316B306FF2CF5AF7F29EAA6A55
:10111000280EA96EA69CA69EA680A8505ABFF28E45
:10112000336B326FF2CF5AF7F29EAA6A290EA96E7C
:10113000A69CA69EA680A8505ABFF28E356B346F2F
:10114000F2CF5AF7F29EAA6A2A0EA96EA69CA69E14
:10115000A680A8505ABFF28E376B366FF2CF5AF77F
:10116000F29EAA6A2B0EA96EA69CA69EA680A850E7
:101170005ABFF28E396B386FF2CF5AF7F29EAA6AD5
:101180002C0EA96EA69CA69EA680A8505ABFF28ED1
:101190003B6B3A6FF2CF5AF7F29EAA6A2D0EA96EF8
:1011A000A69CA69EA680A8505ABFF28E3D6B3C6FAF
:1011B000F2CF5AF7F29EAA6A2E0EA96EA69CA69EA0
:1011C000A680A8505ABFF28E3F6B3E6FF2CF5AF7FF
:1011D000F29EAA6A2F0EA96EA69CA69EA680A85073
:1011E0005ABFF28E416B406FF2CF5AF7F29EAA6A55
:1011F000300EA96EA69CA69EA680A8505ABFF28E5D
:10120000436B426FF2CF5AF7F29EAA6A310EA96E73
:10121000A69CA69EA680A8505ABFF28E456B446F2E
:10122000506B0400320E50255A6FF2CF5BF7F29EDE
:10123000AA6A5AC7A9FFA69CA69EA680A8505BBF13
:10124000F28E516F51510D0803E050510F0824E206
:10125000036A50517F0FE96E050E0320EA6EEF6AB4
:10126000320E50255A6FF250006EF29EAA6A5AC78B
:10127000A9FF51C7A8FFA69CA69EA6840F01550EE4
:10128000A76EAA0EA76EA682A6B2FED7A69400509D
:10129000F21210D00BD00701036A50517F0FE96E94
:1012A000050E0320EA6E51C7EFFF0F010701502B17
:1012B000B8D70F010701536B030E526F556B546B78
:1012C000576B566B04005D0E52255A6F000E53216A
:1012D0005B6FF2CF5CF7F29E5BC7AAFF5AC7A9FF0C
:1012E000A69CA69EA680A8505CBFF28E596B586F34
:1012F00058510D0802E1595305E0555303E154518B
:10130000290809E28E0E5425E96E050E5521EA6E74
:10131000EF6A13D008D08E0E5425E96E050E5521C4
:10132000EA6E58C7EFFF53C703F05251522BD8B49F
:10133000532B542BD8B4552BC5D7522BD8B4532B81
:10134000556B546B04005D0E52255A6F000E5321ED
:101350005B6FF2CF5CF7F29E5BC7AAFF5AC7A9FF8B
:10136000A69CA69EA680A8505CBFF28E596B586FB3
:1013700058510D0802E1595305E0555303E154510A
:10138000290809E2AE0E5425E96E050E5521EA6ED4
:10139000EF6A13D008D0AE0E5425E96E050E552124
:1013A000EA6E58C7EFFF53C703F05251522BD8B41F
:1013B000532B542BD8B4552BC5D7522BD8B4532B01
:1013C000556B546B04005D0E52255A6F000E53216D
:1013D0005B6FF2CF5CF7F29E5BC7AAFF5AC7A9FF0B
:1013E000A69CA69EA680A8505CBFF28E596B586F33
:1013F00058510D0802E1595305E0555303E154518A
:10140000290809E2CE0E5425E96E050E5521EA6E33
:10141000EF6A13D008D0CE0E5425E96E050E552183
:10142000EA6E58C7EFFF53C703F05251522BD8B49E
:10143000532B542BD8B4552BC5D7522BD8B4532B80
:10144000556B546B04005D0E52255A6F000E5321EC
:101450005B6FF2CF5CF7F29E5BC7AAFF5AC7A9FF8A
:10146000A69CA69EA680A8505CBFF28E596B586FB2
:1014700058510D0802E1595305E0555303E1545109
:10148000290809E2EE0E5425E96E050E5521EA6E93
:10149000EF6A13D008D0EE0E5425E96E050E5521E3
:1014A000EA6E58C7EFFF53C703F05251522BD8B41E
:1014B000532B542BD8B4552BC5D7522BD8B4532B00
:1014C000556B546B04005D0E52255A6F000E53216C
:1014D0005B6FF2CF5CF7F29E5BC7AAFF5AC7A9FF0A
:1014E000A69CA69EA680A8505CBFF28E596B586F32
:1014F00058510D0802E1595305E0555303E1545189
:10150000290809E20E0E5425E96E060E5521EA6EF1
:10151000EF6A13D008D00E0E5425E96E060E552141
:10152000EA6E58C7EFFF53C703F05251522BD8B49D
:10153000532B542BD8B4552BC5D7522BD8B4532B7F
:10154000556B546B04005D0E52255A6F000E5321EB
:101550005B6FF2CF5CF7F29E5BC7AAFF5AC7A9FF89
:10156000A69CA69EA680A8505CBFF28E596B586FB1
:1015700058510D0802E1595305E0555303E1545108
:10158000290809E22E0E5425E96E060E5521EA6E51
:10159000EF6A13D008D02E0E5425E96E060E5521A1
:1015A000EA6E58C7EFFF53C703F05251522BD8B41D
:1015B000532B542BD8B4552BC5D7522BD8B4532BFF
:1015C000556B546B04005D0E52255A6F000E53216B
:1015D0005B6FF2CF5CF7F29E5BC7AAFF5AC7A9FF09
:1015E000A69CA69EA680A8505CBFF28E596B586F31
:1015F00058510D0802E1595305E0555303E1545188
:10160000290809E24E0E5425E96E060E5521EA6EB0
:10161000EF6A13D008D04E0E5425E96E060E552100
:10162000EA6E58C7EFFF53C703F05251522BD8B49C
:10163000532B542BD8B4552BC5D7522BD8B4532B7E
:10164000556B546B04005D0E52255A6F000E5321EA
:101650005B6FF2CF5CF7F29E5BC7AAFF5AC7A9FF88
:10166000A69CA69EA680A8505CBFF28E596B586FB0
:1016700058510D0802E1595305E0555303E1545107
:10168000290809E26E0E5425E96E060E5521EA6E10
:10169000EF6A13D008D06E0E5425E96E060E552160
:1016A000EA6E58C7EFFF53C703F05251522BD8B41C
:1016B000532B542BD8B4552BC5D7522BD8B4532BFE
:1016C000556B546B04005D0E52255A6F000E53216A
:1016D0005B6FF2CF5CF7F29E5BC7AAFF5AC7A9FF08
:1016E000A69CA69EA680A8505CBFF28E596B586F30
:1016F00058510D0802E1595305E0555303E1545187
:10170000290809E28E0E5425E96E060E5521EA6E6F
:10171000EF6A13D008D08E0E5425E96E060E5521BF
:10172000EA6E58C7EFFF53C703F05251522BD8B49B
:10173000532B542BD8B4552BC5D7522BD8B4532B7D
:10174000556B546B04005D0E52255A6F000E5321E9
:101750005B6FF2CF5CF7F29E5BC7AAFF5AC7A9FF87
:10176000A69CA69EA680A8505CBFF28E596B586FAF
:1017700058510D0802E1595305E0555303E1545106
:10178000290809E2AE0E5425E96E060E5521EA6ECF
:10179000EF6A13D008D0AE0E5425E96E060E55211F
:1017A000EA6E58C7EFFF53C703F05251522BD8B41B
:1017B000532B542BD8B4552BC5D700011200929A45
:1017C000899A070153514109566FC95056C7C9FF3D
:1017D000C730FEE3C95054C7C9FFC730FEE3C95044
:1017E000C96AC730FEE3C9CF55F7929A898A55C7AF
:1017F00001F00001120051C753F7090E0701546FA1
:101800000001DDDF01C052F7070152C701F00001FE
:10181000120051C753F7190E0701546F0001CFDFB3
:1018200001C052F7070152C701F000011200070181
:101830005451070B006E5431016E013201321F0EFC
:10184000011601505525E96E000E5621EA6EEFCFC4
:1018500001F0002A01D00132002EFDD7010E011641
:1018600000011200070155515703F3CF01F0F4CFE7
:1018700000F05803F350002656515703F350002050
:10188000026E0001120007015451070B006E543123
:10189000016E013201321F0E011601505625E96E0C
:1018A000000E5721EA6E016A012A002A01D0013692
:1018B000002EFDD7555303E00150EF1203D0011E57
:1018C0000150EF16000112000701516B516B51BF1F
:1018D00003D051510A0823E3036A5151006EE8BE58
:1018E0000306526F03C053F7036A5151006EE8BEFE
:1018F0000306546F060E566FEF0E556F000197DF0B
:1019000052C754F70701556B01B0552B060E576FA0
:10191000EC0E566F0001B7DF0701512BD8D700013D
:101920000BEF10F00701516B000165DF01C079F585
:101930001AA803D00501791F00010601F0970501DF
:1019400079A103D00601F0870501D890793106010D
:10195000F099E8B0F08905017931006E00323F0E50
:1019600000160601F09B00B0F08B05017931006E86
:10197000003200321F0E00160601F09D00B0F08DFF
:1019800005017939006E0F0E00160601F09F00B0B8
:10199000F08F05017939006E0032070E001606013E
:1019A000F19100B0F18105017939006E0032003209
:1019B000030E00160601F19300B0F183006A0501E1
:1019C00079BF00800601F19500B0F1850701516BE8
:1019D00000011FDF01C079F51AA803D00501791FA6
:1019E00000010601F197050179A103D00601F187F5
:1019F0000501D89079310601F199E8B0F189020E1C
:101A00000701516F0001F7DE01C079F51AA803D074
:101A10000501791F00010601EF93050179A103D0AB
:101A20000601EF830501D89079310601EF95E8B002
:101A3000EF8505017931006E00323F0E0016060178
:101A4000EF9700B0EF8705017931006E0032003268
:101A50001F0E00160601EF9900B0EF8905017939D4
:101A6000006E0F0E00160601EF9B00B0EF8B050114
:101A70007939006E0032070E00160601EF9D00B0A6
:101A8000EF8D05017939006E00320032030E001629
:101A90000601EF9F00B0EF8F006A050179BF00805B
:101AA0000601F09100B0F081020E0701516F0001B4
:101AB000B0DE01C079F51AA803D00501791F000135
:101AC0000601F093050179A103D00601F083050119
:101AD000D89079310601F095E8B0F085010E070144
:101AE000506F50510A08D8A094D250C754F7070E2F
:101AF000566F460E556F00019ADE0150010B01082A
:101B0000D8A43BD150C754F7060E0701566FEF0E0D
:101B1000556F00018CDE0150010BD8A497D050C73F
:101B200054F7060E0701566FEC0E556F00017FDE6D
:101B30000150010BD8A47CD0D89007015035036A1E
:101B4000F20FE96E060E0320EA6E010EEE2601E3A7
:101B5000EF2AD8905035036AF20FE96E060E032083
:101B6000EA6EECCF52F7ED52EFCF51F7D8905035E7
:101B7000036A1C0FE96E070E0320EA6EECCF56F7DE
:101B8000ED52EFCF55F7586B4B0E576F00016ADEE1
:101B900002C054F701C053F70F0E07010124016E74
:101BA000000E0220036E0350525D40E303E101503A
:101BB000515D3CE3D8905035036AF20FE96E060E92
:101BC0000320EA6EEC6AED52EF6A010E505DF60FEB
:101BD0002DE20A0F00016BEF10F00601CE91070114
:101BE00025D00601CE93070121D00601CE9507012D
:101BF0001DD00601CE97070119D00601CE99070125
:101C000015D00601CE9B070111D00601CE9D07011C
:101C10000DD00601CE9F070109D00601CF91070123
:101C200005D00601CF93070101D007010DD00001B7
:101C3000D89007015035036AF20FE96E060E0320B3
:101C4000EA6EEC6AED52EF6A97D0000150C754F784
:101C5000060E0701566FEC0E556F0001E8DD0150CE
:101C6000010B0108D8A47CD0D89007015035036A35
:101C7000F20FE96E060E0320EA6E010EEE2601E376
:101C8000EF2AD8905035036AF20FE96E060E032052
:101C9000EA6EECCF52F7ED52EFCF51F7D8905035B6
:101CA000036A1C0FE96E070E0320EA6EECCF56F7AD
:101CB000ED52EFCF55F7586B4B0E576F0001D2DD49
:101CC00002C054F701C053F70F0E07010124016E43
:101CD000000E0220036E0350525D40E303E1015009
:101CE000515D3CE3D8905035036AF20FE96E060E61
:101CF0000320EA6EEC6AED52010EEF6E505DF60FB6
:101D00002DE20A0F000182EF10F00601CE810701DB
:101D100025D00601CE83070121D00601CE8507011B
:101D20001DD00601CE87070119D00601CE89070113
:101D300015D00601CE8B070111D00601CE8D07010B
:101D40000DD00601CE8F070109D00601CF81070112
:101D500005D00601CF83070101D007010DD0000196
:101D6000D89007015035036AF20FE96E060E032082
:101D7000EA6EEC6AED52EF6A48D150C754F7070E8D
:101D80000701566F460E556F000151DD0150010BE2
:101D9000D8A43CD150C754F7060E0701566FEF0E7A
:101DA000556F000144DD0150010B0108D8A498D003
:101DB00050C754F7060E0701566FEC0E556F000121
:101DC00036DD0150010B0108D8A47CD0D890070162
:101DD0005035036AF20FE96E060E0320EA6E010E1B
:101DE000EE2601E3EF2AD8905035036AF20FE96E30
:101DF000060E0320EA6EECCF52F7ED52EFCF51F70B
:101E0000D8905035036A1C0FE96E070E0320EA6E66
:101E1000ECCF56F7ED52EFCF55F7586B4B0E576F8F
:101E2000000120DD02C054F701C053F70F0E070177
:101E30000124016E000E0220036E0350525D40E348
:101E400003E10150515D3CE3D8905035036AF20F35
:101E5000E96E060E0320EA6EEC6AED52EF6A010E9F
:101E6000505DF60F2DE20A0F000199EF10F0060108
:101E7000CE81070125D00601CE83070121D00601BE
:101E8000CE8507011DD00601CE87070119D00601B6
:101E9000CE89070115D00601CE8B070111D00601AE
:101EA000CE8D07010DD00601CE8F070109D00601A6
:101EB000CF81070105D00601CF83070101D00701BB
:101EC0000DD00001D89007015035036AF20FE96E7A
:101ED000060E0320EA6EEC6AED52EF6A96D000011E
:101EE00050C754F7060E0701566FEC0E556F0001F0
:101EF0009EDC0150010BD8A47CD0D890070150354E
:101F0000036AF20FE96E060E0320EA6E010EEE265A
:101F100001E3EF2AD8905035036AF20FE96E060EFE
:101F20000320EA6EECCF52F7ED52EFCF51F7D89085
:101F30005035036A1C0FE96E070E0320EA6EECCFE2
:101F400056F7ED52EFCF55F7586B4B0E576F000118
:101F500089DC02C054F701C053F70F0E07010124BA
:101F6000016E000E0220036E0350525D40E303E158
:101F70000150515D3CE3D8905035036AF20FE96E91
:101F8000060E0320EA6EEC6AED52EF6A010E505D18
:101F9000F60F2DE20A0F0001B0EF10F00601CE910E
:101FA000070125D00601CE93070121D00601CE9569
:101FB00007011DD00601CE97070119D00601CE9961
:101FC000070115D00601CE9B070111D00601CE9D59
:101FD00007010DD00601CE9F070109D00601CF9160
:101FE000070105D00601CF93070101D007010DD0ED
:101FF0000001D89007015035036AF20FE96E060E12
:102000000320EA6EEC6AED52EF6A00010701502BE3
:1020100068D5000159D44A6A000E0601CEAF010E00
:102020004A12D8904A340701516F000E0601CEAD16
:10203000010E070151114A6ED8904A34516F000EBB
:102040000601CEAB010E070151114A6ED8904A34F9
:10205000516F000E0601CEA9010E070151114A6E03
:10206000D8904A34516F000E0601CEA7010E070129
:1020700051114A6ED8904A34516F000E0601CEA518
:10208000010E070151114A6ED8904A34516F000E6B
:102090000601CEA3010E070151114A6ED8904A34B1
:1020A000516F000E0601CEA1010E070151114A6EBB
:1020B0004B6A000E0601CFA3010E4B12D8904B3491
:1020C0000701516F000E0601CFA1010E070151114A
:1020D0004B6E00011200E824F76AF736F10FF66E36
:1020E000200EF7220A00F550FA6E0800F550F96E3E
:1020F000DA1BE21BEA1BF21BFA1B021C0A1C121C55
:102100001A1C221CE824F76AF7361F0FF66E210E00
:10211000F7220A00F550FA6E0800F550F96E0A1D14
:10212000121D1A1D221D2A1D321D3A1D421D4A1D57
:10213000521DE824F76AF7364D0FF66E210EF7228E
:102140000A00F550FA6E0800F550F96E6E1E761E04
:102150007E1E861E8E1E961E9E1EA61EAE1EB61EBF
:10216000E824F76AF7367B0FF66E210EF7220A0095
:10217000F550FA6E0800F550F96E9C1FA41FAC1FB5
:10218000B41FBC1FC41FCC1FD41FDC1FE41F50C7CB
:1021900052F70A0E0701536F51C754F700013CEC88
:1021A00004F0120050C752F71A0E0701536F51C7BF
:1021B00054F700013CEC04F012002F52D8A417D1C0
:1021C0000601D0A103D052904E9014D0E6A105D0C4
:1021D000E8B103D04E8052900DD0E6B105D0E8A111
:1021E00003D04E90528006D0E6A104D0E8A102D0E0
:1021F0004E805280D0A303D052924E9214D0E6A3C8
:1022000005D0E8B303D04E8252920DD0E6B305D08C
:10221000E8A303D04E92528206D0E6A304D0E8A3EE
:1022200002D04E825282D0A503D052944E9414D044
:10223000E6A505D0E8B503D04E8452940DD0E6B59E
:1022400005D0E8A503D04E94528406D0E6A504D06C
:10225000E8A502D04E845284D0A703D052964E9661
:1022600014D0E6A705D0E8B703D04E8652960DD01D
:10227000E6B705D0E8A703D04E96528606D0E6A76B
:1022800004D0E8A702D04E865286D0A903D0529837
:102290004E9814D0E6A905D0E8B903D04E885298DC
:1022A0000DD0E6B905D0E8A903D04E98528806D0E3
:1022B000E6A904D0E8A902D04E885288D0AB03D05A
:1022C000529A4E9A14D0E6AB05D0E8BB03D04E8AA2
:1022D000529A0DD0E6BB05D0E8AB03D04E9A528A95
:1022E00006D0E6AB04D0E8AB02D04E8A528AD0AD1D
:1022F00003D0529C4E9C14D0E6AD05D0E8BD03D06F
:102300004E8C529C0DD0E6BD05D0E8AD03D04E9C5E
:10231000528C06D0E6AD04D0E8AD02D04E8C528C83
:10232000D0AF03D0529E4E9E14D0E6AF05D0E8BF8A
:1023300003D04E8E529E0DD0E6BF05D0E8AF03D03D
:102340004E9E528E06D0E6AF04D0E8AF02D04E8E3D
:10235000528ED1A103D053904F9014D0E7A105D055
:10236000E9B103D04F8053900DD0E7B105D0E9A17A
:1023700003D04F90538006D0E7A104D0E9A102D04A
:102380004F805380D1A303D053924F9214D0E7A330
:1023900005D0E9B303D04F8253920DD0E7B305D0F7
:1023A000E9A303D04F92538206D0E7A304D0E9A358
:1023B00002D04F825382040E0701506F4EC051F776
:1023C0000001E5DE040E0701506F4FC051F7000118
:1023D000E9DE060E0701506F52C051F70001D7DE4B
:1023E000060E0701506F53C051F70001DBDE1200EB
:1023F00093908A90080E016E00D00000018E10D0DC
:10240000019E07015A330001D8B08A80D8A08A9073
:10241000018C06D0019C012EF4D700D000008A80E8
:10242000840EE96EE92EFED700D0000001BEE8D789
:1024300001BCF0D712000900F5520CE0F6CF58F7B6
:10244000F7CF59F7F5CF5AF7D3DF58C7F6FF59C77B
:10245000F7FFF1D7120003017169706907015F6B23
:102460005D515F5D21E204005F515B25E96E000E66
:102470005C21EA6EEF500301711907015E6F036A78
:102480005E51000163EC00F0016E03017051011810
:10249000716F036A07015E510001EBEC00F0E8CFB9
:1024A00070F307015F2BDCD7000112009EA8FED756
:1024B000AD6E12001E6A1F6A266A276A0601DEB127
:1024C00004D0D0B102D0E48101D0E491DEB304D0D5
:1024D000D0B302D0E48301D0E493DEB504D0D0B50C
:1024E00002D0E48501D0E495DEB704D0D0B702D0A5
:1024F000E48701D0E497DEB904D0D0B902D0E489F2
:1025000001D0E499DEBB04D0D0BB02D0E48B01D073
:10251000E49BDEBD04D0D0BD02D0E48D01D0E49DAB
:10252000DEBF04D0D0BF02D0E48F01D0E49FDFB182
:1025300004D0D1B102D0E58101D0E591DFB304D060
:10254000D1B302D0E58301D0E593000EE4BF010EC4
:102550002612D890263407015A6F000E0601E4BDFA
:10256000010E07015A11266ED89026345A6F000EBC
:102570000601E4BB010E07015A11266ED8902634DD
:102580005A6F000E0601E4B9010E07015A11266EBA
:10259000D89026345A6F000E0601E4B7010E0701E9
:1025A0005A11266ED89026345A6F000E0601E4B5F3
:1025B000010E07015A11266ED89026345A6F000E6C
:1025C0000601E4B3010E07015A11266ED890263495
:1025D0005A6F000E0601E4B1010E07015A11266E72
:1025E000000E0601E5B3010E2712D890273407012B
:1025F0005A6F000E0601E5B1010E07015A11276E50
:10260000000E0601DEBF010E1E12D8901E34070117
:102610005A6F000E0601DEBD010E07015A111E6E33
:10262000D8901E345A6F000E0601DEBB010E070162
:102630005A111E6ED8901E345A6F000E0601DEB974
:10264000010E07015A111E6ED8901E345A6F000EEB
:102650000601DEB7010E07015A111E6ED8901E3416
:102660005A6F000E0601DEB5010E07015A111E6EEB
:10267000D8901E345A6F000E0601DEB3010E07011A
:102680005A111E6ED8901E345A6F000E0601DEB12C
:10269000010E07015A111E6E000E0601DFB3010E76
:1026A0001F12D8901F3407015A6F000E0601DFB1C8
:1026B000010E07015A111F6E000111EF17F00400FF
:1026C000010E6E5D0701596F000E00016F59070181
:1026D0005A6F010E5C6F700E5B6F59C75DF700019A
:1026E000BADE010E6E5D0701596F000E00016F59D1
:1026F00007015A6F700E5925E96E010E5A21EA6ED4
:10270000EF500301715DD8A457EF22F0700E000165
:102710006E25E96E010E6F21EA6EEF500301705DC8
:10272000D8A457EF22F001017051AA08D8A45ED1B5
:1027300071512008D8A45AD16DC070F0200E00014C
:10274000716F1C0E726F3BC073F03CC074F03DC0E3
:1027500075F03EC076F03FC077F040C078F041C0E1
:1027600079F042C07AF043C07BF044C07CF045C0B1
:102770007DF046C07EF047C07FF048C080F049C081
:1027800081F0F2CF59F7F29EAA6A100EA96EA69CAC
:10279000A69EA680A850070159BFF28E0001826F45
:1027A000F2CF59F7F29EAA6A110EA96EA69CA69EB8
:1027B000A680A850070159BFF28E0001836FF2CFA7
:1027C00059F7F29EAA6A120EA96EA69CA69EA68032
:1027D000A850070159BFF28E0001846FF2CF59F75C
:1027E000F29EAA6A130EA96EA69CA69EA680A85069
:1027F000070159BFF28E0001856FF2CF59F7F29EA3
:10280000AA6A140EA96EA69CA69EA680A8500701CF
:1028100059BFF28E0001866FF2CF59F7F29EAA6A75
:10282000150EA96EA69CA69EA680A850070159BFAA
:10283000F28E0001876FF2CF59F7F29EAA6A160E48
:10284000A96EA69CA69EA680A850070159BFF28E2D
:102850000001886FF2CF59F7F29EAA6A170EA96E8F
:10286000A69CA69EA680A850070159BFF28E000123
:10287000896F5EC08AF05FC08BF060C08CF061C071
:102880008DF01C0E8E6F6DC08FF01EC790F020C7AC
:1028900091F022C792F024C793F026C794F028C77E
:1028A00095F02AC796F02CC797F02EC798F030C73E
:1028B00099F032C79AF034C79BF036C79CF038C7FE
:1028C0009DF03AC79EF03CC79FF03EC7A0F040C7BE
:1028D000A1F042C7A2F044C7A3F007015C6B700EE1
:1028E0005B6F340E5D6F0001B6DD71C3A4F070C381
:1028F000A5F08A8693960A0E0701596F000124EC11
:1029000004F07051D3DD7151D1DD7251CFDD7351BF
:10291000CDDD7451CBDD7551C9DD7651C7DD775101
:10292000C5DD7851C3DD7951C1DD7A51BFDD7B5101
:10293000BDDD7C51BBDD7D51B9DD7E51B7DD7F5101
:10294000B5DD8051B3DD8151B1DD8251AFDD835101
:10295000ADDD8451ABDD8551A9DD8651A7DD875101
:10296000A5DD8851A3DD8951A1DD8A519FDD8B5101
:102970009DDD8C519BDD8D5199DD8E5197DD8F5101
:1029800095DD905193DD915191DD92518FDD935101
:102990008DDD94518BDD955189DD965187DD975101
:1029A00085DD985183DD995181DD9A517FDD9B5101
:1029B0007DDD9C517BDD9D5179DD9E5177DD9F5101
:1029C00075DDA05173DDA15171DDA2516FDDA35101
:1029D0006DDDA4516BDDA55169DD030E0701596F53
:1029E000000124EC04F08A969396010100016D51D8
:1029F0000101705DD8A452EF22F0712D0BD20301BA
:102A0000756B72C174F374C375F30701596B595137
:102A1000010173110301746F0301776B74C176F3C5
:102A200076C377F30701596B595101017511030101
:102A3000766F03017553D8A4B4D174510F08D8A090
:102A4000B0D1765174250701596F03017751752173
:102A500007015A6F5A53D8B402D00301A2D1595179
:102A60001008D8B002D003019CD10301775306E1CE
:102A70007651080803E3010E786F12D0775306E110
:102A80007651100803E3020E786F0AD0775306E1FF
:102A90007651180803E3030E786F02D0010E786FA9
:102AA000782D9BD075530DE1745108080AE34AC094
:102AB00079F37451016E04E0D8907933012EFCD77C
:102AC0001AD0755303E17451080815E2755313E1E8
:102AD00074510F0810E3080E745D006E000E7559F6
:102AE000036E00C001F032C079F3015204E0D890C7
:102AF0007933012EFCD77651080803E1775301E1C1
:102B000035D07651070804E1775302E1799F2ED042
:102B10007651060805E1775303E13F0E791726D079
:102B20007651050805E1775303E11F0E79171ED092
:102B30007651040805E1775303E10F0E791716D09B
:102B40007651030805E1775303E1070E79170ED09C
:102B50007651020805E1775303E1030E791706D099
:102B6000762D04D0775302E1010E79176DC070F015
:102B7000010E0001716F78C372F079C373F0070121
:102B80005C6B700E5B6F040E5D6F000164DC71C3E3
:102B900074F070C375F08A8693960400040E0701E2
:102BA000596F000124EC04F0040070517FDC715176
:102BB0007DDC72517BDC735179DC745177DC7551AB
:102BC00075DC0400030E0701596F000124EC04F0CA
:102BD00004008A969396E3D0030178510208D8A4A2
:102BE000DFD04AC079F37451016E04E0D890793394
:102BF000012EFCD74BC07AF3070E765D0701596FA3
:102C0000000E0301775907015A6F5951080803E173
:102C10005A5301E183D0070E0301765D0701596F16
:102C2000000E0301775907015A6F5951070805E152
:102C30005A5303E103017A9F70D0070E0301765DBA
:102C40000701596F000E0301775907015A6F595157
:102C5000060806E15A5304E13F0E03017A175DD0DE
:102C6000070E0301765D0701596F000E03017759C6
:102C700007015A6F5951050806E15A5304E11F0E26
:102C800003017A174AD0070E0301765D0701596FD9
:102C9000000E0301775907015A6F5951040806E1E4
:102CA0005A5304E10F0E03017A1737D0070E0301C0
:102CB000765D0701596F000E0301775907015A6FBE
:102CC0005951030806E15A5304E1070E03017A172C
:102CD00024D0070E0301765D0701596F000E030132
:102CE000775907015A6F5951020806E15A5304E116
:102CF000030E03017A1711D0070E0301765D070159
:102D0000596F000E0301775907015A6F592D06D0EC
:102D10005A5304E1010E03017A1707016DC070F0E8
:102D2000010E0001716F78C372F079C373F07AC33A
:102D300074F007015C6B700E5B6F050E5D6F000138
:102D40002BEC12F071C375F070C376F08A869396FF
:102D50000400040E0701596F000124EC04F0040084
:102D6000705156EC12F0715156EC12F0725156EC53
:102D700012F0735156EC12F0745156EC12F075517A
:102D800056EC12F0765156EC12F00400030E0701D7
:102D9000596F000124EC04F004008A969396030115
:102DA00038D06DC070F0810E0001716F020E726F2D
:102DB00007015C6B700E5B6F030E5D6F00012BEC07
:102DC00012F071C373F070C374F08A869396040096
:102DD000040E0701596F000124EC04F00400705147
:102DE00056EC12F0715156EC12F0725156EC12F092
:102DF000735156EC12F0745156EC12F00400030EAD
:102E00000701596F000124EC04F004008A969396A0
:102E10000301010171510708D8A4B1D000015AEF94
:102E200012F09D921EC079F31FC07AF320C07BF38D
:102E300021C07CF322C07DF323C07EF324C07FF346
:102E400025C080F326C081F327C082F328C083F316
:102E500029C084F32AC085F32BC086F32CC087F3E6
:102E60002DC088F36DC070F0070E716F100E030156
:102E7000786F78C372F079C373F07AC374F07BC350
:102E800075F07CC376F07DC377F07EC378F07FC3A6
:102E900079F080C37AF081C37BF082C37CF083C376
:102EA0007DF084C37EF085C37FF086C380F087C346
:102EB00081F088C382F007015C6B700E5B6F130EAC
:102EC0005D6F00012BEC12F071C383F070C384F0CE
:102ED0008A8693960400040E0701596F000124ECC2
:102EE00004F00400705156EC12F0715156EC12F0DF
:102EF000725156EC12F0735156EC12F0745156ECBC
:102F000012F0755156EC12F0765156EC12F07751E2
:102F100056EC12F0785156EC12F0795156EC12F052
:102F20007A5156EC12F07B5156EC12F07C5156EC73
:102F300012F07D5156EC12F07E5156EC12F07F519A
:102F400056EC12F0805156EC12F0815156EC12F012
:102F5000825156EC12F0835156EC12F0845156EC2B
:102F600012F00400030E0701596F000124EC04F075
:102F700004008A9693969D8208EF22F00101715118
:102F80002108D8A476EF1CF0F250006EF29EAA6AD7
:102F9000A96A0F0EA86EA69CA69EA6840F01550EC8
:102FA000A76EAA0EA76EA682A6B2FED7A694005060
:102FB000F212F2CF00F0F29EAA6A010EA96E73C15E
:102FC000A8FFA69CA69EA684550EA76EAA0EA76E65
:102FD000A682A6B2FED7A6940050F212F2CF00F05D
:102FE000F29EAA6A020EA96E74C1A8FFA69CA69EB4
:102FF000A684550EA76EAA0EA76EA682A6B2FED70D
:10300000A6940050F212F2CF00F0F29EAA6A030ECC
:10301000A96E75C1A8FFA69CA69EA684550EA76E94
:10302000AA0EA76EA682A6B2FED7A6940050F212F0
:10303000F2CF00F0F29EAA6A040EA96E76C1A8FF34
:10304000A69CA69EA684550EA76EAA0EA76EA68263
:10305000A6B2FED7A6940050F212F2CF00F0F29E74
:10306000AA6A050EA96E77C1A8FFA69CA69EA68493
:10307000550EA76EAA0EA76EA682A6B2FED7A6947C
:103080000050F212F2CF00F0F29EAA6A060EA96E6C
:1030900078C1A8FFA69CA69EA684550EA76EAA0E70
:1030A000A76EA682A6B2FED7A6940050F212F2CF67
:1030B00000F0F29EAA6A070EA96E79C1A8FFA69C2D
:1030C000A69EA684550EA76EAA0EA76EA682A6B2CD
:1030D000FED7A6940050F212F2CF00F0F29EAA6A38
:1030E000080EA96E7AC1A8FFA69CA69EA684550EBE
:1030F000A76EAA0EA76EA682A6B2FED7A69400500F
:10310000F212F2CF00F0F29EAA6A090EA96E7BC1FC
:10311000A8FFA69CA69EA684550EA76EAA0EA76E13
:10312000A682A6B2FED7A6940050F212F2CF00F00B
:10313000F29EAA6A0A0EA96E7CC1A8FFA69CA69E52
:10314000A684550EA76EAA0EA76EA682A6B2FED7BB
:10315000A6940050F212F2CF00F0F29EAA6A0B0E73
:10316000A96E7DC1A8FFA69CA69EA684550EA76E3B
:10317000AA0EA76EA682A6B2FED7A6940050F2129F
:10318000F2CF00F0F29EAA6A0C0EA96E7EC1A8FFD3
:10319000A69CA69EA684550EA76EAA0EA76EA68212
:1031A000A6B2FED7A6940050F212F2CF00F0F29E23
:1031B000AA6A0D0EA96E7FC1A8FFA69CA69EA68432
:1031C000550EA76EAA0EA76EA682A6B2FED7A6942B
:1031D0000050F212F2CF00F0F29EAA6A0E0EA96E13
:1031E00080C1A8FFA69CA69EA684550EA76EAA0E17
:1031F000A76EA682A6B2FED7A6940050F212F2CF16
:1032000000F0F29EAA6A0F0EA96E81C1A8FFA69CCB
:10321000A69EA684550EA76EAA0EA76EA682A6B27B
:10322000FED7A6940050F212F2CF00F0F29EAA6AE6
:10323000100EA96E82C1A8FFA69CA69EA684550E5C
:10324000A76EAA0EA76EA682A6B2FED7A6940050BD
:10325000F212F2CF00F0F29EAA6A110EA96E83C19B
:10326000A8FFA69CA69EA684550EA76EAA0EA76EC2
:10327000A682A6B2FED7A6940050F212F2CF00F0BA
:10328000F29EAA6A120EA96E84C1A8FFA69CA69EF1
:10329000A684550EA76EAA0EA76EA682A6B2FED76A
:1032A000A6940050F212F2CF00F0F29EAA6A130E1A
:1032B000A96E85C1A8FFA69CA69EA684550EA76EE2
:1032C000AA0EA76EA682A6B2FED7A6940050F2124E
:1032D000F2CF00F0F29EAA6A140EA96E86C1A8FF72
:1032E000A69CA69EA684550EA76EAA0EA76EA682C1
:1032F000A6B2FED7A6940050F212F2CF00F0F29ED2
:10330000AA6A150EA96E87C1A8FFA69CA69EA684D0
:10331000550EA76EAA0EA76EA682A6B2FED7A694D9
:103320000050F212F2CF00F0F29EAA6A160EA96EB9
:1033300088C1A8FFA69CA69EA684550EA76EAA0EBD
:10334000A76EA682A6B2FED7A6940050F212F2CFC4
:1033500000F0F29EAA6A170EA96E89C1A8FFA69C6A
:10336000A69EA684550EA76EAA0EA76EA682A6B22A
:10337000FED7A6940050F212F2CF00F0F29EAA6A95
:10338000180EA96E8AC1A8FFA69CA69EA684550EFB
:10339000A76EAA0EA76EA682A6B2FED7A69400506C
:1033A000F212F2CF00F0F29EAA6A190EA96E8BC13A
:1033B000A8FFA69CA69EA684550EA76EAA0EA76E71
:1033C000A682A6B2FED7A6940050F212F2CF00F069
:1033D000F29EAA6A1A0EA96E8CC1A8FFA69CA69E90
:1033E000A684550EA76EAA0EA76EA682A6B2FED719
:1033F000A6940050F212F2CF00F0F29EAA6A1B0EC1
:10340000A96E8DC1A8FFA69CA69EA684550EA76E88
:10341000AA0EA76EA682A6B2FED7A6940050F212FC
:10342000F2CF00F0F29EAA6A1C0EA96E8EC1A8FF10
:10343000A69CA69EA684550EA76EAA0EA76EA6826F
:10344000A6B2FED7A6940050F212F2CF00F0F29E80
:10345000AA6A1D0EA96E8FC1A8FFA69CA69EA6846F
:10346000550EA76EAA0EA76EA682A6B2FED7A69488
:103470000050F212F2CF00F0F29EAA6A1E0EA96E60
:1034800090C1A8FFA69CA69EA684550EA76EAA0E64
:10349000A76EA682A6B2FED7A6940050F212F2CF73
:1034A00000F0F29EAA6A1F0EA96E91C1A8FFA69C09
:1034B000A69EA684550EA76EAA0EA76EA682A6B2D9
:1034C000FED7A6940050F212F2CF00F0F29EAA6A44
:1034D000200EA96E92C1A8FFA69CA69EA684550E9A
:1034E000A76EAA0EA76EA682A6B2FED7A69400501B
:1034F000F212F2CF00F0F29EAA6A210EA96E93C1D9
:10350000A8FFA69CA69EA684550EA76EAA0EA76E1F
:10351000A682A6B2FED7A6940050F212F2CF00F017
:10352000F29EAA6A220EA96E94C1A8FFA69CA69E2E
:10353000A684550EA76EAA0EA76EA682A6B2FED7C7
:10354000A6940050F212F2CF00F0F29EAA6A230E67
:10355000A96E95C1A8FFA69CA69EA684550EA76E2F
:10356000AA0EA76EA682A6B2FED7A6940050F212AB
:10357000F2CF00F0F29EAA6A240EA96E96C1A8FFAF
:10358000A69CA69EA684550EA76EAA0EA76EA6821E
:10359000A6B2FED7A6940050F212F2CF00F0F29E2F
:1035A000AA6A250EA96E97C1A8FFA69CA69EA6840E
:1035B000550EA76EAA0EA76EA682A6B2FED7A69437
:1035C0000050F212F2CF00F0F29EAA6A260EA96E07
:1035D00098C1A8FFA69CA69EA684550EA76EAA0E0B
:1035E000A76EA682A6B2FED7A6940050F212F2CF22
:1035F00000F0F29EAA6A270EA96E99C1A8FFA69CA8
:10360000A69EA684550EA76EAA0EA76EA682A6B287
:10361000FED7A6940050F212F2CF00F0F29EAA6AF2
:10362000280EA96E9AC1A8FFA69CA69EA684550E38
:10363000A76EAA0EA76EA682A6B2FED7A6940050C9
:10364000F212F2CF00F0F29EAA6A290EA96E9BC177
:10365000A8FFA69CA69EA684550EA76EAA0EA76ECE
:10366000A682A6B2FED7A6940050F212F2CF00F0C6
:10367000F29EAA6A2A0EA96E9CC1A8FFA69CA69ECD
:10368000A684550EA76EAA0EA76EA682A6B2FED776
:10369000A6940050F212F2CF00F0F29EAA6A2B0E0E
:1036A000A96E9DC1A8FFA69CA69EA684550EA76ED6
:1036B000AA0EA76EA682A6B2FED7A6940050F2125A
:1036C000F2CF00F0F29EAA6A2C0EA96E9EC1A8FF4E
:1036D000A69CA69EA684550EA76EAA0EA76EA682CD
:1036E000A6B2FED7A6940050F212F2CF00F0F29EDE
:1036F000AA6A2D0EA96E9FC1A8FFA69CA69EA684AD
:10370000550EA76EAA0EA76EA682A6B2FED7A694E5
:103710000050F212F2CF00F0F29EAA6A2E0EA96EAD
:10372000A0C1A8FFA69CA69EA684550EA76EAA0EB1
:10373000A76EA682A6B2FED7A6940050F212F2CFD0
:1037400000F0F29EAA6A2F0EA96EA1C1A8FFA69C46
:10375000A69EA684550EA76EAA0EA76EA682A6B236
:10376000FED7A6940050F212F2CF00F0F29EAA6AA1
:10377000300EA96EA2C1A8FFA69CA69EA684550ED7
:10378000A76EAA0EA76EA682A6B2FED7A694005078
:10379000F212F2CF00F0F29EAA6A310EA96EA3C116
:1037A000A8FFA69CA69EA684550EA76EAA0EA76E7D
:1037B000A682A6B2FED7A6940050F2120701516B62
:1037C000506B0400A40E5025E96E010E5121EA6EE3
:1037D000EFCF52F752510D0805E0515303E150511C
:1037E0000F0827E27F0E5025E96E050E5121EA6E83
:1037F000EF6A320E5025596F000E51215A6FF25068
:10380000006EF29E5AC7AAFF59C7A9FF52C7A8FF68
:10381000A69CA69EA6840F01550EA76EAA0EA76EA3
:10382000A682A6B2FED7A6940050F2122DD026D0C2
:1038300007017F0E5025E96E050E5121EA6E52C731
:10384000EFFF320E5025596F000E51215A6FF25082
:10385000006EF29E5AC7AAFF59C7A9FF52C7A8FF18
:10386000A69CA69EA6840F01550EA76EAA0EA76E53
:10387000A682A6B2FED7A6940050F2120701502BE2
:10388000D8B4512B9ED70F016DC070F0210E0001EE
:10389000716F07015C6B700E5B6F020E5D6F000154
:1038A0002BEC12F071C372F070C373F08A8693969A
:1038B0000A0E0701596F000124EC04F0705156EC18
:1038C00012F0715156EC12F0725156EC12F0735125
:1038D00056EC12F0030E0701596F000124EC04F0BE
:1038E0008A969396FF0008EF22F001017151220899
:1038F000D8A409EF22F00701546B040E536F566BE6
:10390000556B586B576B0400700E5325E96E010E12
:103910005421EA6EEF500D0805E0565303E155516E
:103920001E0828E25D0E5325596F000E54215A6F70
:10393000700E5325E96E010E5421EA6EEFCF5BF74E
:10394000F250006EF29E5AC7AAFF59C7A9FF5BC783
:10395000A8FFA69CA69EA6840F01550EA76EAA0ED0
:10396000A76EA682A6B2FED7A6940050F21247D048
:103970003AD007018E0E5525016E050E5621036EB5
:10398000700E5325E96E010E5421EA6EEFCF5BF7FE
:1039900003C0EAFF01C0E9FF5BC7EFFF5D0E5325DF
:1039A000596F000E54215A6F700E5325E96E010EA7
:1039B0005421EA6EEFCF5BF7F250006EF29E5AC7C9
:1039C000AAFF59C7A9FF5BC7A8FFA69CA69EA6840D
:1039D0000F01550EA76EAA0EA76EA682A6B2FED73D
:1039E000A6940050F212070154C703F05351532B11
:1039F000D8B4542B552BD8B4562B85D70F018E0E27
:103A000007015525E96E050E5621EA6EEF6A566BE1
:103A1000556B532BD8B4542B0400700E5325E96E0C
:103A2000010E5421EA6EEF500D0805E0565303E1F4
:103A300055511E0828E25D0E5325596F000E542182
:103A40005A6F700E5325E96E010E5421EA6EEFCFC6
:103A50005BF7F250006EF29E5AC7AAFF59C7A9FF42
:103A60005BC7A8FFA69CA69EA6840F01550EA76E55
:103A7000AA0EA76EA682A6B2FED7A6940050F21296
:103A800047D03AD00701AE0E5525016E050E5621DE
:103A9000036E700E5325E96E010E5421EA6EEFCFCE
:103AA0005BF703C0EAFF01C0E9FF5BC7EFFF5D0EF4
:103AB0005325596F000E54215A6F700E5325E96E2D
:103AC000010E5421EA6EEFCF5BF7F250006EF29ECA
:103AD0005AC7AAFF59C7A9FF5BC7A8FFA69CA69E05
:103AE000A6840F01550EA76EAA0EA76EA682A6B2D7
:103AF000FED7A6940050F212070154C703F05351A9
:103B0000532BD8B4542B552BD8B4562B85D70F0133
:103B1000AE0E07015525E96E050E5621EA6EEF6AD5
:103B2000566B556B532BD8B4542B0400700E532591
:103B3000E96E010E5421EA6EEF500D0805E0565370
:103B400003E155511E0828E25D0E5325596F000E02
:103B500054215A6F700E5325E96E010E5421EA6EFE
:103B6000EFCF5BF7F250006EF29E5AC7AAFF59C71B
:103B7000A9FF5BC7A8FFA69CA69EA6840F01550EB1
:103B8000A76EAA0EA76EA682A6B2FED7A694005074
:103B9000F21247D03AD00701CE0E5525016E050E20
:103BA0005621036E700E5325E96E010E5421EA6E04
:103BB000EFCF5BF703C0EAFF01C0E9FF5BC7EFFF90
:103BC0005D0E5325596F000E54215A6F700E532508
:103BD000E96E010E5421EA6EEFCF5BF7F250006EF2
:103BE000F29E5AC7AAFF59C7A9FF5BC7A8FFA69CA8
:103BF000A69EA6840F01550EA76EAA0EA76EA682DA
:103C0000A6B2FED7A6940050F212070154C703F0E3
:103C10005351532BD8B4542B552BD8B4562B85D78E
:103C20000F01CE0E07015525E96E050E5621EA6EED
:103C3000EF6A566B556B532BD8B4542B0400700E9F
:103C40005325E96E010E5421EA6EEF500D0805E090
:103C5000565303E155511E0828E25D0E5325596F56
:103C6000000E54215A6F700E5325E96E010E542137
:103C7000EA6EEFCF5BF7F250006EF29E5AC7AAFFD2
:103C800059C7A9FF5BC7A8FFA69CA69EA6840F01E3
:103C9000550EA76EAA0EA76EA682A6B2FED7A69450
:103CA0000050F21247D03AD00701EE0E5525016EB2
:103CB000050E5621036E700E5325E96E010E542138
:103CC000EA6EEFCF5BF703C0EAFF01C0E9FF5BC715
:103CD000EFFF5D0E5325596F000E54215A6F700E81
:103CE0005325E96E010E5421EA6EEFCF5BF7F250D7
:103CF000006EF29E5AC7AAFF59C7A9FF5BC7A8FF6B
:103D0000A69CA69EA6840F01550EA76EAA0EA76EAE
:103D1000A682A6B2FED7A6940050F212070154C79D
:103D200003F05351532BD8B4542B552BD8B4562BE6
:103D300085D70F01EE0E07015525E96E050E5621B8
:103D4000EA6EEF6A566B556B532BD8B4542B0400B4
:103D5000700E5325E96E010E5421EA6EEF500D08E6
:103D600005E0565303E155511E0828E25D0E532528
:103D7000596F000E54215A6F700E5325E96E010ED3
:103D80005421EA6EEFCF5BF7F250006EF29E5AC7F5
:103D9000AAFF59C7A9FF5BC7A8FFA69CA69EA68439
:103DA0000F01550EA76EAA0EA76EA682A6B2FED769
:103DB000A6940050F21247D03AD007010E0E5525B6
:103DC000016E060E5621036E700E5325E96E010E2C
:103DD0005421EA6EEFCF5BF703C0EAFF01C0E9FFB1
:103DE0005BC7EFFF5D0E5325596F000E54215A6FCC
:103DF000700E5325E96E010E5421EA6EEFCF5BF78A
:103E0000F250006EF29E5AC7AAFF59C7A9FF5BC7BE
:103E1000A8FFA69CA69EA6840F01550EA76EAA0E0B
:103E2000A76EA682A6B2FED7A6940050F212070192
:103E300054C703F05351532BD8B4542B552BD8B43B
:103E4000562B85D70F010E0E07015525E96E060E7C
:103E50005621EA6EEF6A566B556B532BD8B4542B30
:103E60000400700E5325E96E010E5421EA6EEF50E6
:103E70000D0805E0565303E155511E0828E25D0E7A
:103E80005325596F000E54215A6F700E5325E96E59
:103E9000010E5421EA6EEFCF5BF7F250006EF29EF6
:103EA0005AC7AAFF59C7A9FF5BC7A8FFA69CA69E31
:103EB000A6840F01550EA76EAA0EA76EA682A6B203
:103EC000FED7A6940050F21249D03CD007015D0EF7
:103ED0005325596F000E54215A6F700E5325E96E09
:103EE000010E5421EA6EEFCF5BF7F250006EF29EA6
:103EF0005AC7AAFF59C7A9FF5BC7A8FFA69CA69EE1
:103F0000A6840F01550EA76EAA0EA76EA682A6B2B2
:103F1000FED7A6940050F2122E0E07015525016E11
:103F2000060E5621036E700E5325E96E010E5421C4
:103F3000EA6EEFCF5BF703C0EAFF01C0E9FF5BC7A2
:103F4000EFFF0F01070154C703F05351532BD8B4AF
:103F5000542B552BD8B4562B83D70F012E0E0701A7
:103F60005525E96E060E5621EA6EEF6A566B556BC3
:103F7000532BD8B4542B0400700E5325E96E010E58
:103F80005421EA6EEF500D0805E0565303E15551F8
:103F90001E0828E25D0E5325596F000E54215A6FFA
:103FA000700E5325E96E010E5421EA6EEFCF5BF7D8
:103FB000F250006EF29E5AC7AAFF59C7A9FF5BC70D
:103FC000A8FFA69CA69EA6840F01550EA76EAA0E5A
:103FD000A76EA682A6B2FED7A6940050F21247D0D2
:103FE0003AD007014E0E5525016E060E5621036E7E
:103FF000700E5325E96E010E5421EA6EEFCF5BF788
:1040000003C0EAFF01C0E9FF5BC7EFFF5D0E532568
:10401000596F000E54215A6F700E5325E96E010E30
:104020005421EA6EEFCF5BF7F250006EF29E5AC752
:10403000AAFF59C7A9FF5BC7A8FFA69CA69EA68496
:104040000F01550EA76EAA0EA76EA682A6B2FED7C6
:10405000A6940050F212070154C703F05351532B9A
:10406000D8B4542B552BD8B4562B85D70F014E0EF0
:1040700007015525E96E060E5621EA6EEF6A566B6A
:10408000556B532BD8B4542B0400700E5325E96E96
:10409000010E5421EA6EEF500D0805E0565303E17E
:1040A00055511E0828E25D0E5325596F000E54210C
:1040B0005A6F700E5325E96E010E5421EA6EEFCF50
:1040C0005BF7F250006EF29E5AC7AAFF59C7A9FFCC
:1040D0005BC7A8FFA69CA69EA6840F01550EA76EDF
:1040E000AA0EA76EA682A6B2FED7A6940050F21220
:1040F00047D03AD007016E0E5525016E060E5621A7
:10410000036E700E5325E96E010E5421EA6EEFCF57
:104110005BF703C0EAFF01C0E9FF5BC7EFFF5D0E7D
:104120005325596F000E54215A6F700E5325E96EB6
:10413000010E5421EA6EEFCF5BF7F250006EF29E53
:104140005AC7AAFF59C7A9FF5BC7A8FFA69CA69E8E
:10415000A6840F01550EA76EAA0EA76EA682A6B260
:10416000FED7A6940050F212070154C703F0535132
:10417000532BD8B4542B552BD8B4562B85D70F01BD
:104180006E0E07015525E96E060E5621EA6EEF6A9E
:10419000566B556B532BD8B4542B0400700E53251B
:1041A000E96E010E5421EA6EEF500D0805E05653FA
:1041B00003E155511E0828E25D0E5325596F000E8C
:1041C00054215A6F700E5325E96E010E5421EA6E88
:1041D000EFCF5BF7F250006EF29E5AC7AAFF59C7A5
:1041E000A9FF5BC7A8FFA69CA69EA6840F01550E3B
:1041F000A76EAA0EA76EA682A6B2FED7A6940050FE
:10420000F21247D03AD007018E0E5525016E060EE8
:104210005621036E700E5325E96E010E5421EA6E8D
:10422000EFCF5BF703C0EAFF01C0E9FF5BC7EFFF19
:104230005D0E5325596F000E54215A6F700E532591
:10424000E96E010E5421EA6EEFCF5BF7F250006E7B
:10425000F29E5AC7AAFF59C7A9FF5BC7A8FFA69C31
:10426000A69EA6840F01550EA76EAA0EA76EA68263
:10427000A6B2FED7A6940050F212070154C703F06D
:104280005351532BD8B4542B552BD8B4562B85D718
:104290000F018E0E07015525E96E060E5621EA6EB6
:1042A000EF6A566B556B532BD8B4542B0400700E29
:1042B0005325E96E010E5421EA6EEF500D0805E01A
:1042C000565303E155511E0828E25D0E5325596FE0
:1042D000000E54215A6F700E5325E96E010E5421C1
:1042E000EA6EEFCF5BF7F250006EF29E5AC7AAFF5C
:1042F00059C7A9FF5BC7A8FFA69CA69EA6840F016D
:10430000550EA76EAA0EA76EA682A6B2FED7A694D9
:104310000050F21247D03AD00701AE0E5525016E7B
:10432000060E5621036E700E5325E96E010E5421C0
:10433000EA6EEFCF5BF703C0EAFF01C0E9FF5BC79E
:10434000EFFF5D0E5325596F000E54215A6F700E0A
:104350005325E96E010E5421EA6EEFCF5BF7F25060
:10436000006EF29E5AC7AAFF59C7A9FF5BC7A8FFF4
:10437000A69CA69EA6840F01550EA76EAA0EA76E38
:10438000A682A6B2FED7A6940050F212070154C727
:1043900003F05351532BD8B4542B552BD8B4562B70
:1043A00085D70F01AE0E07015525E96E060E562181
:1043B000EA6EEF6A6DC070F0220E0001716F0701A6
:1043C0005C6B700E5B6F020E5D6F00012BEC12F0E8
:1043D00071C372F070C373F08A8693960A0E070158
:1043E000596F000124EC04F0705156EC12F0715139
:1043F00056EC12F0725156EC12F0735156EC12F06A
:10440000030E0701596F000124EC04F08A9693967D
:1044100001017151030846E14BC079F34AC07AF3B8
:104420006DC070F0030E0001716F020E726F79C3E0
:1044300073F07AC374F007015C6B700E5B6F050E4E
:104440005D6F00012BEC12F071C375F070C376F054
:104450008A8693960400040E0701596F000124EC2C
:1044600004F00400705156EC12F0715156EC12F049
:10447000725156EC12F0735156EC12F0745156EC26
:1044800012F0755156EC12F0765156EC12F0040011
:10449000030E0701596F000124EC04F004008A9612
:1044A00093960101010E0301736FF40E726F309A3F
:1044B00063C06CF005017B6B00016F6B6E6B8A96BD
:1044C000939651EF3BF0948082B002D01AAE02D0A6
:1044D0001AA406D0320E0701596F000124EC04F033
:1044E000948082B002D01AAE02D01AA45AD01A9484
:1044F0001D6A0601DEB102D0E0A104D0DC81DE91AC
:10450000E091D091DEB302D0E0A304D0DC83DE934F
:10451000E093D093DEB502D0E0A504D0DC85DE9533
:10452000E095D095DEB702D0E0A704D0DC87DE9717
:10453000E097D097DEB902D0E0A904D0DC89DE99FB
:10454000E099D099DEBB02D0E0AB04D0DC8BDE9BDF
:10455000E09BD09BDEBD02D0E0AD04D0DC8DDE9DC3
:10456000E09DD09DDEBF02D0E0AF04D0DC8FDE9FA7
:10457000E09FD09FDFB102D0E1A104D0DD81DF91C7
:10458000E191D191DFB302D0E1A304D0DD83DF93C9
:10459000E193D1931A8E899892988996929608D031
:1045A0000001948082A003D01AAE01D01A9E0601A9
:1045B000000154EF3BF0948282B202D030A002D0CE
:1045C0001AA606D0320E0701596F000124EC04F040
:1045D000948282B202D030A002D01AA6CCD01A9611
:1045E000000E0601CEB1010E0701516F000E06014B
:1045F000D2B1010E0701511907E10601DEA102D077
:10460000070102D0D0810701000E0601CEB3010ED2
:104610000701516F000E0601D2B3010E07015119B7
:1046200007E10601DEA302D0070102D0D083070113
:10463000000E0601CEB5010E0701516F000E0601F6
:10464000D2B5010E0701511907E10601DEA502D01E
:10465000070102D0D0850701000E0601CEB7010E7A
:104660000701516F000E0601D2B7010E0701511963
:1046700007E10601DEA702D0070102D0D0870701BB
:10468000000E0601CEB9010E0701516F000E0601A2
:10469000D2B9010E0701511907E10601DEA902D0C6
:1046A000070102D0D0890701000E0601CEBB010E22
:1046B0000701516F000E0601D2BB010E070151190F
:1046C00007E10601DEAB02D0070102D0D08B070163
:1046D000000E0601CEBD010E0701516F000E06014E
:1046E000D2BD010E0701511907E10601DEAD02D06E
:1046F000070102D0D08D0701000E0601CEBF010ECA
:104700000701516F000E0601D2BF010E07015119BA
:1047100007E10601DEAF02D0070102D0D08F07010A
:10472000000E0601CFB1010E0701516F000E060108
:10473000D3B1010E0701511907E10601DFA102D033
:10474000070102D0D1810701000E0601CFB3010E8F
:104750000701516F000E0601D3B3010E0701511975
:1047600007E10601DFA302D0070102D0D1830701D0
:10477000308008D00001948282A203D030A001D002
:1047800030900701000156EF3BF061510A0820E12B
:104790000601CE91D2A1CE81CE93D2A3CE83CE9567
:1047A000D2A5CE85CE97D2A7CE87CE99D2A9CE89D3
:1047B000CE9BD2ABCE8BCE9DD2ADCE8DCE9FD2AF87
:1047C000CE8FCF91D3A1CF81CF93D3A3CF8300013D
:1047D0000601DC91DC93DC95DC97DC99DC9BDC9DAD
:1047E000DC9FDD91DD930001EFEF37F0EF5210E039
:1047F000EACF59F7E9CF58F7EFCF5AF7F8EC11F0B5
:1048000059C7EAFF58C7E9FFE92AD8B4EA2AEED720
:1048100012000701582D8CD1000E0601DEB1010EE9
:1048200007015B6F000E0601E0B1010E07015B118D
:104830005A6F000E0601DCA1010E07015A17000E87
:104840000601D6B1010E07015D6F000E0601D8B159
:10485000010E07015D115A155991E8B05981000EFA
:1048600059B1010E5A6F000E0601DEB3010E0701A9
:104870005C6F000E0601E0B3010E07015C115B6F77
:10488000000E0601DCA3010E07015B17000E0601F6
:10489000D6B3010E07015E6F000E0601D8B3010EFC
:1048A00007015E115B155A115991E8B05981000E4C
:1048B00059B1010E5A6F000E0601DEB5010E070157
:1048C0005C6F000E0601E0B5010E07015C115B6F25
:1048D000000E0601DCA5010E07015B17000E0601A4
:1048E000D6B5010E07015E6F000E0601D8B5010EA8
:1048F00007015E115B155A115991E8B05981000EFC
:1049000059B1010E5A6F000E0601DEB7010E070104
:104910005C6F000E0601E0B7010E07015C115B6FD2
:10492000000E0601DCA7010E07015B17000E060151
:10493000D6B7010E07015E6F000E0601D8B7010E53
:1049400007015E115B155A115991E8B05981000EAB
:1049500059B1010E5A6F000E0601DEB9010E0701B2
:104960005C6F000E0601E0B9010E07015C115B6F80
:10497000000E0601DCA9010E07015B17000E0601FF
:10498000D6B9010E07015E6F000E0601D8B9010EFF
:1049900007015E115B155A115991E8B05981000E5B
:1049A00059B1010E5A6F000E0601DEBB010E070160
:1049B0005C6F000E0601E0BB010E07015C115B6F2E
:1049C000000E0601DCAB010E07015B17000E0601AD
:1049D000D6BB010E07015E6F000E0601D8BB010EAB
:1049E00007015E115B155A115991E8B05981000E0B
:1049F00059B1010E5A6F000E0601DEBD010E07010E
:104A00005C6F000E0601E0BD010E07015C115B6FDB
:104A1000000E0601DCAD010E07015B17000E06015A
:104A2000D6BD010E07015E6F000E0601D8BD010E56
:104A300007015E115B155A115991E8B05981000EBA
:104A400059B1010E5A6F000E0601DEBF010E0701BB
:104A50005C6F000E0601E0BF010E07015C115B6F89
:104A6000000E0601DCAF010E07015B17000E060108
:104A7000D6BF010E07015E6F000E0601D8BF010E02
:104A800007015E115B155A115991E8B05981000E6A
:104A900059B1010E5A6F000E0601DFB1010E070178
:104AA0005C6F000E0601E1B1010E07015C115B6F46
:104AB000000E0601DDA1010E07015B17000E0601C5
:104AC000D7B1010E07015E6F000E0601D9B1010ECC
:104AD00007015E115B155A115991E8B05981000E1A
:104AE00059B1010E5A6F000E0601DFB3010E070126
:104AF0005C6F000E0601E1B3010E07015C115B6FF4
:104B0000000E0601DDA3010E07015B17000E060172
:104B1000D7B3010E07015E6F000E0601D9B3010E77
:104B200007015E115B155A115991E8B059818FD177
:104B300058510208D8A48BD1000E0601DEB1010E37
:104B400007015B6F000E0601E0B1010E07015B116A
:104B50005A6F000E0601DCA1010E07015A17000E64
:104B60000601D6A1010E07015D6F000E0601D8B146
:104B7000010E07015D115A155991E8B05981000ED7
:104B800059B1010E5A6F000E0601DEB3010E070186
:104B90005C6F000E0601E0B3010E07015C115B6F54
:104BA000000E0601DCA3010E07015B17000E0601D3
:104BB000D6A3010E07015E6F000E0601D8B3010EE9
:104BC00007015E115B155A115991E8B05981000E29
:104BD00059B1010E5A6F000E0601DEB5010E070134
:104BE0005C6F000E0601E0B5010E07015C115B6F02
:104BF000000E0601DCA5010E07015B17000E060181
:104C0000D6A5010E07015E6F000E0601D8B5010E94
:104C100007015E115B155A115991E8B05981000ED8
:104C200059B1010E5A6F000E0601DEB7010E0701E1
:104C30005C6F000E0601E0B7010E07015C115B6FAF
:104C4000000E0601DCA7010E07015B17000E06012E
:104C5000D6A7010E07015E6F000E0601D8B7010E40
:104C600007015E115B155A115991E8B05981000E88
:104C700059B1010E5A6F000E0601DEB9010E07018F
:104C80005C6F000E0601E0B9010E07015C115B6F5D
:104C9000000E0601DCA9010E07015B17000E0601DC
:104CA000D6A9010E07015E6F000E0601D8B9010EEC
:104CB00007015E115B155A115991E8B05981000E38
:104CC00059B1010E5A6F000E0601DEBB010E07013D
:104CD0005C6F000E0601E0BB010E07015C115B6F0B
:104CE000000E0601DCAB010E07015B17000E06018A
:104CF000D6AB010E07015E6F000E0601D8BB010E98
:104D000007015E115B155A115991E8B05981000EE7
:104D100059B1010E5A6F000E0601DEBD010E0701EA
:104D20005C6F000E0601E0BD010E07015C115B6FB8
:104D3000000E0601DCAD010E07015B17000E060137
:104D4000D6AD010E07015E6F000E0601D8BD010E43
:104D500007015E115B155A115991E8B05981000E97
:104D600059B1010E5A6F000E0601DEBF010E070198
:104D70005C6F000E0601E0BF010E07015C115B6F66
:104D8000000E0601DCAF010E07015B17000E0601E5
:104D9000D6AF010E07015E6F000E0601D8BF010EEF
:104DA00007015E115B155A115991E8B05981000E47
:104DB00059B1010E5A6F000E0601DFB1010E070155
:104DC0005C6F000E0601E1B1010E07015C115B6F23
:104DD000000E0601DDA1010E07015B17000E0601A2
:104DE000D7A1010E07015E6F000E0601D9B1010EB9
:104DF00007015E115B155A115991E8B05981000EF7
:104E000059B1010E5A6F000E0601DFB3010E070102
:104E10005C6F000E0601E1B3010E07015C115B6FD0
:104E2000000E0601DDA3010E07015B17000E06014F
:104E3000D7A3010E07015E6F000E0601D9B3010E64
:104E400007015E115B155A115991E8B05981000EA6
:104E500059B1010E016E000112000601DAA184D0E1
:104E6000000ECEB1010E0701596F000E0601D2B13E
:104E7000010E07015919010803E10601D4B103D05D
:104E80000601DEA16DD0DCB16AD0DEB107D05E5084
:104E90000F0804E1640E1C6E5FC01DF0DE811AB2C3
:104EA00002D0D09101D0D0811AB80ED0D8B105D09F
:104EB000898892988986929607D0D6A103D089884E
:104EC000929802D089869296EAB149D030B247D002
:104ED000DCB145D04A0EF66E060EF76E00011BECF3
:104EE00012F00A0E07015A6F0001F8EC11F00A0ED9
:104EF0000701596F000124EC04F00601EA81540E09
:104F0000F66E060EF76E00011BEC12F0050EEA6E4F
:104F10007F0EE96E6BDC220E07015A6F0001F8EC80
:104F200011F00A0E07015A6F0001F8EC11F0320E71
:104F30000701596F000124EC04F0050EEA6E8E0E95
:104F4000E96E54DC0A0E07015A6F0001F8EC11F00B
:104F50001A0E07015A6F0001F8EC11F0060103D098
:104F6000D4A101D0DC9161D0000ECEB1010E0701B9
:104F7000596F000E0601D2B1010E0701591901083F
:104F800050E10601D091EAB14AD030B248D0DCB14C
:104F900046D05E0EF66E060EF76E00011BEC12F0A8
:104FA0000A0E07015A6F0001F8EC11F00A0E070112
:104FB000596F000124EC04F00601EA81680EF66ED8
:104FC000060EF76E00011BEC12F0050EEA6E7F0E66
:104FD000E96E0CDC220E07015A6F0001F8EC11F0AB
:104FE0000A0E07015A6F0001F8EC11F0320E0701AA
:104FF000596F000124EC04F0050EEA6E8E0EE96E86
:10500000F6EC23F00A0E07015A6F0001F8EC11F0DC
:105010001A0E07015A6F0001F8EC11F0060105D0D5
:1050200007010601D081EA913092DAA386D0000E02
:10503000CEB3010E0701596F000E0601D2B3010E67
:1050400007015919010803E10601D4B303D0060191
:10505000DEA36FD0DCB36CD0DEB307D05E500F0898
:1050600004E1640E1C6E5FC01DF0DE831AB202D034
:10507000D09301D0D0831AB80ED0D8B305D0898888
:1050800092988986929607D0D6A303D08988929861
:1050900002D089869296EAB34BD030B249D0DCB3C5
:1050A00047D0720EF66E060EF76E00011BEC12F082
:1050B0000A0E07015A6F0001F8EC11F00A0E070101
:1050C000596F000124EC04F00601EA837C0EF66EB1
:1050D000060EF76E00011BEC12F0050EEA6E7F0E55
:1050E000E96EF6EC23F0220E07015A6F0001F8EC8E
:1050F00011F00A0E07015A6F0001F8EC11F0320EA0
:105100000701596F000124EC04F0050EEA6EAE0EA3
:10511000E96EF6EC23F00A0E07015A6F0001F8EC75
:1051200011F01A0E07015A6F0001F8EC11F0060198
:1051300003D0D4A301D0DC9362D0000ECEB3010E15
:105140000701596F000E0601D2B3010E070159196C
:10515000010851E10601D093EAB34BD030B249D0F7
:10516000DCB347D0860EF66E060EF76E00011BEC20
:1051700012F00A0E07015A6F0001F8EC11F00A0E46
:105180000701596F000124EC04F00601EA83900E38
:10519000F66E060EF76E00011BEC12F0050EEA6EBD
:1051A0007F0EE96EF6EC23F0220E07015A6F000124
:1051B000F8EC11F00A0E07015A6F0001F8EC11F03B
:1051C000320E0701596F000124EC04F0050EEA6E5F
:1051D000AE0EE96EF6EC23F00A0E07015A6F0001DD
:1051E000F8EC11F01A0E07015A6F0001F8EC11F0FB
:1051F000060105D007010601D083EA933092DAA5B3
:1052000086D0000ECEB5010E0701596F000E0601C3
:10521000D2B5010E07015919010803E10601D4B501
:1052200003D00601DEA56FD0DCB56CD0DEB507D0AB
:105230005E500F0804E1640E1C6E5FC01DF0DE8539
:105240001AB202D0D09501D0D0851AB80ED0D8B5F8
:1052500005D0898892988986929607D0D6A503D0E2
:105260008988929802D089869296EAB54BD030B25E
:1052700049D0DCB547D09A0EF66E060EF76E0001E7
:105280001BEC12F00A0E07015A6F0001F8EC11F046
:105290000A0E0701596F000124EC04F00601EA85AB
:1052A000A40EF66E060EF76E00011BEC12F0050E52
:1052B000EA6E7F0EE96EF6EC23F0220E07015A6FBC
:1052C0000001F8EC11F00A0E07015A6F0001F8EC2A
:1052D00011F0320E0701596F000124EC04F0050EA5
:1052E000EA6ECE0EE96EF6EC23F00A0E07015A6F55
:1052F0000001F8EC11F01A0E07015A6F0001F8ECEA
:1053000011F0060103D0D4A501D0DC9562D0000EC7
:10531000CEB5010E0701596F000E0601D2B5010E80
:1053200007015919010851E10601D095EAB54BD0A2
:1053300030B249D0DCB547D0AE0EF66E060EF76E31
:1053400000011BEC12F00A0E07015A6F0001F8EC85
:1053500011F00A0E0701596F000124EC04F0060158
:10536000EA85B80EF66E060EF76E00011BEC12F021
:10537000050EEA6E7F0EE96EF6EC23F0220E0701B1
:105380005A6F0001F8EC11F00A0E07015A6F000184
:10539000F8EC11F0320E0701596F000124EC04F013
:1053A000050EEA6ECE0EE96EF6EC23F00A0E07014A
:1053B0005A6F0001F8EC11F01A0E07015A6F000144
:1053C000F8EC11F0060105D007010601D085EA9935
:1053D0003092DAA786D0000ECEB7010E0701596FC2
:1053E000000E0601D2B7010E07015919010803E1A9
:1053F0000601D4B703D00601DEA76FD0DCB76CD0AE
:10540000DEB707D05E500F0804E1640E1C6E5FC06B
:105410001DF0DE871AB202D0D09701D0D0871AB81B
:105420000ED0D8B705D0898892988986929607D0F1
:10543000D6A703D08988929802D089869296EAB737
:105440004BD030B249D0DCB747D0C20EF66E060E54
:10545000F76E00011BEC12F00A0E07015A6F0001F3
:10546000F8EC11F00A0E0701596F000124EC04F06A
:105470000601EA87CC0EF66E060EF76E00011BECF5
:1054800012F0050EEA6E7F0EE96EF6EC23F0220EA6
:1054900007015A6F0001F8EC11F00A0E07015A6F6C
:1054A0000001F8EC11F0320E0701596F000124ECF5
:1054B00004F0050EEA6EEE0EE96EF6EC23F00A0E2D
:1054C00007015A6F0001F8EC11F01A0E07015A6F2C
:1054D0000001F8EC11F0060103D0D4A701D0DC974D
:1054E00062D0000ECEB7010E0701596F000E060103
:1054F000D2B7010E07015919010851E10601D097F1
:10550000EAB74BD030B249D0DCB747D0D60EF66EF2
:10551000060EF76E00011BEC12F00A0E07015A6F1F
:105520000001F8EC11F00A0E0701596F000124EC9C
:1055300004F00601EA87E00EF66E060EF76E000133
:105540001BEC12F0050EEA6E7F0EE96EF6EC23F00E
:10555000220E07015A6F0001F8EC11F00A0E070144
:105560005A6F0001F8EC11F0320E0701596F00017B
:1055700024EC04F0050EEA6EEE0EE96EF6EC23F074
:105580000A0E07015A6F0001F8EC11F01A0E07011C
:105590005A6F0001F8EC11F0060105D00701060171
:1055A000D087EA973092DAA986D0000ECEB9010EE4
:1055B0000701596F000E0601D2B9010E07015919F2
:1055C000010803E10601D4B903D00601DEA96FD0BA
:1055D000DCB96CD0DEB907D05E500F0804E1640E70
:1055E0001C6E5FC01DF0DE891AB202D0D09901D0C6
:1055F000D0891AB80ED0D8B905D0898892988986F2
:10560000929607D0D6A903D08988929802D089862D
:105610009296EAB94BD030B249D0DCB947D0EA0E05
:10562000F66E060EF76E00011BEC12F00A0E070173
:105630005A6F0001F8EC11F00A0E0701596F0001D2
:1056400024EC04F00601EA89F40EF66E060EF76EFD
:1056500000011BEC12F0050EEA6E7F0EE96EF6EC0F
:1056600023F0220E07015A6F0001F8EC11F00A0E28
:1056700007015A6F0001F8EC11F0320E0701596F63
:10568000000124EC04F0060EEA6E0E0EE96EF6EC54
:1056900023F00A0E07015A6F0001F8EC11F01A0E00
:1056A00007015A6F0001F8EC11F0060103D0D4A9EC
:1056B00001D0DC9962D0000ECEB9010E0701596FFE
:1056C000000E0601D2B9010E07015919010851E176
:1056D0000601D099EAB94BD030B249D0DCB947D0F5
:1056E000FE0EF66E060EF76E00011BEC12F00A0EAF
:1056F00007015A6F0001F8EC11F00A0E0701596F0B
:10570000000124EC04F00601EA89080EF66E070E8B
:10571000F76E00011BEC12F0050EEA6E7F0EE96ECB
:10572000F6EC23F0220E07015A6F0001F8EC11F09D
:105730000A0E07015A6F0001F8EC11F0320E070152
:10574000596F000124EC04F0060EEA6E0E0EE96EAD
:10575000F6EC23F00A0E07015A6F0001F8EC11F085
:105760001A0E07015A6F0001F8EC11F0060105D07E
:1057700007010601D089EA993092DAAB86D0000E93
:10578000CEBB010E0701596F000E0601D2BB010E00
:1057900007015919010803E10601D4BB03D0060132
:1057A000DEAB6FD0DCBB6CD0DEBB07D05E500F0829
:1057B00004E1640E1C6E5FC01DF0DE8B1AB202D0D5
:1057C000D09B01D0D08B1AB80ED0D8BB05D0898819
:1057D00092988986929607D0D6AB03D08988929802
:1057E00002D089869296EABB4BD030B249D0DCBB5E
:1057F00047D0120EF66E070EF76E00011BEC12F08A
:105800000A0E07015A6F0001F8EC11F00A0E0701A9
:10581000596F000124EC04F00601EA8B1C0EF66EB1
:10582000070EF76E00011BEC12F0050EEA6E7F0EFC
:10583000E96EF6EC23F0220E07015A6F0001F8EC36
:1058400011F00A0E07015A6F0001F8EC11F0320E48
:105850000701596F000124EC04F0060EEA6E2E0ECB
:10586000E96EF6EC23F00A0E07015A6F0001F8EC1E
:1058700011F01A0E07015A6F0001F8EC11F0060141
:1058800003D0D4AB01D0DC9B62D0000ECEBB010EA6
:105890000701596F000E0601D2BB010E070159190D
:1058A000010851E10601D09BEABB4BD030B249D090
:1058B000DCBB47D0260EF66E070EF76E00011BEC20
:1058C00012F00A0E07015A6F0001F8EC11F00A0EEF
:1058D0000701596F000124EC04F00601EA8B300E39
:1058E000F66E070EF76E00011BEC12F0050EEA6E65
:1058F0007F0EE96EF6EC23F0220E07015A6F0001CD
:10590000F8EC11F00A0E07015A6F0001F8EC11F0E3
:10591000320E0701596F000124EC04F0060EEA6E06
:105920002E0EE96EF6EC23F00A0E07015A6F000105
:10593000F8EC11F01A0E07015A6F0001F8EC11F0A3
:10594000060105D007010601D08BEA9B3092DAAD43
:1059500086D0000ECEBD010E0701596F000E060164
:10596000D2BD010E07015919010803E10601D4BD9A
:1059700003D00601DEAD6FD0DCBD6CD0DEBD07D03C
:105980005E500F0804E1640E1C6E5FC01DF0DE8DDA
:105990001AB202D0D09D01D0D08D1AB80ED0D8BD89
:1059A00005D0898892988986929607D0D6AD03D083
:1059B0008988929802D089869296EABD4BD030B2FF
:1059C00049D0DCBD47D03A0EF66E070EF76E0001E7
:1059D0001BEC12F00A0E07015A6F0001F8EC11F0EF
:1059E0000A0E0701596F000124EC04F00601EA8D4C
:1059F000440EF66E070EF76E00011BEC12F0050E5A
:105A0000EA6E7F0EE96EF6EC23F0220E07015A6F64
:105A10000001F8EC11F00A0E07015A6F0001F8ECD2
:105A200011F0320E0701596F000124EC04F0060E4C
:105A3000EA6E4E0EE96EF6EC23F00A0E07015A6F7D
:105A40000001F8EC11F01A0E07015A6F0001F8EC92
:105A500011F0060103D0D4AD01D0DC9D62D0000E60
:105A6000CEBD010E0701596F000E0601D2BD010E19
:105A700007015919010851E10601D09DEABD4BD03B
:105A800030B249D0DCBD47D04E0EF66E070EF76E31
:105A900000011BEC12F00A0E07015A6F0001F8EC2E
:105AA00011F00A0E0701596F000124EC04F0060101
:105AB000EA8D580EF66E070EF76E00011BEC12F021
:105AC000050EEA6E7F0EE96EF6EC23F0220E07015A
:105AD0005A6F0001F8EC11F00A0E07015A6F00012D
