:04000000D7EF24F022
:08000800046ED8CF05F0E0CF33
:1000100006F00001E9CF0CF0EACF07F0E1CF08F0DD
:10002000E2CF09F0D9CF0AF0DACF0BF0F3CF12F01C
:10003000F4CF13F0FACF14F000C00EF001C00FF0AF
:1000400002C010F003C011F09DA02AEF00F09EB096
:1000500095EF02F09DA230EF00F09EB298EF02F013
:100060009DAA36EF00F09EBA8CEF02F00EC000F0B1
:100070000FC001F010C002F011C003F00CC0E9FF86
:1000800007C0EAFF078E08C0E1FF09C0E2FF0AC00F
:10009000D9FF0BC0DAFF12C0F3FF13C0F4FF14C086
:1000A000FAFF045006C0E0FF05C0D8FF1000F2CFF1
:1000B0000DF0F29EF76AC80FF66E000EF7220900E7
:1000C000F5500DBEF28E120000C1814001C080418A
:1000D00001C0804100C1814001C0804100C1814018
:1000E00000C1814001C0804101C0804100C1814008
:1000F00000C1814001C0804100C1814001C08041F8
:1001000001C0804100C1814001C0804100C18140E7
:1001100000C1814001C0804100C1814001C08041D7
:1001200001C0804100C1814000C1814001C08041C7
:1001300001C0804100C1814001C0804100C18140B7
:1001400000C1814001C0804101C0804100C18140A7
:1001500000C1814001C0804100C1814001C0804197
:1001600001C0804100C1814000C1814001C0804187
:1001700001C0804100C1814001C0804100C1814077
:1001800000C1814001C0804100C1814001C0804167
:1001900001C0804100C1814001C0804100C1814057
:1001A00000C1814001C0804101C0804100C1814047
:1001B00000C1814001C0804100C1814001C0804137
:1001C00001C0804100C18140F2CF0DF0F29EF76A7C
:1001D000E20FF66E010EF7220900F5500DBEF28E09
:1001E000120000C0C101C30302C2C60607C705C58D
:1001F000C404CC0C0DCD0FCFCE0E0ACACB0BC9094F
:1002000008C8D81819D91BDBDA1A1EDEDF1FDD1D5E
:100210001CDC14D4D515D71716D6D21213D311D18E
:10022000D010F03031F133F3F23236F6F737F535DE
:1002300034F43CFCFD3DFF3F3EFEFA3A3BFB39F90E
:10024000F83828E8E929EB2B2AEAEE2E2FEF2DEDDE
:10025000EC2CE42425E527E7E62622E2E323E1214E
:1002600020E0A06061A163A3A26266A6A767A5655E
:1002700064A46CACAD6DAF6F6EAEAA6A6BAB69A9CE
:10028000A86878B8B979BB7B7ABABE7E7FBF7DBDDE
:10029000BC7CB47475B577B7B67672B2B373B1710E
:1002A00070B05090915193535292965657975595DE
:1002B00094549C5C5D9D5F9F9E5E5A9A9B5B99598E
:1002C0005898884849894B8B8A4A4E8E8F4F8D4D5E
:1002D0004C8C4484854587474686824243834181CE
:1002E000804004006050685C13E16A6A036A6A50E7
:1002F000A70FE96E000E0320EA6E2BC0EFFF04008B
:100300006A2A100E686E140E0101076F02D10001F7
:10031000685010084AE1036A6A50A70FE96E000EA0
:100320000320EA6E2BC0EFFF04006A2A010E6A5C0C
:10033000036AA70FE96E000E0320EA6EEF5016085D
:1003400007E361C068F0140E0101076F2CD00001B3
:10035000010E6A5C036AA70FE96E000E0320EA6EC5
:10036000EF50200807E164C068F0140E0101076F28
:100370001AD00001010E6A5C036AA70FE96E000E35
:100380000320EA6EEF50210807E166C068F0140E02
:100390000101076F08D000016A6A60C068F00101BE
:1003A000076B8A969396B5D000016650685C1CE195
:1003B000036A6A50A70FE96E000E0320EA6E2BC095
:1003C000EFFF04006A2A010E6A5C036AA70FE96E58
:1003D000000E0320EA6EEFCF08F10101140E076F43
:1003E00067C068F096D000016750685C15E1036A49
:1003F0006A50A70FE96E000E0320EA6E2BC0EFFFD4
:1004000004006A2A01010807085302E164C068F089
:10041000140E076F7ED000016150685C12E1036A20
:100420006A50A70FE96E000E0320EA6E2BC0EFFFA3
:1004300004006A2A62C068F0140E0101076F69D0D7
:1004400000016250685C12E1036A6A50A70FE96E0E
:10045000000E0320EA6E2BC0EFFF04006A2A63C07F
:1004600068F0140E0101076F54D000016350685CFE
:1004700012E1036A6A50A70FE96E000E0320EA6ECC
:100480002BC0EFFF04006A2A150E686E140E0101DE
:10049000076F3FD000016850150812E1036A6A50E7
:1004A000A70FE96E000E0320EA6E2BC0EFFF0400D9
:1004B0006A2A64C068F0140E0101076F2AD0000197
:1004C0006450685C12E1036A6A50A70FE96E000E7F
:1004D0000320EA6E2BC0EFFF04006A2A65C068F0B3
:1004E000140E0101076F15D000016550685C11E121
:1004F000036A6A50A70FE96E000E0320EA6E2BC054
:10050000EFFF040060C068F00101076B2D888A9638
:100510009396000192EF02F004009EAAFDD7AECFA1
:100520002BF0DFD69E9A36EF00F09E9036EF00F06B
:10053000162A0101075307E00707075304E160C0CB
:1005400068F08A96939619520CE01906195209E13F
:100550001A5204E01A061A5201E117842D86640E1D
:10056000196E1650320814E1166A17B004D01780BD
:100570008A8A939A03D017908A9A939A17AC07D0D5
:100580002C52D8A42C062C52D8B4178A01D02C6A2D
:10059000185214E0180618520BE1FF0E096F2DB225
:1005A00005D017A202D0179201D017825DC018F0B3
:1005B0002E5204E02E062E5201E12D929E92000151
:1005C00036EF00F0010EEA6EB30EE96EEF5011E067
:1005D000060E016EBF0E006E0400002EFDD7012E28
:1005E000F9D77A0E006E002EFED700D00400EF2E51
:1005F000EFD7000C929A899A0101B5514009B86F62
:10060000C950B8C1C9FFC730FEE3C950B6C1C9FF60
:10061000C730FEE3C950B7C1C9FFC730FEE3929AA5
:10062000898A0001000C929A898A929A0101B56B1D
:100630000A0EB66FAA0EB76F0001DCDF020E0101D1
:10064000B56F0A0EB66FAA0EB76F0001D3DF040EA6
:100650000101B56F0A0EB66FAA0EB76F0001CADFAF
:10066000060E0101B56F0A0EB66FAA0EB76F000134
:10067000C1DF080E0101B56F0A0EB66FAA0EB76F83
:100680000001B8DF0A0E0101B56FB66FAA0EB76F91
:100690000001B0DF0C0E0101B56F0A0EB66FAA0E95
:1006A000B76F0001A7DF0E0E0101B56F0A0EB66F1E
:1006B000AA0EB76F00019EDF36EF25F0ABC1B5F192
:1006C0000101B66BACC1B7F1000194DF000CABC106
:1006D000B5F1100E0101B66FACC1B7F100018ADFB0
:1006E000000CF2CFABF1F29E010EA96EA69CA69E65
:1006F000A680A8500101ABBFF28E376E37C038F02C
:100700000E9137B00E81D89037300E93E8B00E833B
:100710003730006E00323F0E00160E9500B00E8589
:100720003730006E003200321F0E00160E9700B0F8
:100730000E873738006E0F0E00160E9900B00E8926
:100740003738006E0032070E00160E9B00B00E8B7D
:100750003738006E00320032030E00160E9D00B0D6
:100760000E8D006A37BE00800E9F00B00E8FF2CF54
:10077000ABF1F29E020EA96EA69CA69EA680A85082
:10078000ABBFF28E376E37C039F00F9137B00F81A3
:10079000D89037300F93E8B00F83A6930EB1A6839D
:1007A000A6950EB3A685A6970EB5A687A6990EB7F1
:1007B000A689A69B0EB9A68BA69D0EBBA68DA69F4D
:1007C0000EBDA68FA7910EBFA781A7930FB1A783D8
:1007D000A7950FB3A785F2CFABF1F29E040EA96ED9
:1007E000A69CA69EA680A850ABBFF28E376E37C0DF
:1007F0003BF0109137B01081D89037301093E8B0AB
:1008000010833730006E00323F0E0016109500B096
:1008100010853730006E003200321F0E0016109720
:1008200000B010873738006E0F0E0016109900B018
:1008300010893738006E0032070E0016109B00B08A
:10084000108B3738006E00320032030E0016109DF8
:1008500000B0108D006A37BE0080109F00B0108F6E
:10086000F2CFABF1F29E050EA96EA69CA69EA680C5
:10087000A850ABBFF28E376E37C03CF0119137B045
:100880001181D89037301193E8B01183F2CFABF1DA
:10089000F29E070EA96EA69CA69EA680A850ABBF8E
:1008A000F28E376E37C03EF0129137B01281D89079
:1008B00037301293E8B012833730006E00323F0EAB
:1008C0000016129500B012853730006E00320032EB
:1008D0001F0E0016129700B012873738006E0F0EE9
:1008E0000016129900B012893738006E0032070ED8
:1008F0000016129B00B0128B3738006E00320032A7
:10090000030E0016129D00B0128D006A37BE0080E3
:10091000129F00B0128FF2CFABF1F29E080EA96EBB
:10092000A69CA69EA680A850ABBFF28E376E37C09D
:100930003FF0139137B01381D89037301393E8B05C
:100940001383F2CFABF1F29E0A0EA96EA69CA69E6F
:10095000A680A850ABBFF28E376E37C041F014911D
:1009600037B01481D89037301493E8B014833730FF
:10097000006E00323F0E0016149500B0148537301B
:10098000006E003200321F0E0016149700B014875C
:100990003738006E0F0E0016149900B014893738DE
:1009A000006E0032070E0016149B00B0148B37380F
:1009B000006E00320032030E0016149D00B0148D3C
:1009C000006A37BE0080149F00B0148FF2CFABF1E5
:1009D000F29E0B0EA96EA69CA69EA680A850ABBF49
:1009E000F28E376E37C042F0159137B01581D8902E
:1009F00037301593E8B01583F2CFABF1F29E0D0EB0
:100A0000A96EA69CA69EA680A850ABBFF28E376E9C
:100A100037C044F0169137B01681D890373016930E
:100A2000E8B016833730006E00323F0E0016169580
:100A300000B016853730006E003200321F0E0016EF
:100A4000169700B016873738006E0F0E00161699ED
:100A500000B016893738006E0032070E0016169B5C
:100A600000B0168B3738006E00320032030E0016CD
:100A7000169D00B0168D006A37BE0080169F00B02C
:100A8000168FF2CFABF1F29E0E0EA96EA69CA69E1B
:100A9000A680A850ABBFF28E376E37C045F01791D5
:100AA00037B01781D89037301793E8B01783F2CF5B
:100AB000ABF1F29E100EA96EA69CA69EA680A85031
:100AC000ABBFF28E376E229137B02281D89037308B
:100AD0002293E8B022833730006E00323F0E0016BA
:100AE000229500B022853730006E003200321F0E92
:100AF0000016229700B022873738006E0F0E0016BE
:100B0000229900B022893738006E0032070E001695
:100B1000229B00B0228B3738006E00320032030E69
:100B20000016229D00B0228D006A37BE0080229FF1
:100B300000B0228FF2CFABF1F29E110EA96EA69CEF
:100B4000A69EA680A850ABBFF28E376E239137B019
:100B50002381D89037302393E8B02383F2CFABF1D1
:100B6000F29E140EA96EA69CA69EA680A850ABBFAE
:100B7000F28E376E249137B02481D8903730249389
:100B8000E8B024833730006E00323F0E0016249503
:100B900000B024853730006E003200321F0E001680
:100BA000249700B024873738006E0F0E0016249962
:100BB00000B024893738006E0032070E0016249BDF
:100BC00000B0248B3738006E00320032030E00165E
:100BD000249D00B0248D006A37BE0080249F00B0A1
:100BE000248FF2CFABF1F29E150EA96EA69CA69EA5
:100BF000A680A850ABBFF28E376E259137B0258105
:100C0000D89037302593E8B02583F2CFABF1F29E30
:100C1000180EA96EA69CA69EA680A850ABBFF28E09
:100C20005B6EF2CFABF1F29E190EA96EA69CA69E4A
:100C3000A680A850ABBFF28E5C6EF2CFABF1F29EF5
:100C40001A0EA96EA69CA69EA680A850ABBFF28ED7
:100C50005D6EF2CFABF1F29E1B0EA96EA69CA69E16
:100C6000A680A850ABBFF28E5E6EF2CFABF1F29EC3
:100C70001C0EA96EA69CA69EA680A850ABBFF28EA5
:100C80006B6B6A6FF2CFABF1F29E1D0EA96EA69C44
:100C9000A69EA680A850ABBFF28E696EF2CFABF1D4
:100CA000F29E1E0EA96EA69CA69EA680A850ABBF63
:100CB000F28E6D6B6C6FF2CFABF1F29E1F0EA96ED0
:100CC000A69CA69EA680A850ABBFF28E6F6B6E6FDF
:100CD000F2CFABF1F29E200EA96EA69CA69EA68036
:100CE000A850ABBFF28E716B706FF2CFABF1F29E7A
:100CF000210EA96EA69CA69EA680A850ABBFF28E20
:100D0000736B726FF2CFABF1F29E220EA96EA69CAE
:100D1000A69EA680A850ABBFF28E756B746FF2CF03
:100D2000ABF1F29E230EA96EA69CA69EA680A850AB
:100D3000ABBFF28E776B766FF2CFABF1F29E240EE3
:100D4000A96EA69CA69EA680A850ABBFF28E796B1A
:100D5000786FF2CFABF1F29E250EA96EA69CA69EEF
:100D6000A680A850ABBFF28E7B6B7A6FF2CFABF14F
:100D7000F29E260EA96EA69CA69EA680A850ABBF8A
:100D8000F28E7D6B7C6FF2CFABF1F29E270EA96ED7
:100D9000A69CA69EA680A850ABBFF28E7F6B7E6FEE
:100DA000F2CFABF1F29E280EA96EA69CA69EA6805D
:100DB000A850ABBFF28E816B806FF2CFABF1F29E89
:100DC000290EA96EA69CA69EA680A850ABBFF28E47
:100DD000836B826FF2CFABF1F29E2A0EA96EA69CB6
:100DE000A69EA680A850ABBFF28E856B846FF2CF13
:100DF000ABF1F29E2B0EA96EA69CA69EA680A850D3
:100E0000ABBFF28E876B866FF2CFABF1F29E2C0EEA
:100E1000A96EA69CA69EA680A850ABBFF28E896B39
:100E2000886FF2CFABF1F29E2D0EA96EA69CA69E06
:100E3000A680A850ABBFF28E8B6B8A6FF2CFABF15E
:100E4000F29E2E0EA96EA69CA69EA680A850ABBFB1
:100E5000F28E8D6B8C6FF2CFABF1F29E2F0EA96EDE
:100E6000A69CA69EA680A850ABBFF28E8F6B8E6FFD
:100E7000F2CFABF1F29E300EA96EA69CA69EA68084
:100E8000A850ABBFF28E916B906FF2CFABF1F29E98
:100E9000310EA96EA69CA69EA680A850ABBFF28E6E
:100EA000936B926F0001000C929A899A0101AE51E6
:100EB0004109B16FC950B1C1C9FFC730FEE3C95084
:100EC000AFC1C9FFC730FEE3C950C96AC730FEE3EE
:100ED000C9CFB0F1929A898AB0C101F00001000C2B
:100EE000ACC1AEF1090E0101AF6F0001DDDF01C041
:100EF000ADF10101ADC101F00001000CACC1AEF1DA
:100F0000190E0101AF6F0001CFDF01C0ADF101018A
:100F1000ADC101F00001000C0101AD51070B006EE5
:100F2000AD31016E013201321F0E01160150AE25A6
:100F3000E96E000EAF21EA6EEFCF01F0002A01D07A
:100F40000132002EFDD70001000C0101B051B203A7
:100F5000F3CF01F0F4CF00F0B303F3500026B1510A
:100F6000B203F3500020026E0001000C0101AD51EC
:100F7000070B006EAD31016E013201321F0E0116FA
:100F80000150AF25E96E000EB021EA6E016A012A18
:100F9000002A01D00136002EFDD7AE5303E00150E8
:100FA000EF1203D0011E0150EF160001000C0101E9
:100FB000AC6BAC6BACBF03D0AC510A0817E3AE6BA3
:100FC000AE6BACC1ADF1010EAF6F2A0EAE6F00017A
:100FD000A3DF0101AE6B01B0AE2B010EB06F260E88
:100FE000AF6F0001C3DF0101AC2BE4D7000136EF86
:100FF0000BF00101AC6B000173DF01C005F117A814
:1010000002D00101051F01012B9705B12B87D89054
:1010100005312B99E8B02B890531006E00323F0E67
:1010200000162B9B00B02B8B0531006E0032003276
:101030001F0E00162B9D00B02B8D0539006E0F0E74
:1010400000162B9F00B02B8F0539006E0032070E63
:1010500000162C9100B02C810539006E0032003250
:10106000030E00162C9300B02C83006A05BF00808D
:101070002C9500B02C85AC6B000140DF01C005F160
:1010800017A802D00101051F01012C9705B12C877B
:10109000D89005312C99E8B02C89020EAC6F000174
:1010A0001FDF01C005F117A802D00101051F0101D2
:1010B0002A9305B12A83D89005312A95E8B02A856C
:1010C0000531006E00323F0E00162A9700B02A87C5
:1010D0000531006E003200321F0E00162A9900B052
:1010E0002A890539006E0F0E00162A9B00B02A8B44
:1010F0000539006E0032070E00162A9D00B02A8DB9
:101100000539006E00320032030E00162A9F00B02F
:101110002A8F006A05BF00802B9100B02B81020E40
:10112000AC6F0001EBDE01C005F117A802D0010190
:10113000051F01012B9305B12B83D89005312B9509
:10114000E8B02B85010EAB6FAB510A08D8A08CD24A
:10115000ABC1ADF1010EAF6FA60EAE6F0001DCDECC
:10116000000E01B0010E010B0108D8A435D1ABC1AE
:10117000ADF1010E0101AF6F2A0EAE6F0001CCDEA2
:10118000000E01B0010E010BD8A493D0ABC1ADF19C
:10119000010E0101AF6F260EAE6F0001BDDE000E25
:1011A00001B0010E010BD8A476D0D8900101AB3567
:1011B000036A2E0FE96E010E0320EA6E010EEE2681
:1011C00001E3EF2AD890AB35036A2E0FE96E010ECA
:1011D0000320EA6EECCFADF1ED52EFCFACF1D89039
:1011E000AB35036A6A0FE96E010E0320EA6EECCF9D
:1011F000AFF1ED52EFCFAEF1AFC1B1F1AEC1B0F191
:10120000B36B4B0EB26F0001A0DE02C0AFF101C0A4
:10121000AEF10F0E01010124016E000E0220036EDB
:101220000350AD5D36E303E10150AC5D32E3D8908D
:10123000AB35036A2E0FE96E010E0320EA6EEC6AED
:10124000ED52EF6A010EAB5DF60F23E20A0F0001CB
:1012500083EF0BF001010A911CD001010A9319D010
:1012600001010A9516D001010A9713D001010A99CC
:1012700010D001010A9B0DD001010A9D0AD0010185
:101280000A9F07D001010B9104D001010B9301D0FB
:1012900001010DD00001D8900101AB35036A2E0F7A
:1012A000E96E010E0320EA6EEC6AED52EF6A93D00C
:1012B0000001ABC1ADF1010E0101AF6F260EAE6FA3
:1012C00000012ADE000E01B0010E010B0108D8A4B6
:1012D00076D0D8900101AB35036A2E0FE96E010E6E
:1012E0000320EA6E010EEE2601E3EF2AD890AB351B
:1012F000036A2E0FE96E010E0320EA6EECCFADF10A
:10130000ED52EFCFACF1D890AB35036A6A0FE96EBE
:10131000010E0320EA6EECCFAFF1ED52EFCFAEF14C
:10132000AFC1B1F1AEC1B0F1B36B4B0EB26F000102
:101330000CDE02C0AFF101C0AEF10F0E01010124BD
:10134000016E000E0220036E0350AD5D36E303E133
:101350000150AC5D32E3D890AB35036A2E0FE96ED5
:10136000010E0320EA6EEC6AED52010EEF6EAB5DEA
:10137000F60F23E20A0F00019FEF0BF001010A8133
:101380001CD001010A8319D001010A8516D0010180
:101390000A8713D001010A8910D001010A8B0DD0F0
:1013A00001010A8D0AD001010A8F07D001010B81CA
:1013B00004D001010B8301D001010DD00001D890B0
:1013C0000101AB35036A2E0FE96E010E0320EA6EB0
:1013D000EC6AED52EF6A44D1ABC1ADF1010E0101EF
:1013E000AF6FA60EAE6F000197DD000E01B0010ECB
:1013F000010BD8A436D1ABC1ADF1010E0101AF6F25
:101400002A0EAE6F000188DD000E01B0010E010B47
:101410000108D8A494D0ABC1ADF1010E0101AF6FAA
:10142000260EAE6F000178DD000E01B0010E010B3B
:101430000108D8A476D0D8900101AB35036A2E0FED
:10144000E96E010E0320EA6E010EEE2601E3EF2A9B
:10145000D890AB35036A2E0FE96E010E0320EA6EB9
:10146000ECCFADF1ED52EFCFACF1D890AB35036AD4
:101470006A0FE96E010E0320EA6EECCFAFF1ED5278
:10148000EFCFAEF1AFC1B1F1AEC1B0F1B36B4B0E66
:10149000B26F00015ADD02C0AFF101C0AEF10F0E14
:1014A00001010124016E000E0220036E0350AD5DA8
:1014B00036E303E10150AC5D32E3D890AB35036A0B
:1014C0002E0FE96E010E0320EA6EEC6AED52EF6A10
:1014D000010EAB5DF60F23E20A0F0001BBEF0BF02C
:1014E00001010A811CD001010A8319D001010A857A
:1014F00016D001010A8713D001010A8910D0010119
:101500000A8B0DD001010A8D0AD001010A8F07D084
:1015100001010B8104D001010B8301D001010DD029
:101520000001D8900101AB35036A2E0FE96E010E60
:101530000320EA6EEC6AED52EF6A92D00001ABC173
:10154000ADF1010E0101AF6F260EAE6F0001E4DCBC
:10155000000E01B0010E010BD8A476D0D890010185
:10156000AB35036A2E0FE96E010E0320EA6E010E01
:10157000EE2601E3EF2AD890AB35036A2E0FE96E11
:10158000010E0320EA6EECCFADF1ED52EFCFACF1DE
:10159000D890AB35036A6A0FE96E010E0320EA6E3C
:1015A000ECCFAFF1ED52EFCFAEF1AFC1B1F1AEC1C3
:1015B000B0F1B36B4B0EB26F0001C7DC02C0AFF1EC
:1015C00001C0AEF10F0E01010124016E000E0220D8
:1015D000036E0350AD5D36E303E10150AC5D32E3D1
:1015E000D890AB35036A2E0FE96E010E0320EA6E28
:1015F000EC6AED52EF6A010EAB5DF60F23E20A0FC3
:101600000001D7EF0BF001010A911CD001010A93F0
:1016100019D001010A9516D001010A9713D00101D2
:101620000A9910D001010A9B0DD001010A9D0AD030
:1016300001010A9F07D001010B9104D001010B9316
:1016400001D001010DD00001D8900101AB35036A32
:101650002E0FE96E010E0320EA6EEC6AED52EF6A7E
:1016600000010101AB2B70D50001A1D4476A000E27
:1016700001010AAF010E4712D8904734AC6F000E3B
:101680000AAD010EAC11476ED8904734AC6F000E16
:101690000AAB010EAC11476ED8904734AC6F000E08
:1016A0000AA9010EAC11476ED8904734AC6F000EFA
:1016B0000AA7010EAC11476ED8904734AC6F000EEC
:1016C0000AA5010EAC11476ED8904734AC6F000EDE
:1016D0000AA3010EAC11476ED8904734AC6F000ED0
:1016E0000AA1010EAC11476E486A000E0BA3010E51
:1016F0004812D8904834AC6F000E0BA1010EAC110B
:10170000486E0001000CF2CF0DF0F29EE824F76A5B
:10171000F7362B0FF66E170EF7220A00F550FA6E09
:101720000800F5500DBEF28EF96E54125A12601276
:1017300066126C12721278127E1284128A12F2CF22
:101740000DF0F29EE824F76AF736630FF66E170E77
:10175000F7220A00F550FA6E0800F5500DBEF28E21
:10176000F96E7C13821388138E1394139A13A013AB
:10177000A613AC13B213F2CF0DF0F29EE824F76A71
:10178000F7369B0FF66E170EF7220A00F550FA6E29
:101790000800F5500DBEF28EF96EE014E614EC145C
:1017A000F214F814FE1404150A1510151615F2CFCC
:1017B0000DF0F29EE824F76AF736D30FF66E170E97
:1017C000F7220A00F550FA6E0800F5500DBEF28EB1
:1017D000F96E06160C16121618161E1624162A1660
:1017E000301636163C16B3C1B5F10A0E0101B66FBC
:1017F000B4C1B7F10001FAEC02F0000CB3C1B5F1CD
:101800001A0E0101B66FB4C1B7F10001FAEC02F093
:10181000000C2C52D8A416D101010CA103D04F907A
:101820004B9014D022A105D024B103D04B804F900F
:101830000DD022B105D024A103D04B904F8006D00B
:1018400022A104D024A102D04B804F800CA303D04E
:101850004F924B9214D022A305D024B303D04B82D5
:101860004F920DD022B305D024A303D04B924F82C8
:1018700006D022A304D024A302D04B824F820CA511
:1018800003D04F944B9414D022A505D024B503D097
:101890004B844F940DD022B505D024A503D04B9492
:1018A0004F8406D022A504D024A502D04B844F84B7
:1018B0000CA703D04F964B9614D022A705D024B77F
:1018C00003D04B864F960DD022B705D024A703D066
:1018D0004B964F8606D022A704D024A702D04B8671
:1018E0004F860CA903D04F984B9814D022A905D04D
:1018F00024B903D04B884F980DD022B905D024A924
:1019000003D04B984F8806D022A904D024A902D036
:101910004B884F880CAB03D04F9A4B9A14D022AB14
:1019200005D024BB03D04B8A4F9A0DD022BB05D0E3
:1019300024AB03D04B9A4F8A06D022AB04D024AB01
:1019400002D04B8A4F8A0CAD03D04F9C4B9C14D0D5
:1019500022AD05D024BD03D04B8C4F9C0DD022BDB1
:1019600005D024AD03D04B9C4F8C06D022AD04D0C3
:1019700024AD02D04B8C4F8C0CAF03D04F9E4B9EAE
:1019800014D022AF05D024BF03D04B8E4F9E0DD074
:1019900022BF05D024AF03D04B9E4F8E06D022AF7E
:1019A00004D024AF02D04B8E4F8E0DA103D05090A7
:1019B0004C9014D023A105D025B103D04C80509079
:1019C0000DD023B105D025A103D04C90508006D076
:1019D00023A104D025A102D04C8050800DA303D0B8
:1019E00050924C9214D023A305D025B303D04C823F
:1019F00050920DD023B305D025A303D04C92508232
:101A000006D023A304D025A302D04C825082040E1A
:101A1000B36F4BC0B4F10001E6DE040E0101B36FF9
:101A20004CC0B4F10001EADE060E0101B36F4FC0F5
:101A3000B4F10001D8DE060E0101B36F50C0B4F15D
:101A40000001DCDE000CFF0EE46FE36F0101B06B00
:101A5000AE51B05D2DE20400036AB051AC25E96ED1
:101A6000AD510320EA6EEF500001E4190101AF6FA0
:101A7000036AAF51F2CFB1F1F29E000157EC00F0D2
:101A80000101B1BFF28E016E0001E3510118E46F54
:101A9000036A0101AF51F2CFB1F1F29E0001E4EC13
:101AA00000F00101B1BFF28EE8CFE3F0B02BD0D748
:101AB0000001000C04009EA8FDD7AD6E000C1B6A4F
:101AC0001C6A236A246A01011AB104D00CB102D045
:101AD000208101D020911AB304D00CB302D020830E
:101AE00001D020931AB504D00CB502D0208501D0C6
:101AF00020951AB704D00CB702D0208701D02097C8
:101B00001AB904D00CB902D0208901D020991ABB8F
:101B100004D00CBB02D0208B01D0209B1ABD04D076
:101B20000CBD02D0208D01D0209D1ABF04D00CBF67
:101B300002D0208F01D0209F1BB104D00DB102D064
:101B4000218101D021911BB304D00DB302D0218398
:101B500001D02193000E20BF010E2312D890233410
:101B6000AB6F000E20BD010EAB11236ED890233455
:101B7000AB6F000E20BB010EAB11236ED890233447
:101B8000AB6F000E20B9010EAB11236ED890233439
:101B9000AB6F000E20B7010EAB11236ED89023342B
:101BA000AB6F000E20B5010EAB11236ED89023341D
:101BB000AB6F000E20B3010EAB11236ED89023340F
:101BC000AB6F000E20B1010EAB11236E000E21B3DE
:101BD000010E2412D8902434AB6F000E21B1010EF7
:101BE000AB11246E000E1ABF010E1B12D8901B34CD
:101BF000AB6F000E1ABD010EAB111B6ED8901B34DB
:101C0000AB6F000E1ABB010EAB111B6ED8901B34CC
:101C1000AB6F000E1AB9010EAB111B6ED8901B34BE
:101C2000AB6F000E1AB7010EAB111B6ED8901B34B0
:101C3000AB6F000E1AB5010EAB111B6ED8901B34A2
:101C4000AB6F000E1AB3010EAB111B6ED8901B3494
:101C5000AB6F000E1AB1010EAB111B6E000E1BB361
:101C6000010E1C12D8901C34AB6F000E1BB1010E7C
:101C7000AB111C6E0001D3EF12F0948082B002D041
:101C800017AE02D017A406D0320E0101B36F0001C7
:101C9000E2EC02F0948082B002D017AE02D017A41A
:101CA0005AD017941A6A01011AB102D01CA104D0AB
:101CB00018811A911C910C911AB302D01CA304D064
:101CC00018831A931C930C931AB502D01CA504D048
:101CD00018851A951C950C951AB702D01CA704D02C
:101CE00018871A971C970C971AB902D01CA904D010
:101CF00018891A991C990C991ABB02D01CAB04D0F4
:101D0000188B1A9B1C9B0C9B1ABD02D01CAD04D0D7
:101D1000188D1A9D1C9D0C9D1ABF02D01CAF04D0BB
:101D2000188F1A9F1C9F0C9F1BB102D01DA104D0BD
:101D300019811B911D910D911BB302D01DA304D0DD
:101D400019831B931D930D93178E899892988996EA
:101D5000929608D00001948082A003D017AE01D0E3
:101D6000179E01010001000C948282B202D02DA0C6
:101D700002D017A606D0320E0101B36F0001E2ECCB
:101D800002F0948282B202D02DA002D017A673D0A6
:101D90001796000E01010AB1010EAB6F000E0EB1D5
:101DA000010EAB1902E11AA10C81000E0AB3010E5B
:101DB000AB6F000E0EB3010EAB1902E11AA30C8338
:101DC000000E0AB5010EAB6F000E0EB5010EAB1979
:101DD00002E11AA50C85000E0AB7010EAB6F000ECA
:101DE0000EB7010EAB1902E11AA70C87000E0AB953
:101DF000010EAB6F000E0EB9010EAB1902E11AA96C
:101E00000C89000E0ABB010EAB6F000E0EBB010E5B
:101E1000AB1902E11AAB0C8B000E0ABD010EAB6FC1
:101E2000000E0EBD010EAB1902E11AAD0C8D000EB5
:101E30000ABF010EAB6F000E0EBF010EAB1902E11F
:101E40001AAF0C8F000E0BB1010EAB6F000E0FB16D
:101E5000010EAB1902E11BA10D81000E0BB3010EA7
:101E6000AB6F000E0FB3010EAB1902E11BA30D8384
:101E70002D8008D00001948282A203D02DA001D031
:101E80002D9001010001000C0400010E6A5C0101AB
:101E9000AB6FAD6BA70EAC6FABC1AEF10001D3DD84
:101EA000010E6A5C036AA70FE96E000E0320EA6E5A
:101EB000EF50E45DD8A450EF1AF0036A6A50A70F00
:101EC000E96E000E0320EA6EEF50E35DD8A450EFF8
:101ED0001AF0A751AA08D8A44ED1A8512008D8A416
:101EE0004AD169C06BF0200E6C6E1C0E6D6E38C04E
:101EF0006EF039C06FF03AC070F03BC071F03CC07A
:101F000072F03DC073F03EC074F03FC075F040C049
:101F100076F041C077F042C078F043C079F044C019
:101F20007AF045C07BF046C07CF0F2CFABF1F29E78
:101F3000100EA96EA69CA69EA680A8500101ABBF5C
:101F4000F28E7D6EF2CFABF1F29E110EA96EA69CC1
:101F5000A69EA680A850ABBFF28E7E6EF2CFABF1EC
:101F6000F29E120EA96EA69CA69EA680A850ABBF9C
:101F7000F28E7F6EF2CFABF1F29E130EA96EA69C8D
:101F8000A69EA680A850ABBFF28E0001806FF2CF54
:101F9000ABF1F29E140EA96EA69CA69EA680A85038
:101FA0000101ABBFF28E0001816FF2CFABF1F29E67
:101FB000150EA96EA69CA69EA680A8500101ABBFD7
:101FC000F28E0001826FF2CFABF1F29E160EA96E77
:101FD000A69CA69EA680A8500101ABBFF28E000170
:101FE000836FF2CFABF1F29E170EA96EA69CA69E50
:101FF000A680A8500101ABBFF28E0001846F5BC0C8
:1020000085F05CC086F05DC087F05EC088F06A0E27
:10201000896F69C08AF06CC18BF06EC18CF070C1A1
:102020008DF072C18EF074C18FF076C190F078C1DE
:1020300091F07AC192F07CC193F07EC194F080C19E
:1020400095F082C196F084C197F086C198F088C15E
:1020500099F08AC19AF08CC19BF08EC19CF090C11E
:102060009DF092C19EF00101AD6B6B0EAC6F340E12
:10207000AE6F0001E8DCE4C09FF0E3C0A0F08A8608
:1020800093960A0E0101B36F0001E2EC02F06B506F
:1020900011DD6C500FDD6D500DDD6E500BDD6F509E
:1020A00009DD705007DD715005DD725003DD73509E
:1020B00001DD7450FFDC7550FDDC7650FBDC7750A1
:1020C000F9DC7850F7DC7950F5DC7A50F3DC7B50A2
:1020D000F1DC7C50EFDC7D50EDDC7E50EBDC7F50A2
:1020E000E9DC8051E7DC8151E5DC8251E3DC83519E
:1020F000E1DC8451DFDC8551DDDC8651DBDC87519E
:10210000D9DC8851D7DC8951D5DC8A51D3DC8B519D
:10211000D1DC8C51CFDC8D51CDDC8E51CBDC8F519D
:10212000C9DC9051C7DC9151C5DC9251C3DC93519D
:10213000C1DC9451BFDC9551BDDC9651BBDC97519D
:10214000B9DC9851B7DC9951B5DC9A51B3DC9B519D
:10215000B1DC9C51AFDC9D51ADDC9E51ABDC9F519D
:10216000A9DCA051A7DC030E0101B36F0001E2EC72
:1021700002F08A9693966950A75DD8A44CEF1AF0A6
:10218000A82D0BD2E86BA9C0E7F0E7C0ACF10101C4
:10219000AB6BAB510001AA11E76FACC1E8F00001D5
:1021A000EA6BABC0E9F0E9C0ACF10101AB6BAB513C
:1021B0000001AC11E96FACC1EAF00001E853D8A40A
:1021C000B6D1E7510F08D8A0B2D1E951E7250101F6
:1021D000AB6F0001EA51E8210101AC6FAC53D8B4F8
:1021E00002D00001A4D1AB511008D8B002D0000138
:1021F0009ED10001EA5306E1E951080803E3010E0C
:10220000EB6F12D0EA5306E1E951100803E3020E26
:10221000EB6F0AD0EA5306E1E951180803E3030E15
:10222000EB6F02D0010EEB6FEB2DA0D0E8530DE168
:10223000E75108080AE347C0ECF0E751016E04E0FB
:10224000D890EC33012EFCD71AD0E85303E1E751C4
:10225000080815E2E85313E1E7510F0810E3080EF0
:10226000E75D006E000EE859036E00C001F02FC05C
:10227000ECF0015204E0D890EC33012EFCD7E95188
:10228000080803E1EA5301E135D0E951070804E108
:10229000EA5302E1EC9F2ED0E951060805E1EA532A
:1022A00003E13F0EEC1726D0E951050805E1EA539A
:1022B00003E11F0EEC171ED0E951040805E1EA53B3
:1022C00003E10F0EEC1716D0E951030805E1EA53BC
:1022D00003E1070EEC170ED0E951020805E1EA53BD
:1022E00003E1030EEC1706D0E92D04D0EA5302E116
:1022F000010EEC1769C06BF0010E6C6EEBC06DF057
:10230000ECC06EF00101AD6B6B0EAC6F040EAE6FE6
:10231000000123EC0DF0E4C06FF0E3C070F08A869A
:1023200093960400040E0101B36F0001E2EC02F089
:1023300004006B505AEC0DF06C505AEC0DF06D50DF
:102340005AEC0DF06E505AEC0DF06F505AEC0DF047
:1023500070505AEC0DF00400030E0101B36F000140
:10236000E2EC02F004008A969396E0D0EB5102086A
:10237000D8A4DCD047C0ECF0E751016E04E0D8905F
:10238000EC33012EFCD748C0EDF0070EE95D0101EA
:10239000AB6F000E0001EA590101AC6FAB510808A8
:1023A00003E1AC5301E183D0070E0001E95D0101B7
:1023B000AB6F000E0001EA590101AC6FAB51070889
:1023C00005E1AC5303E10001ED9F70D0070E000161
:1023D000E95D0101AB6F000E0001EA590101AC6F2C
:1023E000AB51060806E1AC5304E13F0E0001ED17C6
:1023F0005DD0070E0001E95D0101AB6F000E000129
:10240000EA590101AC6FAB51050806E1AC5304E198
:102410001F0E0001ED174AD0070E0001E95D010112
:10242000AB6F000E0001EA590101AC6FAB5104081B
:1024300006E1AC5304E10F0E0001ED1737D0070E93
:102440000001E95D0101AB6F000E0001EA590101D5
:10245000AC6FAB51030806E1AC5304E1070E000179
:10246000ED1724D0070E0001E95D0101AB6F000EEE
:102470000001EA590101AC6FAB51020806E1AC530F
:1024800004E1030E0001ED1711D0070E0001E95D14
:102490000101AB6F000E0001EA590101AC6FAB2DD9
:1024A00006D0AC5304E1010E0001ED17010169C033
:1024B0006BF0010E6C6EEBC06DF0ECC06EF0EDC019
:1024C0006FF0AD6B6B0EAC6F050EAE6F000123ECC1
:1024D0000DF0E4C070F0E3C071F08A8693960400BA
:1024E000040E0101B36F0001E2EC02F004006B5036
:1024F0005AEC0DF06C505AEC0DF06D505AEC0DF09A
:102500006E505AEC0DF06F505AEC0DF070505AECC2
:102510000DF071505AEC0DF00400030E0101B36F81
:102520000001E2EC02F004008A96939636D069C06E
:102530006BF0810E6C6E020E6D6E0101AD6B6B0E59
:10254000AC6F030EAE6F000123EC0DF0E4C06EF033
:10255000E3C06FF08A8693960400040E0101B36F06
:102560000001E2EC02F004006B505AEC0DF06C50EC
:102570005AEC0DF06D505AEC0DF06E505AEC0DF017
:102580006F505AEC0DF00400030E0101B36F00010F
:10259000E2EC02F004008A969396A8510708D8A4AA
:1025A000AED05FEF0DF09D921BC0ECF01CC0EDF0C3
:1025B0001DC0EEF01EC0EFF01FC0F0F020C0F1F023
:1025C00021C0F2F022C0F3F023C0F4F024C0F5F0F3
:1025D00025C0F6F026C0F7F027C0F8F028C0F9F0C3
:1025E00029C0FAF02AC0FBF069C06BF0070E6C6ED0
:1025F000100EEB6FEBC06DF0ECC06EF0EDC06FF045
:10260000EEC070F0EFC071F0F0C072F0F1C073F086
:10261000F2C074F0F3C075F0F4C076F0F5C077F056
:10262000F6C078F0F7C079F0F8C07AF0F9C07BF026
:10263000FAC07CF0FBC07DF00101AD6B6B0EAC6F9E
:10264000130EAE6F000123EC0DF0E4C07EF0E3C08A
:102650007FF08A8693960400040E0101B36F000197
:10266000E2EC02F004006B505AEC0DF06C505AECA6
:102670000DF06D505AEC0DF06E505AEC0DF06F509D
:102680005AEC0DF070505AEC0DF071505AEC0DF000
:1026900072505AEC0DF073505AEC0DF074505AEC25
:1026A0000DF075505AEC0DF076505AEC0DF0775055
:1026B0005AEC0DF078505AEC0DF079505AEC0DF0C0
:1026C0007A505AEC0DF07B505AEC0DF07C505AECDD
:1026D0000DF07D505AEC0DF07E505AEC0DF07F500D
:1026E0005AEC0DF00400030E0101B36F0001E2EC9F
:1026F00002F004008A9693969D8205EF1AF0A85185
:102700000508D8A467D2E86BA9C0E7F0E7C0ACF130
:102710000101AB6BAB510001AA11E76FACC1E8F04E
:102720000001EA6BABC0E9F0E9C0ACF10101AB6BB1
:10273000AB510001AC11E96FACC1EAF00001E75305
:102740004DE1E8534BE1E95348E1EA3D46D01784B7
:1027500069C06BF0050E6C6EA9C06DF0AAC06EF07A
:10276000ABC06FF0ACC070F00101AD6B6B0EAC6F25
:10277000060EAE6F000123EC0DF0E4C071F0E3C073
:1027800072F08A8693960400040E0101B36F000173
:10279000E2EC02F004006B505AEC0DF06C505AEC75
:1027A0000DF06D505AEC0DF06E505AEC0DF06F506C
:1027B0005AEC0DF070505AEC0DF071505AEC0DF0CF
:1027C00072505AEC0DF00400030E0101B36F0001CA
:1027D000E2EC02F004008A969396FAD1E72D4DD0F0
:1027E000E8534BE1E95348E1EA3D46D0178669C01A
:1027F0006BF0050E6C6EA9C06DF0AAC06EF0ABC098
:102800006FF0ACC070F00101AD6B6B0EAC6F060EDB
:10281000AE6F000123EC0DF0E4C071F0E3C072F084
:102820008A8693960400040E0101B36F0001E2EC66
:1028300002F004006B505AEC0DF06C505AEC0DF0A5
:102840006D505AEC0DF06E505AEC0DF06F505AEC82
:102850000DF070505AEC0DF071505AEC0DF07250B2
:102860005AEC0DF00400030E0101B36F0001E2EC1D
:1028700002F004008A969396ABD1E7510208D8A4DF
:10288000A1D0E853D8A49ED0E95349E1EA3D47D00E
:10289000178869C06BF0050E6C6EA9C06DF0AAC0F8
:1028A0006EF0ABC06FF0ACC070F00101AD6B6B0EA1
:1028B000AC6F060EAE6F000123EC0DF0E4C071F0BA
:1028C000E3C072F08A8693960400040E0101B36F90
:1028D0000001E2EC02F004006B505AEC0DF06C5079
:1028E0005AEC0DF06D505AEC0DF06E505AEC0DF0A4
:1028F0006F505AEC0DF070505AEC0DF071505AECCC
:102900000DF072505AEC0DF00400030E0101B36F8C
:102910000001E2EC02F004008A96939652D0E9534B
:1029200050E1EA534EE11798F9EC07F017843DECBB
:102930000EF01786B4EC0EF069C06BF0050E6C6EED
:10294000A9C06DF0AAC06EF0ABC06FF0ACC070F063
:102950000101AD6B6B0EAC6F060EAE6F000123EC88
:102960000DF0E4C071F0E3C072F08A869396040023
:10297000040E0101B36F0001E2EC02F004006B50A1
:102980005AEC0DF06C505AEC0DF06D505AEC0DF005
:102990006E505AEC0DF06F505AEC0DF070505AEC2E
:1029A0000DF071505AEC0DF072505AEC0DF004001D
:1029B000030E0101B36F0001E2EC02F004008A96FD
:1029C000939606D1E7510308D8A4A1D0E853D8A420
:1029D0009ED0E95349E1EA3D47D0178A69C06BF0C0
:1029E000050E6C6EA9C06DF0AAC06EF0ABC06FF0A2
:1029F000ACC070F00101AD6B6B0EAC6F060EAE6F2C
:102A0000000123EC0DF0E4C071F0E3C072F08A869F
:102A100093960400040E0101B36F0001E2EC02F092
:102A200004006B505AEC0DF06C505AEC0DF06D50E8
:102A30005AEC0DF06E505AEC0DF06F505AEC0DF050
:102A400070505AEC0DF071505AEC0DF072505AEC77
:102A50000DF004000A0E0101B36F0001E2EC02F078
:102A600004008A96939652D0E95350E1EA534EE11E
:102A7000179AF9EC07F017843DEC0EF01786B4ECCA
:102A80000EF069C06BF0050E6C6EA9C06DF0AAC0A7
:102A90006EF0ABC06FF0ACC070F00101AD6B6B0EAF
:102AA000AC6F060EAE6F000123EC0DF0E4C071F0C8
:102AB000E3C072F08A8693960400040E0101B36F9E
:102AC0000001E2EC02F004006B505AEC0DF06C5087
:102AD0005AEC0DF06D505AEC0DF06E505AEC0DF0B2
:102AE0006F505AEC0DF070505AEC0DF071505AECDA
:102AF0000DF072505AEC0DF00400030E0101B36F9B
:102B00000001E2EC02F004008A96939661D0E7514E
:102B100064085EE1E8535CE1E9C069F01D0EA96E4E
:102B200069C0A8FFA69CA69EA684F250006EF29EE5
:102B30000F01550EA76EAA0EA76EA682A6B2FED7EB
:102B4000A6940050F21269C06BF0050E6C6EA9C01D
:102B50006DF0AAC06EF0ABC06FF0ACC070F00101B8
:102B6000AD6B6B0EAC6F060EAE6F000123EC0DF07B
:102B7000E4C071F0E3C072F08A8693960400040EFC
:102B80000101B36F0001E2EC02F004006B505AEC5B
:102B90000DF06C505AEC0DF06D505AEC0DF06E507B
:102BA0005AEC0DF06F505AEC0DF070505AEC0DF0DD
:102BB00071505AEC0DF072505AEC0DF00400030EF7
:102BC0000101B36F0001E2EC02F004008A969396D3
:102BD00005EF1AF0A8512108D8A405EF1AF0A96A48
:102BE0000F0EA86EA69CA69EA684F250006EF29EC2
:102BF0000F01550EA76EAA0EA76EA682A6B2FED72B
:102C0000A6940050F212010EA96EAAC0A8FFA69CBD
:102C1000A69EA684F2CF00F0F29E550EA76EAA0ED5
:102C2000A76EA682A6B2FED7A6940050F212020E9C
:102C3000A96EABC0A8FFA69CA69EA684F2CF00F00A
:102C4000F29E550EA76EAA0EA76EA682A6B2FED75A
:102C5000A6940050F212030EA96EACC0A8FFA69C69
:102C6000A69EA684F2CF00F0F29E550EA76EAA0E85
:102C7000A76EA682A6B2FED7A6940050F212040E4A
:102C8000A96EADC0A8FFA69CA69EA684F2CF00F0B8
:102C9000F29E550EA76EAA0EA76EA682A6B2FED70A
:102CA000A6940050F212050EA96EAEC0A8FFA69C15
:102CB000A69EA684F2CF00F0F29E550EA76EAA0E35
:102CC000A76EA682A6B2FED7A6940050F212060EF8
:102CD000A96EAFC0A8FFA69CA69EA684F2CF00F066
:102CE000F29E550EA76EAA0EA76EA682A6B2FED7BA
:102CF000A6940050F212070EA96EB0C0A8FFA69CC1
:102D0000A69EA684F2CF00F0F29E550EA76EAA0EE4
:102D1000A76EA682A6B2FED7A6940050F212080EA5
:102D2000A96EB1C0A8FFA69CA69EA684F2CF00F013
:102D3000F29E550EA76EAA0EA76EA682A6B2FED769
:102D4000A6940050F212090EA96EB2C0A8FFA69C6C
:102D5000A69EA684F2CF00F0F29E550EA76EAA0E94
:102D6000A76EA682A6B2FED7A6940050F2120A0E53
:102D7000A96EB3C0A8FFA69CA69EA684F2CF00F0C1
:102D8000F29E550EA76EAA0EA76EA682A6B2FED719
:102D9000A6940050F2120B0EA96EB4C0A8FFA69C18
:102DA000A69EA684F2CF00F0F29E550EA76EAA0E44
:102DB000A76EA682A6B2FED7A6940050F2120C0E01
:102DC000A96EB5C0A8FFA69CA69EA684F2CF00F06F
:102DD000F29E550EA76EAA0EA76EA682A6B2FED7C9
:102DE000A6940050F2120D0EA96EB6C0A8FFA69CC4
:102DF000A69EA684F2CF00F0F29E550EA76EAA0EF4
:102E0000A76EA682A6B2FED7A6940050F2120E0EAE
:102E1000A96EB7C0A8FFA69CA69EA684F2CF00F01C
:102E2000F29E550EA76EAA0EA76EA682A6B2FED778
:102E3000A6940050F2120F0EA96EB8C0A8FFA69C6F
:102E4000A69EA684F2CF00F0F29E550EA76EAA0EA3
:102E5000A76EA682A6B2FED7A6940050F212100E5C
:102E6000A96EB9C0A8FFA69CA69EA684F2CF00F0CA
:102E7000F29E550EA76EAA0EA76EA682A6B2FED728
:102E8000A6940050F212110EA96EBAC0A8FFA69C1B
:102E9000A69EA684F2CF00F0F29E550EA76EAA0E53
:102EA000A76EA682A6B2FED7A6940050F212120E0A
:102EB000A96EBBC0A8FFA69CA69EA684F2CF00F078
:102EC000F29E550EA76EAA0EA76EA682A6B2FED7D8
:102ED000A6940050F212130EA96EBCC0A8FFA69CC7
:102EE000A69EA684F2CF00F0F29E550EA76EAA0E03
:102EF000A76EA682A6B2FED7A6940050F212140EB8
:102F0000A96EBDC0A8FFA69CA69EA684F2CF00F025
:102F1000F29E550EA76EAA0EA76EA682A6B2FED787
:102F2000A6940050F212150EA96EBEC0A8FFA69C72
:102F3000A69EA684F2CF00F0F29E550EA76EAA0EB2
:102F4000A76EA682A6B2FED7A6940050F212160E65
:102F5000A96EBFC0A8FFA69CA69EA684F2CF00F0D3
:102F6000F29E550EA76EAA0EA76EA682A6B2FED737
:102F7000A6940050F212170EA96EC0C0A8FFA69C1E
:102F8000A69EA684F2CF00F0F29E550EA76EAA0E62
:102F9000A76EA682A6B2FED7A6940050F212180E13
:102FA000A96EC1C0A8FFA69CA69EA684F2CF00F081
:102FB000F29E550EA76EAA0EA76EA682A6B2FED7E7
:102FC000A6940050F212190EA96EC2C0A8FFA69CCA
:102FD000A69EA684F2CF00F0F29E550EA76EAA0E12
:102FE000A76EA682A6B2FED7A6940050F2121A0EC1
:102FF000A96EC3C0A8FFA69CA69EA684F2CF00F02F
:10300000F29E550EA76EAA0EA76EA682A6B2FED796
:10301000A6940050F2121B0EA96EC4C0A8FFA69C75
:10302000A69EA684F2CF00F0F29E550EA76EAA0EC1
:10303000A76EA682A6B2FED7A6940050F2121C0E6E
:10304000A96EC5C0A8FFA69CA69EA684F2CF00F0DC
:10305000F29E550EA76EAA0EA76EA682A6B2FED746
:10306000A6940050F2121D0EA96EC6C0A8FFA69C21
:10307000A69EA684F2CF00F0F29E550EA76EAA0E71
:10308000A76EA682A6B2FED7A6940050F2121E0E1C
:10309000A96EC7C0A8FFA69CA69EA684F2CF00F08A
:1030A000F29E550EA76EAA0EA76EA682A6B2FED7F6
:1030B000A6940050F2121F0EA96EC8C0A8FFA69CCD
:1030C000A69EA684F2CF00F0F29E550EA76EAA0E21
:1030D000A76EA682A6B2FED7A6940050F212200ECA
:1030E000A96EC9C0A8FFA69CA69EA684F2CF00F038
:1030F000F29E550EA76EAA0EA76EA682A6B2FED7A6
:10310000A6940050F212210EA96ECAC0A8FFA69C78
:10311000A69EA684F2CF00F0F29E550EA76EAA0ED0
:10312000A76EA682A6B2FED7A6940050F212220E77
:10313000A96ECBC0A8FFA69CA69EA684F2CF00F0E5
:10314000F29E550EA76EAA0EA76EA682A6B2FED755
:10315000A6940050F212230EA96ECCC0A8FFA69C24
:10316000A69EA684F2CF00F0F29E550EA76EAA0E80
:10317000A76EA682A6B2FED7A6940050F212240E25
:10318000A96ECDC0A8FFA69CA69EA684F2CF00F093
:10319000F29E550EA76EAA0EA76EA682A6B2FED705
:1031A000A6940050F212250EA96ECEC0A8FFA69CD0
:1031B000A69EA684F2CF00F0F29E550EA76EAA0E30
:1031C000A76EA682A6B2FED7A6940050F212260ED3
:1031D000A96ECFC0A8FFA69CA69EA684F2CF00F041
:1031E000F29E550EA76EAA0EA76EA682A6B2FED7B5
:1031F000A6940050F212270EA96ED0C0A8FFA69C7C
:10320000A69EA684F2CF00F0F29E550EA76EAA0EDF
:10321000A76EA682A6B2FED7A6940050F212280E80
:10322000A96ED1C0A8FFA69CA69EA684F2CF00F0EE
:10323000F29E550EA76EAA0EA76EA682A6B2FED764
:10324000A6940050F212290EA96ED2C0A8FFA69C27
:10325000A69EA684F2CF00F0F29E550EA76EAA0E8F
:10326000A76EA682A6B2FED7A6940050F2122A0E2E
:10327000A96ED3C0A8FFA69CA69EA684F2CF00F09C
:10328000F29E550EA76EAA0EA76EA682A6B2FED714
:10329000A6940050F2122B0EA96ED4C0A8FFA69CD3
:1032A000A69EA684F2CF00F0F29E550EA76EAA0E3F
:1032B000A76EA682A6B2FED7A6940050F2122C0EDC
:1032C000A96ED5C0A8FFA69CA69EA684F2CF00F04A
:1032D000F29E550EA76EAA0EA76EA682A6B2FED7C4
:1032E000A6940050F2122D0EA96ED6C0A8FFA69C7F
:1032F000A69EA684F2CF00F0F29E550EA76EAA0EEF
:10330000A76EA682A6B2FED7A6940050F2122E0E89
:10331000A96ED7C0A8FFA69CA69EA684F2CF00F0F7
:10332000F29E550EA76EAA0EA76EA682A6B2FED773
:10333000A6940050F2122F0EA96ED8C0A8FFA69C2A
:10334000A69EA684F2CF00F0F29E550EA76EAA0E9E
:10335000A76EA682A6B2FED7A6940050F212300E37
:10336000A96ED9C0A8FFA69CA69EA684F2CF00F0A5
:10337000F29E550EA76EAA0EA76EA682A6B2FED723
:10338000A6940050F212310EA96EDAC0A8FFA69CD6
:10339000A69EA684F2CF00F0F29E550EA76EAA0E4E
:1033A000A76EA682A6B2FED7A6940050F21269C0FC
:1033B0006BF0210E6C6E0101AD6B6B0EAC6F020EEB
:1033C000AE6F000123EC0DF0E4C06DF0E3C06EF0D1
:1033D0008A8693960A0E0101B36F0001E2EC02F0B7
:1033E0006B505AEC0DF06C505AEC0DF06D505AECDD
:1033F0000DF06E505AEC0DF0030E0101B36F000199
:10340000E2EC02F08A969396FF00A851030844E18B
:1034100048C0ECF047C0EDF069C06BF0030E6C6E75
:10342000020E6D6EECC06EF0EDC06FF00101AD6B81
:103430006B0EAC6F050EAE6F000123EC0DF0E4C017
:1034400070F0E3C071F08A8693960400040E0101C7
:10345000B36F0001E2EC02F004006B505AEC0DF087
:103460006C505AEC0DF06D505AEC0DF06E505AEC59
:103470000DF06F505AEC0DF070505AEC0DF0715089
:103480005AEC0DF00400030E0101B36F0001E2ECF1
:1034900002F004008A969396010EE66FF40EE56F33
:1034A0002D9860C068F00101076B6A6A8A9693964E
:1034B0000001B9EF27F05E500A081FE101010A91EF
:1034C0000EA10A810A930EA30A830A950EA50A8506
:1034D0000A970EA70A870A990EA90A890A9B0EABBA
:1034E0000A8B0A9D0EAD0A8D0A9F0EAF0A8F0B91B3
:1034F0000FA10B810B930FA30B830101189118935C
:10350000189518971899189B189D189F1991199339
:1035100000013AEF24F00101B32D1ED1000E1AB1C3
:10352000010EB56F000E1CB1010EB513000E18A1EF
:10353000010EB517000E12B1010EB66F000E14B1D8
:10354000010EB611B515B491E8B0B481000EB4B156
:10355000010EB56F000E1AB3010EB66F000E1CB34C
:10356000010EB613000E18A3010EB617000E12B30B
:10357000010EB76F000E14B3010EB711B615B511D9
:10358000B491E8B0B481000EB4B1010EB56F000E75
:103590001AB5010EB66F000E1CB5010EB613000E63
:1035A00018A5010EB617000E12B5010EB76F000E6A
:1035B00014B5010EB711B615B511B491E8B0B481C8
:1035C000000EB4B1010EB56F000E1AB7010EB66F42
:1035D000000E1CB7010EB613000E18A7010EB61789
:1035E000000E12B7010EB76F000E14B7010EB7111F
:1035F000B615B511B491E8B0B481000EB4B1010EA6
:10360000B56F000E1AB9010EB66F000E1CB9010E8F
:10361000B613000E18A9010EB617000E12B9010E4E
:10362000B76F000E14B9010EB711B615B511B491EC
:10363000E8B0B481000EB4B1010EB56F000E1ABB34
:10364000010EB66F000E1CBB010EB613000E18ABB8
:10365000010EB617000E12BB010EB76F000E14BBA1
:10366000010EB711B615B511B491E8B0B481000ED2
:10367000B4B1010EB56F000E1ABD010EB66F000E8B
:103680001CBD010EB613000E18AD010EB617000ECC
:1036900012BD010EB76F000E14BD010EB711B615A5
:1036A000B511B491E8B0B481000EB4B1010EB56F9C
:1036B000000E1ABF010EB66F000E1CBF010EB6132E
:1036C000000E18AF010EB617000E12BF010EB76F35
:1036D000000E14BF010EB711B615B511B491E8B0C4
:1036E000B481000EB4B1010EB56F000E1BB1010E16
:1036F000B66F000E1DB1010EB613000E19A1010E1A
:10370000B617000E13B1010EB76F000E15B1010E02
:10371000B711B615B511B491E8B0B481000EB4B1CB
:10372000010EB56F000E1BB3010EB66F000E1DB378
:10373000010EB613000E19A3010EB617000E13B337
:10374000010EB76F000E15B3010EB711B615B51106
:10375000B491E8B0B48121D1B3510208D8A41DD1ED
:10376000000E1AB1010EB56F000E1CB1010EB5139B
:10377000000E18A1010EB517000E12A1010EB66FB2
:10378000000E14B1010EB611B515B491E8B0B481B4
:10379000000EB4B1010EB56F000E1AB3010EB66F74
:1037A000000E1CB3010EB613000E18A3010EB617BF
:1037B000000E12A3010EB76F000E14B3010EB71165
:1037C000B615B511B491E8B0B481000EB4B1010ED4
:1037D000B56F000E1AB5010EB66F000E1CB5010EC6
:1037E000B613000E18A5010EB617000E12A5010E95
:1037F000B76F000E14B5010EB711B615B511B4911F
:10380000E8B0B481000EB4B1010EB56F000E1AB766
:10381000010EB66F000E1CB7010EB613000E18A7EE
:10382000010EB617000E12A7010EB76F000E14B7E7
:10383000010EB711B615B511B491E8B0B481000E00
:10384000B4B1010EB56F000E1AB9010EB66F000EBD
:103850001CB9010EB613000E18A9010EB617000E02
:1038600012A9010EB76F000E14B9010EB711B615EB
:10387000B511B491E8B0B481000EB4B1010EB56FCA
:10388000000E1ABB010EB66F000E1CBB010EB61364
:10389000000E18AB010EB617000E12AB010EB76F7B
:1038A000000E14BB010EB711B615B511B491E8B0F6
:1038B000B481000EB4B1010EB56F000E1ABD010E39
:1038C000B66F000E1CBD010EB613000E18AD010E32
:1038D000B617000E12AD010EB76F000E14BD010E2B
:1038E000B711B615B511B491E8B0B481000EB4B1FA
:1038F000010EB56F000E1ABF010EB66F000E1CBF91
:10390000010EB613000E18AF010EB617000E12AF5F
:10391000010EB76F000E14BF010EB711B615B51129
:10392000B491E8B0B481000EB4B1010EB56F000ED1
:103930001BB1010EB66F000E1DB1010EB613000EC5
:1039400019A1010EB617000E13A1010EB76F000EDC
:1039500015B1010EB711B615B511B491E8B0B48127
:10396000000EB4B1010EB56F000E1BB3010EB66FA1
:10397000000E1DB3010EB613000E19A3010EB617EB
:10398000000E13A3010EB76F000E15B3010EB71191
:10399000B615B511B491E8B0B481000EB4B1010E02
:1039A000016E0001000C010116A133D0000E0AB116
:1039B000010EB36F000E0EB1010EB319010802E142
:1039C00010B102D01AA122D018B11FD01AB107D05D
:1039D0005B500F0804E1640E196E5CC01AF01A8186
:1039E00017B202D00C9101D00C8117B80ED014B1CF
:1039F00005D0898892988986929607D012A103D023
:103A00008988929802D08986929602D010B1189136
:103A10000DD0000E0AB1010EB36F000E0EB1010EF3
:103A2000B319010802E10C9101D00C8116A333D027
:103A3000000E0AB3010EB36F000E0EB3010EB319E0
:103A4000010802E110B302D01AA322D018B31FD08C
:103A50001AB307D05B500F0804E1640E196E5CC006
:103A60001AF01A8317B202D00C9301D00C8317B846
:103A70000ED014B305D0898892988986929607D083
:103A800012A303D08988929802D08986929602D098
:103A900010B318930DD0000E0AB3010EB36F000ED1
:103AA0000EB3010EB319010802E10C9301D00C838F
:103AB00016A533D0000E0AB5010EB36F000E0EB579
:103AC000010EB319010802E110B502D01AA522D0E7
:103AD00018B51FD01AB507D05B500F0804E1640E6B
:103AE000196E5CC01AF01A8517B202D00C9501D07D
:103AF0000C8517B80ED014B505D0898892988986A0
:103B0000929607D012A503D08988929802D0898610
:103B1000929602D010B518950DD0000E0AB5010E80
:103B2000B36F000E0EB5010EB319010802E10C953A
:103B300001D00C8516A733D0000E0AB7010EB36F63
:103B4000000E0EB7010EB319010802E110B702D042
:103B50001AA722D018B71FD01AB707D05B500F088A
:103B600004E1640E196E5CC01AF01A8717B202D015
:103B70000C9701D00C8717B80ED014B705D08988E0
:103B800092988986929607D012A703D08988929836
:103B900002D08986929602D010B718970DD0000EE9
:103BA0000AB7010EB36F000E0EB7010EB31901086C
:103BB00002E10C9701D00C8716A933D0000E0AB988
:103BC000010EB36F000E0EB9010EB319010802E128
:103BD00010B902D01AA922D018B91FD01AB907D02B
:103BE0005B500F0804E1640E196E5CC01AF01A896C
:103BF00017B202D00C9901D00C8917B80ED014B9A5
:103C000005D0898892988986929607D012A903D008
:103C10008988929802D08986929602D010B9189914
:103C20000DD0000E0AB9010EB36F000E0EB9010ED1
:103C3000B319010802E10C9901D00C8916AB33D0FD
:103C4000000E0ABB010EB36F000E0EBB010EB319BE
:103C5000010802E110BB02D01AAB22D018BB1FD062
:103C60001ABB07D05B500F0804E1640E196E5CC0EC
:103C70001AF01A8B17B202D00C9B01D00C8B17B81C
:103C80000ED014BB05D0898892988986929607D069
:103C900012AB03D08988929802D08986929602D07E
:103CA00010BB189B0DD0000E0ABB010EB36F000EA7
:103CB0000EBB010EB319010802E10C9B01D00C8B65
:103CC00016AD33D0000E0ABD010EB36F000E0EBD4F
:103CD000010EB319010802E110BD02D01AAD22D0C5
:103CE00018BD1FD01ABD07D05B500F0804E1640E49
:103CF000196E5CC01AF01A8D17B202D00C9D01D05B
:103D00000C8D17B80ED014BD05D08988929889867D
:103D1000929607D012AD03D08988929802D08986F6
:103D2000929602D010BD189D0DD0000E0ABD010E56
:103D3000B36F000E0EBD010EB319010802E10C9D18
:103D400001D00C8D16AF33D0000E0ABF010EB36F39
:103D5000000E0EBF010EB319010802E110BF02D020
:103D60001AAF22D018BF1FD01ABF07D05B500F0860
:103D700004E1640E196E5CC01AF01A8F17B202D0FB
:103D80000C9F01D00C8F17B80ED014BF05D08988B6
:103D900092988986929607D012AF03D0898892981C
:103DA00002D08986929602D010BF189F0DD0000EC7
:103DB0000ABF010EB36F000E0EBF010EB31901084A
:103DC00002E10C9F01D00C8F17A133D0000E0BB174
:103DD000010EB36F000E0FB1010EB319010802E11D
:103DE00011B102D01BA122D019B11FD01BB107D035
:103DF0005B500F0804E1640E196E5CC01AF01B8161
:103E000017B202D00D9101D00D8117B80ED015B1A7
:103E100005D0898892988986929607D013A103D0FD
:103E20008988929802D08986929602D011B1199110
:103E30000DD0000E0BB1010EB36F000E0FB1010ECD
:103E4000B319010802E10D9101D00D8117A333D000
:103E5000000E0BB3010EB36F000E0FB3010EB319BA
:103E6000010802E111B302D01BA322D019B31FD065
:103E70001BB307D05B500F0804E1640E196E5CC0E1
:103E80001AF01B8317B202D00D9301D00D8317B81F
:103E90000ED015B305D0898892988986929607D05E
:103EA00013A303D08988929802D08986929602D073
:103EB00011B319930DD0000E0BB3010EB36F000EAA
:103EC0000FB3010EB319010802E10D9301D00D8368
:103ED000000E0AB1010EB36F000E0EB1010EB31940
:103EE000010802E110A102D017AA26D01CB109D006
:103EF0005B500F0806E118B104D0640E196E5CC067
:103F00001AF01C8118B115D017B202D00C9101D053
:103F10000C8117B80ED014B105D089889298898683
:103F2000929607D012A103D08988929802D08986F0
:103F30009296010EA86F3FD010B13DD01C91189100
:103F40000C8112B102D014B10DD0A8530BE1010EB7
:103F5000B36F00018BEC1AF0012C01D002D08998CC
:103F60009298010112A102D014B10DD0A8530BE117
:103F7000020EB36F00018BEC1AF0012C01D002D0BD
:103F80008996929601011CB116D01CB314D01CB5B1
:103F900012D01CB710D01CB90ED01CBB0CD01CBD4D
:103FA0000AD01CBF08D01DB106D01DB304D089961D
:103FB000929689989298000E0AB3010EB36F000E84
:103FC0000EB3010EB319010802E110A302D017AA23
:103FD00026D01CB309D05B500F0806E118B304D0FB
:103FE000640E196E5CC01AF01C8318B315D017B29A
:103FF00002D00C9301D00C8317B80ED014B305D0A7
:10400000898892988986929607D012A303D08988CE
:10401000929802D089869296010EA86F3FD010B375
:104020003DD01C9318930C8312B302D014B30DD05F
:10403000A8530BE1010EB36F00018BEC1AF0012CB9
:1040400001D002D089989298010112A302D014B332
:104050000DD0A8530BE1020EB36F00018BEC1AF0E8
:10406000012C01D002D08996929601011CB116D084
:104070001CB314D01CB512D01CB710D01CB90ED074
:104080001CBB0CD01CBD0AD01CBF08D01DB106D073
:104090001DB304D08996929689989298000E0AB51D
:1040A000010EB36F000E0EB5010EB319010802E147
:1040B00010A502D017AA26D01CB509D05B500F0856
:1040C00006E118B504D0640E196E5CC01AF01C85A8
:1040D00018B515D017B202D00C9501D00C8517B8C1
:1040E0000ED014B505D0898892988986929607D00B
:1040F00012A503D08988929802D089869296010EE3
:10410000A86F3FD010B53DD01C9518950C8512B501
:1041100002D014B50DD0A8530BE1010EB36F00010E
:104120008BEC1AF0012C01D002D0899892980101F1
:1041300012A502D014B50DD0A8530BE1020EB36F37
:1041400000018BEC1AF0012C01D002D089969296D6
:1041500001011CB116D01CB314D01CB512D01CB771
:1041600010D01CB90ED01CBB0CD01CBD0AD01CBF7B
:1041700008D01DB106D01DB304D0899692968998B7
:104180009298000E0AB7010EB36F000E0EB7010E23
:10419000B319010802E110A702D017AA26D01CB754
:1041A00009D05B500F0806E118B704D0640E196EF1
:1041B0005CC01AF01C8718B715D017B202D00C9744
:1041C00001D00C8717B80ED014B705D08988929803
:1041D0008986929607D012A703D08988929802D038
:1041E00089869296010EA86F3FD010B73DD01C97DC
:1041F00018970C8712B702D014B70DD0A8530BE153
:10420000010EB36F00018BEC1AF0012C01D002D02B
:1042100089989298010112A702D014B70DD0A85323
:104220000BE1020EB36F00018BEC1AF0012C01D0F0
:1042300002D08996929601011CB116D01CB314D0FD
:104240001CB512D01CB710D01CB90ED01CBB0CD0A2
:104250001CBD0AD01CBF08D01DB106D01DB304D0B0
:104260008996929689989298000E0AB9010EB36FBA
:10427000000E0EB9010EB319010802E110A902D017
:1042800017AA26D01CB909D05B500F0806E118B94F
:1042900004D0640E196E5CC01AF01C8918B915D0D0
:1042A00017B202D00C9901D00C8917B80ED014B9EE
:1042B00005D0898892988986929607D012A903D052
:1042C0008988929802D089869296010EA86F3FD075
:1042D00010B93DD01C9918990C8912B902D014B9A3
:1042E0000DD0A8530BE1010EB36F00018BEC1AF057
:1042F000012C01D002D089989298010112A902D014
:1043000014B90DD0A8530BE1020EB36F00018BEC72
:104310001AF0012C01D002D08996929601011CB1AD
:1043200016D01CB314D01CB512D01CB710D01CB9B9
:104330000ED01CBB0CD01CBD0AD01CBF08D01DB1B8
:1043400006D01DB304D08996929689989298000E53
:104350000ABB010EB36F000E0EBB010EB3190108AC
:1043600002E110AB02D017AA26D01CBB09D05B50CB
:104370000F0806E118BB04D0640E196E5CC01AF079
:104380001C8B18BB15D017B202D00C9B01D00C8B24
:1043900017B80ED014BB05D089889298898692965A
:1043A00007D012AB03D08988929802D08986929662
:1043B000010EA86F3FD010BB3DD01C9B189B0C8BEF
:1043C00012BB02D014BB0DD0A8530BE1010EB36F8A
:1043D00000018BEC1AF0012C01D002D08998929840
:1043E000010112AB02D014BB0DD0A8530BE1020E99
:1043F000B36F00018BEC1AF0012C01D002D089962A
:10440000929601011CB116D01CB314D01CB512D069
:104410001CB710D01CB90ED01CBB0CD01CBD0AD0D0
:104420001CBF08D01DB106D01DB304D0899692964A
:1044300089989298000E0ABD010EB36F000E0EBD52
:10444000010EB319010802E110AD02D017AA26D05F
:104450001CBD09D05B500F0806E118BD04D0640EE6
:10446000196E5CC01AF01C8D18BD15D017B202D0A1
:104470000C9D01D00C8D17B80ED014BD05D08988C5
:1044800092988986929607D012AD03D08988929827
:1044900002D089869296010EA86F3FD010BD3DD004
:1044A0001C9D189D0C8D12BD02D014BD0DD0A853BB
:1044B0000BE1010EB36F00018BEC1AF0012C01D05F
:1044C00002D089989298010112AD02D014BD0DD08E
:1044D000A8530BE1020EB36F00018BEC1AF0012C14
:1044E00001D002D08996929601011CB116D01CB35E
:1044F00014D01CB512D01CB710D01CB90ED01CBBE8
:104500000CD01CBD0AD01CBF08D01DB106D01DB3F5
:1045100004D08996929689989298000E0ABF010E4F
:10452000B36F000E0EBF010EB319010802E110AF08
:1045300002D017AA26D01CBF09D05B500F0806E195
:1045400018BF04D0640E196E5CC01AF01C8F18BF1F
:1045500015D017B202D00C9F01D00C8F17B80ED017
:1045600014BF05D0898892988986929607D012AF99
:1045700003D08988929802D089869296010EA86FFE
:104580003FD010BF3DD01C9F189F0C8F12BF02D090
:1045900014BF0DD0A8530BE1010EB36F00018BECDB
:1045A0001AF0012C01D002D089989298010112AF23
:1045B00002D014BF0DD0A8530BE1020EB36F00015F
:1045C0008BEC1AF0012C01D002D089969296010151
:1045D0001CB116D01CB314D01CB512D01CB710D00F
:1045E0001CB90ED01CBB0CD01CBD0AD01CBF08D0FF
:1045F0001DB106D01DB304D08996929689989298E1
:10460000000E0BB1010EB36F000E0FB1010EB31906
:10461000010802E111A102D017AA26D01DB109D0CC
:104620005B500F0806E119B104D0640E196E5CC02E
:104630001AF01D8119B115D017B202D00D9101D019
:104640000D8117B80ED015B105D08988929889864A
:10465000929607D013A103D08988929802D08986B8
:104660009296010EA86F3FD011B13DD01D911991C6
:104670000D8113B102D015B10DD0A8530BE1010E7D
:10468000B36F00018BEC1AF0012C01D002D0899895
:104690009298010113A102D015B10DD0A8530BE1DE
:1046A000020EB36F00018BEC1AF0012C01D002D086
:1046B0008996929601011CB116D01CB314D01CB57A
:1046C00012D01CB710D01CB90ED01CBB0CD01CBD16
:1046D0000AD01CBF08D01DB106D01DB304D08996E6
:1046E000929689989298000E0BB3010EB36F000E4C
:1046F0000FB3010EB319010802E111A302D017AAEA
:1047000026D01DB309D05B500F0806E119B304D0C1
:10471000640E196E5CC01AF01D8319B315D017B260
:1047200002D00D9301D00D8317B80ED015B305D06C
:10473000898892988986929607D013A303D0898896
:10474000929802D089869296010EA86F3FD011B33D
:104750003DD01D9319930D8313B302D015B30DD023
:10476000A8530BE1010EB36F00018BEC1AF0012C82
:1047700001D002D089989298010113A302D015B3F9
:104780000DD0A8530BE1020EB36F00018BEC1AF0B1
:10479000012C01D002D08996929601011CB116D04D
:1047A0001CB314D01CB512D01CB710D01CB90ED03D
:1047B0001CBB0CD01CBD0AD01CBF08D01DB106D03C
:1047C0001DB304D089969296899892980001000CA6
:1047D00030C0ABF131C0ACF1948482B402D017ACDC
:1047E00002D017A806D0320E0101B36F0001E2EC2F
:1047F00002F0948482B402D017AC02D017A82ED055
:10480000948482B402D017AC02D017A826D004003A
:104810002C5202E1060E2C6E178C040E0101B36FB0
:10482000FF0EB46F0001F3EC0BF0040E0101B36F47
:10483000FF0EB46F0001FEEC0BF0060E0101B36F2A
:10484000FF0EB46F0001F3EC0BF0060E0101B36F25
:10485000FF0EB46F0001FEEC0BF008D0948482A42C
:1048600005D017AC03D02C6A179C179A17AA09D049
:104870005BEF1AF0D3EC1CF0948482A401D0179A59
:104880000BD0948482A408D017AC06D05E500F08D9
:1048900000E22C6A179C179ABFEF27F00101AB6B5F
:1048A00004004AC0ACF1AC1F070EAB6FABBF18D011
:1048B000ACC100F0AB51016E04E0D8900032012E83
:1048C000FCD700B002D08A9401D08A84939493924A
:1048D0008A82040000D000D093928A92AB07E6D778
:1048E00049C0ACF1AC1F070EAB6FABBF18D0ACC169
:1048F00000F0AB51016E04E0D8900032012EFCD7DD
:1049000000B002D08A9401D08A84939493928A82D0
:10491000040000D000D093928A92AB07E6D748C03B
:10492000ACF1AC1F070EAB6FABBF18D0ACC100F041
:10493000AB51016E04E0D8900032012EFCD700B0DC
:1049400002D08A9401D08A84939493928A8204003C
:1049500000D000D093928A92AB07E6D747C0ACF163
:10496000AC1F070EAB6FABBF18D0ACC100F0AB51A2
:10497000016E04E0D8900032012EFCD700B002D0C6
:104980008A9401D08A84939493928A82040000D0FE
:1049900000D093928A92AB07E6D793908A80040066
:1049A00000D000D093908A900001CAEF27F0F86AF7
:1049B000D09E078EEA6AE96A810EAF6EA60EAC6ED3
:1049C000900EAB6E166A1790190E186E1792640E41
:1049D000196E1A6A1794179617982B6A179A2C6AE9
:1049E000179C179E2D902D922D942E6A2D96110EA8
:1049F000606E120E616E130E626E140E636E160EF2
:104A0000646E170E656E190E666E200E676E2D9819
:104A10006A6A010EE66FF40EE56FE86BE76BEA6B0E
:104A2000E96BEB6B0101086B096BA86BC180C1825C
:104A3000C184C196320EB36F0001E2EC02F08A9A93
:104A4000939A800ED56E780E0609CA6EC40ECB6E90
:104A5000B50ECD6E9D829D8AC69A949A948894963E
:104A6000200EC66E400EC76E13EF03F00101AB6B54
:104A7000FF0EAC6F00015EEC03F00101AB6BFF0EAB
:104A8000AC6F000167EC03F0020E0101AB6FFF0E8B
:104A9000AC6F00015EEC03F0020E0101AB6FFF0E84
:104AA000AC6F000167EC03F00101B56B060EB66F49
:104AB000FF0EB76F0001FAEC02F00101B56B160EA4
:104AC000B66FFF0EB76F0001FAEC02F0020E0101A3
:104AD000B56F060EB66FFF0EB76F0001FAEC02F06D
:104AE000020E0101B56F160EB66FFF0EB76F000113
:104AF000FAEC02F0040E0101AB6FAC6B00015EEC4E
:104B000003F0040E0101AB6FAC6B000167EC03F026
:104B1000060E0101AB6FAC6B00015EEC03F0060EFC
:104B20000101AB6FAC6B000167EC03F0080E0101F3
:104B3000AB6FAC6B00015EEC03F0080E0101AB6FD4
:104B4000AC6B000167EC03F00A0E0101AB6FAC6BBC
:104B500000015EEC03F00A0E0101AB6FAC6B0001CB
:104B600067EC03F0178260C068F0010E696E010106
:104B70000C810C830C850C870C890C8B0C8D0C8F95
:104B80000D810D831A911A931A951A971A991A9BE7
:104B90001A9D1A9F1B911B9318911893189518979B
:104BA0001899189B189D189F19911993F2CFABF182
:104BB000F29EA96AA69CA69EA680A850ABBFF28EC4
:104BC0000F0805E1000171EC03F009D10101190E94
:104BD000186EF00E5B6E010E696E050E5C6E190E9E
:104BE0005D6E0A0E5E6EA96BA9515E5C0DE3D890F6
:104BF000A935036A6A0FE96E010E0320EA6EEC6ABA
:104C0000ED52EF6AA92BF0D70E810E830E850E8729
:104C10000E890E8B0E8D0E8F0F810F83A683A685B6
:104C2000A687A689A68BA68DA68FA781A783A78511
:104C300010811083108510871089108B108D108FB4
:104C40001181118312811283128512871289128BAE
:104C5000128D128F1381138314811483148514878A
:104C60001489148B148D148F158115831681168366
:104C7000168516871689168B168D168F1781178342
:104C8000F2CFABF1F29E100EA96EA69CA69EA68056
:104C9000A850ABBFF28E376E229137B02281D890E8
:104CA00037302293E8B022833730006E00323F0E57
:104CB0000016229500B022853730006E0032003297
:104CC0001F0E0016229700B022873738006E0F0E95
:104CD0000016229900B022893738006E0032070E84
:104CE0000016229B00B0228B3738006E0032003253
:104CF000030E0016229D00B0228D006A37BE008090
:104D0000229F00B0228FF2CFABF1F29E110EA96E5E
:104D1000A69CA69EA680A850ABBFF28E376E2391AC
:104D200037B02381D89037302393E8B02383F2CF74
:104D3000ABF1F29E140EA96EA69CA69EA680A8506A
:104D4000ABBFF28E376E249137B02481D8903730C4
:104D50002493E8B024833730006E00323F0E0016F3
:104D6000249500B024853730006E003200321F0ECB
:104D70000016249700B024873738006E0F0E0016F7
:104D8000249900B024893738006E0032070E0016CF
:104D9000249B00B0248B3738006E00320032030EA3
:104DA0000016249D00B0248D006A37BE0080249F29
:104DB00000B0248FF2CFABF1F29E150EA96EA69C27
:104DC000A69EA680A850ABBFF28E376E259137B055
:104DD0002581D89037302593E8B025830001000E57
:104DE000926E936EC00EF212D180F9EC07F00400BF
:104DF00089989298899692968A9693968A8893989B
:104E000009EC0CF0020E0101AB6FFA0EB36F00015A
:104E1000E2EC02F00101AB2FF8D7010EAA6FAA5104
:104E20000A08D8A084D0AAC1ADF1AE6B010EB06F54
:104E3000260EAF6F0001B6EC07F0AAC1ADF101017B
:104E4000AE6B010EB06F2A0EAF6F0001B6EC07F02B
:104E5000D8900101AA35036A2E0FE96E010E0320D6
:104E6000EA6EEC6AED52EF6AAAC1ADF1010EAF6FC6
:104E7000A60EAE6F00018CEC07F0000E01B0010E23
:104E8000010B01082AE1010E0101AA5DF60F23E2E0
:104E90000A0F000151EF28F001010A811CD0010125
:104EA0000A8319D001010A8516D001010A8713D09F
:104EB00001010A8910D001010A8B0DD001010A8D70
:104EC0000AD001010A8F07D001010B8104D0010132
:104ED0000B8301D0010129D00001010E0101AA5D5F
:104EE000F60F23E20A0F00016DEF28F001010A918D
:104EF0001CD001010A9319D001010A9516D00101B5
:104F00000A9713D001010A9910D001010A9B0DD014
:104F100001010A9D0AD001010A9F07D001010B91EE
:104F200004D001010B9301D00101AA2B78D7B36BF8
:104F3000FF0EB46F0001F3EC0BF00101B36BFF0E39
:104F4000B46F0001FEEC0BF0020E0101B36FFF0E17
:104F5000B46F0001F3EC0BF0020E0101B36FFF0E12
:104F6000B46F0001FEEC0BF004002DA803D044EF59
:104F70000FF02D983DEC0EF0B4EC0EF029D40400A7
:104F8000F9EC07F00400D3EC1CF0040009EC0CF081
:104F9000040084D40400929089702DA67FD02D96B1
:104FA00071EC03F00101AB6BFF0EAC6F00015EEC26
:104FB00003F00101AB6BFF0EAC6F000167EC03F077
:104FC000020E0101AB6FFF0EAC6F00015EEC03F04F
:104FD000020E0101AB6FFF0EAC6F000167EC03F036
:104FE0000101B56B060EB66FFF0EB76F0001FAEC4C
:104FF00002F00101B56B160EB66FFF0EB76F000120
:10500000FAEC02F0020E0101B56F060EB66FFF0E4C
:10501000B76F0001FAEC02F0020E0101B56F160E37
:10502000B66FFF0EB76F0001FAEC02F0040E01013B
:10503000AB6FAC6B00015EEC03F0040E0101AB6FD3
:10504000AC6B000167EC03F0060E0101AB6FAC6BBB
:1050500000015EEC03F0060E0101AB6FAC6B0001CA
:1050600067EC03F0080E0101AB6FAC6B00015EEC66
:1050700003F0080E0101AB6FAC6B000167EC03F0AD
:105080000A0E0101AB6FAC6B00015EEC03F00A0E7F
:105090000101AB6FAC6B000167EC03F0010147D776
:1050A0000300F2CF0DF0F29EE824F76AF736C70F3F
:1050B000F66E500EF7220A00F550FA6E0800F55011
:1050C0000DBEF28EF96E984E9E4EA44EAA4EB04E74
:1050D000B64EBC4EC24EC84ECE4EF2CF0DF0F29E32
:1050E000E824F76AF736FF0FF66E500EF7220A0033
:1050F000F550FA6E0800F5500DBEF28EF96EEC4ECA
:10510000F24EF84EFE4E044F0A4F104F164F1C4FF2
:02511000224F2C
:020000040030CA
:0E00000000220F0D0001810000C00FE00F4034
:00000001FF
;PIC18F252
;CRC=BE52  CREATED="26-เม.ย.-21 16:49"
