:0400000040EF38F0A5
:08000800046ED8CF05F0E0CF33
:1000100006F00001E9CF0CF0EACF07F0E1CF08F0DD
:10002000E2CF09F0D9CF0AF0DACF0BF0F3CF12F01C
:10003000F4CF13F0FACF14F0F5CF15F0F6CF16F099
:10004000F7CF17F000C00EF001C00FF002C010F0A3
:1000500003C011F09DA030EF00F09EB0A8EF02F0B9
:100060009DA236EF00F09EB2ABEF02F09DAA3CEFEE
:1000700000F09EBAA0EF02F00EC000F00FC001F039
:1000800010C002F011C003F00CC0E9FF07C0EAFF86
:10009000078E08C0E1FF09C0E2FF0AC0D9FF0BC00C
:1000A000DAFF12C0F3FF13C0F4FF14C0FAFF15C04B
:1000B000F5FF16C0F6FF17C0F7FF045006C0E0FFBB
:1000C00005C0D8FF1000F76AD60FF66E000EF722B3
:1000D0000900F550120000C1814001C0804101C0FB
:1000E000804100C1814001C0804100C1814000C108
:1000F000814001C0804101C0804100C1814000C1F8
:10010000814001C0804100C1814001C0804101C0E7
:10011000804100C1814001C0804100C1814000C1D7
:10012000814001C0804100C1814001C0804101C0C7
:10013000804100C1814000C1814001C0804101C0B7
:10014000804100C1814001C0804100C1814000C1A7
:10015000814001C0804101C0804100C1814000C197
:10016000814001C0804100C1814001C0804101C087
:10017000804100C1814000C1814001C0804101C077
:10018000804100C1814001C0804100C1814000C167
:10019000814001C0804100C1814001C0804101C057
:1001A000804100C1814001C0804100C1814000C147
:1001B000814001C0804101C0804100C1814000C137
:1001C000814001C0804100C1814001C0804101C027
:1001D000804100C18140F76AE60FF66E010EF722FA
:1001E0000900F550120000C0C101C30302C2C606D7
:1001F00007C705C5C404CC0C0DCD0FCFCE0E0ACA5F
:10020000CB0BC90908C8D81819D91BDBDA1A1EDEAE
:10021000DF1FDD1D1CDC14D4D515D71716D6D2125E
:1002200013D311D1D010F03031F133F3F23236F66E
:10023000F737F53534F43CFCFD3DFF3F3EFEFA3A1E
:100240003BFB39F9F83828E8E929EB2B2AEAEE2EAE
:100250002FEF2DEDEC2CE42425E527E7E62622E21E
:10026000E323E12120E0A06061A163A3A26266A66E
:10027000A767A56564A46CACAD6DAF6F6EAEAA6ADE
:100280006BAB69A9A86878B8B979BB7B7ABABE7E2E
:100290007FBF7DBDBC7CB47475B577B7B67672B2DE
:1002A000B373B17170B0509091519353529296566E
:1002B0005797559594549C5C5D9D5F9F9E5E5A9A9E
:1002C0009B5B99595898884849894B8B8A4A4E8E2E
:1002D0008F4F8D4D4C8C448485458747468682429E
:1002E000438341818040040063516B5D13E16D6B7A
:1002F0006E0E6D25E96E010EEA6ED8B0EA2A2EC0A8
:10030000EFFF04006D2B100E6B6F140E0901796F57
:1003100014D100016B5110085CE16E0E6D25E96E81
:10032000010EEA6ED8B0EA2A2EC0EFFF04006D2B52
:10033000010E6D5D6E0FE96E010EEA6ED8B0EA2A0D
:10034000EF50160807E364C06BF0140E0901796FD3
:100350003ED00001010E6D5D6E0FE96E010EEA6E7A
:10036000D8B0EA2AEF50200807E167C06BF0140EFE
:100370000901796F2CD00001010E6D5D6E0FE96EE1
:10038000010EEA6ED8B0EA2AEF50210807E169C0F1
:100390006BF0140E0901796F1AD00001010E6D5D2A
:1003A0006E0FE96E010EEA6ED8B0EA2AEF5022080D
:1003B00007E169C06BF0140E0901796F08D00001E4
:1003C0006D6B63C06BF00901796B8A969396B5D01B
:1003D000000169516B5D1CE16E0E6D25E96E010E29
:1003E000EA6ED8B0EA2A2EC0EFFF04006D2B010E92
:1003F0006D5D6E0FE96E010EEA6ED8B0EA2AEFCF9E
:100400007AF9140E0901796F6AC06BF096D0000179
:100410006A516B5D15E16E0E6D25E96E010EEA6E97
:10042000D8B0EA2A2EC0EFFF04006D2B09017A072D
:100430007A5302E167C06BF0140E796F7ED0000131
:1004400064516B5D12E16E0E6D25E96E010EEA6E70
:10045000D8B0EA2A2EC0EFFF04006D2B65C06BF008
:10046000140E0901796F69D0000165516B5D12E1CD
:100470006E0E6D25E96E010EEA6ED8B0EA2A2EC026
:10048000EFFF04006D2B66C06BF0140E0901796F4D
:1004900054D0000166516B5D12E16E0E6D25E96E60
:1004A000010EEA6ED8B0EA2A2EC0EFFF04006D2BD1
:1004B000150E6B6F140E0901796F3FD000016B515F
:1004C000150812E16E0E6D25E96E010EEA6ED8B0C8
:1004D000EA2A2EC0EFFF04006D2B67C06BF0140EEC
:1004E0000901796F2AD0000167516B5D12E16E0E30
:1004F0006D25E96E010EEA6ED8B0EA2A2EC0EFFF34
:1005000004006D2B68C06BF0140E0901796F15D0D3
:10051000000168516B5D11E16E0E6D25E96E010EF3
:10052000EA6ED8B0EA2A2EC0EFFF040063C06BF079
:100530000901796B308A8A9693960001A5EF02F043
:100540009EAAFED7AECF2EF0CED69E9A3CEF00F0FC
:100550009E903CEF00F0192A0901795307E07907D2
:10056000795304E163C06BF08A9693961C520CE0B9
:100570001C061C5209E11D5204E01D061D5201E13A
:100580001A843088640E1C6E1950320814E1196AFE
:100590001AB004D01A808A8A939A03D01A908A9A41
:1005A000939A1AAC07D02F5201E02F062F5201E187
:1005B0001A8A01D02F6A1B5213E01B061B520AE154
:1005C0007B6930B405D01AA202D01A9201D01A82E7
:1005D00060C01BF0315204E03106315201E1309429
:1005E0009E9200013CEF00F041542B434D47463DA5
:1005F000310041542B434D47533D220041542B437E
:100600004D47463D310041542B434D47533D220059
:1006100041542B434D47463D310041542B434D47F8
:10062000533D220041542B434D47463D3100415438
:100630002B434D47533D220041542B434D47463DEC
:10064000310041542B434D47533D220041542B432D
:100650004D47463D310041542B434D47533D220009
:1006600041542B434D47463D310041542B434D47A8
:10067000533D220041542B434D47463D31004154E8
:100680002B434D47533D220041542B434D47463D9C
:10069000310041542B434D47533D220041542B43DD
:1006A0004D47463D310041542B434D47533D2200B9
:1006B00041542B434D47463D310041542B434D4758
:1006C000533D220041542B434D47463D3100415498
:1006D0002B434D47533D220041542B434D47463D4C
:1006E000310041542B434D47533D220041542B438D
:1006F0004D47463D310041542B434D47533D220069
:1007000041542B434D47463D310041542B434D4707
:10071000533D220041542B434D47463D3100415447
:100720002B434D47533D220041542B434D47463DFB
:10073000310041542B434D47533D220041542B433C
:100740004D47463D310041542B434D47533D220018
:1007500041542B434D47463D310041542B434D47B7
:10076000533D220041542B434D47463D31004154F7
:100770002B434D47533D220041542B434D47533D9E
:10078000220041542B434D47533D220041542B43FB
:100790004D47533D220041542B434D47533D2200CA
:1007A00041542B434D47533D220041542B434D4769
:1007B000533D220041542B434D47533D22004154A9
:1007C0002B434D47533D220041542B434D47533D4E
:1007D000220041542B434D47533D22000B0EEA6E3D
:1007E000540EE96EEF5011E0050E016EBF0E006E63
:1007F0000400002EFDD7012EF9D72E0E006E002E1C
:10080000FED700000400EF2EEFD71200929A899ACB
:100810000B014D514009506FC95050CBC9FFC73033
:10082000FEE3C9504ECBC9FFC730FEE3C9504FCBE2
:10083000C9FFC730FEE3929A898A00011200929A9A
:10084000898A929A0B014D6B0A0E4E6FAA0E4F6F5A
:100850000001DCDF020E0B014D6F0A0E4E6FAA0E77
:100860004F6F0001D3DF040E0B014D6F0A0E4E6F68
:10087000AA0E4F6F0001CADF060E0B014D6F0A0E64
:100880004E6FAA0E4F6F0001C1DF080E0B014D6FB6
:100890000A0E4E6FAA0E4F6F0001B8DF0A0E0B0151
:1008A0004D6F4E6FAA0E4F6F0001B0DF0C0E0B01A3
:1008B0004D6F0A0E4E6FAA0E4F6F0001A7DF0E0E8E
:1008C0000B014D6F0A0E4E6FAA0E4F6F00019EDF97
:1008D000B0EF38F04BCB4DFB0B014E6B4CCB4FFBCD
:1008E000000194DF12004BCB4DFB100E0B014E6F3D
:1008F0004CCB4FFB00018ADF1200F2CF55FBF29E7A
:10090000AA6A010EA96EA69CA69EA680A8500B01FD
:1009100055BFF28E3A6E3AC03BF00A01CF913AB021
:10092000CF81D8903A30CF93E8B0CF833A30006E81
:1009300000323F0E0016CF9500B0CF853A30006EE2
:10094000003200321F0E0016CF9700B0CF873A3822
:10095000006E0F0E0016CF9900B0CF893A38006EA6
:100960000032070E0016CF9B00B0CF8B3A38006ED6
:1009700000320032030E0016CF9D00B0CF8D006A0A
:100980003ABE0080CF9F00B0CF8FF2CF55FBF29ED2
:10099000AA6A020EA96EA69CA69EA680A8500B016C
:1009A00055BFF28E3A6E3AC03CF00A01D0913AB08F
:1009B000D081D8903A30D093E8B0D0830B014393E4
:1009C0000A01CFA103D00B0143830A010B01439518
:1009D0000A01CFA303D00B0143850A010B01439702
:1009E0000A01CFA503D00B0143870A010B014399EC
:1009F0000A01CFA703D00B0143890A010B01439BD6
:100A00000A01CFA903D00B01438B0A010B01439DBF
:100A10000A01CFAB03D00B01438D0A010B01439FA9
:100A20000A01CFAD03D00B01438F0A010B014491A2
:100A30000A01CFAF03D00B0144810A010B0144939B
:100A40000A01D0A103D00B0144830A010B01449594
:100A50000A01D0A303D00B0144850A01F2CF55FB54
:100A6000F29EAA6A040EA96EA69CA69EA680A85015
:100A70000B0155BFF28E3A6E3AC03EF00A01D19199
:100A80003AB0D181D8903A30D193E8B0D1833A309E
:100A9000006E00323F0E0016D19500B0D1853A307D
:100AA000006E003200321F0E0016D19700B0D187C1
:100AB0003A38006E0F0E0016D19900B0D1893A383D
:100AC000006E0032070E0016D19B00B0D18B3A3871
:100AD000006E00320032030E0016D19D00B0D18DA1
:100AE000006A3ABE0080D19F00B0D18FF2CF55FB93
:100AF000F29EAA6A050EA96EA69CA69EA680A85084
:100B00000B0155BFF28E3A6E3AC03FF00A01D29106
:100B10003AB0D281D8903A30D293E8B0D283F2CFB3
:100B200055FBF29EAA6A070EA96EA69CA69EA680F9
:100B3000A8500B0155BFF28E3A6E3AC041F00A013F
:100B4000D3913AB0D381D8903A30D393E8B0D383DD
:100B50003A30006E00323F0E0016D39500B0D385B8
:100B60003A30006E003200321F0E0016D39700B0EC
:100B7000D3873A38006E0F0E0016D39900B0D38990
:100B80003A38006E0032070E0016D39B00B0D38BAC
:100B90003A38006E00320032030E0016D39D00B0CA
:100BA000D38D006A3ABE0080D39F00B0D38FF2CFBE
:100BB00055FBF29EAA6A080EA96EA69CA69EA68068
:100BC000A8500B0155BFF28E3A6E3AC042F00A01AE
:100BD000D4913AB0D481D8903A30D493E8B0D48349
:100BE000F2CF55FBF29EAA6A0A0EA96EA69CA69E9B
:100BF000A680A8500B0155BFF28E3A6E3AC044F061
:100C00000A01D5913AB0D581D8903A30D593E8B061
:100C1000D5833A30006E00323F0E0016D59500B0F5
:100C2000D5853A30006E003200321F0E0016D5977F
:100C300000B0D5873A38006E0F0E0016D59900B077
:100C4000D5893A38006E0032070E0016D59B00B0E9
:100C5000D58B3A38006E00320032030E0016D59D57
:100C600000B0D58D006A3ABE0080D59F00B0D58F08
:100C7000F2CF55FBF29EAA6A0B0EA96EA69CA69E09
:100C8000A680A8500B0155BFF28E3A6E3AC045F0CF
:100C90000A01D6913AB0D681D8903A30D693E8B0CE
:100CA000D683F2CF55FBF29EAA6A0D0EA96EA69CC2
:100CB000A69EA680A8500B0155BFF28E3A6E3AC090
:100CC00047F00A01D7913AB0D781D8903A30D793FC
:100CD000E8B0D7833A30006E00323F0E0016D79549
:100CE00000B0D7853A30006E003200321F0E001679
:100CF000D79700B0D7873A38006E0F0E0016D799F5
:100D000000B0D7893A38006E0032070E0016D79B24
:100D100000B0D78B3A38006E00320032030E001656
:100D2000D79D00B0D78D006A3ABE0080D79F00B033
:100D3000D78FF2CF55FBF29EAA6A0E0EA96EA69C23
:100D4000A69EA680A8500B0155BFF28E3A6E3AC0FF
:100D500048F00A01D8913AB0D881D8903A30D89367
:100D6000E8B0D883F2CF55FBF29EAA6A100EA96EA6
:100D7000A69CA69EA680A8500B0155BFF28E3A6E87
:100D80000A01E3913AB0E381D8903A30E393E8B0B6
:100D9000E3833A30006E00323F0E0016E39500B058
:100DA000E3853A30006E003200321F0E0016E397E2
:100DB00000B0E3873A38006E0F0E0016E39900B0DA
:100DC000E3893A38006E0032070E0016E39B00B04C
:100DD000E38B3A38006E00320032030E0016E39DBA
:100DE00000B0E38D006A3ABE0080E39F00B0E38F5D
:100DF000F2CF55FBF29EAA6A110EA96EA69CA69E82
:100E0000A680A8500B0155BFF28E3A6E0A01E491FC
:100E10003AB0E481D8903A30E493E8B0E483F2CF7A
:100E200055FBF29EAA6A140EA96EA69CA69EA680E9
:100E3000A8500B0155BFF28E3A6E0A01E5913AB007
:100E4000E581D8903A30E593E8B0E5833A30006E1A
:100E500000323F0E0016E59500B0E5853A30006E91
:100E6000003200321F0E0016E59700B0E5873A38D1
:100E7000006E0F0E0016E59900B0E5893A38006E55
:100E80000032070E0016E59B00B0E58B3A38006E85
:100E900000320032030E0016E59D00B0E58D006AB9
:100EA0003ABE0080E59F00B0E58FF2CF55FBF29E81
:100EB000AA6A150EA96EA69CA69EA680A8500B0134
:100EC00055BFF28E3A6E0A01E6913AB0E681D890AB
:100ED0003A30E693E8B0E683F2CF55FBF29EAA6A79
:100EE000180EA96EA69CA69EA680A8500B0155BF01
:100EF000F28E5E6EF2CF55FBF29EAA6A190EA96EB3
:100F0000A69CA69EA680A85055BFF28E5F6EF2CF1B
:100F100055FBF29EAA6A1A0EA96EA69CA69EA680F2
:100F2000A85055BFF28E0001606FF2CF55FBF29EC4
:100F3000AA6A1B0EA96EA69CA69EA680A8500B01AD
:100F400055BFF28E0001616FF2CF55FBF29EAA6A87
:100F50001C0EA96EA69CA69EA680A8500B0155BF8C
:100F6000F28E1A6B196FF2CF55FBF29EAA6A1D0E14
:100F7000A96EA69CA69EA680A85055BFF28E000121
:100F80006C6FF2CF55FBF29EAA6A1E0EA96EA69C4C
:100F9000A69EA680A8500B0155BFF28E1C6B1B6F3E
:100FA000F2CF55FBF29EAA6A1F0EA96EA69CA69EC2
:100FB000A680A85055BFF28E1E6B1D6FF2CF55FB59
:100FC000F29EAA6A200EA96EA69CA69EA680A85094
:100FD00055BFF28E206B1F6FF2CF55FBF29EAA6AAF
:100FE000210EA96EA69CA69EA680A85055BFF28E83
:100FF000226B216FF2CF55FBF29EAA6A220EA96ED8
:10100000A69CA69EA680A85055BFF28E246B236F87
:10101000F2CF55FBF29EAA6A230EA96EA69CA69E4D
:10102000A680A85055BFF28E266B256FF2CF55FBD8
:10103000F29EAA6A240EA96EA69CA69EA680A8501F
:1010400055BFF28E286B276FF2CF55FBF29EAA6A2E
:10105000250EA96EA69CA69EA680A85055BFF28E0E
:101060002A6B296FF2CF55FBF29EAA6A260EA96E53
:10107000A69CA69EA680A85055BFF28E2C6B2B6F07
:10108000F2CF55FBF29EAA6A270EA96EA69CA69ED9
:10109000A680A85055BFF28E2E6B2D6FF2CF55FB58
:1010A000F29EAA6A280EA96EA69CA69EA680A850AB
:1010B00055BFF28E306B2F6FF2CF55FBF29EAA6AAE
:1010C000290EA96EA69CA69EA680A85055BFF28E9A
:1010D000326B316FF2CF55FBF29EAA6A2A0EA96ECF
:1010E000A69CA69EA680A85055BFF28E346B336F87
:1010F000F2CF55FBF29EAA6A2B0EA96EA69CA69E65
:10110000A680A85055BFF28E366B356FF2CF55FBD7
:10111000F29EAA6A2C0EA96EA69CA69EA680A85036
:1011200055BFF28E386B376FF2CF55FBF29EAA6A2D
:101130002D0EA96EA69CA69EA680A85055BFF28E25
:101140003A6B396FF2CF55FBF29EAA6A2E0EA96E4A
:10115000A69CA69EA680A85055BFF28E3C6B3B6F06
:10116000F2CF55FBF29EAA6A2F0EA96EA69CA69EF0
:10117000A680A85055BFF28E3E6B3D6FF2CF55FB57
:10118000F29EAA6A300EA96EA69CA69EA680A850C2
:1011900055BFF28E406B3F6FF2CF55FBF29EAA6AAD
:1011A000310EA96EA69CA69EA680A85055BFF28EB1
:1011B000426B416F4B6B0400320E4B25556FF2CFE3
:1011C00056FBF29EAA6A55CBA9FFA69CA69EA680B6
:1011D000A85056BFF28E4C6F4C510D0803E04B5196
:1011E0000F0824E2036A4B517C0FE96E090E0320BD
:1011F000EA6EEF6A320E4B25556FF250006EF29E8A
:10120000AA6A55CBA9FF4CCBA8FFA69CA69EA68494
:101210000F01550EA76EAA0EA76EA682A6B2FED724
:10122000A6940050F21210D00BD00B01036A4B5160
:101230007C0FE96E090E0320EA6E4CCBEFFF0F0125
:101240000B014B2BB8D70F010B014E6B030E4D6FEB
:10125000506B4F6B526B516B04005D0E4D25556FFB
:10126000000E4E21566FF2CF57FBF29E56CBAAFFCF
:1012700055CBA9FFA69CA69EA680A85057BFF28E6C
:10128000546B536F53510D0802E1545305E0505312
:1012900003E14F51290809E28B0E4F25E96E090E33
:1012A0005021EA6EEF6A13D008D08B0E4F25E96EFD
:1012B000090E5021EA6E53CBEFFF4ECB03F04D5198
:1012C0004D2BD8B44E2B4F2BD8B4502BC5D74D2B0C
:1012D000D8B44E2B506B4F6B04005D0E4D25556FEF
:1012E000000E4E21566FF2CF57FBF29E56CBAAFF4F
:1012F00055CBA9FFA69CA69EA680A85057BFF28EEC
:10130000546B536F53510D0802E1545305E0505391
:1013100003E14F51290809E2AB0E4F25E96E090E92
:101320005021EA6EEF6A13D008D0AB0E4F25E96E5C
:10133000090E5021EA6E53CBEFFF4ECB03F04D5117
:101340004D2BD8B44E2B4F2BD8B4502BC5D74D2B8B
:10135000D8B44E2B506B4F6B04005D0E4D25556F6E
:10136000000E4E21566FF2CF57FBF29E56CBAAFFCE
:1013700055CBA9FFA69CA69EA680A85057BFF28E6B
:10138000546B536F53510D0802E1545305E0505311
:1013900003E14F51290809E2CB0E4F25E96E090EF2
:1013A0005021EA6EEF6A13D008D0CB0E4F25E96EBC
:1013B000090E5021EA6E53CBEFFF4ECB03F04D5197
:1013C0004D2BD8B44E2B4F2BD8B4502BC5D74D2B0B
:1013D000D8B44E2B506B4F6B04005D0E4D25556FEE
:1013E000000E4E21566FF2CF57FBF29E56CBAAFF4E
:1013F00055CBA9FFA69CA69EA680A85057BFF28EEB
:10140000546B536F53510D0802E1545305E0505390
:1014100003E14F51290809E2EB0E4F25E96E090E51
:101420005021EA6EEF6A13D008D0EB0E4F25E96E1B
:10143000090E5021EA6E53CBEFFF4ECB03F04D5116
:101440004D2BD8B44E2B4F2BD8B4502BC5D74D2B8A
:10145000D8B44E2B506B4F6B04005D0E4D25556F6D
:10146000000E4E21566FF2CF57FBF29E56CBAAFFCD
:1014700055CBA9FFA69CA69EA680A85057BFF28E6A
:10148000546B536F53510D0802E1545305E0505310
:1014900003E14F51290809E20B0E4F25E96E0A0EB0
:1014A0005021EA6EEF6A13D008D00B0E4F25E96E7B
:1014B0000A0E5021EA6E53CBEFFF4ECB03F04D5195
:1014C0004D2BD8B44E2B4F2BD8B4502BC5D74D2B0A
:1014D000D8B44E2B506B4F6B04005D0E4D25556FED
:1014E000000E4E21566FF2CF57FBF29E56CBAAFF4D
:1014F00055CBA9FFA69CA69EA680A85057BFF28EEA
:10150000546B536F53510D0802E1545305E050538F
:1015100003E14F51290809E22B0E4F25E96E0A0E0F
:101520005021EA6EEF6A13D008D02B0E4F25E96EDA
:101530000A0E5021EA6E53CBEFFF4ECB03F04D5114
:101540004D2BD8B44E2B4F2BD8B4502BC5D74D2B89
:10155000D8B44E2B506B4F6B04005D0E4D25556F6C
:10156000000E4E21566FF2CF57FBF29E56CBAAFFCC
:1015700055CBA9FFA69CA69EA680A85057BFF28E69
:10158000546B536F53510D0802E1545305E050530F
:1015900003E14F51290809E24B0E4F25E96E0A0E6F
:1015A0005021EA6EEF6A13D008D04B0E4F25E96E3A
:1015B0000A0E5021EA6E53CBEFFF4ECB03F04D5194
:1015C0004D2BD8B44E2B4F2BD8B4502BC5D74D2B09
:1015D000D8B44E2B506B4F6B04005D0E4D25556FEC
:1015E000000E4E21566FF2CF57FBF29E56CBAAFF4C
:1015F00055CBA9FFA69CA69EA680A85057BFF28EE9
:10160000546B536F53510D0802E1545305E050538E
:1016100003E14F51290809E26B0E4F25E96E0A0ECE
:101620005021EA6EEF6A13D008D06B0E4F25E96E99
:101630000A0E5021EA6E53CBEFFF4ECB03F04D5113
:101640004D2BD8B44E2B4F2BD8B4502BC5D74D2B88
:10165000D8B44E2B506B4F6B04005D0E4D25556F6B
:10166000000E4E21566FF2CF57FBF29E56CBAAFFCB
:1016700055CBA9FFA69CA69EA680A85057BFF28E68
:10168000546B536F53510D0802E1545305E050530E
:1016900003E14F51290809E28B0E4F25E96E0A0E2E
:1016A0005021EA6EEF6A13D008D08B0E4F25E96EF9
:1016B0000A0E5021EA6E53CBEFFF4ECB03F04D5193
:1016C0004D2BD8B44E2B4F2BD8B4502BC5D74D2B08
:1016D000D8B44E2B506B4F6B04005D0E4D25556FEB
:1016E000000E4E21566FF2CF57FBF29E56CBAAFF4B
:1016F00055CBA9FFA69CA69EA680A85057BFF28EE8
:10170000546B536F53510D0802E1545305E050538D
:1017100003E14F51290809E2AB0E4F25E96E0A0E8D
:101720005021EA6EEF6A13D008D0AB0E4F25E96E58
:101730000A0E5021EA6E53CBEFFF4ECB03F04D5112
:101740004D2BD8B44E2B4F2BD8B4502BC5D70001FE
:101750001200929A899A0B014E514109516FC9505A
:1017600051CBC9FFC730FEE3C9504FCBC9FFC730CB
:10177000FEE3C950C96AC730FEE3C9CF50FB929A55
:10178000898A50CB01F0000112004CCB4EFB090EB0
:101790000B014F6F0001DDDF01C04DFB0B014DCB95
:1017A00001F0000112004CCB4EFB190E0B014F6FE4
:1017B0000001CFDF01C04DFB0B014DCB01F000015B
:1017C00012000B014F51070B006E4F31016E0132B9
:1017D00001321F0E011601505025E96E000E5121F5
:1017E000EA6EEFCF01F0002A01D00132002EFDD7C2
:1017F000010E0116000112000B0150515203F3CFEC
:1018000001F0F4CF00F05303F3500026515152037E
:10181000F3500020026E000112000B014F51070B24
:10182000006E4F31016E013201321F0E0116015060
:101830005125E96E000E5221EA6E016A012A002A42
:1018400001D00136002EFDD7505303E00150EF12B6
:1018500003D0011E0150EF16000112000B014C6B6A
:101860004C6B4CBF03D04C510A0823E3036A4C5124
:10187000006EE8BE03064D6F03C04EFB036A4C5179
:10188000006EE8BE03064F6F0A0E516FEC0E506FEC
:10189000000197DF4DCB4FFB0B01506B01B0502B7C
:1018A0000A0E526FE90E516F0001B7DF0B014C2B8E
:1018B000D8D70001D5EF0FF00B014C6B000165DFAD
:1018C00001C077F91AA803D00901771F00010A01A6
:1018D000ED97090177A103D00A01ED870901D8909E
:1018E00077310A01ED99E8B0ED8909017731006E91
:1018F00000323F0E00160A01ED9B00B0ED8B09018E
:101900007731006E003200321F0E00160A01ED9D85
:1019100000B0ED8D09017739006E0F0E00160A0137
:10192000ED9F00B0ED8F09017739006E0032070E90
:1019300000160A01EE9100B0EE8109017739006EC0
:1019400000320032030E00160A01EE9300B0EE835F
:10195000006A090177BF00800A01EE9500B0EE85AC
:101960000B014C6B00011FDF01C077F91AA803D0EF
:101970000901771F00010A01EE97090177A103D041
:101980000A01EE870901D89077310A01EE99E8B093
:10199000EE89020E0B014C6F0001F7DE01C077F9F2
:1019A0001AA803D00901771F00010A01EC9309016D
:1019B00077A103D00A01EC830901D89077310A019D
:1019C000EC95E8B0EC8509017731006E00323F0EEE
:1019D00000160A01EC9700B0EC8709017731006E20
:1019E000003200321F0E00160A01EC9900B0EC899B
:1019F00009017739006E0F0E00160A01EC9B00B04A
:101A0000EC8B09017739006E0032070E00160A01CF
:101A1000EC9D00B0EC8D09017739006E0032003288
:101A2000030E00160A01EC9F00B0EC8F006A09015A
:101A300077BF00800A01ED9100B0ED81020E0B012D
:101A40004C6F0001B0DE01C077F91AA803D009017C
:101A5000771F00010A01ED93090177A103D00A0164
:101A6000ED830901D89077310A01ED95E8B0ED8555
:101A7000010E0B014B6F4B510A08D8A094D24BCBEF
:101A80004FFB0B0E516F430E506F00019ADE015059
:101A9000010B0108D8A43BD14BCB4FFB0A0E0B0125
:101AA000516FEC0E506F00018CDE0150010BD8A479
:101AB00097D04BCB4FFB0A0E0B01516FE90E506FC5
:101AC00000017FDE0150010BD8A47CD0D8900B011F
:101AD0004B35036AEF0FE96E0A0E0320EA6E010E22
:101AE000EE2601E3EF2AD8904B35036AEF0FE96E3B
:101AF0000A0E0320EA6EECCF4DFBED52EFCF4CFB0C
:101B0000D8904B35036A190FE96E0B0E0320EA6E6D
:101B1000ECCF51FBED52EFCF50FB536B4B0E526F9E
:101B200000016ADE02C04FFB01C04EFB0F0E0B012D
:101B30000124016E000E0220036E03504D5D40E350
:101B400003E101504C5D3CE3D8904B35036AEF0F45
:101B5000E96E0A0E0320EA6EEC6AED52EF6A010E9E
:101B60004B5DF60F2DE20A0F000135EF10F00A0170
:101B7000CB910B0125D00A01CB930B0121D00A0197
:101B8000CB950B011DD00A01CB970B0119D00A018F
:101B9000CB990B0115D00A01CB9B0B0111D00A0187
:101BA000CB9D0B010DD00A01CB9F0B0109D00A017F
:101BB000CC910B0105D00A01CC930B0101D00B0194
:101BC0000DD00001D8900B014B35036AEF0FE96E81
:101BD0000A0E0320EA6EEC6AED52EF6A97D000011C
:101BE0004BCB4FFB0A0E0B01516FE90E506F0001FA
:101BF000E8DD0150010B0108D8A47CD0D8900B017E
:101C00004B35036AEF0FE96E0A0E0320EA6E010EF0
:101C1000EE2601E3EF2AD8904B35036AEF0FE96E09
:101C20000A0E0320EA6EECCF4DFBED52EFCF4CFBDA
:101C3000D8904B35036A190FE96E0B0E0320EA6E3C
:101C4000ECCF51FBED52EFCF50FB536B4B0E526F6D
:101C50000001D2DD02C04FFB01C04EFB0F0E0B0195
:101C60000124016E000E0220036E03504D5D40E31F
:101C700003E101504C5D3CE3D8904B35036AEF0F14
:101C8000E96E0A0E0320EA6EEC6AED52010EEF6E69
:101C90004B5DF60F2DE20A0F00014CEF10F00A0128
:101CA000CB810B0125D00A01CB830B0121D00A0186
:101CB000CB850B011DD00A01CB870B0119D00A017E
:101CC000CB890B0115D00A01CB8B0B0111D00A0176
:101CD000CB8D0B010DD00A01CB8F0B0109D00A016E
:101CE000CC810B0105D00A01CC830B0101D00B0183
:101CF0000DD00001D8900B014B35036AEF0FE96E50
:101D00000A0E0320EA6EEC6AED52EF6A48D14BCB23
:101D10004FFB0B0E0B01516F430E506F000151DD55
:101D20000150010BD8A43CD14BCB4FFB0A0E0B0149
:101D3000516FEC0E506F000144DD0150010B0108A2
:101D4000D8A498D04BCB4FFB0A0E0B01516FE90E74
:101D5000506F000136DD0150010B0108D8A47CD082
:101D6000D8900B014B35036AEF0FE96E0A0E032082
:101D7000EA6E010EEE2601E3EF2AD8904B35036A96
:101D8000EF0FE96E0A0E0320EA6EECCF4DFBED5229
:101D9000EFCF4CFBD8904B35036A190FE96E0B0E51
:101DA0000320EA6EECCF51FBED52EFCF50FB536BAB
:101DB0004B0E526F000120DD02C04FFB01C04EFBF5
:101DC0000F0E0B010124016E000E0220036E035062
:101DD0004D5D40E303E101504C5D3CE3D8904B3551
:101DE000036AEF0FE96E0A0E0320EA6EEC6AED5209
:101DF000EF6A010E4B5DF60F2DE20A0F000163EF53
:101E000010F00A01CB810B0125D00A01CB830B0115
:101E100021D00A01CB850B011DD00A01CB870B0114
:101E200019D00A01CB890B0115D00A01CB8B0B010C
:101E300011D00A01CB8D0B010DD00A01CB8F0B0104
:101E400009D00A01CC810B0105D00A01CC830B011A
:101E500001D00B010DD00001D8900B014B35036A66
:101E6000EF0FE96E0A0E0320EA6EEC6AED52EF6A9C
:101E700096D000014BCB4FFB0A0E0B01516FE90EC0
:101E8000506F00019EDC0150010BD8A47CD0D8908B
:101E90000B014B35036AEF0FE96E0A0E0320EA6E61
:101EA000010EEE2601E3EF2AD8904B35036AEF0FBF
:101EB000E96E0A0E0320EA6EECCF4DFBED52EFCF38
:101EC0004CFBD8904B35036A190FE96E0B0E0320BB
:101ED000EA6EECCF51FBED52EFCF50FB536B4B0E44
:101EE000526F000189DC02C04FFB01C04EFB0F0E98
:101EF0000B010124016E000E0220036E03504D5DA4
:101F000040E303E101504C5D3CE3D8904B35036A5C
:101F1000EF0FE96E0A0E0320EA6EEC6AED52EF6AEB
:101F2000010E4B5DF60F2DE20A0F00017AEF10F063
:101F30000A01CB910B0125D00A01CB930B0121D0D3
:101F40000A01CB950B011DD00A01CB970B0119D0CB
:101F50000A01CB990B0115D00A01CB9B0B0111D0C3
:101F60000A01CB9D0B010DD00A01CB9F0B0109D0BB
:101F70000A01CC910B0105D00A01CC930B0101D0D1
:101F80000B010DD00001D8900B014B35036AEF0F08
:101F9000E96E0A0E0320EA6EEC6AED52EF6A000168
:101FA0000B014B2B68D5000159D44A6A000E0A0177
:101FB000CBAF010E4A12D8904A340B014C6F000E81
:101FC0000A01CBAD010E0B014C114A6ED8904A3478
:101FD0004C6F000E0A01CBAB010E0B014C114A6E87
:101FE000D8904A344C6F000E0A01CBA9010E0B01A8
:101FF0004C114A6ED8904A344C6F000E0A01CBA7A0
:10200000010E0B014C114A6ED8904A344C6F000EF1
:102010000A01CBA5010E0B014C114A6ED8904A342F
:102020004C6F000E0A01CBA3010E0B014C114A6E3E
:10203000D8904A344C6F000E0A01CBA1010E0B015F
:102040004C114A6E4B6A000E0A01CCA3010E4B12D2
:10205000D8904B340B014C6F000E0A01CCA1010E3D
:102060000B014C114B6E00011200E824F76AF736A1
:10207000850FF66E200EF7220A00F550FA6E080062
:10208000F550F96E6E1B761B7E1B861B8E1B961BF6
:102090009E1BA61BAE1BB61BE824F76AF736B30FD0
:1020A000F66E200EF7220A00F550FA6E0800F55081
:1020B000F96E9E1CA61CAE1CB61CBE1CC61CCE1CFB
:1020C000D61CDE1CE61CE824F76AF736E10FF66E34
:1020D000200EF7220A00F550FA6E0800F550F96E4E
:1020E000021E0A1E121E1A1E221E2A1E321E3A1E10
:1020F000421E4A1EE824F76AF7360F0FF66E210ECD
:10210000F7220A00F550FA6E0800F550F96E301FFC
:10211000381F401F481F501F581F601F681F701F27
:10212000781F4BCB4DFB0A0E0B014E6F4CCB4FFB78
:10213000000106EC04F012004BCB4DFB1A0E0B0114
:102140004E6F4CCB4FFB000106EC04F012002F52F7
:10215000D8A417D10A01CDA103D052904E9014D02B
:10216000E3A105D0E5B103D04E8052900DD0E3B18C
:1021700005D0E5A103D04E90528006D0E3A104D053
:10218000E5A102D04E805280CDA303D052924E9250
:1021900014D0E3A305D0E5B303D04E8252920DD004
:1021A000E3B305D0E5A303D04E92528206D0E3A359
:1021B00004D0E5A302D04E825282CDA503D0529422
:1021C0004E9414D0E3A505D0E5B503D04E845294C7
:1021D0000DD0E3B505D0E5A503D04E94528406D0CA
:1021E000E3A504D0E5A502D04E845284CDA703D048
:1021F00052964E9614D0E3A705D0E5B703D04E868D
:1022000052960DD0E3B705D0E5A703D04E9652867F
:1022100006D0E3A704D0E5A702D04E865286CDA90A
:1022200003D052984E9814D0E3A905D0E5B903D055
:102230004E8852980DD0E3B905D0E5A903D04E9849
:10224000528806D0E3A904D0E5A902D04E8852886E
:10225000CDAB03D0529A4E9A14D0E3AB05D0E5BB78
:1022600003D04E8A529A0DD0E3BB05D0E5AB03D024
:102270004E9A528A06D0E3AB04D0E5AB02D04E8A28
:10228000528ACDAD03D0529C4E9C14D0E3AD05D004
:10229000E5BD03D04E8C529C0DD0E3BD05D0E5AD1D
:1022A00003D04E9C528C06D0E3AD04D0E5AD02D0F5
:1022B0004E8C528CCDAF03D0529E4E9E14D0E3AFC5
:1022C00005D0E5BF03D04E8E529E0DD0E3BF05D0A2
:1022D000E5AF03D04E9E528E06D0E3AF04D0E5AFFB
:1022E00002D04E8E528ECEA103D053904F9014D078
:1022F000E4A105D0E6B103D04F8053900DD0E4B1F6
:1023000005D0E6A103D04F90538006D0E4A104D0BD
:10231000E6A102D04F805380CEA303D053924F92B8
:1023200014D0E4A305D0E6B303D04F8253920DD06E
:10233000E4B305D0E6A303D04F92538206D0E4A3C2
:1023400004D0E6A302D04F825382040E0B014B6FE0
:102350004EC04CFB0001E5DE040E0B014B6F4FC07D
:102360004CFB0001E9DE060E0B014B6F52C04CFB2B
:102370000001D7DE060E0B014B6F53C04CFB000172
:10238000DBDE120005016F696E690B01596B575155
:10239000595D21E2040059515525E96E000E562180
:1023A000EA6EEF5005016F190B01586F036A58511F
:1023B000000163EC00F0016E05016E5101186F6FB2
:1023C000036A0B0158510001EBEC00F0E8CF6EF509
:1023D0000B01592BDCD7000112009EA8FED7AD6E71
:1023E00012001E6A1F6A266A276A0A01DBB104D03E
:1023F000CDB102D0E18101D0E191DBB304D0CDB306
:1024000002D0E18301D0E193DBB504D0CDB502D099
:10241000E18501D0E195DBB704D0CDB702D0E187EB
:1024200001D0E197DBB904D0CDB902D0E18901D068
:10243000E199DBBB04D0CDBB02D0E18B01D0E19BA5
:10244000DBBD04D0CDBD02D0E18D01D0E19DDBBF6D
:1024500004D0CDBF02D0E18F01D0E19FDCB104D028
:10246000CEB102D0E28101D0E291DCB304D0CEB390
:1024700002D0E28301D0E293000EE1BF010E2612EA
:10248000D89026340B01556F000E0A01E1BD010EF4
:102490000B015511266ED8902634556F000E0A0197
:1024A000E1BB010E0B015511266ED8902634556FF5
:1024B000000E0A01E1B9010E0B015511266ED890EC
:1024C0002634556F000E0A01E1B7010E0B015511BC
:1024D000266ED8902634556F000E0A01E1B5010E24
:1024E0000B015511266ED8902634556F000E0A0147
:1024F000E1B3010E0B015511266ED8902634556FAD
:10250000000E0A01E1B1010E0B015511266E000EFD
:102510000A01E2B3010E2712D89027340B01556F40
:10252000000E0A01E2B1010E0B015511276E000EDB
:102530000A01DBBF010E1E12D8901E340B01556F2D
:10254000000E0A01DBBD010E0B0155111E6ED89065
:102550001E34556F000E0A01DBBB010E0B01551135
:102560001E6ED8901E34556F000E0A01DBB9010EA5
:102570000B0155111E6ED8901E34556F000E0A01C6
:10258000DBB7010E0B0155111E6ED8901E34556F2E
:10259000000E0A01DBB5010E0B0155111E6ED8901D
:1025A0001E34556F000E0A01DBB3010E0B015511ED
:1025B0001E6ED8901E34556F000E0A01DBB1010E5D
:1025C0000B0155111E6E000E0A01DCB3010E1F1225
:1025D000D8901F340B01556F000E0A01DCB1010EBB
:1025E0000B0155111F6E00019DEF16F00400010E46
:1025F0006D5D0B01546F010E566F6E0E556F54CB0F
:1026000057FB0001BFDE010E6D5D6E0FE96E010E1E
:10261000EA6ED8B0EA2AEF5005016F5DD8A4E3EF67
:1026200021F06E0E00016D25E96E010EEA6ED8B044
:10263000EA2AEF5005016E5DD8A4E3EF21F0010115
:102640006E51AA08D8A45ED16F512008D8A45AD1DF
:102650006CC06EF0200E00016F6F1C0E706F3BC0DF
:1026600071F03CC072F03DC073F03EC074F03FC0EA
:1026700075F040C076F041C077F042C078F043C0BA
:1026800079F044C07AF045C07BF046C07CF047C08A
:102690007DF048C07EF049C07FF0F2CF54FBF29E3F
:1026A000AA6A100EA96EA69CA69EA680A8500B0131
:1026B00054BFF28E0001806FF2CF54FBF29EAA6AE3
:1026C000110EA96EA69CA69EA680A8500B0154BF11
:1026D000F28E0001816FF2CF54FBF29EAA6A120EB5
:1026E000A96EA69CA69EA680A8500B0154BFF28E90
:1026F0000001826FF2CF54FBF29EAA6A130EA96EFC
:10270000A69CA69EA680A8500B0154BFF28E000185
:10271000836FF2CF54FBF29EAA6A140EA96EA69C98
:10272000A69EA680A8500B0154BFF28E0001846FB4
:10273000F2CF54FBF29EAA6A150EA96EA69CA69E25
:10274000A680A8500B0154BFF28E0001856FF2CF16
:1027500054FBF29EAA6A160EA96EA69CA69EA6809F
:10276000A8500B0154BFF28E0001866FF2CF54FBCC
:10277000F29EAA6A170EA96EA69CA69EA680A850D5
:102780000B0154BFF28E0001876F5EC088F05FC0FE
:1027900089F060C08AF061C08BF0190E8C6F6CC03C
:1027A0008DF01BCB8EF01DCB8FF01FCB90F021CB8B
:1027B00091F023CB92F025CB93F027CB94F029CB4B
:1027C00095F02BCB96F02DCB97F02FCB98F031CB0B
:1027D00099F033CB9AF035CB9BF037CB9CF039CBCB
:1027E0009DF03BCB9EF03DCB9FF03FCBA0F041CB8B
:1027F000A1F00B01566B6E0E556F340E576F000132
:10280000C1DD6FC5A2F06EC5A3F08A8693960A0E4D
:102810000B01546F0001EEEC03F06E51DEDD6F51E1
:10282000DCDD7051DADD7151D8DD7251D6DD7351C6
:10283000D4DD7451D2DD7551D0DD7651CEDD7751C6
:10284000CCDD7851CADD7951C8DD7A51C6DD7B51C6
:10285000C4DD7C51C2DD7D51C0DD7E51BEDD7F51C6
:10286000BCDD8051BADD8151B8DD8251B6DD8351C6
:10287000B4DD8451B2DD8551B0DD8651AEDD8751C6
:10288000ACDD8851AADD8951A8DD8A51A6DD8B51C6
:10289000A4DD8C51A2DD8D51A0DD8E519EDD8F51C6
:1028A0009CDD90519ADD915198DD925196DD9351C6
:1028B00094DD945192DD955190DD96518EDD9751C6
:1028C0008CDD98518ADD995188DD9A5186DD9B51C6
:1028D00084DD9C5182DD9D5180DD9E517EDD9F51C6
:1028E0007CDDA0517ADDA15178DDA25176DDA351C6
:1028F00074DD030E0B01546F0001EEEC03F08A96B9
:102900009396010100016C5101016E5DD8A4DEEFC8
:1029100021F06F2D0BD20501736B70C172F572C57A
:1029200073F50B01546B5451010171110501726F64
:102930000501756B72C174F574C575F50B01546BA7
:102940005451010173110501746F05017353D8A42B
:10295000B4D172510F08D8A0B0D1745172250B01B7
:10296000546F0501755173210B01556F5553D8B440
:1029700002D00501A2D154511008D8B002D00501EF
:102980009CD10501755306E17451080803E3010E5B
:10299000766F12D0755306E17451100803E3020EEE
:1029A000766F0AD0755306E17451180803E3030EDD
:1029B000766F02D0010E766F762D9BD073530DE1AA
:1029C000725108080AE34AC077F57251016E04E0BB
:1029D000D8907733012EFCD71AD0735303E172518C
:1029E000080815E2735313E172510F0810E3080E43
:1029F000725D006E000E7359036E00C001F032C0AC
:102A000077F5015204E0D8907733012EFCD774514A
:102A1000080803E1755301E135D07451070804E15A
:102A2000755302E1779F2ED07451060805E1755366
:102A300003E13F0E771726D07451050805E1755361
:102A400003E11F0E77171ED07451040805E175537A
:102A500003E10F0E771716D07451030805E1755383
:102A600003E1070E77170ED07451020805E1755384
:102A700003E1030E771706D0742D04D0755302E1DD
:102A8000010E77176CC06EF0010E00016F6F76C5F6
:102A900070F077C571F00B01566B6E0E556F040E1A
:102AA000576F00016FDC6FC572F06EC573F08A86D8
:102AB00093960400040E0B01546F0001EEEC03F03A
:102AC00004006E518ADC6F5188DC705186DC7151D4
:102AD00084DC725182DC735180DC0400030E0B0134
:102AE000546F0001EEEC03F004008A969396E3D055
:102AF000050176510208D8A4DFD04AC077F572519B
:102B0000016E04E0D8907733012EFCD74BC078F5E6
:102B1000070E745D0B01546F000E050175590B0112
:102B2000556F5451080803E1555301E183D0070E56
:102B30000501745D0B01546F000E050175590B0101
:102B4000556F5451070805E1555303E10501789F7E
:102B500070D0070E0501745D0B01546F000E050166
:102B600075590B01556F5451060806E1555304E1A0
:102B70003F0E050178175DD0070E0501745D0B014E
:102B8000546F000E050175590B01556F545105081E
:102B900006E1555304E11F0E050178174AD0070ED0
:102BA0000501745D0B01546F000E050175590B0191
:102BB000556F5451040806E1555304E10F0E050109
:102BC000781737D0070E0501745D0B01546F000EA6
:102BD000050175590B01556F5451030806E1555312
:102BE00004E1070E0501781724D0070E0501745D76
:102BF0000B01546F000E050175590B01556F5451AF
:102C0000020806E1555304E1030E0501781711D0BF
:102C1000070E0501745D0B01546F000E0501755917
:102C20000B01556F542D06D0555304E1010E0501DB
:102C300078170B016CC06EF0010E00016F6F76C546
:102C400070F077C571F078C572F00B01566B6E0E9F
:102C5000556F050E576F0001C2EC11F06FC573F090
:102C60006EC574F08A8693960400040E0B01546FAF
:102C70000001EEEC03F004006E51EDEC11F06F5129
:102C8000EDEC11F07051EDEC11F07151EDEC11F033
:102C90007251EDEC11F07351EDEC11F07451EDEC5B
:102CA00011F00400030E0B01546F0001EEEC03F071
:102CB00004008A969396050138D06CC06EF0810EA0
:102CC00000016F6F020E706F0B01566B6E0E556F29
:102CD000030E576F0001C2EC11F06FC571F06EC5A5
:102CE00072F08A8693960400040E0B01546F000163
:102CF000EEEC03F004006E51EDEC11F06F51EDECD1
:102D000011F07051EDEC11F07151EDEC11F07251C8
:102D1000EDEC11F00400030E0B01546F0001EEEC1A
:102D200003F004008A969396050101016F5107088C
:102D3000D8A4B1D00001F1EF11F09D921EC077F53B
:102D40001FC078F520C079F521C07AF522C07BF547
:102D500023C07CF524C07DF525C07EF526C07FF517
:102D600027C080F528C081F529C082F52AC083F5E7
:102D70002BC084F52CC085F52DC086F56CC06EF097
:102D8000070E6F6F100E0501766F76C570F077C570
:102D900071F078C572F079C573F07AC574F07BC5AF
:102DA00075F07CC576F07DC577F07EC578F07FC57F
:102DB00079F080C57AF081C57BF082C57CF083C54F
:102DC0007DF084C57EF085C57FF086C580F00B015F
:102DD000566B6E0E556F130E576F0001C2EC11F05B
:102DE0006FC581F06EC582F08A8693960400040E4A
:102DF0000B01546F0001EEEC03F004006E51EDEC9A
:102E000011F06F51EDEC11F07051EDEC11F07151CA
:102E1000EDEC11F07251EDEC11F07351EDEC11F09D
:102E20007451EDEC11F07551EDEC11F07651EDECC3
:102E300011F07751EDEC11F07851EDEC11F0795182
:102E4000EDEC11F07A51EDEC11F07B51EDEC11F05D
:102E50007C51EDEC11F07D51EDEC11F07E51EDEC7B
:102E600011F07F51EDEC11F08051EDEC11F081513A
:102E7000EDEC11F08251EDEC11F00400030E0B01AA
:102E8000546F0001EEEC03F004008A9693969D8245
:102E900094EF21F001016F512108D8A402EF1CF03A
:102EA000F250006EF29EAA6AA96A0F0EA86EA69C46
:102EB000A69EA6840F01550EA76EAA0EA76EA68227
:102EC000A6B2FED7A6940050F212F2CF00F0F29E06
:102ED000AA6A010EA96E71C1A8FFA69CA69EA6842F
:102EE000550EA76EAA0EA76EA682A6B2FED7A6940E
:102EF0000050F212F2CF00F0F29EAA6A020EA96E02
:102F000072C1A8FFA69CA69EA684550EA76EAA0E07
:102F1000A76EA682A6B2FED7A6940050F212F2CFF8
:102F200000F0F29EAA6A030EA96E73C1A8FFA69CC8
:102F3000A69EA684550EA76EAA0EA76EA682A6B25E
:102F4000FED7A6940050F212F2CF00F0F29EAA6AC9
:102F5000040EA96E74C1A8FFA69CA69EA684550E59
:102F6000A76EAA0EA76EA682A6B2FED7A6940050A0
:102F7000F212F2CF00F0F29EAA6A050EA96E75C198
:102F8000A8FFA69CA69EA684550EA76EAA0EA76EA5
:102F9000A682A6B2FED7A6940050F212F2CF00F09D
:102FA000F29EAA6A060EA96E76C1A8FFA69CA69EEE
:102FB000A684550EA76EAA0EA76EA682A6B2FED74D
:102FC000A6940050F212F2CF00F0F29EAA6A070E09
:102FD000A96E77C1A8FFA69CA69EA684550EA76ED3
:102FE000AA0EA76EA682A6B2FED7A6940050F21231
:102FF000F2CF00F0F29EAA6A080EA96E78C1A8FF6F
:10300000A69CA69EA684550EA76EAA0EA76EA682A3
:10301000A6B2FED7A6940050F212F2CF00F0F29EB4
:10302000AA6A090EA96E79C1A8FFA69CA69EA684CD
:10303000550EA76EAA0EA76EA682A6B2FED7A694BC
:103040000050F212F2CF00F0F29EAA6A0A0EA96EA8
:103050007AC1A8FFA69CA69EA684550EA76EAA0EAE
:10306000A76EA682A6B2FED7A6940050F212F2CFA7
:1030700000F0F29EAA6A0B0EA96E7BC1A8FFA69C67
:10308000A69EA684550EA76EAA0EA76EA682A6B20D
:10309000FED7A6940050F212F2CF00F0F29EAA6A78
:1030A0000C0EA96E7CC1A8FFA69CA69EA684550EF8
:1030B000A76EAA0EA76EA682A6B2FED7A69400504F
:1030C000F212F2CF00F0F29EAA6A0D0EA96E7DC137
:1030D000A8FFA69CA69EA684550EA76EAA0EA76E54
:1030E000A682A6B2FED7A6940050F212F2CF00F04C
:1030F000F29EAA6A0E0EA96E7EC1A8FFA69CA69E8D
:10310000A684550EA76EAA0EA76EA682A6B2FED7FB
:10311000A6940050F212F2CF00F0F29EAA6A0F0EAF
:10312000A96E7FC1A8FFA69CA69EA684550EA76E79
:10313000AA0EA76EA682A6B2FED7A6940050F212DF
:10314000F2CF00F0F29EAA6A100EA96E80C1A8FF0D
:10315000A69CA69EA684550EA76EAA0EA76EA68252
:10316000A6B2FED7A6940050F212F2CF00F0F29E63
:10317000AA6A110EA96E81C1A8FFA69CA69EA6846C
:10318000550EA76EAA0EA76EA682A6B2FED7A6946B
:103190000050F212F2CF00F0F29EAA6A120EA96E4F
:1031A00082C1A8FFA69CA69EA684550EA76EAA0E55
:1031B000A76EA682A6B2FED7A6940050F212F2CF56
:1031C00000F0F29EAA6A130EA96E83C1A8FFA69C06
:1031D000A69EA684550EA76EAA0EA76EA682A6B2BC
:1031E000FED7A6940050F212F2CF00F0F29EAA6A27
:1031F000140EA96E84C1A8FFA69CA69EA684550E97
:10320000A76EAA0EA76EA682A6B2FED7A6940050FD
:10321000F212F2CF00F0F29EAA6A150EA96E85C1D5
:10322000A8FFA69CA69EA684550EA76EAA0EA76E02
:10323000A682A6B2FED7A6940050F212F2CF00F0FA
:10324000F29EAA6A160EA96E86C1A8FFA69CA69E2B
:10325000A684550EA76EAA0EA76EA682A6B2FED7AA
:10326000A6940050F212F2CF00F0F29EAA6A170E56
:10327000A96E87C1A8FFA69CA69EA684550EA76E20
:10328000AA0EA76EA682A6B2FED7A6940050F2128E
:10329000F2CF00F0F29EAA6A180EA96E88C1A8FFAC
:1032A000A69CA69EA684550EA76EAA0EA76EA68201
:1032B000A6B2FED7A6940050F212F2CF00F0F29E12
:1032C000AA6A190EA96E89C1A8FFA69CA69EA6840B
:1032D000550EA76EAA0EA76EA682A6B2FED7A6941A
:1032E0000050F212F2CF00F0F29EAA6A1A0EA96EF6
:1032F0008AC1A8FFA69CA69EA684550EA76EAA0EFC
:10330000A76EA682A6B2FED7A6940050F212F2CF04
:1033100000F0F29EAA6A1B0EA96E8BC1A8FFA69CA4
:10332000A69EA684550EA76EAA0EA76EA682A6B26A
:10333000FED7A6940050F212F2CF00F0F29EAA6AD5
:103340001C0EA96E8CC1A8FFA69CA69EA684550E35
:10335000A76EAA0EA76EA682A6B2FED7A6940050AC
:10336000F212F2CF00F0F29EAA6A1D0EA96E8DC174
:10337000A8FFA69CA69EA684550EA76EAA0EA76EB1
:10338000A682A6B2FED7A6940050F212F2CF00F0A9
:10339000F29EAA6A1E0EA96E8EC1A8FFA69CA69ECA
:1033A000A684550EA76EAA0EA76EA682A6B2FED759
:1033B000A6940050F212F2CF00F0F29EAA6A1F0EFD
:1033C000A96E8FC1A8FFA69CA69EA684550EA76EC7
:1033D000AA0EA76EA682A6B2FED7A6940050F2123D
:1033E000F2CF00F0F29EAA6A200EA96E90C1A8FF4B
:1033F000A69CA69EA684550EA76EAA0EA76EA682B0
:10340000A6B2FED7A6940050F212F2CF00F0F29EC0
:10341000AA6A210EA96E91C1A8FFA69CA69EA684A9
:10342000550EA76EAA0EA76EA682A6B2FED7A694C8
:103430000050F212F2CF00F0F29EAA6A220EA96E9C
:1034400092C1A8FFA69CA69EA684550EA76EAA0EA2
:10345000A76EA682A6B2FED7A6940050F212F2CFB3
:1034600000F0F29EAA6A230EA96E93C1A8FFA69C43
:10347000A69EA684550EA76EAA0EA76EA682A6B219
:10348000FED7A6940050F212F2CF00F0F29EAA6A84
:10349000240EA96E94C1A8FFA69CA69EA684550ED4
:1034A000A76EAA0EA76EA682A6B2FED7A69400505B
:1034B000F212F2CF00F0F29EAA6A250EA96E95C113
:1034C000A8FFA69CA69EA684550EA76EAA0EA76E60
:1034D000A682A6B2FED7A6940050F212F2CF00F058
:1034E000F29EAA6A260EA96E96C1A8FFA69CA69E69
:1034F000A684550EA76EAA0EA76EA682A6B2FED708
:10350000A6940050F212F2CF00F0F29EAA6A270EA3
:10351000A96E97C1A8FFA69CA69EA684550EA76E6D
:10352000AA0EA76EA682A6B2FED7A6940050F212EB
:10353000F2CF00F0F29EAA6A280EA96E98C1A8FFE9
:10354000A69CA69EA684550EA76EAA0EA76EA6825E
:10355000A6B2FED7A6940050F212F2CF00F0F29E6F
:10356000AA6A290EA96E99C1A8FFA69CA69EA68448
:10357000550EA76EAA0EA76EA682A6B2FED7A69477
:103580000050F212F2CF00F0F29EAA6A2A0EA96E43
:103590009AC1A8FFA69CA69EA684550EA76EAA0E49
:1035A000A76EA682A6B2FED7A6940050F212F2CF62
:1035B00000F0F29EAA6A2B0EA96E9BC1A8FFA69CE2
:1035C000A69EA684550EA76EAA0EA76EA682A6B2C8
:1035D000FED7A6940050F212F2CF00F0F29EAA6A33
:1035E0002C0EA96E9CC1A8FFA69CA69EA684550E73
:1035F000A76EAA0EA76EA682A6B2FED7A69400500A
:10360000F212F2CF00F0F29EAA6A2D0EA96E9DC1B1
:10361000A8FFA69CA69EA684550EA76EAA0EA76E0E
:10362000A682A6B2FED7A6940050F212F2CF00F006
:10363000F29EAA6A2E0EA96E9EC1A8FFA69CA69E07
:10364000A684550EA76EAA0EA76EA682A6B2FED7B6
:10365000A6940050F212F2CF00F0F29EAA6A2F0E4A
:10366000A96E9FC1A8FFA69CA69EA684550EA76E14
:10367000AA0EA76EA682A6B2FED7A6940050F2129A
:10368000F2CF00F0F29EAA6A300EA96EA0C1A8FF88
:10369000A69CA69EA684550EA76EAA0EA76EA6820D
:1036A000A6B2FED7A6940050F212F2CF00F0F29E1E
:1036B000AA6A310EA96EA1C1A8FFA69CA69EA684E7
:1036C000550EA76EAA0EA76EA682A6B2FED7A69426
:1036D0000050F2120B014C6B4B6B0400A20E4B25F9
:1036E000E96E010E4C21EA6EEFCF4DFB4D510D08F6
:1036F00005E04C5303E14B510F0827E27C0E4B25AC
:10370000E96E090E4C21EA6EEF6A320E4B25546FBA
:10371000000E4C21556FF250006EF29E55CBAAFF61
:1037200054CBA9FF4DCBA8FFA69CA69EA6840F0153
:10373000550EA76EAA0EA76EA682A6B2FED7A694B5
:103740000050F2122DD026D00B017C0E4B25E96ED5
:10375000090E4C21EA6E4DCBEFFF320E4B25546F14
:10376000000E4C21556FF250006EF29E55CBAAFF11
:1037700054CBA9FF4DCBA8FFA69CA69EA6840F0103
:10378000550EA76EAA0EA76EA682A6B2FED7A69465
:103790000050F2120B014B2BD8B44C2B9ED70F01CB
:1037A0006CC06EF0210E00016F6F0B01566B6E0E38
:1037B000556F020E576F0001C2EC11F06FC570F02B
:1037C0006EC571F08A8693960A0E0B01546F000144
:1037D000EEEC03F06E51EDEC11F06F51EDEC11F0E9
:1037E0007051EDEC11F07151EDEC11F0030E0B0185
:1037F000546F0001EEEC03F08A969396FF0094EF6D
:1038000021F001016F512208D8A495EF21F00B019E
:103810004F6B030E4E6F516B506B536B526B04002A
:103820006E0E4E25E96E010E4F21EA6EEF500D0827
:1038300005E0515303E15051290828E25D0E4E2561
:10384000546F000E4F21556F6E0E4E25E96E010E1E
:103850004F21EA6EEFCF56FBF250006EF29E55CB31
:10386000AAFF54CBA9FF56CBA8FFA69CA69EA68470
:103870000F01550EA76EAA0EA76EA682A6B2FED79E
:10388000A6940050F21247D03AD00B018B0E50256F
:10389000016E090E5121036E6E0E4E25E96E010E6A
:1038A0004F21EA6EEFCF56FB03C0EAFF01C0E9FFEC
:1038B00056CBEFFF5D0E4E25546F000E4F21556F16
:1038C0006E0E4E25E96E010E4F21EA6EEFCF56FBCC
:1038D000F250006EF29E55CBAAFF54CBA9FF56CBF7
:1038E000A8FFA69CA69EA6840F01550EA76EAA0E41
:1038F000A76EA682A6B2FED7A6940050F2120B01C4
:103900004FCB03F04E514E2BD8B44F2B502BD8B485
:10391000512B85D70F018B0E0B015025E96E090E37
:103920005121EA6EEF6A516B506B4E2BD8B44F2B7E
:1039300004006E0E4E25E96E010E4F21EA6EEF5027
:103940000D0805E0515303E15051290828E25D0EAE
:103950004E25546F000E4F21556F6E0E4E25E96EA9
:10396000010E4F21EA6EEFCF56FBF250006EF29E31
:1039700055CBAAFF54CBA9FF56CBA8FFA69CA69E69
:10398000A6840F01550EA76EAA0EA76EA682A6B238
:10399000FED7A6940050F21247D03AD00B01AB0EDE
:1039A0005025016E090E5121036E6E0E4E25E96EF3
:1039B000010E4F21EA6EEFCF56FB03C0EAFF01C0B4
:1039C000E9FF56CBEFFF5D0E4E25546F000E4F21E1
:1039D000556F6E0E4E25E96E010E4F21EA6EEFCF48
:1039E00056FBF250006EF29E55CBAAFF54CBA9FFB6
:1039F00056CBA8FFA69CA69EA6840F01550EA76EC7
:103A0000AA0EA76EA682A6B2FED7A6940050F21206
:103A10000B014FCB03F04E514E2BD8B44F2B502BF4
:103A2000D8B4512B85D70F01AB0E0B015025E96E91
:103A3000090E5121EA6EEF6A516B506B4E2BD8B4D0
:103A40004F2B04006E0E4E25E96E010E4F21EA6EDB
:103A5000EF500D0805E0515303E15051290828E2C9
:103A60005D0E4E25546F000E4F21556F6E0E4E2584
:103A7000E96E010E4F21EA6EEFCF56FBF250006E59
:103A8000F29E55CBAAFF54CBA9FF56CBA8FFA69C0C
:103A9000A69EA6840F01550EA76EAA0EA76EA6823B
:103AA000A6B2FED7A6940050F21247D03AD00B012E
:103AB000CB0E5025016E090E5121036E6E0E4E2560
:103AC000E96E010E4F21EA6EEFCF56FB03C0EAFF0D
:103AD00001C0E9FF56CBEFFF5D0E4E25546F000E7F
:103AE0004F21556F6E0E4E25E96E010E4F21EA6E85
:103AF000EFCF56FBF250006EF29E55CBAAFF54CB8F
:103B0000A9FF56CBA8FFA69CA69EA6840F01550E22
:103B1000A76EAA0EA76EA682A6B2FED7A6940050E4
:103B2000F2120B014FCB03F04E514E2BD8B44F2B5A
:103B3000502BD8B4512B85D70F01CB0E0B0150253C
:103B4000E96E090E5121EA6EEF6A516B506B4E2BF4
:103B5000D8B44F2B04006E0E4E25E96E010E4F2196
:103B6000EA6EEF500D0805E0515303E1505129086A
:103B700028E25D0E4E25546F000E4F21556F6E0EDC
:103B80004E25E96E010E4F21EA6EEFCF56FBF25043
:103B9000006EF29E55CBAAFF54CBA9FF56CBA8FFCF
:103BA000A69CA69EA6840F01550EA76EAA0EA76E10
:103BB000A682A6B2FED7A6940050F21247D03AD001
:103BC0000B01EB0E5025016E090E5121036E6E0E96
:103BD0004E25E96E010E4F21EA6EEFCF56FB03C072
:103BE000EAFF01C0E9FF56CBEFFF5D0E4E25546F93
:103BF000000E4F21556F6E0E4E25E96E010E4F21BE
:103C0000EA6EEFCF56FBF250006EF29E55CBAAFF44
:103C100054CBA9FF56CBA8FFA69CA69EA6840F0155
:103C2000550EA76EAA0EA76EA682A6B2FED7A694C0
:103C30000050F2120B014FCB03F04E514E2BD8B473
:103C40004F2B502BD8B4512B85D70F01EB0E0B0106
:103C50005025E96E090E5121EA6EEF6A516B506BE7
:103C60004E2BD8B44F2B04006E0E4E25E96E010E7C
:103C70004F21EA6EEF500D0805E0515303E150511A
:103C8000290828E25D0E4E25546F000E4F21556F16
:103C90006E0E4E25E96E010E4F21EA6EEFCF56FBF8
:103CA000F250006EF29E55CBAAFF54CBA9FF56CB23
:103CB000A8FFA69CA69EA6840F01550EA76EAA0E6D
:103CC000A76EA682A6B2FED7A6940050F21247D0E5
:103CD0003AD00B010B0E5025016E0A0E5121036ED6
:103CE0006E0E4E25E96E010E4F21EA6EEFCF56FBA8
:103CF00003C0EAFF01C0E9FF56CBEFFF5D0E4E2582
:103D0000546F000E4F21556F6E0E4E25E96E010E59
:103D10004F21EA6EEFCF56FBF250006EF29E55CB6C
:103D2000AAFF54CBA9FF56CBA8FFA69CA69EA684AB
:103D30000F01550EA76EAA0EA76EA682A6B2FED7D9
:103D4000A6940050F2120B014FCB03F04E514E2BB4
:103D5000D8B44F2B502BD8B4512B85D70F010B0E55
:103D60000B015025E96E0A0E5121EA6EEF6A516B84
:103D7000506B4E2BD8B44F2B04006E0E4E25E96EBF
:103D8000010E4F21EA6EEF500D0805E0515303E19B
:103D90005051290828E25D0E4E25546F000E4F2128
:103DA000556F6E0E4E25E96E010E4F21EA6EEFCF74
:103DB00056FBF250006EF29E55CBAAFF54CBA9FFE2
:103DC00056CBA8FFA69CA69EA6840F01550EA76EF3
:103DD000AA0EA76EA682A6B2FED7A6940050F21233
:103DE00049D03CD00B015D0E4E25546F000E4F2183
:103DF000556F6E0E4E25E96E010E4F21EA6EEFCF24
:103E000056FBF250006EF29E55CBAAFF54CBA9FF91
:103E100056CBA8FFA69CA69EA6840F01550EA76EA2
:103E2000AA0EA76EA682A6B2FED7A6940050F212E2
:103E30002B0E0B015025016E0A0E5121036E6E0EE2
:103E40004E25E96E010E4F21EA6EEFCF56FB03C0FF
:103E5000EAFF01C0E9FF56CBEFFF0F010B014FCB8B
:103E600003F04E514E2BD8B44F2B502BD8B4512BBE
:103E700083D70F012B0E0B015025E96E0A0E51213D
:103E8000EA6EEF6A516B506B4E2BD8B44F2B040087
:103E90006E0E4E25E96E010E4F21EA6EEF500D08B1
:103EA00005E0515303E15051290828E25D0E4E25EB
:103EB000546F000E4F21556F6E0E4E25E96E010EA8
:103EC0004F21EA6EEFCF56FBF250006EF29E55CBBB
:103ED000AAFF54CBA9FF56CBA8FFA69CA69EA684FA
:103EE0000F01550EA76EAA0EA76EA682A6B2FED728
:103EF000A6940050F21247D03AD00B014B0E502539
:103F0000016E0A0E5121036E6E0E4E25E96E010EF2
:103F10004F21EA6EEFCF56FB03C0EAFF01C0E9FF75
:103F200056CBEFFF5D0E4E25546F000E4F21556F9F
:103F30006E0E4E25E96E010E4F21EA6EEFCF56FB55
:103F4000F250006EF29E55CBAAFF54CBA9FF56CB80
:103F5000A8FFA69CA69EA6840F01550EA76EAA0ECA
:103F6000A76EA682A6B2FED7A6940050F2120B014D
:103F70004FCB03F04E514E2BD8B44F2B502BD8B40F
:103F8000512B85D70F014B0E0B015025E96E0A0E00
:103F90005121EA6EEF6A516B506B4E2BD8B44F2B08
:103FA00004006E0E4E25E96E010E4F21EA6EEF50B1
:103FB0000D0805E0515303E15051290828E25D0E38
:103FC0004E25546F000E4F21556F6E0E4E25E96E33
:103FD000010E4F21EA6EEFCF56FBF250006EF29EBB
:103FE00055CBAAFF54CBA9FF56CBA8FFA69CA69EF3
:103FF000A6840F01550EA76EAA0EA76EA682A6B2C2
:10400000FED7A6940050F21247D03AD00B016B0EA7
:104010005025016E0A0E5121036E6E0E4E25E96E7B
:10402000010E4F21EA6EEFCF56FB03C0EAFF01C03D
:10403000E9FF56CBEFFF5D0E4E25546F000E4F216A
:10404000556F6E0E4E25E96E010E4F21EA6EEFCFD1
:1040500056FBF250006EF29E55CBAAFF54CBA9FF3F
:1040600056CBA8FFA69CA69EA6840F01550EA76E50
:10407000AA0EA76EA682A6B2FED7A6940050F21290
:104080000B014FCB03F04E514E2BD8B44F2B502B7E
:10409000D8B4512B85D70F016B0E0B015025E96E5B
:1040A0000A0E5121EA6EEF6A516B506B4E2BD8B459
:1040B0004F2B04006E0E4E25E96E010E4F21EA6E65
:1040C000EF500D0805E0515303E15051290828E253
:1040D0005D0E4E25546F000E4F21556F6E0E4E250E
:1040E000E96E010E4F21EA6EEFCF56FBF250006EE3
:1040F000F29E55CBAAFF54CBA9FF56CBA8FFA69C96
:10410000A69EA6840F01550EA76EAA0EA76EA682C4
:10411000A6B2FED7A6940050F21247D03AD00B01B7
:104120008B0E5025016E0A0E5121036E6E0E4E2528
:10413000E96E010E4F21EA6EEFCF56FB03C0EAFF96
:1041400001C0E9FF56CBEFFF5D0E4E25546F000E08
:104150004F21556F6E0E4E25E96E010E4F21EA6E0E
:10416000EFCF56FBF250006EF29E55CBAAFF54CB18
:10417000A9FF56CBA8FFA69CA69EA6840F01550EAC
:10418000A76EAA0EA76EA682A6B2FED7A69400506E
:10419000F2120B014FCB03F04E514E2BD8B44F2BE4
:1041A000502BD8B4512B85D70F018B0E0B01502506
:1041B000E96E0A0E5121EA6EEF6A516B506B4E2B7D
:1041C000D8B44F2B04006E0E4E25E96E010E4F2120
:1041D000EA6EEF500D0805E0515303E150512908F4
:1041E00028E25D0E4E25546F000E4F21556F6E0E66
:1041F0004E25E96E010E4F21EA6EEFCF56FBF250CD
:10420000006EF29E55CBAAFF54CBA9FF56CBA8FF58
:10421000A69CA69EA6840F01550EA76EAA0EA76E99
:10422000A682A6B2FED7A6940050F21247D03AD08A
:104230000B01AB0E5025016E0A0E5121036E6E0E5E
:104240004E25E96E010E4F21EA6EEFCF56FB03C0FB
:10425000EAFF01C0E9FF56CBEFFF5D0E4E25546F1C
:10426000000E4F21556F6E0E4E25E96E010E4F2147
:10427000EA6EEFCF56FBF250006EF29E55CBAAFFCE
:1042800054CBA9FF56CBA8FFA69CA69EA6840F01DF
:10429000550EA76EAA0EA76EA682A6B2FED7A6944A
:1042A0000050F2120B014FCB03F04E514E2BD8B4FD
:1042B0004F2B502BD8B4512B85D70F01AB0E0B01D0
:1042C0005025E96E0A0E5121EA6EEF6A6CC06EF05D
:1042D000210E00016F6F0B01566B6E0E556F020EB3
:1042E000576F0001C2EC11F06FC570F06EC571F030
:1042F0008A8693960A0E0B01546F0001EEEC03F0D0
:104300006E51EDEC11F06F51EDEC11F07051EDECE0
:1043100011F07151EDEC11F0030E0B01546F00011F
:10432000EEEC03F08A96939601016F51030846E183
:104330004BC077F54AC078F56CC06EF0030E0001F3
:104340006F6F020E706F77C571F078C572F00B0158
:10435000566B6E0E556F050E576F0001C2EC11F0D3
:104360006FC573F06EC574F08A8693960400040ED0
:104370000B01546F0001EEEC03F004006E51EDEC04
:1043800011F06F51EDEC11F07051EDEC11F0715135
:10439000EDEC11F07251EDEC11F07351EDEC11F008
:1043A0007451EDEC11F00400030E0B01546F000189
:1043B000EEEC03F004008A9693960101010E0501CC
:1043C000716FF40E706F309A63C06BF00901796BF6
:1043D00000016D6B8A9693964FEF3BF0948082B00C
:1043E00002D01AAE02D01AA406D0320E0B01546FBE
:1043F0000001EEEC03F0948082B002D01AAE02D03D
:104400001AA45AD01A941D6A0A01DBB102D0DDA1A8
:1044100004D0D981DB91DD91CD91DBB302D0DDA356
:1044200004D0D983DB93DD93CD93DBB502D0DDA53A
:1044300004D0D985DB95DD95CD95DBB702D0DDA71E
:1044400004D0D987DB97DD97CD97DBB902D0DDA902
:1044500004D0D989DB99DD99CD99DBBB02D0DDABE6
:1044600004D0D98BDB9BDD9BCD9BDBBD02D0DDADCA
:1044700004D0D98DDB9DDD9DCD9DDBBF02D0DDAFAE
:1044800004D0D98FDB9FDD9FCD9FDCB102D0DEA1B0
:1044900004D0DA81DC91DE91CE91DCB302D0DEA3D0
:1044A00004D0DA83DC93DE93CE931A8E89989298A7
:1044B0008996929608D00001948082A003D01AAE0B
:1044C00001D01A9E0A01000152EF3BF0948282B2A1
:1044D00002D030A002D01AA606D0320E0B01546FC3
:1044E0000001EEEC03F0948282B202D030A002D040
:1044F0001AA6CCD01A96000E0A01CBB1010E0B0100
:104500004C6F000E0A01CFB1010E0B014C1907E1EF
:104510000A01DBA102D00B0102D0CD810B01000EFC
:104520000A01CBB3010E0B014C6F000E0A01CFB391
:10453000010E0B014C1907E10A01DBA302D00B01AC
:1045400002D0CD830B01000E0A01CBB5010E0B0189
:104550004C6F000E0A01CFB5010E0B014C1907E19B
:104560000A01DBA502D00B0102D0CD850B01000EA4
:104570000A01CBB7010E0B014C6F000E0A01CFB739
:10458000010E0B014C1907E10A01DBA702D00B0158
:1045900002D0CD870B01000E0A01CBB9010E0B0131
:1045A0004C6F000E0A01CFB9010E0B014C1907E147
:1045B0000A01DBA902D00B0102D0CD890B01000E4C
:1045C0000A01CBBB010E0B014C6F000E0A01CFBBE1
:1045D000010E0B014C1907E10A01DBAB02D00B0104
:1045E00002D0CD8B0B01000E0A01CBBD010E0B01D9
:1045F0004C6F000E0A01CFBD010E0B014C1907E1F3
:104600000A01DBAD02D00B0102D0CD8D0B01000EF3
:104610000A01CBBF010E0B014C6F000E0A01CFBF88
:10462000010E0B014C1907E10A01DBAF02D00B01AF
:1046300002D0CD8F0B01000E0A01CCB1010E0B018F
:104640004C6F000E0A01D0B1010E0B014C1907E1AD
:104650000A01DCA102D00B0102D0CE810B01000EB9
:104660000A01CCB3010E0B014C6F000E0A01D0B34E
:10467000010E0B014C1907E10A01DCA302D00B016A
:1046800002D0CE830B01308008D00001948282A238
:1046900003D030A001D030900B01000154EF3BF06B
:1046A00061510A0820E10A01CB91CFA1CB81CB93C4
:1046B000CFA3CB83CB95CFA5CB85CB97CFA7CB87EC
:1046C000CB99CFA9CB89CB9BCFABCB8BCB9DCFADA0
:1046D000CB8DCB9FCFAFCB8FCC91D0A1CC81CC93C6
:1046E000D0A3CC8300010A01D991D993D995D99748
:1046F000D999D99BD99DD99FDA91DA930001A3EF7B
:1047000037F093908A90080E016E00D00000018E61
:1047100010D0019E0B0155330001D8B08A80D8A07B
:104720008A90018C06D0019C012EF4D700D00000A5
:104730008A80840EE96EE92EFED700D0000001BE0B
:10474000E8D701BCF0D712000900F5520CE0F6CF13
:1047500053FBF7CF54FBF5CF55FBD3DF53CBF6FF1D
:1047600054CBF7FFF1D71200EF520FE0EACF54FB22
:10477000E9CF53FBEFCF55FBC4DF54CBEAFF53CB5C
:10478000E9FFE92AD8B4EA2AEFD712000B01532D2A
:104790008CD1000E0A01DBB1010E0B01566F000E29
:1047A0000A01DDB1010E0B015611556F000E0A0111
:1047B000D9A1010E0B015517000E0A01D3B1010E4C
:1047C0000B01586F000E0A01D5B1010E0B015811F3
:1047D00055155491E8B05481000E54B1010E556F37
:1047E000000E0A01DBB3010E0B01576F000E0A0128
:1047F000DDB3010E0B015711566F000E0A01D9A34C
:10480000010E0B015617000E0A01D3B3010E0B0166
:10481000596F000E0A01D5B3010E0B01591156153F
:1048200055115491E8B05481000E54B1010E556FEA
:10483000000E0A01DBB5010E0B01576F000E0A01D5
:10484000DDB5010E0B015711566F000E0A01D9A5F7
:10485000010E0B015617000E0A01D3B5010E0B0114
:10486000596F000E0A01D5B5010E0B0159115615ED
:1048700055115491E8B05481000E54B1010E556F9A
:10488000000E0A01DBB7010E0B01576F000E0A0183
:10489000DDB7010E0B015711566F000E0A01D9A7A3
:1048A000010E0B015617000E0A01D3B7010E0B01C2
:1048B000596F000E0A01D5B7010E0B01591156159B
:1048C00055115491E8B05481000E54B1010E556F4A
:1048D000000E0A01DBB9010E0B01576F000E0A0131
:1048E000DDB9010E0B015711566F000E0A01D9A94F
:1048F000010E0B015617000E0A01D3B9010E0B0170
:10490000596F000E0A01D5B9010E0B015911561548
:1049100055115491E8B05481000E54B1010E556FF9
:10492000000E0A01DBBB010E0B01576F000E0A01DE
:10493000DDBB010E0B015711566F000E0A01D9ABFA
:10494000010E0B015617000E0A01D3BB010E0B011D
:10495000596F000E0A01D5BB010E0B0159115615F6
:1049600055115491E8B05481000E54B1010E556FA9
:10497000000E0A01DBBD010E0B01576F000E0A018C
:10498000DDBD010E0B015711566F000E0A01D9ADA6
:10499000010E0B015617000E0A01D3BD010E0B01CB
:1049A000596F000E0A01D5BD010E0B0159115615A4
:1049B00055115491E8B05481000E54B1010E556F59
:1049C000000E0A01DBBF010E0B01576F000E0A013A
:1049D000DDBF010E0B015711566F000E0A01D9AF52
:1049E000010E0B015617000E0A01D3BF010E0B0179
:1049F000596F000E0A01D5BF010E0B015911561552
:104A000055115491E8B05481000E54B1010E556F08
:104A1000000E0A01DCB1010E0B01576F000E0A01F6
:104A2000DEB1010E0B015711566F000E0A01DAA11B
:104A3000010E0B015617000E0A01D4B1010E0B0135
:104A4000596F000E0A01D6B1010E0B01591156150E
:104A500055115491E8B05481000E54B1010E556FB8
:104A6000000E0A01DCB3010E0B01576F000E0A01A4
:104A7000DEB3010E0B015711566F000E0A01DAA3C7
:104A8000010E0B015617000E0A01D4B3010E0B01E3
:104A9000596F000E0A01D6B3010E0B0159115615BC
:104AA00055115491E8B054818FD153510208D8A4C4
:104AB0008BD1000E0A01DBB1010E0B01566F000E07
:104AC0000A01DDB1010E0B015611556F000E0A01EE
:104AD000D9A1010E0B015517000E0A01D3A1010E39
:104AE0000B01586F000E0A01D5B1010E0B015811D0
:104AF00055155491E8B05481000E54B1010E556F14
:104B0000000E0A01DBB3010E0B01576F000E0A0104
:104B1000DDB3010E0B015711566F000E0A01D9A328
:104B2000010E0B015617000E0A01D3A3010E0B0153
:104B3000596F000E0A01D5B3010E0B01591156151C
:104B400055115491E8B05481000E54B1010E556FC7
:104B5000000E0A01DBB5010E0B01576F000E0A01B2
:104B6000DDB5010E0B015711566F000E0A01D9A5D4
:104B7000010E0B015617000E0A01D3A5010E0B0101
:104B8000596F000E0A01D5B5010E0B0159115615CA
:104B900055115491E8B05481000E54B1010E556F77
:104BA000000E0A01DBB7010E0B01576F000E0A0160
:104BB000DDB7010E0B015711566F000E0A01D9A780
:104BC000010E0B015617000E0A01D3A7010E0B01AF
:104BD000596F000E0A01D5B7010E0B015911561578
:104BE00055115491E8B05481000E54B1010E556F27
:104BF000000E0A01DBB9010E0B01576F000E0A010E
:104C0000DDB9010E0B015711566F000E0A01D9A92B
:104C1000010E0B015617000E0A01D3A9010E0B015C
:104C2000596F000E0A01D5B9010E0B015911561525
:104C300055115491E8B05481000E54B1010E556FD6
:104C4000000E0A01DBBB010E0B01576F000E0A01BB
:104C5000DDBB010E0B015711566F000E0A01D9ABD7
:104C6000010E0B015617000E0A01D3AB010E0B010A
:104C7000596F000E0A01D5BB010E0B0159115615D3
:104C800055115491E8B05481000E54B1010E556F86
:104C9000000E0A01DBBD010E0B01576F000E0A0169
:104CA000DDBD010E0B015711566F000E0A01D9AD83
:104CB000010E0B015617000E0A01D3AD010E0B01B8
:104CC000596F000E0A01D5BD010E0B015911561581
:104CD00055115491E8B05481000E54B1010E556F36
:104CE000000E0A01DBBF010E0B01576F000E0A0117
:104CF000DDBF010E0B015711566F000E0A01D9AF2F
:104D0000010E0B015617000E0A01D3AF010E0B0165
:104D1000596F000E0A01D5BF010E0B01591156152E
:104D200055115491E8B05481000E54B1010E556FE5
:104D3000000E0A01DCB1010E0B01576F000E0A01D3
:104D4000DEB1010E0B015711566F000E0A01DAA1F8
:104D5000010E0B015617000E0A01D4A1010E0B0122
:104D6000596F000E0A01D6B1010E0B0159115615EB
:104D700055115491E8B05481000E54B1010E556F95
:104D8000000E0A01DCB3010E0B01576F000E0A0181
:104D9000DEB3010E0B015711566F000E0A01DAA3A4
:104DA000010E0B015617000E0A01D4A3010E0B01D0
:104DB000596F000E0A01D6B3010E0B015911561599
:104DC00055115491E8B05481000E54B1010E016E9A
:104DD000000112000A01D7A17DD0000ECBB1010E57
:104DE0000B01546F000E0A01CFB1010E0B015419D3
:104DF000010803E10A01D1B103D00A01DBA166D0A9
:104E0000D9B163D0DBB107D05E500F0804E1640E66
:104E10001C6E5FC01DF0DB811AB202D0CD9101D0B3
:104E2000CD811AB80ED0D5B105D0898892988986DF
:104E3000929607D0D3A103D08988929802D0898610
:104E40009296E7B142D030B240D0D9B13ED0E80E10
:104E5000F66E050EF76E000177DC0A0E0B01556F3A
:104E600000014FDC0A0E0B01546F0001EEEC03F061
:104E70000A01E781F20EF66E050EF76E000164DCA2
:104E8000090EEA6E7C0EE96E6FDC220E0B01556F87
:104E9000000137DC0A0E0B01556F000132DC320EC7
:104EA0000B01546F0001EEEC03F0090EEA6E8B0E5D
:104EB000E96E5ADC0A0E0B01556F000122DC1A0E56
:104EC0000B01556F00011DDC0A0103D0D1A101D0F7
:104ED000D9915FD0000ECBB1010E0B01546F000EC3
:104EE0000A01CFB1010E0B01541901084EE10A016C
:104EF000CD91E7B148D030B246D0D9B144D0FC0E04
:104F0000F66E050EF76E00011FDC0A0E0B01556FE1
:104F1000000181EC23F00A0E0B01546F0001EEEC4E
:104F200003F00A01E781060EF66E060EF76E000129
:104F30000BDC090EEA6E7C0EE96E16DC220E0B010C
:104F4000556F000181EC23F00A0E0B01556F000133
:104F500081EC23F0320E0B01546F0001EEEC03F0F4
:104F6000090EEA6E8B0EE96EB4EC23F00A0E0B010B
:104F7000556F000181EC23F01A0E0B01556F0001F3
:104F800081EC23F00A0105D00B010A01CD81E791E4
:104F90003092D7A386D0000ECBB3010E0B01546F15
:104FA000000E0A01CFB3010E0B015419010803E1F1
:104FB0000A01D1B303D00A01DBA36FD0D9B36CD0FF
:104FC000DBB307D05E500F0804E1640E1C6E5FC0B7
:104FD0001DF0DB831AB202D0CD9301D0CD831AB875
:104FE0000ED0D5B305D0898892988986929607D03D
:104FF000D3A303D08988929802D089869296E7B38A
:105000004BD030B249D0D9B347D0100EF66E060E51
:10501000F76E0001A4EC23F00A0E0B01556F00019E
:1050200081EC23F00A0E0B01546F0001EEEC03F04B
:105030000A01E7831A0EF66E060EF76E0001A4EC65
:1050400023F0090EEA6E7C0EE96EB4EC23F0220E1A
:105050000B01556F000181EC23F00A0E0B01556F17
:10506000000181EC23F0320E0B01546F0001EEECD5
:1050700003F0090EEA6EAB0EE96EB4EC23F00A0EF3
:105080000B01556F000181EC23F01A0E0B01556FD7
:10509000000181EC23F00A0103D0D1A301D0D99300
:1050A00062D0000ECBB3010E0B01546F000E0A014B
:1050B000CFB3010E0B015419010851E10A01CD9340
:1050C000E7B34BD030B249D0D9B347D0240EF66EF7
:1050D000060EF76E0001A4EC23F00A0E0B01556FCB
:1050E000000181EC23F00A0E0B01546F0001EEEC7D
:1050F00003F00A01E7832E0EF66E060EF76E00012E
:10510000A4EC23F0090EEA6E7C0EE96EB4EC23F0F9
:10511000220E0B01556F000181EC23F00A0E0B01EA
:10512000556F000181EC23F0320E0B01546F00012A
:10513000EEEC03F0090EEA6EAB0EE96EB4EC23F070
:105140000A0E0B01556F000181EC23F01A0E0B01C2
:10515000556F000181EC23F00A0105D00B010A0113
:10516000CD83E7933092D7A586D0000ECBB5010E44
:105170000B01546F000E0A01CFB5010E0B0154193B
:10518000010803E10A01D1B503D00A01DBA56FD004
:10519000D9B56CD0DBB507D05E500F0804E1640EC2
:1051A0001C6E5FC01DF0DB851AB202D0CD9501D018
:1051B000CD851AB80ED0D5B505D089889298898644
:1051C000929607D0D3A503D08988929802D0898679
:1051D0009296E7B54BD030B249D0D9B547D0380E0A
:1051E000F66E060EF76E0001A4EC23F00A0E0B011A
:1051F000556F000181EC23F00A0E0B01546F000182
:10520000EEEC03F00A01E785420EF66E060EF76E2D
:105210000001A4EC23F0090EEA6E7C0EE96EB4ECFA
:1052200023F0220E0B01556F000181EC23F00A0ED2
:105230000B01556F000181EC23F0320E0B01546F0E
:105240000001EEEC03F0090EEA6ECB0EE96EB4EC51
:1052500023F00A0E0B01556F000181EC23F01A0EAA
:105260000B01556F000181EC23F00A0103D0D1A599
:1052700001D0D99562D0000ECBB5010E0B01546F51
:10528000000E0A01CFB5010E0B015419010851E1BE
:105290000A01CD95E7B54BD030B249D0D9B547D04A
:1052A0004C0EF66E060EF76E0001A4EC23F00A0E0B
:1052B0000B01556F000181EC23F00A0E0B01546FB6
:1052C0000001EEEC03F00A01E785560EF66E060EBD
:1052D000F76E0001A4EC23F0090EEA6E7C0EE96E75
:1052E000B4EC23F0220E0B01556F000181EC23F08A
:1052F0000A0E0B01556F000181EC23F0320E0B01F9
:10530000546F0001EEEC03F0090EEA6ECB0EE96E6D
:10531000B4EC23F00A0E0B01556F000181EC23F071
:105320001A0E0B01556F000181EC23F00A0105D024
:105330000B010A01CD85E7993092D7A786D0000EE0
:10534000CBB7010E0B01546F000E0A01CFB7010E4F
:105350000B015419010803E10A01D1B703D00A0176
:10536000DBA76FD0D9B76CD0DBB707D05E500F0882
:1053700004E1640E1C6E5FC01DF0DB871AB202D020
:10538000CD9701D0CD871AB80ED0D5B705D0898872
:1053900092988986929607D0D3A703D0898892984D
:1053A00002D089869296E7B74BD030B249D0D9B7B0
:1053B00047D0600EF66E060EF76E0001A4EC23F0E7
:1053C0000A0E0B01556F000181EC23F00A0E0B0150
:1053D000546F0001EEEC03F00A01E7876A0EF66EE7
:1053E000060EF76E0001A4EC23F0090EEA6E7C0EA7
:1053F000E96EB4EC23F0220E0B01556F000181EC35
:1054000023F00A0E0B01556F000181EC23F0320EE0
:105410000B01546F0001EEEC03F0090EEA6EEB0E87
:10542000E96EB4EC23F00A0E0B01556F000181EC1C
:1054300023F01A0E0B01556F000181EC23F00A01D5
:1054400003D0D1A701D0D99762D0000ECBB7010EFF
:105450000B01546F000E0A01CFB7010E0B01541956
:10546000010851E10A01CD97E7B74BD030B249D0DE
:10547000D9B747D0740EF66E060EF76E0001A4EC95
:1054800023F00A0E0B01556F000181EC23F00A0E88
:105490000B01546F0001EEEC03F00A01E7877E0E6A
:1054A000F66E060EF76E0001A4EC23F0090EEA6E0C
:1054B0007C0EE96EB4EC23F0220E0B01556F000157
:1054C00081EC23F00A0E0B01556F000181EC23F0F3
:1054D000320E0B01546F0001EEEC03F0090EEA6E80
:1054E000EB0EE96EB4EC23F00A0E0B01556F0001D0
:1054F00081EC23F01A0E0B01556F000181EC23F0B3
:105500000A0105D00B010A01CD87E7973092D7A990
:1055100086D0000ECBB9010E0B01546F000E0A01AC
:10552000CFB9010E0B015419010803E10A01D1B9E9
:1055300003D00A01DBA96FD0D9B96CD0DBB907D091
:105540005E500F0804E1640E1C6E5FC01DF0DB8925
:105550001AB202D0CD9901D0CD891AB80ED0D5B9E2
:1055600005D0898892988986929607D0D3A903D0CE
:105570008988929802D089869296E7B94BD030B24A
:1055800049D0D9B947D0880EF66E060EF76E0001E5
:10559000A4EC23F00A0E0B01556F000181EC23F0FF
:1055A0000A0E0B01546F0001EEEC03F00A01E789CB
:1055B000920EF66E060EF76E0001A4EC23F0090EB3
:1055C000EA6E7C0EE96EB4EC23F0220E0B01556FEF
:1055D000000181EC23F00A0E0B01556F000181ECF4
:1055E00023F0320E0B01546F0001EEEC03F00A0EB3
:1055F000EA6E0B0EE96EB4EC23F00A0E0B01556F48
:10560000000181EC23F01A0E0B01556F000181ECB3
:1056100023F00A0103D0D1A901D0D99962D0000E9C
:10562000CBB9010E0B01546F000E0A01CFB9010E68
:105630000B015419010851E10A01CD99E7B94BD08A
:1056400030B249D0D9B947D09C0EF66E060EF76E2F
:105650000001A4EC23F00A0E0B01556F000181EC50
:1056600023F00A0E0B01546F0001EEEC03F00A0167
:10567000E789A60EF66E060EF76E0001A4EC23F085
:10568000090EEA6E7C0EE96EB4EC23F0220E0B01DB
:10569000556F000181EC23F00A0E0B01556F0001DC
:1056A00081EC23F0320E0B01546F0001EEEC03F09D
:1056B0000A0EEA6E0B0EE96EB4EC23F00A0E0B0133
:1056C000556F000181EC23F01A0E0B01556F00019C
:1056D00081EC23F00A0105D00B010A01CD89E7997D
:1056E0003092D7AB86D0000ECBBB010E0B01546FAE
:1056F000000E0A01CFBB010E0B015419010803E192
:105700000A01D1BB03D00A01DBAB6FD0D9BB6CD08F
:10571000DBBB07D05E500F0804E1640E1C6E5FC057
:105720001DF0DB8B1AB202D0CD9B01D0CD8B1AB805
:105730000ED0D5BB05D0898892988986929607D0DD
:10574000D3AB03D08988929802D089869296E7BB22
:105750004BD030B249D0D9BB47D0B00EF66E060E52
:10576000F76E0001A4EC23F00A0E0B01556F000147
:1057700081EC23F00A0E0B01546F0001EEEC03F0F4
:105780000A01E78BBA0EF66E060EF76E0001A4EC66
:1057900023F0090EEA6E7C0EE96EB4EC23F0220EC3
:1057A0000B01556F000181EC23F00A0E0B01556FC0
:1057B000000181EC23F0320E0B01546F0001EEEC7E
:1057C00003F00A0EEA6E2B0EE96EB4EC23F00A0E1B
:1057D0000B01556F000181EC23F01A0E0B01556F80
:1057E000000181EC23F00A0103D0D1AB01D0D99B99
:1057F00062D0000ECBBB010E0B01546F000E0A01EC
:10580000CFBB010E0B015419010851E10A01CD9BD8
:10581000E7BB4BD030B249D0D9BB47D0C40EF66EEF
:10582000060EF76E0001A4EC23F00A0E0B01556F73
:10583000000181EC23F00A0E0B01546F0001EEEC25
:1058400003F00A01E78BCE0EF66E060EF76E00012E
:10585000A4EC23F0090EEA6E7C0EE96EB4EC23F0A2
:10586000220E0B01556F000181EC23F00A0E0B0193
:10587000556F000181EC23F0320E0B01546F0001D3
:10588000EEEC03F00A0EEA6E2B0EE96EB4EC23F098
:105890000A0E0B01556F000181EC23F01A0E0B016B
:1058A000556F000181EC23F00A0105D00B010A01BC
:1058B000CD8BE79B3092D7AD86D0000ECBBD010ECD
:1058C0000B01546F000E0A01CFBD010E0B015419DC
:1058D000010803E10A01D1BD03D00A01DBAD6FD09D
:1058E000D9BD6CD0DBBD07D05E500F0804E1640E5B
:1058F0001C6E5FC01DF0DB8D1AB202D0CD9D01D0B1
:10590000CD8D1AB80ED0D5BD05D0898892988986DC
:10591000929607D0D3AD03D08988929802D0898619
:105920009296E7BD4BD030B249D0D9BD47D0D80E02
:10593000F66E060EF76E0001A4EC23F00A0E0B01C2
:10594000556F000181EC23F00A0E0B01546F00012A
:10595000EEEC03F00A01E78DE20EF66E060EF76E2E
:105960000001A4EC23F0090EEA6E7C0EE96EB4ECA3
:1059700023F0220E0B01556F000181EC23F00A0E7B
:105980000B01556F000181EC23F0320E0B01546FB7
:105990000001EEEC03F00A0EEA6E4B0EE96EB4EC79
:1059A00023F00A0E0B01556F000181EC23F01A0E53
:1059B0000B01556F000181EC23F00A0103D0D1AD3A
:1059C00001D0D99D62D0000ECBBD010E0B01546FEA
:1059D000000E0A01CFBD010E0B015419010851E15F
:1059E0000A01CD9DE7BD4BD030B249D0D9BD47D0DB
:1059F000EC0EF66E060EF76E0001A4EC23F00A0E14
:105A00000B01556F000181EC23F00A0E0B01546F5E
:105A10000001EEEC03F00A01E78DF60EF66E060EBD
:105A2000F76E0001A4EC23F0090EEA6E7C0EE96E1D
:105A3000B4EC23F0220E0B01556F000181EC23F032
:105A40000A0E0B01556F000181EC23F0320E0B01A1
:105A5000546F0001EEEC03F00A0EEA6E4B0EE96E95
:105A6000B4EC23F00A0E0B01556F000181EC23F01A
:105A70001A0E0B01556F000181EC23F00A0105D0CD
:105A80000B010A01CD8DE79D3092D7AF86D0000E75
:105A9000CBBF010E0B01546F000E0A01CFBF010EE8
:105AA0000B015419010803E10A01D1BF03D00A0117
:105AB000DBAF6FD0D9BF6CD0DBBF07D05E500F0813
:105AC00004E1640E1C6E5FC01DF0DB8F1AB202D0C1
:105AD000CD9F01D0CD8F1AB80ED0D5BF05D0898803
